{
  "contractName": "Contest",
  "abi": [
    {
      "anonymous": false,
      "inputs": [
        {
          "indexed": true,
          "internalType": "address",
          "name": "_addr",
          "type": "address"
        }
      ],
      "name": "ContestClosedForParticipation",
      "type": "event"
    },
    {
      "anonymous": false,
      "inputs": [],
      "name": "ContestOpenedForParticipation",
      "type": "event"
    },
    {
      "anonymous": false,
      "inputs": [
        {
          "indexed": false,
          "internalType": "uint8",
          "name": "version",
          "type": "uint8"
        }
      ],
      "name": "Initialized",
      "type": "event"
    },
    {
      "anonymous": false,
      "inputs": [
        {
          "indexed": false,
          "internalType": "uint8",
          "name": "round",
          "type": "uint8"
        }
      ],
      "name": "VotingClosed",
      "type": "event"
    },
    {
      "anonymous": false,
      "inputs": [
        {
          "indexed": false,
          "internalType": "uint8",
          "name": "round",
          "type": "uint8"
        }
      ],
      "name": "VotingOpened",
      "type": "event"
    },
    {
      "anonymous": false,
      "inputs": [
        {
          "indexed": false,
          "internalType": "address",
          "name": "_addr1",
          "type": "address"
        },
        {
          "indexed": false,
          "internalType": "uint256",
          "name": "_votes1",
          "type": "uint256"
        },
        {
          "indexed": false,
          "internalType": "address",
          "name": "_addr2",
          "type": "address"
        },
        {
          "indexed": false,
          "internalType": "uint256",
          "name": "_votes2",
          "type": "uint256"
        },
        {
          "indexed": false,
          "internalType": "address",
          "name": "_winner",
          "type": "address"
        }
      ],
      "name": "WinnerPicked",
      "type": "event"
    },
    {
      "inputs": [],
      "name": "NUM_ALLOWED_PARTICIPANTS",
      "outputs": [
        {
          "internalType": "uint8",
          "name": "",
          "type": "uint8"
        }
      ],
      "stateMutability": "view",
      "type": "function"
    },
    {
      "inputs": [
        {
          "internalType": "address",
          "name": "",
          "type": "address"
        }
      ],
      "name": "contestants",
      "outputs": [
        {
          "internalType": "bytes32",
          "name": "name",
          "type": "bytes32"
        },
        {
          "internalType": "string",
          "name": "bio",
          "type": "string"
        },
        {
          "internalType": "uint8",
          "name": "progressedToRound",
          "type": "uint8"
        }
      ],
      "stateMutability": "view",
      "type": "function"
    },
    {
      "inputs": [],
      "name": "currentRound",
      "outputs": [
        {
          "internalType": "uint8",
          "name": "",
          "type": "uint8"
        }
      ],
      "stateMutability": "view",
      "type": "function"
    },
    {
      "inputs": [],
      "name": "description",
      "outputs": [
        {
          "internalType": "string",
          "name": "",
          "type": "string"
        }
      ],
      "stateMutability": "view",
      "type": "function"
    },
    {
      "inputs": [],
      "name": "fee",
      "outputs": [
        {
          "internalType": "uint256",
          "name": "",
          "type": "uint256"
        }
      ],
      "stateMutability": "view",
      "type": "function"
    },
    {
      "inputs": [],
      "name": "owner",
      "outputs": [
        {
          "internalType": "address",
          "name": "",
          "type": "address"
        }
      ],
      "stateMutability": "view",
      "type": "function"
    },
    {
      "inputs": [],
      "name": "participationOpen",
      "outputs": [
        {
          "internalType": "bool",
          "name": "",
          "type": "bool"
        }
      ],
      "stateMutability": "view",
      "type": "function"
    },
    {
      "inputs": [
        {
          "internalType": "uint256",
          "name": "",
          "type": "uint256"
        },
        {
          "internalType": "uint256",
          "name": "",
          "type": "uint256"
        }
      ],
      "name": "qualifiers",
      "outputs": [
        {
          "internalType": "address",
          "name": "",
          "type": "address"
        }
      ],
      "stateMutability": "view",
      "type": "function"
    },
    {
      "inputs": [],
      "name": "title",
      "outputs": [
        {
          "internalType": "string",
          "name": "",
          "type": "string"
        }
      ],
      "stateMutability": "view",
      "type": "function"
    },
    {
      "inputs": [],
      "name": "votingOpen",
      "outputs": [
        {
          "internalType": "bool",
          "name": "",
          "type": "bool"
        }
      ],
      "stateMutability": "view",
      "type": "function"
    },
    {
      "inputs": [],
      "name": "winner",
      "outputs": [
        {
          "internalType": "address payable",
          "name": "",
          "type": "address"
        }
      ],
      "stateMutability": "view",
      "type": "function"
    },
    {
      "inputs": [
        {
          "internalType": "address",
          "name": "_owner",
          "type": "address"
        },
        {
          "internalType": "string",
          "name": "_title",
          "type": "string"
        },
        {
          "internalType": "string",
          "name": "_description",
          "type": "string"
        },
        {
          "internalType": "uint256",
          "name": "_fee",
          "type": "uint256"
        }
      ],
      "name": "initialize",
      "outputs": [],
      "stateMutability": "nonpayable",
      "type": "function"
    },
    {
      "inputs": [],
      "name": "stopContest",
      "outputs": [],
      "stateMutability": "nonpayable",
      "type": "function"
    },
    {
      "inputs": [],
      "name": "pauseContest",
      "outputs": [],
      "stateMutability": "nonpayable",
      "type": "function"
    },
    {
      "inputs": [],
      "name": "resumeContest",
      "outputs": [],
      "stateMutability": "nonpayable",
      "type": "function"
    },
    {
      "inputs": [],
      "name": "disableParticipation",
      "outputs": [],
      "stateMutability": "nonpayable",
      "type": "function"
    },
    {
      "inputs": [],
      "name": "openVoting",
      "outputs": [],
      "stateMutability": "nonpayable",
      "type": "function"
    },
    {
      "inputs": [],
      "name": "closeVoting",
      "outputs": [],
      "stateMutability": "nonpayable",
      "type": "function"
    },
    {
      "inputs": [
        {
          "internalType": "address",
          "name": "_addr",
          "type": "address"
        },
        {
          "internalType": "uint8",
          "name": "roundNum",
          "type": "uint8"
        }
      ],
      "name": "getContestantVotes",
      "outputs": [
        {
          "internalType": "uint256",
          "name": "",
          "type": "uint256"
        }
      ],
      "stateMutability": "view",
      "type": "function"
    },
    {
      "inputs": [
        {
          "internalType": "bytes32",
          "name": "_name",
          "type": "bytes32"
        },
        {
          "internalType": "string",
          "name": "_performanceLink",
          "type": "string"
        },
        {
          "internalType": "string",
          "name": "_bio",
          "type": "string"
        }
      ],
      "name": "participate",
      "outputs": [],
      "stateMutability": "payable",
      "type": "function"
    },
    {
      "inputs": [
        {
          "internalType": "string",
          "name": "_performanceLink",
          "type": "string"
        }
      ],
      "name": "submitPerformance",
      "outputs": [],
      "stateMutability": "payable",
      "type": "function"
    },
    {
      "inputs": [
        {
          "internalType": "address",
          "name": "_addr",
          "type": "address"
        }
      ],
      "name": "vote",
      "outputs": [],
      "stateMutability": "payable",
      "type": "function"
    },
    {
      "inputs": [],
      "name": "claimReward",
      "outputs": [],
      "stateMutability": "nonpayable",
      "type": "function"
    },
    {
      "inputs": [],
      "name": "getBalance",
      "outputs": [
        {
          "internalType": "uint256",
          "name": "",
          "type": "uint256"
        }
      ],
      "stateMutability": "view",
      "type": "function"
    },
    {
      "inputs": [],
      "name": "getContestDetails",
      "outputs": [
        {
          "internalType": "address",
          "name": "",
          "type": "address"
        },
        {
          "internalType": "string",
          "name": "",
          "type": "string"
        },
        {
          "internalType": "string",
          "name": "",
          "type": "string"
        },
        {
          "internalType": "address",
          "name": "",
          "type": "address"
        },
        {
          "internalType": "uint8",
          "name": "",
          "type": "uint8"
        },
        {
          "internalType": "uint256",
          "name": "",
          "type": "uint256"
        },
        {
          "internalType": "uint256",
          "name": "",
          "type": "uint256"
        },
        {
          "internalType": "bool",
          "name": "",
          "type": "bool"
        },
        {
          "internalType": "bool",
          "name": "",
          "type": "bool"
        },
        {
          "internalType": "address[][]",
          "name": "",
          "type": "address[][]"
        },
        {
          "internalType": "enum Contest.ContestState",
          "name": "",
          "type": "uint8"
        }
      ],
      "stateMutability": "view",
      "type": "function"
    },
    {
      "inputs": [
        {
          "internalType": "address",
          "name": "_addr",
          "type": "address"
        }
      ],
      "name": "getContestantDetails",
      "outputs": [
        {
          "components": [
            {
              "internalType": "bytes32",
              "name": "name",
              "type": "bytes32"
            },
            {
              "internalType": "string",
              "name": "bio",
              "type": "string"
            },
            {
              "internalType": "string[]",
              "name": "performanceLinks",
              "type": "string[]"
            },
            {
              "internalType": "uint256[]",
              "name": "votesReceived",
              "type": "uint256[]"
            },
            {
              "internalType": "uint8",
              "name": "progressedToRound",
              "type": "uint8"
            }
          ],
          "internalType": "struct Contest.Contestant",
          "name": "",
          "type": "tuple"
        },
        {
          "internalType": "address",
          "name": "",
          "type": "address"
        },
        {
          "internalType": "uint8",
          "name": "",
          "type": "uint8"
        },
        {
          "internalType": "bool",
          "name": "",
          "type": "bool"
        }
      ],
      "stateMutability": "view",
      "type": "function"
    }
  ],
  "bytecode": "0x608060405234801561001057600080fd5b50614bd2806100206000396000f3fe6080604052600436106101815760003560e01c80637401a93f116100d1578063b5d4b2ab1161008a578063c631b29211610064578063c631b292146104fc578063ddca3f4314610513578063dfbf53ae1461053e578063e84affa21461056957610181565b8063b5d4b2ab1461048e578063b88a802f146104a5578063bb60cd7a146104bc57610181565b80637401a93f1461039d578063752d0316146103b95780638a19c8bc146103f65780638da5cb5b14610421578063a95824b41461044c578063affc06701461047757610181565b80634d12d4b61161013e5780636513c321116101185780636513c3211461031457806367892ac31461032b5780636dd7d8ea146103565780637284e4161461037257610181565b80634d12d4b614610295578063563df4b3146102be5780636470a639146102d557610181565b806312065fe01461018657806315da2abb146101b15780631d19a7cb146101ee5780632ac59b351461022357806347dae7651461024e5780634a79d50c1461026a575b600080fd5b34801561019257600080fd5b5061019b610580565b6040516101a891906133a9565b60405180910390f35b3480156101bd57600080fd5b506101d860048036038101906101d3919061346f565b610588565b6040516101e591906133a9565b60405180910390f35b3480156101fa57600080fd5b5061020361065a565b60405161021a9b9a99989796959493929190613778565b60405180910390f35b34801561022f57600080fd5b5061023861090b565b6040516102459190613838565b60405180910390f35b610268600480360381019061026391906139be565b610910565b005b34801561027657600080fd5b5061027f610e3f565b60405161028c9190613a49565b60405180910390f35b3480156102a157600080fd5b506102bc60048036038101906102b79190613a97565b610ecd565b005b3480156102ca57600080fd5b506102d3610f8f565b005b3480156102e157600080fd5b506102fc60048036038101906102f79190613b36565b6110ba565b60405161030b93929190613b72565b60405180910390f35b34801561032057600080fd5b50610329611179565b005b34801561033757600080fd5b506103406112ac565b60405161034d9190613bb0565b60405180910390f35b610370600480360381019061036b9190613b36565b6112bf565b005b34801561037e57600080fd5b5061038761172d565b6040516103949190613a49565b60405180910390f35b6103b760048036038101906103b29190613bcb565b6117bb565b005b3480156103c557600080fd5b506103e060048036038101906103db9190613c14565b611ac6565b6040516103ed9190613c54565b60405180910390f35b34801561040257600080fd5b5061040b611b20565b6040516104189190613838565b60405180910390f35b34801561042d57600080fd5b50610436611b33565b6040516104439190613c54565b60405180910390f35b34801561045857600080fd5b50610461611b59565b60405161046e9190613bb0565b60405180910390f35b34801561048357600080fd5b5061048c611b6c565b005b34801561049a57600080fd5b506104a3611d7d565b005b3480156104b157600080fd5b506104ba611eb0565b005b3480156104c857600080fd5b506104e360048036038101906104de9190613b36565b612020565b6040516104f39493929190613edb565b60405180910390f35b34801561050857600080fd5b5061051161236a565b005b34801561051f57600080fd5b50610528612aaa565b60405161053591906133a9565b60405180910390f35b34801561054a57600080fd5b50610553612ab0565b6040516105609190613f48565b60405180910390f35b34801561057557600080fd5b5061057e612ad6565b005b600047905090565b60006001826105979190613f92565b60ff16600660008573ffffffffffffffffffffffffffffffffffffffff1673ffffffffffffffffffffffffffffffffffffffff1681526020019081526020016000206003018054905010156105ef5760009050610654565b600660008473ffffffffffffffffffffffffffffffffffffffff1673ffffffffffffffffffffffffffffffffffffffff1681526020019081526020016000206003018260ff168154811061064657610645613fc9565b5b906000526020600020015490505b92915050565b6000606080600080600080600080606060008060029054906101000a900473ffffffffffffffffffffffffffffffffffffffff1660026003600160009054906101000a900473ffffffffffffffffffffffffffffffffffffffff1660048054600560009054906101000a900460ff16600560029054906101000a900460ff16600560019054906101000a900460ff166007600560039054906101000a900460ff1689805461070790614027565b80601f016020809104026020016040519081016040528092919081815260200182805461073390614027565b80156107805780601f1061075557610100808354040283529160200191610780565b820191906000526020600020905b81548152906001019060200180831161076357829003601f168201915b5050505050995088805461079390614027565b80601f01602080910402602001604051908101604052809291908181526020018280546107bf90614027565b801561080c5780601f106107e15761010080835404028352916020019161080c565b820191906000526020600020905b8154815290600101906020018083116107ef57829003601f168201915b505050505098508460ff16945081805480602002602001604051908101604052809291908181526020016000905b828210156108e2578382906000526020600020018054806020026020016040519081016040528092919081815260200182805480156108ce57602002820191906000526020600020905b8160009054906101000a900473ffffffffffffffffffffffffffffffffffffffff1673ffffffffffffffffffffffffffffffffffffffff1681526020019060010190808311610884575b50505050508152602001906001019061083a565b5050505091509a509a509a509a509a509a509a509a509a509a509a50909192939495969798999a565b600481565b6000600281111561092457610923613701565b5b600560039054906101000a900460ff16600281111561094657610945613701565b5b14610986576040517f08c379a000000000000000000000000000000000000000000000000000000000815260040161097d906140a5565b60405180910390fd5b600560029054906101000a900460ff166109d5576040517f08c379a00000000000000000000000000000000000000000000000000000000081526004016109cc90614111565b60405180910390fd5b6004543414610a19576040517f08c379a0000000000000000000000000000000000000000000000000000000008152600401610a109061417d565b60405180910390fd5b600060029054906101000a900473ffffffffffffffffffffffffffffffffffffffff1673ffffffffffffffffffffffffffffffffffffffff163373ffffffffffffffffffffffffffffffffffffffff161415610aaa576040517f08c379a0000000000000000000000000000000000000000000000000000000008152600401610aa1906141e9565b60405180910390fd5b6000600660003373ffffffffffffffffffffffffffffffffffffffff1673ffffffffffffffffffffffffffffffffffffffff1681526020019081526020016000206001018054610af990614027565b905014610b3b576040517f08c379a0000000000000000000000000000000000000000000000000000000008152600401610b3290614255565b60405180910390fd5b6000602060ff161415610b83576040517f08c379a0000000000000000000000000000000000000000000000000000000008152600401610b7a906142c1565b60405180910390fd5b600082511415610bc8576040517f08c379a0000000000000000000000000000000000000000000000000000000008152600401610bbf9061432d565b60405180910390fd5b600081511415610c0d576040517f08c379a0000000000000000000000000000000000000000000000000000000008152600401610c0490614399565b60405180910390fd5b603c81511115610c52576040517f08c379a0000000000000000000000000000000000000000000000000000000008152600401610c4990614405565b60405180910390fd5b60006007805490501415610ca0576060600781908060018154018082558091505060019003906000526020600020016000909190919091509080519060200190610c9d92919061322e565b50505b6007600081548110610cb557610cb4613fc9565b5b90600052602060002001339080600181540180825580915050600190039060005260206000200160009091909190916101000a81548173ffffffffffffffffffffffffffffffffffffffff021916908373ffffffffffffffffffffffffffffffffffffffff16021790555082600660003373ffffffffffffffffffffffffffffffffffffffff1673ffffffffffffffffffffffffffffffffffffffff16815260200190815260200160002060000181905550600660003373ffffffffffffffffffffffffffffffffffffffff1673ffffffffffffffffffffffffffffffffffffffff16815260200190815260200160002060020182908060018154018082558091505060019003906000526020600020016000909190919091509080519060200190610de29291906132b8565b5080600660003373ffffffffffffffffffffffffffffffffffffffff1673ffffffffffffffffffffffffffffffffffffffff1681526020019081526020016000206001019080519060200190610e399291906132b8565b50505050565b60028054610e4c90614027565b80601f0160208091040260200160405190810160405280929190818152602001828054610e7890614027565b8015610ec55780601f10610e9a57610100808354040283529160200191610ec5565b820191906000526020600020905b815481529060010190602001808311610ea857829003601f168201915b505050505081565b83600060026101000a81548173ffffffffffffffffffffffffffffffffffffffff021916908373ffffffffffffffffffffffffffffffffffffffff1602179055508260029080519060200190610f249291906132b8565b508160039080519060200190610f3b9291906132b8565b50806004819055506001600560026101000a81548160ff0219169083151502179055506000600560036101000a81548160ff02191690836002811115610f8457610f83613701565b5b021790555050505050565b600060029054906101000a900473ffffffffffffffffffffffffffffffffffffffff1673ffffffffffffffffffffffffffffffffffffffff163373ffffffffffffffffffffffffffffffffffffffff161461101f576040517f08c379a000000000000000000000000000000000000000000000000000000000815260040161101690614471565b60405180910390fd5b6000600281111561103357611032613701565b5b600560039054906101000a900460ff16600281111561105557611054613701565b5b14611095576040517f08c379a000000000000000000000000000000000000000000000000000000000815260040161108c906140a5565b60405180910390fd5b6000600560026101000a81548160ff0219169083151502179055506110b8611b6c565b565b60066020528060005260406000206000915090508060000154908060010180546110e390614027565b80601f016020809104026020016040519081016040528092919081815260200182805461110f90614027565b801561115c5780601f106111315761010080835404028352916020019161115c565b820191906000526020600020905b81548152906001019060200180831161113f57829003601f168201915b5050505050908060040160009054906101000a900460ff16905083565b600060029054906101000a900473ffffffffffffffffffffffffffffffffffffffff1673ffffffffffffffffffffffffffffffffffffffff163373ffffffffffffffffffffffffffffffffffffffff1614611209576040517f08c379a000000000000000000000000000000000000000000000000000000000815260040161120090614471565b60405180910390fd5b60028081111561121c5761121b613701565b5b600560039054906101000a900460ff16600281111561123e5761123d613701565b5b141561127f576040517f08c379a0000000000000000000000000000000000000000000000000000000008152600401611276906144dd565b60405180910390fd5b6002600560036101000a81548160ff021916908360028111156112a5576112a4613701565b5b0217905550565b600560029054906101000a900460ff1681565b600060028111156112d3576112d2613701565b5b600560039054906101000a900460ff1660028111156112f5576112f4613701565b5b14611335576040517f08c379a000000000000000000000000000000000000000000000000000000000815260040161132c906140a5565b60405180910390fd5b600560019054906101000a900460ff16611384576040517f08c379a000000000000000000000000000000000000000000000000000000000815260040161137b90614549565b60405180910390fd5b600060029054906101000a900473ffffffffffffffffffffffffffffffffffffffff1673ffffffffffffffffffffffffffffffffffffffff163373ffffffffffffffffffffffffffffffffffffffff161415611415576040517f08c379a000000000000000000000000000000000000000000000000000000000815260040161140c906141e9565b60405180910390fd5b8073ffffffffffffffffffffffffffffffffffffffff163373ffffffffffffffffffffffffffffffffffffffff161415611484576040517f08c379a000000000000000000000000000000000000000000000000000000000815260040161147b906145b5565b60405180910390fd5b6000600660008373ffffffffffffffffffffffffffffffffffffffff1673ffffffffffffffffffffffffffffffffffffffff16815260200190815260200160002060010180546114d390614027565b90501415611516576040517f08c379a000000000000000000000000000000000000000000000000000000000815260040161150d90614621565b60405180910390fd5b600560009054906101000a900460ff1660ff16600660008373ffffffffffffffffffffffffffffffffffffffff1673ffffffffffffffffffffffffffffffffffffffff16815260200190815260200160002060040160009054906101000a900460ff1660ff16146115bc576040517f08c379a00000000000000000000000000000000000000000000000000000000081526004016115b39061468d565b60405180910390fd5b6001600560009054906101000a900460ff166115d89190613f92565b60ff16600660008373ffffffffffffffffffffffffffffffffffffffff1673ffffffffffffffffffffffffffffffffffffffff168152602001908152602001600020600301805490501461169157600660008273ffffffffffffffffffffffffffffffffffffffff1673ffffffffffffffffffffffffffffffffffffffff168152602001908152602001600020600301600090806001815401808255809150506001900390600052602060002001600090919091909150555b60016116ac82600560009054906101000a900460ff16610588565b6116b691906146ad565b600660008373ffffffffffffffffffffffffffffffffffffffff1673ffffffffffffffffffffffffffffffffffffffff168152602001908152602001600020600301600560009054906101000a900460ff1660ff168154811061171c5761171b613fc9565b5b906000526020600020018190555050565b6003805461173a90614027565b80601f016020809104026020016040519081016040528092919081815260200182805461176690614027565b80156117b35780601f10611788576101008083540402835291602001916117b3565b820191906000526020600020905b81548152906001019060200180831161179657829003601f168201915b505050505081565b600060028111156117cf576117ce613701565b5b600560039054906101000a900460ff1660028111156117f1576117f0613701565b5b14611831576040517f08c379a0000000000000000000000000000000000000000000000000000000008152600401611828906140a5565b60405180910390fd5b6000600660003373ffffffffffffffffffffffffffffffffffffffff1673ffffffffffffffffffffffffffffffffffffffff168152602001908152602001600020600101805461188090614027565b905014156118c3576040517f08c379a00000000000000000000000000000000000000000000000000000000081526004016118ba90614621565b60405180910390fd5b600560009054906101000a900460ff1660ff16600660003373ffffffffffffffffffffffffffffffffffffffff1673ffffffffffffffffffffffffffffffffffffffff16815260200190815260200160002060040160009054906101000a900460ff1660ff1614611969576040517f08c379a00000000000000000000000000000000000000000000000000000000081526004016119609061468d565b60405180910390fd5b6000815114156119ae576040517f08c379a00000000000000000000000000000000000000000000000000000000081526004016119a59061474f565b60405180910390fd5b600560009054906101000a900460ff1660ff16600660003373ffffffffffffffffffffffffffffffffffffffff1673ffffffffffffffffffffffffffffffffffffffff1681526020019081526020016000206002018054905014611a47576040517f08c379a0000000000000000000000000000000000000000000000000000000008152600401611a3e906147bb565b60405180910390fd5b600660003373ffffffffffffffffffffffffffffffffffffffff1673ffffffffffffffffffffffffffffffffffffffff16815260200190815260200160002060020181908060018154018082558091505060019003906000526020600020016000909190919091509080519060200190611ac29291906132b8565b5050565b60078281548110611ad657600080fd5b906000526020600020018181548110611aee57600080fd5b906000526020600020016000915091509054906101000a900473ffffffffffffffffffffffffffffffffffffffff1681565b600560009054906101000a900460ff1681565b600060029054906101000a900473ffffffffffffffffffffffffffffffffffffffff1681565b600560019054906101000a900460ff1681565b600060029054906101000a900473ffffffffffffffffffffffffffffffffffffffff1673ffffffffffffffffffffffffffffffffffffffff163373ffffffffffffffffffffffffffffffffffffffff1614611bfc576040517f08c379a0000000000000000000000000000000000000000000000000000000008152600401611bf390614471565b60405180910390fd5b60006002811115611c1057611c0f613701565b5b600560039054906101000a900460ff166002811115611c3257611c31613701565b5b14611c72576040517f08c379a0000000000000000000000000000000000000000000000000000000008152600401611c69906140a5565b60405180910390fd5b600560029054906101000a900460ff1615611cc2576040517f08c379a0000000000000000000000000000000000000000000000000000000008152600401611cb990614827565b60405180910390fd5b60006007600081548110611cd957611cd8613fc9565b5b906000526020600020018054905011611d27576040517f08c379a0000000000000000000000000000000000000000000000000000000008152600401611d1e90614893565b60405180910390fd5b60016007600081548110611d3e57611d3d613fc9565b5b90600052602060002001805490501115611d72576001600560016101000a81548160ff021916908315150217905550611d7b565b611d7a612c09565b5b565b600060029054906101000a900473ffffffffffffffffffffffffffffffffffffffff1673ffffffffffffffffffffffffffffffffffffffff163373ffffffffffffffffffffffffffffffffffffffff1614611e0d576040517f08c379a0000000000000000000000000000000000000000000000000000000008152600401611e0490614471565b60405180910390fd5b60006002811115611e2157611e20613701565b5b600560039054906101000a900460ff166002811115611e4357611e42613701565b5b14611e83576040517f08c379a0000000000000000000000000000000000000000000000000000000008152600401611e7a906140a5565b60405180910390fd5b6001600560036101000a81548160ff02191690836002811115611ea957611ea8613701565b5b0217905550565b600280811115611ec357611ec2613701565b5b600560039054906101000a900460ff166002811115611ee557611ee4613701565b5b14611f25576040517f08c379a0000000000000000000000000000000000000000000000000000000008152600401611f1c906148ff565b60405180910390fd5b600160009054906101000a900473ffffffffffffffffffffffffffffffffffffffff1673ffffffffffffffffffffffffffffffffffffffff163373ffffffffffffffffffffffffffffffffffffffff1614611fb5576040517f08c379a0000000000000000000000000000000000000000000000000000000008152600401611fac9061496b565b60405180910390fd5b600160009054906101000a900473ffffffffffffffffffffffffffffffffffffffff1673ffffffffffffffffffffffffffffffffffffffff166108fc479081150290604051600060405180830381858888f1935050505015801561201d573d6000803e3d6000fd5b50565b61202861333e565b6000806000600660008673ffffffffffffffffffffffffffffffffffffffff1673ffffffffffffffffffffffffffffffffffffffff168152602001908152602001600020600060029054906101000a900473ffffffffffffffffffffffffffffffffffffffff16600560009054906101000a900460ff1660001515600560019054906101000a900460ff16151514806120f55750600060028111156120d0576120cf613701565b5b600560039054906101000a900460ff1660028111156120f2576120f1613701565b5b14155b806121635750600560009054906101000a900460ff1660ff16600660003373ffffffffffffffffffffffffffffffffffffffff1673ffffffffffffffffffffffffffffffffffffffff16815260200190815260200160002060040160009054906101000a900460ff1660ff16105b836040518060a00160405290816000820154815260200160018201805461218990614027565b80601f01602080910402602001604051908101604052809291908181526020018280546121b590614027565b80156122025780601f106121d757610100808354040283529160200191612202565b820191906000526020600020905b8154815290600101906020018083116121e557829003601f168201915b5050505050815260200160028201805480602002602001604051908101604052809291908181526020016000905b828210156122dc57838290600052602060002001805461224f90614027565b80601f016020809104026020016040519081016040528092919081815260200182805461227b90614027565b80156122c85780601f1061229d576101008083540402835291602001916122c8565b820191906000526020600020905b8154815290600101906020018083116122ab57829003601f168201915b505050505081526020019060010190612230565b5050505081526020016003820180548060200260200160405190810160405280929190818152602001828054801561233357602002820191906000526020600020905b81548152602001906001019080831161231f575b505050505081526020016004820160009054906101000a900460ff1660ff1660ff1681525050935093509350935093509193509193565b600060029054906101000a900473ffffffffffffffffffffffffffffffffffffffff1673ffffffffffffffffffffffffffffffffffffffff163373ffffffffffffffffffffffffffffffffffffffff16146123fa576040517f08c379a00000000000000000000000000000000000000000000000000000000081526004016123f190614471565b60405180910390fd5b6000600281111561240e5761240d613701565b5b600560039054906101000a900460ff1660028111156124305761242f613701565b5b14612470576040517f08c379a0000000000000000000000000000000000000000000000000000000008152600401612467906140a5565b60405180910390fd5b600560019054906101000a900460ff166124bf576040517f08c379a00000000000000000000000000000000000000000000000000000000081526004016124b690614549565b60405180910390fd5b600560029054906101000a900460ff161561250f576040517f08c379a000000000000000000000000000000000000000000000000000000000815260040161250690614827565b60405180910390fd5b6000600560016101000a81548160ff0219169083151502179055506002600760008154811061254157612540613fc9565b5b906000526020600020018054905011801561259b57506002600760008154811061256e5761256d613fc9565b5b9060005260206000200180549050612586919061498b565b600560009054906101000a900460ff1660ff16105b15612a9f5760008061262b6007600560009054906101000a900460ff1660ff16815481106125cc576125cb613fc9565b5b906000526020600020018360ff16815481106125eb576125ea613fc9565b5b9060005260206000200160009054906101000a900473ffffffffffffffffffffffffffffffffffffffff16600560009054906101000a900460ff16610588565b90506000600190505b6007600560009054906101000a900460ff1660ff168154811061265a57612659613fc9565b5b90600052602060002001805490508160ff1610156127a157816126fb6007600560009054906101000a900460ff1660ff168154811061269c5761269b613fc9565b5b906000526020600020018360ff16815481106126bb576126ba613fc9565b5b9060005260206000200160009054906101000a900473ffffffffffffffffffffffffffffffffffffffff16600560009054906101000a900460ff16610588565b1161278e576127886007600560009054906101000a900460ff1660ff168154811061272957612728613fc9565b5b906000526020600020018260ff168154811061274857612747613fc9565b5b9060005260206000200160009054906101000a900473ffffffffffffffffffffffffffffffffffffffff16600560009054906101000a900460ff16610588565b91508092505b8080612799906149bf565b915050612634565b5060005b6007600560009054906101000a900460ff1660ff16815481106127cb576127ca613fc9565b5b90600052602060002001805490508160ff161015612a5f578260ff168160ff1614612a4c576001600560009054906101000a900460ff1661280c9190613f92565b60ff166007805490501161285a57606060078190806001815401808255809150506001900390600052602060002001600090919091909150908051906020019061285792919061322e565b50505b60076001600560009054906101000a900460ff166128789190613f92565b60ff168154811061288c5761288b613fc9565b5b906000526020600020016007600560009054906101000a900460ff1660ff16815481106128bc576128bb613fc9565b5b906000526020600020018260ff16815481106128db576128da613fc9565b5b9060005260206000200160009054906101000a900473ffffffffffffffffffffffffffffffffffffffff169080600181540180825580915050600190039060005260206000200160009091909190916101000a81548173ffffffffffffffffffffffffffffffffffffffff021916908373ffffffffffffffffffffffffffffffffffffffff1602179055506001600560009054906101000a900460ff166129829190613f92565b600660006007600560009054906101000a900460ff1660ff16815481106129ac576129ab613fc9565b5b906000526020600020018460ff16815481106129cb576129ca613fc9565b5b9060005260206000200160009054906101000a900473ffffffffffffffffffffffffffffffffffffffff1673ffffffffffffffffffffffffffffffffffffffff1673ffffffffffffffffffffffffffffffffffffffff16815260200190815260200160002060040160006101000a81548160ff021916908360ff1602179055505b8080612a57906149bf565b9150506127a5565b506005600081819054906101000a900460ff1680929190612a7f906149bf565b91906101000a81548160ff021916908360ff160217905550505050612aa8565b612aa7612c09565b5b565b60045481565b600160009054906101000a900473ffffffffffffffffffffffffffffffffffffffff1681565b600060029054906101000a900473ffffffffffffffffffffffffffffffffffffffff1673ffffffffffffffffffffffffffffffffffffffff163373ffffffffffffffffffffffffffffffffffffffff1614612b66576040517f08c379a0000000000000000000000000000000000000000000000000000000008152600401612b5d90614471565b60405180910390fd5b60016002811115612b7a57612b79613701565b5b600560039054906101000a900460ff166002811115612b9c57612b9b613701565b5b14612bdc576040517f08c379a0000000000000000000000000000000000000000000000000000000008152600401612bd390614a35565b60405180910390fd5b6000600560036101000a81548160ff02191690836002811115612c0257612c01613701565b5b0217905550565b60006002811115612c1d57612c1c613701565b5b600560039054906101000a900460ff166002811115612c3f57612c3e613701565b5b14612c7f576040517f08c379a0000000000000000000000000000000000000000000000000000000008152600401612c76906140a5565b60405180910390fd5b60006007600081548110612c9657612c95613fc9565b5b906000526020600020018054905011612ce4576040517f08c379a0000000000000000000000000000000000000000000000000000000008152600401612cdb90614893565b60405180910390fd5b6000600560009054906101000a900460ff1660ff16148015612d28575060016007600081548110612d1857612d17613fc9565b5b9060005260206000200180549050145b15612dcf576007600081548110612d4257612d41613fc9565b5b90600052602060002001600081548110612d5f57612d5e613fc9565b5b9060005260206000200160009054906101000a900473ffffffffffffffffffffffffffffffffffffffff16600160006101000a81548173ffffffffffffffffffffffffffffffffffffffff021916908373ffffffffffffffffffffffffffffffffffffffff160217905550613201565b60008060005b600560009054906101000a900460ff1660ff168160ff1611612f5857612e686007600560009054906101000a900460ff1660ff1681548110612e1a57612e19613fc9565b5b90600052602060002001600081548110612e3757612e36613fc9565b5b9060005260206000200160009054906101000a900473ffffffffffffffffffffffffffffffffffffffff1682610588565b600182612e759190613f92565b6002612e819190614a55565b60ff16612e8e9190614a90565b83612e9991906146ad565b9250612f126007600560009054906101000a900460ff1660ff1681548110612ec457612ec3613fc9565b5b90600052602060002001600181548110612ee157612ee0613fc9565b5b9060005260206000200160009054906101000a900473ffffffffffffffffffffffffffffffffffffffff1682610588565b600182612f1f9190613f92565b6002612f2b9190614a55565b60ff16612f389190614a90565b82612f4391906146ad565b91508080612f50906149bf565b915050612dd5565b5081811115613014576007600560009054906101000a900460ff1660ff1681548110612f8757612f86613fc9565b5b90600052602060002001600181548110612fa457612fa3613fc9565b5b9060005260206000200160009054906101000a900473ffffffffffffffffffffffffffffffffffffffff16600160006101000a81548173ffffffffffffffffffffffffffffffffffffffff021916908373ffffffffffffffffffffffffffffffffffffffff1602179055506130c3565b6007600560009054906101000a900460ff1660ff168154811061303a57613039613fc9565b5b9060005260206000200160008154811061305757613056613fc9565b5b9060005260206000200160009054906101000a900473ffffffffffffffffffffffffffffffffffffffff16600160006101000a81548173ffffffffffffffffffffffffffffffffffffffff021916908373ffffffffffffffffffffffffffffffffffffffff1602179055505b7fd9c870fb6a3c7dfe2f959c208b16e0871ea3a696f22aa94222800cae6e9718466007600560009054906101000a900460ff1660ff168154811061310a57613109613fc9565b5b9060005260206000200160008154811061312757613126613fc9565b5b9060005260206000200160009054906101000a900473ffffffffffffffffffffffffffffffffffffffff16836007600560009054906101000a900460ff1660ff168154811061317957613178613fc9565b5b9060005260206000200160018154811061319657613195613fc9565b5b9060005260206000200160009054906101000a900473ffffffffffffffffffffffffffffffffffffffff1684600160009054906101000a900473ffffffffffffffffffffffffffffffffffffffff166040516131f6959493929190614b49565b60405180910390a150505b6002600560036101000a81548160ff0219169083600281111561322757613226613701565b5b0217905550565b8280548282559060005260206000209081019282156132a7579160200282015b828111156132a65782518260006101000a81548173ffffffffffffffffffffffffffffffffffffffff021916908373ffffffffffffffffffffffffffffffffffffffff1602179055509160200191906001019061324e565b5b5090506132b49190613373565b5090565b8280546132c490614027565b90600052602060002090601f0160209004810192826132e6576000855561332d565b82601f106132ff57805160ff191683800117855561332d565b8280016001018555821561332d579182015b8281111561332c578251825591602001919060010190613311565b5b50905061333a9190613373565b5090565b6040518060a0016040528060008019168152602001606081526020016060815260200160608152602001600060ff1681525090565b5b8082111561338c576000816000905550600101613374565b5090565b6000819050919050565b6133a381613390565b82525050565b60006020820190506133be600083018461339a565b92915050565b6000604051905090565b600080fd5b600080fd5b600073ffffffffffffffffffffffffffffffffffffffff82169050919050565b6000613403826133d8565b9050919050565b613413816133f8565b811461341e57600080fd5b50565b6000813590506134308161340a565b92915050565b600060ff82169050919050565b61344c81613436565b811461345757600080fd5b50565b60008135905061346981613443565b92915050565b60008060408385031215613486576134856133ce565b5b600061349485828601613421565b92505060206134a58582860161345a565b9150509250929050565b6134b8816133f8565b82525050565b600081519050919050565b600082825260208201905092915050565b60005b838110156134f85780820151818401526020810190506134dd565b83811115613507576000848401525b50505050565b6000601f19601f8301169050919050565b6000613529826134be565b61353381856134c9565b93506135438185602086016134da565b61354c8161350d565b840191505092915050565b61356081613436565b82525050565b60008115159050919050565b61357b81613566565b82525050565b600081519050919050565b600082825260208201905092915050565b6000819050602082019050919050565b600081519050919050565b600082825260208201905092915050565b6000819050602082019050919050565b6135e2816133f8565b82525050565b60006135f483836135d9565b60208301905092915050565b6000602082019050919050565b6000613618826135ad565b61362281856135b8565b935061362d836135c9565b8060005b8381101561365e57815161364588826135e8565b975061365083613600565b925050600181019050613631565b5085935050505092915050565b6000613677838361360d565b905092915050565b6000602082019050919050565b600061369782613581565b6136a1818561358c565b9350836020820285016136b38561359d565b8060005b858110156136ef57848403895281516136d0858261366b565b94506136db8361367f565b925060208a019950506001810190506136b7565b50829750879550505050505092915050565b7f4e487b7100000000000000000000000000000000000000000000000000000000600052602160045260246000fd5b6003811061374157613740613701565b5b50565b600081905061375282613730565b919050565b600061376282613744565b9050919050565b61377281613757565b82525050565b60006101608201905061378e600083018e6134af565b81810360208301526137a0818d61351e565b905081810360408301526137b4818c61351e565b90506137c3606083018b6134af565b6137d0608083018a613557565b6137dd60a083018961339a565b6137ea60c083018861339a565b6137f760e0830187613572565b613805610100830186613572565b818103610120830152613818818561368c565b9050613828610140830184613769565b9c9b505050505050505050505050565b600060208201905061384d6000830184613557565b92915050565b6000819050919050565b61386681613853565b811461387157600080fd5b50565b6000813590506138838161385d565b92915050565b600080fd5b600080fd5b7f4e487b7100000000000000000000000000000000000000000000000000000000600052604160045260246000fd5b6138cb8261350d565b810181811067ffffffffffffffff821117156138ea576138e9613893565b5b80604052505050565b60006138fd6133c4565b905061390982826138c2565b919050565b600067ffffffffffffffff82111561392957613928613893565b5b6139328261350d565b9050602081019050919050565b82818337600083830152505050565b600061396161395c8461390e565b6138f3565b90508281526020810184848401111561397d5761397c61388e565b5b61398884828561393f565b509392505050565b600082601f8301126139a5576139a4613889565b5b81356139b584826020860161394e565b91505092915050565b6000806000606084860312156139d7576139d66133ce565b5b60006139e586828701613874565b935050602084013567ffffffffffffffff811115613a0657613a056133d3565b5b613a1286828701613990565b925050604084013567ffffffffffffffff811115613a3357613a326133d3565b5b613a3f86828701613990565b9150509250925092565b60006020820190508181036000830152613a63818461351e565b905092915050565b613a7481613390565b8114613a7f57600080fd5b50565b600081359050613a9181613a6b565b92915050565b60008060008060808587031215613ab157613ab06133ce565b5b6000613abf87828801613421565b945050602085013567ffffffffffffffff811115613ae057613adf6133d3565b5b613aec87828801613990565b935050604085013567ffffffffffffffff811115613b0d57613b0c6133d3565b5b613b1987828801613990565b9250506060613b2a87828801613a82565b91505092959194509250565b600060208284031215613b4c57613b4b6133ce565b5b6000613b5a84828501613421565b91505092915050565b613b6c81613853565b82525050565b6000606082019050613b876000830186613b63565b8181036020830152613b99818561351e565b9050613ba86040830184613557565b949350505050565b6000602082019050613bc56000830184613572565b92915050565b600060208284031215613be157613be06133ce565b5b600082013567ffffffffffffffff811115613bff57613bfe6133d3565b5b613c0b84828501613990565b91505092915050565b60008060408385031215613c2b57613c2a6133ce565b5b6000613c3985828601613a82565b9250506020613c4a85828601613a82565b9150509250929050565b6000602082019050613c6960008301846134af565b92915050565b613c7881613853565b82525050565b600082825260208201905092915050565b6000613c9a826134be565b613ca48185613c7e565b9350613cb48185602086016134da565b613cbd8161350d565b840191505092915050565b600081519050919050565b600082825260208201905092915050565b6000819050602082019050919050565b6000613d008383613c8f565b905092915050565b6000602082019050919050565b6000613d2082613cc8565b613d2a8185613cd3565b935083602082028501613d3c85613ce4565b8060005b85811015613d785784840389528151613d598582613cf4565b9450613d6483613d08565b925060208a01995050600181019050613d40565b50829750879550505050505092915050565b600081519050919050565b600082825260208201905092915050565b6000819050602082019050919050565b613dbf81613390565b82525050565b6000613dd18383613db6565b60208301905092915050565b6000602082019050919050565b6000613df582613d8a565b613dff8185613d95565b9350613e0a83613da6565b8060005b83811015613e3b578151613e228882613dc5565b9750613e2d83613ddd565b925050600181019050613e0e565b5085935050505092915050565b613e5181613436565b82525050565b600060a083016000830151613e6f6000860182613c6f565b5060208301518482036020860152613e878282613c8f565b91505060408301518482036040860152613ea18282613d15565b91505060608301518482036060860152613ebb8282613dea565b9150506080830151613ed06080860182613e48565b508091505092915050565b60006080820190508181036000830152613ef58187613e57565b9050613f0460208301866134af565b613f116040830185613557565b613f1e6060830184613572565b95945050505050565b6000613f32826133d8565b9050919050565b613f4281613f27565b82525050565b6000602082019050613f5d6000830184613f39565b92915050565b7f4e487b7100000000000000000000000000000000000000000000000000000000600052601160045260246000fd5b6000613f9d82613436565b9150613fa883613436565b92508260ff03821115613fbe57613fbd613f63565b5b828201905092915050565b7f4e487b7100000000000000000000000000000000000000000000000000000000600052603260045260246000fd5b7f4e487b7100000000000000000000000000000000000000000000000000000000600052602260045260246000fd5b6000600282049050600182168061403f57607f821691505b6020821081141561405357614052613ff8565b5b50919050565b7f5f5f5f4e4f545f52554e4e494e475f5f5f000000000000000000000000000000600082015250565b600061408f6011836134c9565b915061409a82614059565b602082019050919050565b600060208201905081810360008301526140be81614082565b9050919050565b7f5f5f5f50415254494349504154494f4e5f434c4f5345445f5f5f000000000000600082015250565b60006140fb601a836134c9565b9150614106826140c5565b602082019050919050565b6000602082019050818103600083015261412a816140ee565b9050919050565b7f5f5f5f4645455f5f5f0000000000000000000000000000000000000000000000600082015250565b60006141676009836134c9565b915061417282614131565b602082019050919050565b600060208201905081810360008301526141968161415a565b9050919050565b7f5f5f5f4e4f5f41444d494e5f5f5f000000000000000000000000000000000000600082015250565b60006141d3600e836134c9565b91506141de8261419d565b602082019050919050565b60006020820190508181036000830152614202816141c6565b9050919050565b7f5f5f5f4558495354494e475f5f5f000000000000000000000000000000000000600082015250565b600061423f600e836134c9565b915061424a82614209565b602082019050919050565b6000602082019050818103600083015261426e81614232565b9050919050565b7f5f5f5f454d5054595f4e414d455f5f5f00000000000000000000000000000000600082015250565b60006142ab6010836134c9565b91506142b682614275565b602082019050919050565b600060208201905081810360008301526142da8161429e565b9050919050565b7f5f5f5f454d4f54595f4c494e4b5f5f5f00000000000000000000000000000000600082015250565b60006143176010836134c9565b9150614322826142e1565b602082019050919050565b600060208201905081810360008301526143468161430a565b9050919050565b7f5f5f5f454d5054595f42494f5f5f5f0000000000000000000000000000000000600082015250565b6000614383600f836134c9565b915061438e8261434d565b602082019050919050565b600060208201905081810360008301526143b281614376565b9050919050565b7f5f5f5f4c4f4e475f42494f5f5f5f000000000000000000000000000000000000600082015250565b60006143ef600e836134c9565b91506143fa826143b9565b602082019050919050565b6000602082019050818103600083015261441e816143e2565b9050919050565b7f5f5f5f4f4e4c595f4f574e45525f5f5f00000000000000000000000000000000600082015250565b600061445b6010836134c9565b915061446682614425565b602082019050919050565b6000602082019050818103600083015261448a8161444e565b9050919050565b7f5f5f5f46494e49534845445f5f5f000000000000000000000000000000000000600082015250565b60006144c7600e836134c9565b91506144d282614491565b602082019050919050565b600060208201905081810360008301526144f6816144ba565b9050919050565b7f5f5f5f564f54494e475f434c4f5345445f5f5f00000000000000000000000000600082015250565b60006145336013836134c9565b915061453e826144fd565b602082019050919050565b6000602082019050818103600083015261456281614526565b9050919050565b7f5f5f5f4e4f5f53454c465f5f5f00000000000000000000000000000000000000600082015250565b600061459f600d836134c9565b91506145aa82614569565b602082019050919050565b600060208201905081810360008301526145ce81614592565b9050919050565b7f5f5f5f494e56414c49445f434f4e54455354414e545f5f5f0000000000000000600082015250565b600061460b6018836134c9565b9150614616826145d5565b602082019050919050565b6000602082019050818103600083015261463a816145fe565b9050919050565b7f5f5f5f454c494d494e415445445f5f5f00000000000000000000000000000000600082015250565b60006146776010836134c9565b915061468282614641565b602082019050919050565b600060208201905081810360008301526146a68161466a565b9050919050565b60006146b882613390565b91506146c383613390565b9250827fffffffffffffffffffffffffffffffffffffffffffffffffffffffffffffffff038211156146f8576146f7613f63565b5b828201905092915050565b7f5f5f5f454d5054595f4c494e4b5f5f5f00000000000000000000000000000000600082015250565b60006147396010836134c9565b915061474482614703565b602082019050919050565b600060208201905081810360008301526147688161472c565b9050919050565b7f5f5f5f5355424d49545445445f5f5f0000000000000000000000000000000000600082015250565b60006147a5600f836134c9565b91506147b08261476f565b602082019050919050565b600060208201905081810360008301526147d481614798565b9050919050565b7f5f5f5f50415254494349504154494f4e5f4f50454e5f5f5f0000000000000000600082015250565b60006148116018836134c9565b915061481c826147db565b602082019050919050565b6000602082019050818103600083015261484081614804565b9050919050565b7f5f5f5f4e4f5f434f4e54455354414e54535f5f5f000000000000000000000000600082015250565b600061487d6014836134c9565b915061488882614847565b602082019050919050565b600060208201905081810360008301526148ac81614870565b9050919050565b7f5f5f5f4e4f545f46494e49534845445f5f5f0000000000000000000000000000600082015250565b60006148e96012836134c9565b91506148f4826148b3565b602082019050919050565b60006020820190508181036000830152614918816148dc565b9050919050565b7f5f5f5f4e4f545f57494e4e45525f5f5f00000000000000000000000000000000600082015250565b60006149556010836134c9565b91506149608261491f565b602082019050919050565b6000602082019050818103600083015261498481614948565b9050919050565b600061499682613390565b91506149a183613390565b9250828210156149b4576149b3613f63565b5b828203905092915050565b60006149ca82613436565b915060ff8214156149de576149dd613f63565b5b600182019050919050565b7f5f5f5f4e4f545f5041555345445f5f5f00000000000000000000000000000000600082015250565b6000614a1f6010836134c9565b9150614a2a826149e9565b602082019050919050565b60006020820190508181036000830152614a4e81614a12565b9050919050565b6000614a6082613436565b9150614a6b83613436565b92508160ff0483118215151615614a8557614a84613f63565b5b828202905092915050565b6000614a9b82613390565b9150614aa683613390565b9250817fffffffffffffffffffffffffffffffffffffffffffffffffffffffffffffffff0483118215151615614adf57614ade613f63565b5b828202905092915050565b6000819050919050565b6000614b0f614b0a614b05846133d8565b614aea565b6133d8565b9050919050565b6000614b2182614af4565b9050919050565b6000614b3382614b16565b9050919050565b614b4381614b28565b82525050565b600060a082019050614b5e60008301886134af565b614b6b602083018761339a565b614b7860408301866134af565b614b85606083018561339a565b614b926080830184614b3a565b969550505050505056fea26469706673582212204c528d72180ec3dcb2562d71a81cafd8bd1c4b2dc8881c821a847fbc517c557664736f6c634300080a0033",
  "immutableReferences": {},
  "source": "//SPDX-License-Identifier: MIT\npragma solidity 0.8.10;\nimport \"@openzeppelin/contracts/proxy/utils/Initializable.sol\";\n\ncontract Contest is Initializable {\n    address public owner;\n    address payable public winner;\n    string public title;\n    string public description;\n\n    uint8 public constant NUM_ALLOWED_PARTICIPANTS = 4;\n    uint256 public fee;\n    uint8 public currentRound;\n\n    bool public votingOpen;\n    bool public participationOpen;\n\n    enum ContestState {\n        RUNNING,\n        PAUSED,\n        FINISHED\n    }\n    ContestState state;\n\n    struct Contestant {\n        bytes32 name;\n        string bio;\n        string[] performanceLinks;\n        uint256[] votesReceived;\n        uint8 progressedToRound;\n    }\n    mapping(address => Contestant) public contestants;\n    //address[][NUM_ALLOWED_PARTICIPANTS] public qualifiers;\n    address[][] public qualifiers;\n\n    // Fired to signal that the contest is open for participation\n    event ContestOpenedForParticipation();\n\n    /*\n     * Fired once the number of participants = 4.\n     * Signals that the contest is closed for participation\n     */\n    event ContestClosedForParticipation(address indexed _addr);\n\n    // Voting opened for a round\n    event VotingOpened(uint8 round);\n\n    // Voting closed for a round\n    event VotingClosed(uint8 round);\n\n    // Winner picked\n    event WinnerPicked(address _addr1, uint256 _votes1, address _addr2, uint256 _votes2, address _winner);\n\n    function initialize(\n        address _owner,\n        string memory _title,\n        string memory _description,\n        uint256 _fee\n    ) external {\n        //__ERC721_init(_name, _symbol);\n        owner = _owner;\n        title = _title;\n        description = _description;\n        fee = _fee;\n        participationOpen = true;\n        state = ContestState.RUNNING;\n    }\n\n    modifier isOwner() {\n        require(msg.sender == owner, \"___ONLY_OWNER___\");\n        _;\n    }\n\n    modifier isRunning() {\n        require(state == ContestState.RUNNING, \"___NOT_RUNNING___\");\n        _;\n    }\n\n    modifier isPaused() {\n        require(state == ContestState.PAUSED, \"___NOT_PAUSED___\");\n        _;\n    }\n\n    function stopContest() public isOwner {\n        require(state != ContestState.FINISHED, \"___FINISHED___\");\n        state = ContestState.FINISHED;\n    }\n\n    function pauseContest() public isOwner isRunning {\n        state = ContestState.PAUSED;\n    }\n\n    function resumeContest() public isOwner isPaused {\n        state = ContestState.RUNNING;\n    }\n\n    /*function enableParticipation() public isOwner isRunning {\n        participationOpen = true;\n    }*/\n\n    function disableParticipation() public isOwner isRunning {\n        participationOpen = false;\n        //votingOpen = true;\n        openVoting();\n    }\n\n    function openVoting() public isOwner isRunning {\n        require(!participationOpen, \"___PARTICIPATION_OPEN___\");\n        //require( qualifiers[0].length == NUM_ALLOWED_PARTICIPANTS, \"Not enough participants\" );\n        require(qualifiers[0].length > 0, \"___NO_CONTESTANTS___\");\n        if (qualifiers[0].length > 1) {\n            votingOpen = true;\n        } else {\n            pickWinner();\n        }\n    }\n\n    function closeVoting() public isOwner isRunning {\n        require(votingOpen, \"___VOTING_CLOSED___\");\n        require(!participationOpen, \"___PARTICIPATION_OPEN___\");\n        votingOpen = false;\n\n        /*\n         * Max. Rounds = NUM_ALLOWED_PARTICIPANTS - 1\n         * So, for 4 participants, max rounds = 3 => R0, R1, R2\n         * So, we count votes of the current round and eliminate\n         * the person with the lowest votes.\n         * Except for the Final Round.\n         * For final round, we have an algorthm that takes into\n         * consideration weighted votes from all the rounds.\n         */\n        //uint8 total_rounds = NUM_ALLOWED_PARTICIPANTS - 1;\n\n        //if (currentRound < total_rounds - 1) {\n        if (\n            (qualifiers[0].length > 2) &&\n            (currentRound < qualifiers[0].length - 2)\n        ) {\n            uint8 tmpCId = 0;\n            //uint256 tmpLowestVotes = contestants[ qualifiers[currentRound][tmpCId] ].votesReceived[currentRound];\n            uint256 tmpLowestVotes = getContestantVotes(qualifiers[currentRound][tmpCId], currentRound);\n\n            for (uint8 i = 1; i < qualifiers[currentRound].length; i++) {\n                //TODO: Right now, I haven't accounted for a scenario when 2 contestants\n                // have equal scores. So, using <= instead of < , for now\n                //if ( contestants[qualifiers[currentRound][i]].votesReceived[ currentRound ] <= tmpLowestVotes ) {\n                if ( getContestantVotes(qualifiers[currentRound][i], currentRound) <= tmpLowestVotes ) {\n                    //tmpLowestVotes = contestants[qualifiers[currentRound][i]] .votesReceived[currentRound];\n                    tmpLowestVotes = getContestantVotes(qualifiers[currentRound][i], currentRound);\n                    tmpCId = i;\n                }\n            }\n\n            for (uint8 i = 0; i < qualifiers[currentRound].length; i++) {\n                //Skip the one with the lowest votes\n                if (i != tmpCId) {\n                    //if (qualifiers[currentRound + 1].length == 0) {\n                    if (qualifiers.length <= currentRound + 1) {\n                        address[] memory a;\n                        qualifiers.push(a);\n                    }\n\n                    qualifiers[currentRound + 1].push( qualifiers[currentRound][i] );\n                    \n                    contestants[qualifiers[currentRound][i]].progressedToRound = currentRound + 1;\n                }\n            }\n            currentRound++;\n        } else {\n            pickWinner();\n        }\n    }\n\n    function pickWinner() private isRunning {\n        /*\n         * For final score, we use weighted scores of all the roundsWeighted\n         * final score = 60% x final (3rd) Round + 30% x 2nd round + 10% x 1st round\n         */\n        /*uint256[4] storage finalistOneAllVotes = contestants[qualifiers[2][0]].votesReceived;\n        uint256 finalistOneFinalScore = 60 * finalistOneAllVotes[2] + 30 * finalistOneAllVotes[1] + 10 * finalistOneAllVotes[0];\n\n        uint256[4] storage finalistTwoAllVotes = contestants[qualifiers[2][1]].votesReceived;\n        uint256 finalistTwoFinalScore = 60 * finalistTwoAllVotes[2] + 30 * finalistTwoAllVotes[1] + 10 * finalistTwoAllVotes[0];*/\n\n        require(qualifiers[0].length > 0, \"___NO_CONTESTANTS___\");\n\n        if (currentRound == 0 && qualifiers[0].length == 1) {\n            winner = payable(qualifiers[0][0]);\n        } else {\n            uint256 finalistOneFinalScore = 0;\n            uint256 finalistTwoFinalScore = 0;\n            for (uint8 i = 0; i <= currentRound; i++) {\n                //finalistOneFinalScore += 2 * i * contestants[qualifiers[currentRound][0]].votesReceived[i];\n                finalistOneFinalScore += 2 * (i + 1) * getContestantVotes(qualifiers[currentRound][0], i);\n                //finalistTwoFinalScore += 2 * i * contestants[qualifiers[currentRound][1]].votesReceived[i];\n                finalistTwoFinalScore += 2 * (i + 1)* getContestantVotes(qualifiers[currentRound][1], i);\n            }\n\n            if (finalistTwoFinalScore > finalistOneFinalScore) {\n                winner = payable(qualifiers[currentRound][1]);\n            } else {\n                winner = payable(qualifiers[currentRound][0]);\n            }\n            emit WinnerPicked(qualifiers[currentRound][0], finalistOneFinalScore, qualifiers[currentRound][1], finalistTwoFinalScore, winner);\n        }\n        state = ContestState.FINISHED;\n    }\n\n    function getContestantVotes(address _addr, uint8 roundNum) public view returns (uint256) {\n        if(contestants[_addr].votesReceived.length < roundNum + 1) {\n            return 0;\n            //return 11;\n        }\n        else {\n            return contestants[_addr].votesReceived[roundNum];\n            //return 7;\n        }\n    }\n\n    function uint2str(uint256 _i)\n        internal\n        pure\n        returns (string memory _uintAsString)\n    {\n        if (_i == 0) {\n            return \"0\";\n        }\n        uint256 j = _i;\n        uint256 len;\n        while (j != 0) {\n            len++;\n            j /= 10;\n        }\n        bytes memory bstr = new bytes(len);\n        uint256 k = len;\n        while (_i != 0) {\n            k = k - 1;\n            uint8 temp = (48 + uint8(_i - (_i / 10) * 10));\n            bytes1 b1 = bytes1(temp);\n            bstr[k] = b1;\n            _i /= 10;\n        }\n        return string(bstr);\n    }\n\n    function participate(\n        bytes32 _name,\n        string memory _performanceLink,\n        string memory _bio\n    ) public payable isRunning {\n        require(participationOpen, \"___PARTICIPATION_CLOSED___\");\n        require(msg.value == fee, \"___FEE___\");\n        require(msg.sender != owner, \"___NO_ADMIN___\");\n        require(\n            bytes(contestants[msg.sender].bio).length == 0,\n            \"___EXISTING___\"\n        );\n        //require( qualifiers[0].length < NUM_ALLOWED_PARTICIPANTS, \"Maximum participants reached\" );\n        require(_name.length != 0, \"___EMPTY_NAME___\");\n        require(bytes(_performanceLink).length != 0, \"___EMOTY_LINK___\");\n        require(bytes(_bio).length != 0, \"___EMPTY_BIO___\");\n        require(bytes(_bio).length <= 60, \"___LONG_BIO___\");\n\n        if (qualifiers.length == 0) {\n            address[] memory a;\n            qualifiers.push(a);\n        }\n        qualifiers[0].push(msg.sender);\n        contestants[msg.sender].name = _name;\n        //contestants[msg.sender].performanceLinks[currentRound] = _performanceLink;\n        contestants[msg.sender].performanceLinks.push(_performanceLink);\n        contestants[msg.sender].bio = _bio;\n\n        /*\n         * If we have reached NUM_ALLOWED_PARTICIPANTS contestants now,\n         * disable further participantion and notify the UI\n         */\n        /*if (qualifiers[0].length == NUM_ALLOWED_PARTICIPANTS) {\n            participationOpen = false;\n            emit ContestClosedForParticipation(msg.sender);\n        }*/\n    }\n\n    function submitPerformance(string memory _performanceLink)\n        public\n        payable\n        isRunning\n    {\n        //require(participationOpen, \"___PARTICIPATION_CLOSED___\");\n        //require( qualifiers[0].length < NUM_ALLOWED_PARTICIPANTS, \"Maximum participants reached\" );\n        require(\n            bytes(contestants[msg.sender].bio).length != 0,\n            \"___INVALID_CONTESTANT___\"\n        );\n        require(\n            contestants[msg.sender].progressedToRound == currentRound,\n            \"___ELIMINATED___\"\n        );\n        require(bytes(_performanceLink).length != 0, \"___EMPTY_LINK___\");\n        require(\n            contestants[msg.sender].performanceLinks.length == currentRound,\n            \"___SUBMITTED___\"\n        );\n\n        //contestants[msg.sender].performanceLinks[currentRound] = _performanceLink;\n        contestants[msg.sender].performanceLinks.push(_performanceLink);\n    }\n\n    function vote(address _addr) public payable isRunning {\n        require(votingOpen, \"___VOTING_CLOSED___\");\n        require(msg.sender != owner, \"___NO_ADMIN___\");\n        require(msg.sender != _addr, \"___NO_SELF___\");\n        require(\n            bytes(contestants[_addr].bio).length != 0,\n            \"___INVALID_CONTESTANT___\"\n        );\n        require(\n            contestants[_addr].progressedToRound == currentRound,\n            \"___ELIMINATED___\"\n        );\n        //also check whether the contestant has advanced to this round or not\n        //contestants[_addr].votesReceived[currentRound] += 1;\n        if (contestants[_addr].votesReceived.length != currentRound + 1) {\n            contestants[_addr].votesReceived.push(0);\n        }\n        contestants[_addr].votesReceived[currentRound] = getContestantVotes(_addr, currentRound) + 1;\n    }\n\n    function claimReward() public {\n        require(state == ContestState.FINISHED, \"___NOT_FINISHED___\");\n        require(msg.sender == winner, \"___NOT_WINNER___\");\n        winner.transfer(address(this).balance);\n    }\n\n    function getBalance() public view returns (uint256) {\n        return address(this).balance;\n    }\n\n    function getContestDetails()\n        public\n        view\n        returns (\n            address,\n            string memory,\n            string memory,\n            address,\n            uint8,\n            uint256,\n            uint256,\n            bool,\n            bool,\n            //address[][NUM_ALLOWED_PARTICIPANTS] memory,\n            address[][] memory,\n            ContestState\n        )\n    {\n        return (\n            owner,\n            title,\n            description,\n            winner,\n            NUM_ALLOWED_PARTICIPANTS,\n            fee,\n            currentRound,\n            participationOpen,\n            votingOpen,\n            qualifiers,\n            state\n        );\n    }\n\n    function getContestantDetails(address _addr)\n        public\n        view\n        returns (\n            Contestant memory,\n            address,\n            uint8,\n            bool\n        )\n    {\n        return (\n            contestants[_addr],\n            owner,\n            currentRound,\n            (\n                votingOpen == false || state != ContestState.RUNNING || \n                (contestants[msg.sender].progressedToRound < currentRound)\n            )\n        );\n    }\n}\n",
  "sourcePath": "/home/shariqkhanfreelancer/Workspace/BLOCKCHAIN/Solidity/BlockStar/contracts/Contest.sol",
  "compiler": {
    "name": "solc",
    "version": "0.8.10+commit.fc410830.Emscripten.clang"
  },
  "schemaVersion": "3.4.7",
  "updatedAt": "2022-08-17T17:25:22.867Z",
  "devdoc": {
    "kind": "dev",
    "methods": {},
    "version": 1
  },
  "userdoc": {
    "kind": "user",
    "methods": {},
    "version": 1
  }
}