{
  "contractName": "ContestCloneFactory",
  "abi": [
    {
      "inputs": [],
      "stateMutability": "nonpayable",
      "type": "constructor"
    },
    {
      "anonymous": false,
      "inputs": [
        {
          "indexed": true,
          "internalType": "address",
          "name": "_creator",
          "type": "address"
        },
        {
          "indexed": false,
          "internalType": "string",
          "name": "_title",
          "type": "string"
        },
        {
          "indexed": false,
          "internalType": "uint256",
          "name": "_fee",
          "type": "uint256"
        }
      ],
      "name": "NewContestCreated",
      "type": "event"
    },
    {
      "inputs": [
        {
          "internalType": "uint256",
          "name": "",
          "type": "uint256"
        }
      ],
      "name": "contests",
      "outputs": [
        {
          "internalType": "address",
          "name": "addr",
          "type": "address"
        },
        {
          "internalType": "string",
          "name": "title",
          "type": "string"
        }
      ],
      "stateMutability": "view",
      "type": "function",
      "constant": true
    },
    {
      "inputs": [
        {
          "internalType": "string",
          "name": "_title",
          "type": "string"
        },
        {
          "internalType": "uint256",
          "name": "_fee",
          "type": "uint256"
        }
      ],
      "name": "createClone",
      "outputs": [
        {
          "internalType": "address",
          "name": "",
          "type": "address"
        }
      ],
      "stateMutability": "nonpayable",
      "type": "function"
    },
    {
      "inputs": [],
      "name": "getContests",
      "outputs": [
        {
          "components": [
            {
              "internalType": "address",
              "name": "addr",
              "type": "address"
            },
            {
              "internalType": "string",
              "name": "title",
              "type": "string"
            }
          ],
          "internalType": "struct ContestCloneFactory.ClonedContest[]",
          "name": "",
          "type": "tuple[]"
        }
      ],
      "stateMutability": "view",
      "type": "function",
      "constant": true
    }
  ],
  "bytecode": "0x60a060405234801561001057600080fd5b5060405161001d90610072565b604051809103906000f080158015610039573d6000803e3d6000fd5b5073ffffffffffffffffffffffffffffffffffffffff1660808173ffffffffffffffffffffffffffffffffffffffff168152505061007f565b6148dd80610c9783390190565b608051610bfe610099600039600060cd0152610bfe6000f3fe608060405234801561001057600080fd5b50600436106100415760003560e01c80636c614f30146100465780639d7ed73814610076578063bfaba76a146100a7575b600080fd5b610060600480360381019061005b9190610767565b6100c5565b60405161006d9190610804565b60405180910390f35b610090600480360381019061008b919061081f565b61023c565b60405161009e9291906108d4565b60405180910390f35b6100af610318565b6040516100bc9190610a5c565b60405180910390f35b6000806100f17f000000000000000000000000000000000000000000000000000000000000000061045f565b90508073ffffffffffffffffffffffffffffffffffffffff16638dac9bbc3386866040518463ffffffff1660e01b815260040161013093929190610a8d565b600060405180830381600087803b15801561014a57600080fd5b505af115801561015e573d6000803e3d6000fd5b5050505060008060018160018154018082558091505003906000526020600020906002020190508481600101908051906020019061019d929190610534565b50818160000160006101000a81548173ffffffffffffffffffffffffffffffffffffffff021916908373ffffffffffffffffffffffffffffffffffffffff1602179055503373ffffffffffffffffffffffffffffffffffffffff167f5f2d3340d2e1be9cf914601756416aa4327c24b22dfa4ef6b940f09201bc1e658686604051610229929190610acb565b60405180910390a2819250505092915050565b6000818154811061024c57600080fd5b90600052602060002090600202016000915090508060000160009054906101000a900473ffffffffffffffffffffffffffffffffffffffff169080600101805461029590610b2a565b80601f01602080910402602001604051908101604052809291908181526020018280546102c190610b2a565b801561030e5780601f106102e35761010080835404028352916020019161030e565b820191906000526020600020905b8154815290600101906020018083116102f157829003601f168201915b5050505050905082565b60606000805480602002602001604051908101604052809291908181526020016000905b8282101561045657838290600052602060002090600202016040518060400160405290816000820160009054906101000a900473ffffffffffffffffffffffffffffffffffffffff1673ffffffffffffffffffffffffffffffffffffffff1673ffffffffffffffffffffffffffffffffffffffff1681526020016001820180546103c590610b2a565b80601f01602080910402602001604051908101604052809291908181526020018280546103f190610b2a565b801561043e5780601f106104135761010080835404028352916020019161043e565b820191906000526020600020905b81548152906001019060200180831161042157829003601f168201915b5050505050815250508152602001906001019061033c565b50505050905090565b60006040517f3d602d80600a3d3981f3363d3d373d3d3d363d7300000000000000000000000081528260601b60148201527f5af43d82803e903d91602b57fd5bf3000000000000000000000000000000000060288201526037816000f0915050600073ffffffffffffffffffffffffffffffffffffffff168173ffffffffffffffffffffffffffffffffffffffff16141561052f576040517f08c379a000000000000000000000000000000000000000000000000000000000815260040161052690610ba8565b60405180910390fd5b919050565b82805461054090610b2a565b90600052602060002090601f01602090048101928261056257600085556105a9565b82601f1061057b57805160ff19168380011785556105a9565b828001600101855582156105a9579182015b828111156105a857825182559160200191906001019061058d565b5b5090506105b691906105ba565b5090565b5b808211156105d35760008160009055506001016105bb565b5090565b6000604051905090565b600080fd5b600080fd5b600080fd5b600080fd5b6000601f19601f8301169050919050565b7f4e487b7100000000000000000000000000000000000000000000000000000000600052604160045260246000fd5b61063e826105f5565b810181811067ffffffffffffffff8211171561065d5761065c610606565b5b80604052505050565b60006106706105d7565b905061067c8282610635565b919050565b600067ffffffffffffffff82111561069c5761069b610606565b5b6106a5826105f5565b9050602081019050919050565b82818337600083830152505050565b60006106d46106cf84610681565b610666565b9050828152602081018484840111156106f0576106ef6105f0565b5b6106fb8482856106b2565b509392505050565b600082601f830112610718576107176105eb565b5b81356107288482602086016106c1565b91505092915050565b6000819050919050565b61074481610731565b811461074f57600080fd5b50565b6000813590506107618161073b565b92915050565b6000806040838503121561077e5761077d6105e1565b5b600083013567ffffffffffffffff81111561079c5761079b6105e6565b5b6107a885828601610703565b92505060206107b985828601610752565b9150509250929050565b600073ffffffffffffffffffffffffffffffffffffffff82169050919050565b60006107ee826107c3565b9050919050565b6107fe816107e3565b82525050565b600060208201905061081960008301846107f5565b92915050565b600060208284031215610835576108346105e1565b5b600061084384828501610752565b91505092915050565b600081519050919050565b600082825260208201905092915050565b60005b8381101561088657808201518184015260208101905061086b565b83811115610895576000848401525b50505050565b60006108a68261084c565b6108b08185610857565b93506108c0818560208601610868565b6108c9816105f5565b840191505092915050565b60006040820190506108e960008301856107f5565b81810360208301526108fb818461089b565b90509392505050565b600081519050919050565b600082825260208201905092915050565b6000819050602082019050919050565b610939816107e3565b82525050565b600082825260208201905092915050565b600061095b8261084c565b610965818561093f565b9350610975818560208601610868565b61097e816105f5565b840191505092915050565b60006040830160008301516109a16000860182610930565b50602083015184820360208601526109b98282610950565b9150508091505092915050565b60006109d28383610989565b905092915050565b6000602082019050919050565b60006109f282610904565b6109fc818561090f565b935083602082028501610a0e85610920565b8060005b85811015610a4a5784840389528151610a2b85826109c6565b9450610a36836109da565b925060208a01995050600181019050610a12565b50829750879550505050505092915050565b60006020820190508181036000830152610a7681846109e7565b905092915050565b610a8781610731565b82525050565b6000606082019050610aa260008301866107f5565b8181036020830152610ab4818561089b565b9050610ac36040830184610a7e565b949350505050565b60006040820190508181036000830152610ae5818561089b565b9050610af46020830184610a7e565b9392505050565b7f4e487b7100000000000000000000000000000000000000000000000000000000600052602260045260246000fd5b60006002820490506001821680610b4257607f821691505b60208210811415610b5657610b55610afb565b5b50919050565b7f455243313136373a20637265617465206661696c656400000000000000000000600082015250565b6000610b92601683610857565b9150610b9d82610b5c565b602082019050919050565b60006020820190508181036000830152610bc181610b85565b905091905056fea2646970667358221220cf985c5c071bb01767422c11bc3374268ab4f89505c0f19df3fffba64cdcb11764736f6c634300080a0033608060405234801561001057600080fd5b506148bd806100206000396000f3fe6080604052600436106101665760003560e01c80638a19c8bc116100d1578063b5d4b2ab1161008a578063c631b29211610064578063c631b2921461048f578063ddca3f43146104a6578063dfbf53ae146104d1578063e84affa2146104fc57610166565b8063b5d4b2ab14610421578063b88a802f14610438578063bb60cd7a1461044f57610166565b80638a19c8bc146103495780638da5cb5b146103745780638dac9bbc1461039f578063996ab783146103c8578063a95824b4146103df578063affc06701461040a57610166565b8063563df4b311610123578063563df4b3146102585780636470a6391461026f5780636513c321146102ae57806367892ac3146102c55780636dd7d8ea146102f0578063752d03161461030c57610166565b80630cdf85bc1461016b57806312065fe0146101875780631d19a7cb146101b25780632ac59b35146101e657806347dae765146102115780634a79d50c1461022d575b600080fd5b61018560048036038101906101809190613339565b610513565b005b34801561019357600080fd5b5061019c61086d565b6040516101a9919061339b565b60405180910390f35b3480156101be57600080fd5b506101c7610875565b6040516101dd9a999897969594939291906136ad565b60405180910390f35b3480156101f257600080fd5b506101fb610a95565b6040516102089190613757565b60405180910390f35b61022b600480360381019061022691906137a8565b610a9a565b005b34801561023957600080fd5b50610242610fc9565b60405161024f9190613833565b60405180910390f35b34801561026457600080fd5b5061026d611057565b005b34801561027b57600080fd5b5061029660048036038101906102919190613881565b61117a565b6040516102a5939291906138bd565b60405180910390f35b3480156102ba57600080fd5b506102c3611239565b005b3480156102d157600080fd5b506102da61136c565b6040516102e791906138fb565b60405180910390f35b61030a60048036038101906103059190613881565b61137f565b005b34801561031857600080fd5b50610333600480360381019061032e9190613942565b6117dc565b6040516103409190613982565b60405180910390f35b34801561035557600080fd5b5061035e611836565b60405161036b9190613757565b60405180910390f35b34801561038057600080fd5b50610389611849565b6040516103969190613982565b60405180910390f35b3480156103ab57600080fd5b506103c660048036038101906103c1919061399d565b61186f565b005b3480156103d457600080fd5b506103dd611919565b005b3480156103eb57600080fd5b506103f4611a3c565b60405161040191906138fb565b60405180910390f35b34801561041657600080fd5b5061041f611a4f565b005b34801561042d57600080fd5b50610436611c60565b005b34801561044457600080fd5b5061044d611d93565b005b34801561045b57600080fd5b5061047660048036038101906104719190613881565b611f03565b6040516104869493929190613c78565b60405180910390f35b34801561049b57600080fd5b506104a46121df565b005b3480156104b257600080fd5b506104bb6129bd565b6040516104c8919061339b565b60405180910390f35b3480156104dd57600080fd5b506104e66129c3565b6040516104f39190613ce5565b60405180910390f35b34801561050857600080fd5b506105116129e9565b005b6000600281111561052757610526613636565b5b600460039054906101000a900460ff16600281111561054957610548613636565b5b14610589576040517f08c379a000000000000000000000000000000000000000000000000000000000815260040161058090613d4c565b60405180910390fd5b600460029054906101000a900460ff166105d8576040517f08c379a00000000000000000000000000000000000000000000000000000000081526004016105cf90613db8565b60405180910390fd5b6000600560003373ffffffffffffffffffffffffffffffffffffffff1673ffffffffffffffffffffffffffffffffffffffff168152602001908152602001600020600101805461062790613e07565b9050141561066a576040517f08c379a000000000000000000000000000000000000000000000000000000000815260040161066190613e85565b60405180910390fd5b600460009054906101000a900460ff1660ff16600560003373ffffffffffffffffffffffffffffffffffffffff1673ffffffffffffffffffffffffffffffffffffffff16815260200190815260200160002060040160009054906101000a900460ff1660ff1614610710576040517f08c379a000000000000000000000000000000000000000000000000000000000815260040161070790613ef1565b60405180910390fd5b600081511415610755576040517f08c379a000000000000000000000000000000000000000000000000000000000815260040161074c90613f5d565b60405180910390fd5b600460009054906101000a900460ff1660ff16600560003373ffffffffffffffffffffffffffffffffffffffff1673ffffffffffffffffffffffffffffffffffffffff16815260200190815260200160002060020180549050146107ee576040517f08c379a00000000000000000000000000000000000000000000000000000000081526004016107e590613fc9565b60405180910390fd5b600560003373ffffffffffffffffffffffffffffffffffffffff1673ffffffffffffffffffffffffffffffffffffffff1681526020019081526020016000206002018190806001815401808255809150506001900390600052602060002001600090919091909150908051906020019061086992919061307d565b5050565b600047905090565b60006060600080600080600080606060008060029054906101000a900473ffffffffffffffffffffffffffffffffffffffff166002600160009054906101000a900473ffffffffffffffffffffffffffffffffffffffff166004600354600460009054906101000a900460ff16600460029054906101000a900460ff16600460019054906101000a900460ff166006600460039054906101000a900460ff1688805461092090613e07565b80601f016020809104026020016040519081016040528092919081815260200182805461094c90613e07565b80156109995780601f1061096e57610100808354040283529160200191610999565b820191906000526020600020905b81548152906001019060200180831161097c57829003601f168201915b505050505098508460ff16945081805480602002602001604051908101604052809291908181526020016000905b82821015610a6f57838290600052602060002001805480602002602001604051908101604052809291908181526020018280548015610a5b57602002820191906000526020600020905b8160009054906101000a900473ffffffffffffffffffffffffffffffffffffffff1673ffffffffffffffffffffffffffffffffffffffff1681526020019060010190808311610a11575b5050505050815260200190600101906109c7565b505050509150995099509950995099509950995099509950995090919293949596979899565b600481565b60006002811115610aae57610aad613636565b5b600460039054906101000a900460ff166002811115610ad057610acf613636565b5b14610b10576040517f08c379a0000000000000000000000000000000000000000000000000000000008152600401610b0790613d4c565b60405180910390fd5b600460029054906101000a900460ff16610b5f576040517f08c379a0000000000000000000000000000000000000000000000000000000008152600401610b5690613db8565b60405180910390fd5b6003543414610ba3576040517f08c379a0000000000000000000000000000000000000000000000000000000008152600401610b9a90614035565b60405180910390fd5b600060029054906101000a900473ffffffffffffffffffffffffffffffffffffffff1673ffffffffffffffffffffffffffffffffffffffff163373ffffffffffffffffffffffffffffffffffffffff161415610c34576040517f08c379a0000000000000000000000000000000000000000000000000000000008152600401610c2b906140a1565b60405180910390fd5b6000600560003373ffffffffffffffffffffffffffffffffffffffff1673ffffffffffffffffffffffffffffffffffffffff1681526020019081526020016000206001018054610c8390613e07565b905014610cc5576040517f08c379a0000000000000000000000000000000000000000000000000000000008152600401610cbc9061410d565b60405180910390fd5b6000602060ff161415610d0d576040517f08c379a0000000000000000000000000000000000000000000000000000000008152600401610d0490614179565b60405180910390fd5b600082511415610d52576040517f08c379a0000000000000000000000000000000000000000000000000000000008152600401610d49906141e5565b60405180910390fd5b600081511415610d97576040517f08c379a0000000000000000000000000000000000000000000000000000000008152600401610d8e90614251565b60405180910390fd5b603c81511115610ddc576040517f08c379a0000000000000000000000000000000000000000000000000000000008152600401610dd3906142bd565b60405180910390fd5b60006006805490501415610e2a576060600681908060018154018082558091505060019003906000526020600020016000909190919091509080519060200190610e27929190613103565b50505b6006600081548110610e3f57610e3e6142dd565b5b90600052602060002001339080600181540180825580915050600190039060005260206000200160009091909190916101000a81548173ffffffffffffffffffffffffffffffffffffffff021916908373ffffffffffffffffffffffffffffffffffffffff16021790555082600560003373ffffffffffffffffffffffffffffffffffffffff1673ffffffffffffffffffffffffffffffffffffffff16815260200190815260200160002060000181905550600560003373ffffffffffffffffffffffffffffffffffffffff1673ffffffffffffffffffffffffffffffffffffffff16815260200190815260200160002060020182908060018154018082558091505060019003906000526020600020016000909190919091509080519060200190610f6c92919061307d565b5080600560003373ffffffffffffffffffffffffffffffffffffffff1673ffffffffffffffffffffffffffffffffffffffff1681526020019081526020016000206001019080519060200190610fc392919061307d565b50505050565b60028054610fd690613e07565b80601f016020809104026020016040519081016040528092919081815260200182805461100290613e07565b801561104f5780601f106110245761010080835404028352916020019161104f565b820191906000526020600020905b81548152906001019060200180831161103257829003601f168201915b505050505081565b600060029054906101000a900473ffffffffffffffffffffffffffffffffffffffff1673ffffffffffffffffffffffffffffffffffffffff163373ffffffffffffffffffffffffffffffffffffffff16146110e7576040517f08c379a00000000000000000000000000000000000000000000000000000000081526004016110de90614358565b60405180910390fd5b600060028111156110fb576110fa613636565b5b600460039054906101000a900460ff16600281111561111d5761111c613636565b5b1461115d576040517f08c379a000000000000000000000000000000000000000000000000000000000815260040161115490613d4c565b60405180910390fd5b6000600460026101000a81548160ff021916908315150217905550565b60056020528060005260406000206000915090508060000154908060010180546111a390613e07565b80601f01602080910402602001604051908101604052809291908181526020018280546111cf90613e07565b801561121c5780601f106111f15761010080835404028352916020019161121c565b820191906000526020600020905b8154815290600101906020018083116111ff57829003601f168201915b5050505050908060040160009054906101000a900460ff16905083565b600060029054906101000a900473ffffffffffffffffffffffffffffffffffffffff1673ffffffffffffffffffffffffffffffffffffffff163373ffffffffffffffffffffffffffffffffffffffff16146112c9576040517f08c379a00000000000000000000000000000000000000000000000000000000081526004016112c090614358565b60405180910390fd5b6002808111156112dc576112db613636565b5b600460039054906101000a900460ff1660028111156112fe576112fd613636565b5b141561133f576040517f08c379a0000000000000000000000000000000000000000000000000000000008152600401611336906143c4565b60405180910390fd5b6002600460036101000a81548160ff0219169083600281111561136557611364613636565b5b0217905550565b600460029054906101000a900460ff1681565b6000600281111561139357611392613636565b5b600460039054906101000a900460ff1660028111156113b5576113b4613636565b5b146113f5576040517f08c379a00000000000000000000000000000000000000000000000000000000081526004016113ec90613d4c565b60405180910390fd5b600460019054906101000a900460ff16611444576040517f08c379a000000000000000000000000000000000000000000000000000000000815260040161143b90614430565b60405180910390fd5b600060029054906101000a900473ffffffffffffffffffffffffffffffffffffffff1673ffffffffffffffffffffffffffffffffffffffff163373ffffffffffffffffffffffffffffffffffffffff1614156114d5576040517f08c379a00000000000000000000000000000000000000000000000000000000081526004016114cc906140a1565b60405180910390fd5b8073ffffffffffffffffffffffffffffffffffffffff163373ffffffffffffffffffffffffffffffffffffffff161415611544576040517f08c379a000000000000000000000000000000000000000000000000000000000815260040161153b9061449c565b60405180910390fd5b6000600560008373ffffffffffffffffffffffffffffffffffffffff1673ffffffffffffffffffffffffffffffffffffffff168152602001908152602001600020600101805461159390613e07565b905014156115d6576040517f08c379a00000000000000000000000000000000000000000000000000000000081526004016115cd90613e85565b60405180910390fd5b600460009054906101000a900460ff1660ff16600560008373ffffffffffffffffffffffffffffffffffffffff1673ffffffffffffffffffffffffffffffffffffffff16815260200190815260200160002060040160009054906101000a900460ff1660ff161461167c576040517f08c379a000000000000000000000000000000000000000000000000000000000815260040161167390613ef1565b60405180910390fd5b6001600460009054906101000a900460ff1661169891906144eb565b60ff16600560008373ffffffffffffffffffffffffffffffffffffffff1673ffffffffffffffffffffffffffffffffffffffff168152602001908152602001600020600301805490501461175157600560008273ffffffffffffffffffffffffffffffffffffffff1673ffffffffffffffffffffffffffffffffffffffff168152602001908152602001600020600301600090806001815401808255809150506001900390600052602060002001600090919091909150555b6001600560008373ffffffffffffffffffffffffffffffffffffffff1673ffffffffffffffffffffffffffffffffffffffff168152602001908152602001600020600301600460009054906101000a900460ff1660ff16815481106117b9576117b86142dd565b5b9060005260206000200160008282546117d29190614522565b9250508190555050565b600682815481106117ec57600080fd5b90600052602060002001818154811061180457600080fd5b906000526020600020016000915091509054906101000a900473ffffffffffffffffffffffffffffffffffffffff1681565b600460009054906101000a900460ff1681565b600060029054906101000a900473ffffffffffffffffffffffffffffffffffffffff1681565b82600060026101000a81548173ffffffffffffffffffffffffffffffffffffffff021916908373ffffffffffffffffffffffffffffffffffffffff16021790555081600290805190602001906118c692919061307d565b50806003819055506001600460026101000a81548160ff0219169083151502179055506000600460036101000a81548160ff0219169083600281111561190f5761190e613636565b5b0217905550505050565b600060029054906101000a900473ffffffffffffffffffffffffffffffffffffffff1673ffffffffffffffffffffffffffffffffffffffff163373ffffffffffffffffffffffffffffffffffffffff16146119a9576040517f08c379a00000000000000000000000000000000000000000000000000000000081526004016119a090614358565b60405180910390fd5b600060028111156119bd576119bc613636565b5b600460039054906101000a900460ff1660028111156119df576119de613636565b5b14611a1f576040517f08c379a0000000000000000000000000000000000000000000000000000000008152600401611a1690613d4c565b60405180910390fd5b6001600460026101000a81548160ff021916908315150217905550565b600460019054906101000a900460ff1681565b600060029054906101000a900473ffffffffffffffffffffffffffffffffffffffff1673ffffffffffffffffffffffffffffffffffffffff163373ffffffffffffffffffffffffffffffffffffffff1614611adf576040517f08c379a0000000000000000000000000000000000000000000000000000000008152600401611ad690614358565b60405180910390fd5b60006002811115611af357611af2613636565b5b600460039054906101000a900460ff166002811115611b1557611b14613636565b5b14611b55576040517f08c379a0000000000000000000000000000000000000000000000000000000008152600401611b4c90613d4c565b60405180910390fd5b600460029054906101000a900460ff1615611ba5576040517f08c379a0000000000000000000000000000000000000000000000000000000008152600401611b9c906145c4565b60405180910390fd5b60006006600081548110611bbc57611bbb6142dd565b5b906000526020600020018054905011611c0a576040517f08c379a0000000000000000000000000000000000000000000000000000000008152600401611c0190614630565b60405180910390fd5b60016006600081548110611c2157611c206142dd565b5b90600052602060002001805490501115611c55576001600460016101000a81548160ff021916908315150217905550611c5e565b611c5d612b1c565b5b565b600060029054906101000a900473ffffffffffffffffffffffffffffffffffffffff1673ffffffffffffffffffffffffffffffffffffffff163373ffffffffffffffffffffffffffffffffffffffff1614611cf0576040517f08c379a0000000000000000000000000000000000000000000000000000000008152600401611ce790614358565b60405180910390fd5b60006002811115611d0457611d03613636565b5b600460039054906101000a900460ff166002811115611d2657611d25613636565b5b14611d66576040517f08c379a0000000000000000000000000000000000000000000000000000000008152600401611d5d90613d4c565b60405180910390fd5b6001600460036101000a81548160ff02191690836002811115611d8c57611d8b613636565b5b0217905550565b600280811115611da657611da5613636565b5b600460039054906101000a900460ff166002811115611dc857611dc7613636565b5b14611e08576040517f08c379a0000000000000000000000000000000000000000000000000000000008152600401611dff9061469c565b60405180910390fd5b600160009054906101000a900473ffffffffffffffffffffffffffffffffffffffff1673ffffffffffffffffffffffffffffffffffffffff163373ffffffffffffffffffffffffffffffffffffffff1614611e98576040517f08c379a0000000000000000000000000000000000000000000000000000000008152600401611e8f90614708565b60405180910390fd5b600160009054906101000a900473ffffffffffffffffffffffffffffffffffffffff1673ffffffffffffffffffffffffffffffffffffffff166108fc479081150290604051600060405180830381858888f19350505050158015611f00573d6000803e3d6000fd5b50565b611f0b61318d565b6000806000600560008673ffffffffffffffffffffffffffffffffffffffff1673ffffffffffffffffffffffffffffffffffffffff168152602001908152602001600020600060029054906101000a900473ffffffffffffffffffffffffffffffffffffffff16600460009054906101000a900460ff1660001515600460019054906101000a900460ff1615151480611fd8575060006002811115611fb357611fb2613636565b5b600460039054906101000a900460ff166002811115611fd557611fd4613636565b5b14155b836040518060a001604052908160008201548152602001600182018054611ffe90613e07565b80601f016020809104026020016040519081016040528092919081815260200182805461202a90613e07565b80156120775780601f1061204c57610100808354040283529160200191612077565b820191906000526020600020905b81548152906001019060200180831161205a57829003601f168201915b5050505050815260200160028201805480602002602001604051908101604052809291908181526020016000905b828210156121515783829060005260206000200180546120c490613e07565b80601f01602080910402602001604051908101604052809291908181526020018280546120f090613e07565b801561213d5780601f106121125761010080835404028352916020019161213d565b820191906000526020600020905b81548152906001019060200180831161212057829003601f168201915b5050505050815260200190600101906120a5565b505050508152602001600382018054806020026020016040519081016040528092919081815260200182805480156121a857602002820191906000526020600020905b815481526020019060010190808311612194575b505050505081526020016004820160009054906101000a900460ff1660ff1660ff1681525050935093509350935093509193509193565b600060029054906101000a900473ffffffffffffffffffffffffffffffffffffffff1673ffffffffffffffffffffffffffffffffffffffff163373ffffffffffffffffffffffffffffffffffffffff161461226f576040517f08c379a000000000000000000000000000000000000000000000000000000000815260040161226690614358565b60405180910390fd5b6000600281111561228357612282613636565b5b600460039054906101000a900460ff1660028111156122a5576122a4613636565b5b146122e5576040517f08c379a00000000000000000000000000000000000000000000000000000000081526004016122dc90613d4c565b60405180910390fd5b600460019054906101000a900460ff16612334576040517f08c379a000000000000000000000000000000000000000000000000000000000815260040161232b90614430565b60405180910390fd5b600460029054906101000a900460ff1615612384576040517f08c379a000000000000000000000000000000000000000000000000000000000815260040161237b906145c4565b60405180910390fd5b6000600460016101000a81548160ff021916908315150217905550600260066000815481106123b6576123b56142dd565b5b90600052602060002001805490501115806124105750600160066000815481106123e3576123e26142dd565b5b90600052602060002001805490506123fb9190614728565b600460009054906101000a900460ff1660ff16105b156129b257600080600560006006600460009054906101000a900460ff1660ff1681548110612442576124416142dd565b5b906000526020600020018460ff1681548110612461576124606142dd565b5b9060005260206000200160009054906101000a900473ffffffffffffffffffffffffffffffffffffffff1673ffffffffffffffffffffffffffffffffffffffff1673ffffffffffffffffffffffffffffffffffffffff168152602001908152602001600020600301600460009054906101000a900460ff1660ff16815481106124ed576124ec6142dd565b5b906000526020600020015490506000600190505b6006600460009054906101000a900460ff1660ff1681548110612527576125266142dd565b5b90600052602060002001805490508160ff16101561271e5781600560006006600460009054906101000a900460ff1660ff168154811061256a576125696142dd565b5b906000526020600020018460ff1681548110612589576125886142dd565b5b9060005260206000200160009054906101000a900473ffffffffffffffffffffffffffffffffffffffff1673ffffffffffffffffffffffffffffffffffffffff1673ffffffffffffffffffffffffffffffffffffffff168152602001908152602001600020600301600460009054906101000a900460ff1660ff1681548110612615576126146142dd565b5b90600052602060002001541161270b57600560006006600460009054906101000a900460ff1660ff168154811061264f5761264e6142dd565b5b906000526020600020018360ff168154811061266e5761266d6142dd565b5b9060005260206000200160009054906101000a900473ffffffffffffffffffffffffffffffffffffffff1673ffffffffffffffffffffffffffffffffffffffff1673ffffffffffffffffffffffffffffffffffffffff168152602001908152602001600020600301600460009054906101000a900460ff1660ff16815481106126fa576126f96142dd565b5b906000526020600020015491508092505b80806127169061475c565b915050612501565b5060005b6006600460009054906101000a900460ff1660ff1681548110612748576127476142dd565b5b90600052602060002001805490508160ff161015612972578260ff168160ff161461295f5760066001600460009054906101000a900460ff1661278b91906144eb565b60ff168154811061279f5761279e6142dd565b5b906000526020600020016006600460009054906101000a900460ff1660ff16815481106127cf576127ce6142dd565b5b906000526020600020018260ff16815481106127ee576127ed6142dd565b5b9060005260206000200160009054906101000a900473ffffffffffffffffffffffffffffffffffffffff169080600181540180825580915050600190039060005260206000200160009091909190916101000a81548173ffffffffffffffffffffffffffffffffffffffff021916908373ffffffffffffffffffffffffffffffffffffffff1602179055506001600460009054906101000a900460ff1661289591906144eb565b600560006006600460009054906101000a900460ff1660ff16815481106128bf576128be6142dd565b5b906000526020600020018460ff16815481106128de576128dd6142dd565b5b9060005260206000200160009054906101000a900473ffffffffffffffffffffffffffffffffffffffff1673ffffffffffffffffffffffffffffffffffffffff1673ffffffffffffffffffffffffffffffffffffffff16815260200190815260200160002060040160006101000a81548160ff021916908360ff1602179055505b808061296a9061475c565b915050612722565b506004600081819054906101000a900460ff16809291906129929061475c565b91906101000a81548160ff021916908360ff1602179055505050506129bb565b6129ba612b1c565b5b565b60035481565b600160009054906101000a900473ffffffffffffffffffffffffffffffffffffffff1681565b600060029054906101000a900473ffffffffffffffffffffffffffffffffffffffff1673ffffffffffffffffffffffffffffffffffffffff163373ffffffffffffffffffffffffffffffffffffffff1614612a79576040517f08c379a0000000000000000000000000000000000000000000000000000000008152600401612a7090614358565b60405180910390fd5b60016002811115612a8d57612a8c613636565b5b600460039054906101000a900460ff166002811115612aaf57612aae613636565b5b14612aef576040517f08c379a0000000000000000000000000000000000000000000000000000000008152600401612ae6906147d2565b60405180910390fd5b6000600460036101000a81548160ff02191690836002811115612b1557612b14613636565b5b0217905550565b60006002811115612b3057612b2f613636565b5b600460039054906101000a900460ff166002811115612b5257612b51613636565b5b14612b92576040517f08c379a0000000000000000000000000000000000000000000000000000000008152600401612b8990613d4c565b60405180910390fd5b60006006600081548110612ba957612ba86142dd565b5b906000526020600020018054905011612bf7576040517f08c379a0000000000000000000000000000000000000000000000000000000008152600401612bee90614630565b60405180910390fd5b6000600460009054906101000a900460ff1660ff16148015612c3b575060016006600081548110612c2b57612c2a6142dd565b5b9060005260206000200180549050145b15612ce2576006600081548110612c5557612c546142dd565b5b90600052602060002001600081548110612c7257612c716142dd565b5b9060005260206000200160009054906101000a900473ffffffffffffffffffffffffffffffffffffffff16600160006101000a81548173ffffffffffffffffffffffffffffffffffffffff021916908373ffffffffffffffffffffffffffffffffffffffff160217905550613050565b60008060005b600460009054906101000a900460ff1660ff168160ff161015612f0457600560006006600460009054906101000a900460ff1660ff1681548110612d2f57612d2e6142dd565b5b90600052602060002001600081548110612d4c57612d4b6142dd565b5b9060005260206000200160009054906101000a900473ffffffffffffffffffffffffffffffffffffffff1673ffffffffffffffffffffffffffffffffffffffff1673ffffffffffffffffffffffffffffffffffffffff1681526020019081526020016000206003018160ff1681548110612dc957612dc86142dd565b5b9060005260206000200154816002612de191906147f2565b60ff16612dee919061482d565b83612df99190614522565b9250600560006006600460009054906101000a900460ff1660ff1681548110612e2557612e246142dd565b5b90600052602060002001600181548110612e4257612e416142dd565b5b9060005260206000200160009054906101000a900473ffffffffffffffffffffffffffffffffffffffff1673ffffffffffffffffffffffffffffffffffffffff1673ffffffffffffffffffffffffffffffffffffffff1681526020019081526020016000206003018160ff1681548110612ebf57612ebe6142dd565b5b9060005260206000200154816002612ed791906147f2565b60ff16612ee4919061482d565b82612eef9190614522565b91508080612efc9061475c565b915050612ce8565b5081811115612faf576006600281548110612f2257612f216142dd565b5b90600052602060002001600181548110612f3f57612f3e6142dd565b5b9060005260206000200160009054906101000a900473ffffffffffffffffffffffffffffffffffffffff16600160006101000a81548173ffffffffffffffffffffffffffffffffffffffff021916908373ffffffffffffffffffffffffffffffffffffffff16021790555061304d565b6006600281548110612fc457612fc36142dd565b5b90600052602060002001600081548110612fe157612fe06142dd565b5b9060005260206000200160009054906101000a900473ffffffffffffffffffffffffffffffffffffffff16600160006101000a81548173ffffffffffffffffffffffffffffffffffffffff021916908373ffffffffffffffffffffffffffffffffffffffff1602179055505b50505b6002600460036101000a81548160ff0219169083600281111561307657613075613636565b5b0217905550565b82805461308990613e07565b90600052602060002090601f0160209004810192826130ab57600085556130f2565b82601f106130c457805160ff19168380011785556130f2565b828001600101855582156130f2579182015b828111156130f15782518255916020019190600101906130d6565b5b5090506130ff91906131c2565b5090565b82805482825590600052602060002090810192821561317c579160200282015b8281111561317b5782518260006101000a81548173ffffffffffffffffffffffffffffffffffffffff021916908373ffffffffffffffffffffffffffffffffffffffff16021790555091602001919060010190613123565b5b50905061318991906131c2565b5090565b6040518060a0016040528060008019168152602001606081526020016060815260200160608152602001600060ff1681525090565b5b808211156131db5760008160009055506001016131c3565b5090565b6000604051905090565b600080fd5b600080fd5b600080fd5b600080fd5b6000601f19601f8301169050919050565b7f4e487b7100000000000000000000000000000000000000000000000000000000600052604160045260246000fd5b613246826131fd565b810181811067ffffffffffffffff821117156132655761326461320e565b5b80604052505050565b60006132786131df565b9050613284828261323d565b919050565b600067ffffffffffffffff8211156132a4576132a361320e565b5b6132ad826131fd565b9050602081019050919050565b82818337600083830152505050565b60006132dc6132d784613289565b61326e565b9050828152602081018484840111156132f8576132f76131f8565b5b6133038482856132ba565b509392505050565b600082601f8301126133205761331f6131f3565b5b81356133308482602086016132c9565b91505092915050565b60006020828403121561334f5761334e6131e9565b5b600082013567ffffffffffffffff81111561336d5761336c6131ee565b5b6133798482850161330b565b91505092915050565b6000819050919050565b61339581613382565b82525050565b60006020820190506133b0600083018461338c565b92915050565b600073ffffffffffffffffffffffffffffffffffffffff82169050919050565b60006133e1826133b6565b9050919050565b6133f1816133d6565b82525050565b600081519050919050565b600082825260208201905092915050565b60005b83811015613431578082015181840152602081019050613416565b83811115613440576000848401525b50505050565b6000613451826133f7565b61345b8185613402565b935061346b818560208601613413565b613474816131fd565b840191505092915050565b600060ff82169050919050565b6134958161347f565b82525050565b60008115159050919050565b6134b08161349b565b82525050565b600081519050919050565b600082825260208201905092915050565b6000819050602082019050919050565b600081519050919050565b600082825260208201905092915050565b6000819050602082019050919050565b613517816133d6565b82525050565b6000613529838361350e565b60208301905092915050565b6000602082019050919050565b600061354d826134e2565b61355781856134ed565b9350613562836134fe565b8060005b8381101561359357815161357a888261351d565b975061358583613535565b925050600181019050613566565b5085935050505092915050565b60006135ac8383613542565b905092915050565b6000602082019050919050565b60006135cc826134b6565b6135d681856134c1565b9350836020820285016135e8856134d2565b8060005b85811015613624578484038952815161360585826135a0565b9450613610836135b4565b925060208a019950506001810190506135ec565b50829750879550505050505092915050565b7f4e487b7100000000000000000000000000000000000000000000000000000000600052602160045260246000fd5b6003811061367657613675613636565b5b50565b600081905061368782613665565b919050565b600061369782613679565b9050919050565b6136a78161368c565b82525050565b6000610140820190506136c3600083018d6133e8565b81810360208301526136d5818c613446565b90506136e4604083018b6133e8565b6136f1606083018a61348c565b6136fe608083018961338c565b61370b60a083018861338c565b61371860c08301876134a7565b61372560e08301866134a7565b81810361010083015261373881856135c1565b905061374861012083018461369e565b9b9a5050505050505050505050565b600060208201905061376c600083018461348c565b92915050565b6000819050919050565b61378581613772565b811461379057600080fd5b50565b6000813590506137a28161377c565b92915050565b6000806000606084860312156137c1576137c06131e9565b5b60006137cf86828701613793565b935050602084013567ffffffffffffffff8111156137f0576137ef6131ee565b5b6137fc8682870161330b565b925050604084013567ffffffffffffffff81111561381d5761381c6131ee565b5b6138298682870161330b565b9150509250925092565b6000602082019050818103600083015261384d8184613446565b905092915050565b61385e816133d6565b811461386957600080fd5b50565b60008135905061387b81613855565b92915050565b600060208284031215613897576138966131e9565b5b60006138a58482850161386c565b91505092915050565b6138b781613772565b82525050565b60006060820190506138d260008301866138ae565b81810360208301526138e48185613446565b90506138f3604083018461348c565b949350505050565b600060208201905061391060008301846134a7565b92915050565b61391f81613382565b811461392a57600080fd5b50565b60008135905061393c81613916565b92915050565b60008060408385031215613959576139586131e9565b5b60006139678582860161392d565b92505060206139788582860161392d565b9150509250929050565b600060208201905061399760008301846133e8565b92915050565b6000806000606084860312156139b6576139b56131e9565b5b60006139c48682870161386c565b935050602084013567ffffffffffffffff8111156139e5576139e46131ee565b5b6139f18682870161330b565b9250506040613a028682870161392d565b9150509250925092565b613a1581613772565b82525050565b600082825260208201905092915050565b6000613a37826133f7565b613a418185613a1b565b9350613a51818560208601613413565b613a5a816131fd565b840191505092915050565b600081519050919050565b600082825260208201905092915050565b6000819050602082019050919050565b6000613a9d8383613a2c565b905092915050565b6000602082019050919050565b6000613abd82613a65565b613ac78185613a70565b935083602082028501613ad985613a81565b8060005b85811015613b155784840389528151613af68582613a91565b9450613b0183613aa5565b925060208a01995050600181019050613add565b50829750879550505050505092915050565b600081519050919050565b600082825260208201905092915050565b6000819050602082019050919050565b613b5c81613382565b82525050565b6000613b6e8383613b53565b60208301905092915050565b6000602082019050919050565b6000613b9282613b27565b613b9c8185613b32565b9350613ba783613b43565b8060005b83811015613bd8578151613bbf8882613b62565b9750613bca83613b7a565b925050600181019050613bab565b5085935050505092915050565b613bee8161347f565b82525050565b600060a083016000830151613c0c6000860182613a0c565b5060208301518482036020860152613c248282613a2c565b91505060408301518482036040860152613c3e8282613ab2565b91505060608301518482036060860152613c588282613b87565b9150506080830151613c6d6080860182613be5565b508091505092915050565b60006080820190508181036000830152613c928187613bf4565b9050613ca160208301866133e8565b613cae604083018561348c565b613cbb60608301846134a7565b95945050505050565b6000613ccf826133b6565b9050919050565b613cdf81613cc4565b82525050565b6000602082019050613cfa6000830184613cd6565b92915050565b7f5f5f5f4e4f545f52554e4e494e475f5f5f000000000000000000000000000000600082015250565b6000613d36601183613402565b9150613d4182613d00565b602082019050919050565b60006020820190508181036000830152613d6581613d29565b9050919050565b7f5f5f5f50415254494349504154494f4e5f434c4f5345445f5f5f000000000000600082015250565b6000613da2601a83613402565b9150613dad82613d6c565b602082019050919050565b60006020820190508181036000830152613dd181613d95565b9050919050565b7f4e487b7100000000000000000000000000000000000000000000000000000000600052602260045260246000fd5b60006002820490506001821680613e1f57607f821691505b60208210811415613e3357613e32613dd8565b5b50919050565b7f5f5f5f494e56414c49445f434f4e54455354414e545f5f5f0000000000000000600082015250565b6000613e6f601883613402565b9150613e7a82613e39565b602082019050919050565b60006020820190508181036000830152613e9e81613e62565b9050919050565b7f5f5f5f454c494d494e415445445f5f5f00000000000000000000000000000000600082015250565b6000613edb601083613402565b9150613ee682613ea5565b602082019050919050565b60006020820190508181036000830152613f0a81613ece565b9050919050565b7f5f5f5f454d5054595f4c494e4b5f5f5f00000000000000000000000000000000600082015250565b6000613f47601083613402565b9150613f5282613f11565b602082019050919050565b60006020820190508181036000830152613f7681613f3a565b9050919050565b7f5f5f5f5355424d49545445445f5f5f0000000000000000000000000000000000600082015250565b6000613fb3600f83613402565b9150613fbe82613f7d565b602082019050919050565b60006020820190508181036000830152613fe281613fa6565b9050919050565b7f5f5f5f4645455f5f5f0000000000000000000000000000000000000000000000600082015250565b600061401f600983613402565b915061402a82613fe9565b602082019050919050565b6000602082019050818103600083015261404e81614012565b9050919050565b7f5f5f5f4e4f5f41444d494e5f5f5f000000000000000000000000000000000000600082015250565b600061408b600e83613402565b915061409682614055565b602082019050919050565b600060208201905081810360008301526140ba8161407e565b9050919050565b7f5f5f5f4558495354494e475f5f5f000000000000000000000000000000000000600082015250565b60006140f7600e83613402565b9150614102826140c1565b602082019050919050565b60006020820190508181036000830152614126816140ea565b9050919050565b7f5f5f5f454d5054595f4e414d455f5f5f00000000000000000000000000000000600082015250565b6000614163601083613402565b915061416e8261412d565b602082019050919050565b6000602082019050818103600083015261419281614156565b9050919050565b7f5f5f5f454d4f54595f4c494e4b5f5f5f00000000000000000000000000000000600082015250565b60006141cf601083613402565b91506141da82614199565b602082019050919050565b600060208201905081810360008301526141fe816141c2565b9050919050565b7f5f5f5f454d5054595f42494f5f5f5f0000000000000000000000000000000000600082015250565b600061423b600f83613402565b915061424682614205565b602082019050919050565b6000602082019050818103600083015261426a8161422e565b9050919050565b7f5f5f5f4c4f4e475f42494f5f5f5f000000000000000000000000000000000000600082015250565b60006142a7600e83613402565b91506142b282614271565b602082019050919050565b600060208201905081810360008301526142d68161429a565b9050919050565b7f4e487b7100000000000000000000000000000000000000000000000000000000600052603260045260246000fd5b7f5f5f5f4f4e4c595f4f574e45525f5f5f00000000000000000000000000000000600082015250565b6000614342601083613402565b915061434d8261430c565b602082019050919050565b6000602082019050818103600083015261437181614335565b9050919050565b7f5f5f5f46494e49534845445f5f5f000000000000000000000000000000000000600082015250565b60006143ae600e83613402565b91506143b982614378565b602082019050919050565b600060208201905081810360008301526143dd816143a1565b9050919050565b7f5f5f5f564f54494e475f434c4f5345445f5f5f00000000000000000000000000600082015250565b600061441a601383613402565b9150614425826143e4565b602082019050919050565b600060208201905081810360008301526144498161440d565b9050919050565b7f5f5f5f4e4f5f53454c465f5f5f00000000000000000000000000000000000000600082015250565b6000614486600d83613402565b915061449182614450565b602082019050919050565b600060208201905081810360008301526144b581614479565b9050919050565b7f4e487b7100000000000000000000000000000000000000000000000000000000600052601160045260246000fd5b60006144f68261347f565b91506145018361347f565b92508260ff03821115614517576145166144bc565b5b828201905092915050565b600061452d82613382565b915061453883613382565b9250827fffffffffffffffffffffffffffffffffffffffffffffffffffffffffffffffff0382111561456d5761456c6144bc565b5b828201905092915050565b7f5f5f5f50415254494349504154494f4e5f4f50454e5f5f5f0000000000000000600082015250565b60006145ae601883613402565b91506145b982614578565b602082019050919050565b600060208201905081810360008301526145dd816145a1565b9050919050565b7f5f5f5f4e4f5f434f4e54455354414e54535f5f5f000000000000000000000000600082015250565b600061461a601483613402565b9150614625826145e4565b602082019050919050565b600060208201905081810360008301526146498161460d565b9050919050565b7f5f5f5f4e4f545f46494e49534845445f5f5f0000000000000000000000000000600082015250565b6000614686601283613402565b915061469182614650565b602082019050919050565b600060208201905081810360008301526146b581614679565b9050919050565b7f5f5f5f4e4f545f57494e4e45525f5f5f00000000000000000000000000000000600082015250565b60006146f2601083613402565b91506146fd826146bc565b602082019050919050565b60006020820190508181036000830152614721816146e5565b9050919050565b600061473382613382565b915061473e83613382565b925082821015614751576147506144bc565b5b828203905092915050565b60006147678261347f565b915060ff82141561477b5761477a6144bc565b5b600182019050919050565b7f5f5f5f4e4f545f5041555345445f5f5f00000000000000000000000000000000600082015250565b60006147bc601083613402565b91506147c782614786565b602082019050919050565b600060208201905081810360008301526147eb816147af565b9050919050565b60006147fd8261347f565b91506148088361347f565b92508160ff0483118215151615614822576148216144bc565b5b828202905092915050565b600061483882613382565b915061484383613382565b9250817fffffffffffffffffffffffffffffffffffffffffffffffffffffffffffffffff048311821515161561487c5761487b6144bc565b5b82820290509291505056fea2646970667358221220d4faef016fbdb1709ed33785674fb457247c6f4cb706e82240e823700a53a16464736f6c634300080a0033",
  "immutableReferences": {
    "1549": [
      {
        "length": 32,
        "start": 205
      }
    ]
  },
  "source": "//SPDX-License-Identifier: MIT\npragma solidity 0.8.10;\nimport {Clones} from \"@openzeppelin/contracts/proxy/Clones.sol\";\nimport \"./Contest.sol\";\n\ncontract ContestCloneFactory {\n    address immutable implementation;\n    struct ClonedContest {\n        address addr;\n        string title;\n    }\n    ClonedContest[] public contests;\n\n    //Events\n    /*\n     * Fired once the number of participants = 4.\n     * Signals that the contest is closed for participation\n     */\n    event NewContestCreated(address indexed _creator, string _title, uint _fee);\n\n    constructor() {\n        implementation = address(new Contest());\n    }\n\n    function createClone(\n        string memory _title,\n        uint256 _fee\n    ) external returns (address) {\n        address clone = Clones.clone(implementation);\n        Contest(clone).initialize(\n            msg.sender,\n            _title,\n            _fee\n        );\n        //contests.push(Contest(clone));\n        ClonedContest storage _contest = contests.push();\n        _contest.title = _title;\n        _contest.addr = clone;\n\n        emit NewContestCreated(msg.sender, _title, _fee);\n        return clone;\n    }\n\n    function getContests() public view returns (ClonedContest[] memory) {\n        return contests;\n    }\n}\n",
  "sourcePath": "/home/shariqkhanfreelancer/Workspace/BLOCKCHAIN/Solidity/BlockStar/contracts/ContestCloneFactory.sol",
  "compiler": {
    "name": "solc",
    "version": "0.8.10+commit.fc410830.Emscripten.clang"
  },
  "schemaVersion": "3.4.7",
  "updatedAt": "2022-08-04T06:58:59.669Z",
  "networkType": "ethereum",
  "devdoc": {
    "kind": "dev",
    "methods": {},
    "version": 1
  },
  "userdoc": {
    "kind": "user",
    "methods": {},
    "version": 1
  }
}