{
  "contractName": "Contest",
  "abi": [
    {
      "anonymous": false,
      "inputs": [
        {
          "indexed": true,
          "internalType": "address",
          "name": "_addr",
          "type": "address"
        }
      ],
      "name": "ContestClosedForParticipation",
      "type": "event"
    },
    {
      "anonymous": false,
      "inputs": [],
      "name": "ContestOpenedForParticipation",
      "type": "event"
    },
    {
      "anonymous": false,
      "inputs": [
        {
          "indexed": false,
          "internalType": "uint8",
          "name": "version",
          "type": "uint8"
        }
      ],
      "name": "Initialized",
      "type": "event"
    },
    {
      "anonymous": false,
      "inputs": [
        {
          "indexed": false,
          "internalType": "uint8",
          "name": "round",
          "type": "uint8"
        }
      ],
      "name": "VotingClosed",
      "type": "event"
    },
    {
      "anonymous": false,
      "inputs": [
        {
          "indexed": false,
          "internalType": "uint8",
          "name": "round",
          "type": "uint8"
        }
      ],
      "name": "VotingOpened",
      "type": "event"
    },
    {
      "inputs": [],
      "name": "NUM_ALLOWED_PARTICIPANTS",
      "outputs": [
        {
          "internalType": "uint8",
          "name": "",
          "type": "uint8"
        }
      ],
      "stateMutability": "view",
      "type": "function"
    },
    {
      "inputs": [
        {
          "internalType": "address",
          "name": "",
          "type": "address"
        }
      ],
      "name": "contestants",
      "outputs": [
        {
          "internalType": "bytes32",
          "name": "name",
          "type": "bytes32"
        },
        {
          "internalType": "string",
          "name": "bio",
          "type": "string"
        },
        {
          "internalType": "uint8",
          "name": "progressedToRound",
          "type": "uint8"
        }
      ],
      "stateMutability": "view",
      "type": "function"
    },
    {
      "inputs": [],
      "name": "currentRound",
      "outputs": [
        {
          "internalType": "uint8",
          "name": "",
          "type": "uint8"
        }
      ],
      "stateMutability": "view",
      "type": "function"
    },
    {
      "inputs": [],
      "name": "description",
      "outputs": [
        {
          "internalType": "string",
          "name": "",
          "type": "string"
        }
      ],
      "stateMutability": "view",
      "type": "function"
    },
    {
      "inputs": [],
      "name": "fee",
      "outputs": [
        {
          "internalType": "uint256",
          "name": "",
          "type": "uint256"
        }
      ],
      "stateMutability": "view",
      "type": "function"
    },
    {
      "inputs": [],
      "name": "owner",
      "outputs": [
        {
          "internalType": "address",
          "name": "",
          "type": "address"
        }
      ],
      "stateMutability": "view",
      "type": "function"
    },
    {
      "inputs": [],
      "name": "participationOpen",
      "outputs": [
        {
          "internalType": "bool",
          "name": "",
          "type": "bool"
        }
      ],
      "stateMutability": "view",
      "type": "function"
    },
    {
      "inputs": [
        {
          "internalType": "uint256",
          "name": "",
          "type": "uint256"
        },
        {
          "internalType": "uint256",
          "name": "",
          "type": "uint256"
        }
      ],
      "name": "qualifiers",
      "outputs": [
        {
          "internalType": "address",
          "name": "",
          "type": "address"
        }
      ],
      "stateMutability": "view",
      "type": "function"
    },
    {
      "inputs": [],
      "name": "title",
      "outputs": [
        {
          "internalType": "string",
          "name": "",
          "type": "string"
        }
      ],
      "stateMutability": "view",
      "type": "function"
    },
    {
      "inputs": [],
      "name": "votingOpen",
      "outputs": [
        {
          "internalType": "bool",
          "name": "",
          "type": "bool"
        }
      ],
      "stateMutability": "view",
      "type": "function"
    },
    {
      "inputs": [],
      "name": "winner",
      "outputs": [
        {
          "internalType": "address payable",
          "name": "",
          "type": "address"
        }
      ],
      "stateMutability": "view",
      "type": "function"
    },
    {
      "inputs": [
        {
          "internalType": "address",
          "name": "_owner",
          "type": "address"
        },
        {
          "internalType": "string",
          "name": "_title",
          "type": "string"
        },
        {
          "internalType": "string",
          "name": "_description",
          "type": "string"
        },
        {
          "internalType": "uint256",
          "name": "_fee",
          "type": "uint256"
        }
      ],
      "name": "initialize",
      "outputs": [],
      "stateMutability": "nonpayable",
      "type": "function"
    },
    {
      "inputs": [],
      "name": "stopContest",
      "outputs": [],
      "stateMutability": "nonpayable",
      "type": "function"
    },
    {
      "inputs": [],
      "name": "pauseContest",
      "outputs": [],
      "stateMutability": "nonpayable",
      "type": "function"
    },
    {
      "inputs": [],
      "name": "resumeContest",
      "outputs": [],
      "stateMutability": "nonpayable",
      "type": "function"
    },
    {
      "inputs": [],
      "name": "disableParticipation",
      "outputs": [],
      "stateMutability": "nonpayable",
      "type": "function"
    },
    {
      "inputs": [],
      "name": "openVoting",
      "outputs": [],
      "stateMutability": "nonpayable",
      "type": "function"
    },
    {
      "inputs": [],
      "name": "closeVoting",
      "outputs": [],
      "stateMutability": "nonpayable",
      "type": "function"
    },
    {
      "inputs": [
        {
          "internalType": "address",
          "name": "_addr",
          "type": "address"
        },
        {
          "internalType": "uint8",
          "name": "roundNum",
          "type": "uint8"
        }
      ],
      "name": "getContestantVotes",
      "outputs": [
        {
          "internalType": "uint256",
          "name": "",
          "type": "uint256"
        }
      ],
      "stateMutability": "view",
      "type": "function"
    },
    {
      "inputs": [
        {
          "internalType": "bytes32",
          "name": "_name",
          "type": "bytes32"
        },
        {
          "internalType": "string",
          "name": "_performanceLink",
          "type": "string"
        },
        {
          "internalType": "string",
          "name": "_bio",
          "type": "string"
        }
      ],
      "name": "participate",
      "outputs": [],
      "stateMutability": "payable",
      "type": "function"
    },
    {
      "inputs": [
        {
          "internalType": "string",
          "name": "_performanceLink",
          "type": "string"
        }
      ],
      "name": "submitPerformance",
      "outputs": [],
      "stateMutability": "payable",
      "type": "function"
    },
    {
      "inputs": [
        {
          "internalType": "address",
          "name": "_addr",
          "type": "address"
        }
      ],
      "name": "vote",
      "outputs": [],
      "stateMutability": "payable",
      "type": "function"
    },
    {
      "inputs": [],
      "name": "claimReward",
      "outputs": [],
      "stateMutability": "nonpayable",
      "type": "function"
    },
    {
      "inputs": [],
      "name": "getBalance",
      "outputs": [
        {
          "internalType": "uint256",
          "name": "",
          "type": "uint256"
        }
      ],
      "stateMutability": "view",
      "type": "function"
    },
    {
      "inputs": [],
      "name": "getContestDetails",
      "outputs": [
        {
          "internalType": "address",
          "name": "",
          "type": "address"
        },
        {
          "internalType": "string",
          "name": "",
          "type": "string"
        },
        {
          "internalType": "string",
          "name": "",
          "type": "string"
        },
        {
          "internalType": "address",
          "name": "",
          "type": "address"
        },
        {
          "internalType": "uint8",
          "name": "",
          "type": "uint8"
        },
        {
          "internalType": "uint256",
          "name": "",
          "type": "uint256"
        },
        {
          "internalType": "uint256",
          "name": "",
          "type": "uint256"
        },
        {
          "internalType": "bool",
          "name": "",
          "type": "bool"
        },
        {
          "internalType": "bool",
          "name": "",
          "type": "bool"
        },
        {
          "internalType": "address[][]",
          "name": "",
          "type": "address[][]"
        },
        {
          "internalType": "enum Contest.ContestState",
          "name": "",
          "type": "uint8"
        }
      ],
      "stateMutability": "view",
      "type": "function"
    },
    {
      "inputs": [
        {
          "internalType": "address",
          "name": "_addr",
          "type": "address"
        }
      ],
      "name": "getContestantDetails",
      "outputs": [
        {
          "components": [
            {
              "internalType": "bytes32",
              "name": "name",
              "type": "bytes32"
            },
            {
              "internalType": "string",
              "name": "bio",
              "type": "string"
            },
            {
              "internalType": "string[]",
              "name": "performanceLinks",
              "type": "string[]"
            },
            {
              "internalType": "uint256[]",
              "name": "votesReceived",
              "type": "uint256[]"
            },
            {
              "internalType": "uint8",
              "name": "progressedToRound",
              "type": "uint8"
            }
          ],
          "internalType": "struct Contest.Contestant",
          "name": "",
          "type": "tuple"
        },
        {
          "internalType": "address",
          "name": "",
          "type": "address"
        },
        {
          "internalType": "uint8",
          "name": "",
          "type": "uint8"
        },
        {
          "internalType": "bool",
          "name": "",
          "type": "bool"
        }
      ],
      "stateMutability": "view",
      "type": "function"
    }
  ],
  "bytecode": "0x608060405234801561001057600080fd5b506149bf806100206000396000f3fe6080604052600436106101815760003560e01c80637401a93f116100d1578063b5d4b2ab1161008a578063c631b29211610064578063c631b292146104fc578063ddca3f4314610513578063dfbf53ae1461053e578063e84affa21461056957610181565b8063b5d4b2ab1461048e578063b88a802f146104a5578063bb60cd7a146104bc57610181565b80637401a93f1461039d578063752d0316146103b95780638a19c8bc146103f65780638da5cb5b14610421578063a95824b41461044c578063affc06701461047757610181565b80634d12d4b61161013e5780636513c321116101185780636513c3211461031457806367892ac31461032b5780636dd7d8ea146103565780637284e4161461037257610181565b80634d12d4b614610295578063563df4b3146102be5780636470a639146102d557610181565b806312065fe01461018657806315da2abb146101b15780631d19a7cb146101ee5780632ac59b351461022357806347dae7651461024e5780634a79d50c1461026a575b600080fd5b34801561019257600080fd5b5061019b610580565b6040516101a89190613248565b60405180910390f35b3480156101bd57600080fd5b506101d860048036038101906101d3919061330e565b610588565b6040516101e59190613248565b60405180910390f35b3480156101fa57600080fd5b5061020361065a565b60405161021a9b9a99989796959493929190613617565b60405180910390f35b34801561022f57600080fd5b5061023861090b565b60405161024591906136d7565b60405180910390f35b6102686004803603810190610263919061385d565b610910565b005b34801561027657600080fd5b5061027f610e3f565b60405161028c91906138e8565b60405180910390f35b3480156102a157600080fd5b506102bc60048036038101906102b79190613936565b610ecd565b005b3480156102ca57600080fd5b506102d3610f8f565b005b3480156102e157600080fd5b506102fc60048036038101906102f791906139d5565b6110cd565b60405161030b93929190613a11565b60405180910390f35b34801561032057600080fd5b5061032961118c565b005b34801561033757600080fd5b506103406112bf565b60405161034d9190613a4f565b60405180910390f35b610370600480360381019061036b91906139d5565b6112d2565b005b34801561037e57600080fd5b50610387611740565b60405161039491906138e8565b60405180910390f35b6103b760048036038101906103b29190613a6a565b6117ce565b005b3480156103c557600080fd5b506103e060048036038101906103db9190613ab3565b611ad9565b6040516103ed9190613af3565b60405180910390f35b34801561040257600080fd5b5061040b611b33565b60405161041891906136d7565b60405180910390f35b34801561042d57600080fd5b50610436611b46565b6040516104439190613af3565b60405180910390f35b34801561045857600080fd5b50610461611b6c565b60405161046e9190613a4f565b60405180910390f35b34801561048357600080fd5b5061048c611b7f565b005b34801561049a57600080fd5b506104a3611d90565b005b3480156104b157600080fd5b506104ba611ec3565b005b3480156104c857600080fd5b506104e360048036038101906104de91906139d5565b612033565b6040516104f39493929190613d7a565b60405180910390f35b34801561050857600080fd5b5061051161237d565b005b34801561051f57600080fd5b50610528612abd565b6040516105359190613248565b60405180910390f35b34801561054a57600080fd5b50610553612ac3565b6040516105609190613de7565b60405180910390f35b34801561057557600080fd5b5061057e612ae9565b005b600047905090565b60006001826105979190613e31565b60ff16600660008573ffffffffffffffffffffffffffffffffffffffff1673ffffffffffffffffffffffffffffffffffffffff1681526020019081526020016000206003018054905010156105ef5760009050610654565b600660008473ffffffffffffffffffffffffffffffffffffffff1673ffffffffffffffffffffffffffffffffffffffff1681526020019081526020016000206003018260ff168154811061064657610645613e68565b5b906000526020600020015490505b92915050565b6000606080600080600080600080606060008060029054906101000a900473ffffffffffffffffffffffffffffffffffffffff1660026003600160009054906101000a900473ffffffffffffffffffffffffffffffffffffffff1660048054600560009054906101000a900460ff16600560029054906101000a900460ff16600560019054906101000a900460ff166007600560039054906101000a900460ff1689805461070790613ec6565b80601f016020809104026020016040519081016040528092919081815260200182805461073390613ec6565b80156107805780601f1061075557610100808354040283529160200191610780565b820191906000526020600020905b81548152906001019060200180831161076357829003601f168201915b5050505050995088805461079390613ec6565b80601f01602080910402602001604051908101604052809291908181526020018280546107bf90613ec6565b801561080c5780601f106107e15761010080835404028352916020019161080c565b820191906000526020600020905b8154815290600101906020018083116107ef57829003601f168201915b505050505098508460ff16945081805480602002602001604051908101604052809291908181526020016000905b828210156108e2578382906000526020600020018054806020026020016040519081016040528092919081815260200182805480156108ce57602002820191906000526020600020905b8160009054906101000a900473ffffffffffffffffffffffffffffffffffffffff1673ffffffffffffffffffffffffffffffffffffffff1681526020019060010190808311610884575b50505050508152602001906001019061083a565b5050505091509a509a509a509a509a509a509a509a509a509a509a50909192939495969798999a565b600481565b60006002811115610924576109236135a0565b5b600560039054906101000a900460ff166002811115610946576109456135a0565b5b14610986576040517f08c379a000000000000000000000000000000000000000000000000000000000815260040161097d90613f44565b60405180910390fd5b600560029054906101000a900460ff166109d5576040517f08c379a00000000000000000000000000000000000000000000000000000000081526004016109cc90613fb0565b60405180910390fd5b6004543414610a19576040517f08c379a0000000000000000000000000000000000000000000000000000000008152600401610a109061401c565b60405180910390fd5b600060029054906101000a900473ffffffffffffffffffffffffffffffffffffffff1673ffffffffffffffffffffffffffffffffffffffff163373ffffffffffffffffffffffffffffffffffffffff161415610aaa576040517f08c379a0000000000000000000000000000000000000000000000000000000008152600401610aa190614088565b60405180910390fd5b6000600660003373ffffffffffffffffffffffffffffffffffffffff1673ffffffffffffffffffffffffffffffffffffffff1681526020019081526020016000206001018054610af990613ec6565b905014610b3b576040517f08c379a0000000000000000000000000000000000000000000000000000000008152600401610b32906140f4565b60405180910390fd5b6000602060ff161415610b83576040517f08c379a0000000000000000000000000000000000000000000000000000000008152600401610b7a90614160565b60405180910390fd5b600082511415610bc8576040517f08c379a0000000000000000000000000000000000000000000000000000000008152600401610bbf906141cc565b60405180910390fd5b600081511415610c0d576040517f08c379a0000000000000000000000000000000000000000000000000000000008152600401610c0490614238565b60405180910390fd5b603c81511115610c52576040517f08c379a0000000000000000000000000000000000000000000000000000000008152600401610c49906142a4565b60405180910390fd5b60006007805490501415610ca0576060600781908060018154018082558091505060019003906000526020600020016000909190919091509080519060200190610c9d9291906130cd565b50505b6007600081548110610cb557610cb4613e68565b5b90600052602060002001339080600181540180825580915050600190039060005260206000200160009091909190916101000a81548173ffffffffffffffffffffffffffffffffffffffff021916908373ffffffffffffffffffffffffffffffffffffffff16021790555082600660003373ffffffffffffffffffffffffffffffffffffffff1673ffffffffffffffffffffffffffffffffffffffff16815260200190815260200160002060000181905550600660003373ffffffffffffffffffffffffffffffffffffffff1673ffffffffffffffffffffffffffffffffffffffff16815260200190815260200160002060020182908060018154018082558091505060019003906000526020600020016000909190919091509080519060200190610de2929190613157565b5080600660003373ffffffffffffffffffffffffffffffffffffffff1673ffffffffffffffffffffffffffffffffffffffff1681526020019081526020016000206001019080519060200190610e39929190613157565b50505050565b60028054610e4c90613ec6565b80601f0160208091040260200160405190810160405280929190818152602001828054610e7890613ec6565b8015610ec55780601f10610e9a57610100808354040283529160200191610ec5565b820191906000526020600020905b815481529060010190602001808311610ea857829003601f168201915b505050505081565b83600060026101000a81548173ffffffffffffffffffffffffffffffffffffffff021916908373ffffffffffffffffffffffffffffffffffffffff1602179055508260029080519060200190610f24929190613157565b508160039080519060200190610f3b929190613157565b50806004819055506001600560026101000a81548160ff0219169083151502179055506000600560036101000a81548160ff02191690836002811115610f8457610f836135a0565b5b021790555050505050565b600060029054906101000a900473ffffffffffffffffffffffffffffffffffffffff1673ffffffffffffffffffffffffffffffffffffffff163373ffffffffffffffffffffffffffffffffffffffff161461101f576040517f08c379a000000000000000000000000000000000000000000000000000000000815260040161101690614310565b60405180910390fd5b60006002811115611033576110326135a0565b5b600560039054906101000a900460ff166002811115611055576110546135a0565b5b14611095576040517f08c379a000000000000000000000000000000000000000000000000000000000815260040161108c90613f44565b60405180910390fd5b6000600560026101000a81548160ff0219169083151502179055506001600560016101000a81548160ff021916908315150217905550565b60066020528060005260406000206000915090508060000154908060010180546110f690613ec6565b80601f016020809104026020016040519081016040528092919081815260200182805461112290613ec6565b801561116f5780601f106111445761010080835404028352916020019161116f565b820191906000526020600020905b81548152906001019060200180831161115257829003601f168201915b5050505050908060040160009054906101000a900460ff16905083565b600060029054906101000a900473ffffffffffffffffffffffffffffffffffffffff1673ffffffffffffffffffffffffffffffffffffffff163373ffffffffffffffffffffffffffffffffffffffff161461121c576040517f08c379a000000000000000000000000000000000000000000000000000000000815260040161121390614310565b60405180910390fd5b60028081111561122f5761122e6135a0565b5b600560039054906101000a900460ff166002811115611251576112506135a0565b5b1415611292576040517f08c379a00000000000000000000000000000000000000000000000000000000081526004016112899061437c565b60405180910390fd5b6002600560036101000a81548160ff021916908360028111156112b8576112b76135a0565b5b0217905550565b600560029054906101000a900460ff1681565b600060028111156112e6576112e56135a0565b5b600560039054906101000a900460ff166002811115611308576113076135a0565b5b14611348576040517f08c379a000000000000000000000000000000000000000000000000000000000815260040161133f90613f44565b60405180910390fd5b600560019054906101000a900460ff16611397576040517f08c379a000000000000000000000000000000000000000000000000000000000815260040161138e906143e8565b60405180910390fd5b600060029054906101000a900473ffffffffffffffffffffffffffffffffffffffff1673ffffffffffffffffffffffffffffffffffffffff163373ffffffffffffffffffffffffffffffffffffffff161415611428576040517f08c379a000000000000000000000000000000000000000000000000000000000815260040161141f90614088565b60405180910390fd5b8073ffffffffffffffffffffffffffffffffffffffff163373ffffffffffffffffffffffffffffffffffffffff161415611497576040517f08c379a000000000000000000000000000000000000000000000000000000000815260040161148e90614454565b60405180910390fd5b6000600660008373ffffffffffffffffffffffffffffffffffffffff1673ffffffffffffffffffffffffffffffffffffffff16815260200190815260200160002060010180546114e690613ec6565b90501415611529576040517f08c379a0000000000000000000000000000000000000000000000000000000008152600401611520906144c0565b60405180910390fd5b600560009054906101000a900460ff1660ff16600660008373ffffffffffffffffffffffffffffffffffffffff1673ffffffffffffffffffffffffffffffffffffffff16815260200190815260200160002060040160009054906101000a900460ff1660ff16146115cf576040517f08c379a00000000000000000000000000000000000000000000000000000000081526004016115c69061452c565b60405180910390fd5b6001600560009054906101000a900460ff166115eb9190613e31565b60ff16600660008373ffffffffffffffffffffffffffffffffffffffff1673ffffffffffffffffffffffffffffffffffffffff16815260200190815260200160002060030180549050146116a457600660008273ffffffffffffffffffffffffffffffffffffffff1673ffffffffffffffffffffffffffffffffffffffff168152602001908152602001600020600301600090806001815401808255809150506001900390600052602060002001600090919091909150555b60016116bf82600560009054906101000a900460ff16610588565b6116c9919061454c565b600660008373ffffffffffffffffffffffffffffffffffffffff1673ffffffffffffffffffffffffffffffffffffffff168152602001908152602001600020600301600560009054906101000a900460ff1660ff168154811061172f5761172e613e68565b5b906000526020600020018190555050565b6003805461174d90613ec6565b80601f016020809104026020016040519081016040528092919081815260200182805461177990613ec6565b80156117c65780601f1061179b576101008083540402835291602001916117c6565b820191906000526020600020905b8154815290600101906020018083116117a957829003601f168201915b505050505081565b600060028111156117e2576117e16135a0565b5b600560039054906101000a900460ff166002811115611804576118036135a0565b5b14611844576040517f08c379a000000000000000000000000000000000000000000000000000000000815260040161183b90613f44565b60405180910390fd5b6000600660003373ffffffffffffffffffffffffffffffffffffffff1673ffffffffffffffffffffffffffffffffffffffff168152602001908152602001600020600101805461189390613ec6565b905014156118d6576040517f08c379a00000000000000000000000000000000000000000000000000000000081526004016118cd906144c0565b60405180910390fd5b600560009054906101000a900460ff1660ff16600660003373ffffffffffffffffffffffffffffffffffffffff1673ffffffffffffffffffffffffffffffffffffffff16815260200190815260200160002060040160009054906101000a900460ff1660ff161461197c576040517f08c379a00000000000000000000000000000000000000000000000000000000081526004016119739061452c565b60405180910390fd5b6000815114156119c1576040517f08c379a00000000000000000000000000000000000000000000000000000000081526004016119b8906145ee565b60405180910390fd5b600560009054906101000a900460ff1660ff16600660003373ffffffffffffffffffffffffffffffffffffffff1673ffffffffffffffffffffffffffffffffffffffff1681526020019081526020016000206002018054905014611a5a576040517f08c379a0000000000000000000000000000000000000000000000000000000008152600401611a519061465a565b60405180910390fd5b600660003373ffffffffffffffffffffffffffffffffffffffff1673ffffffffffffffffffffffffffffffffffffffff16815260200190815260200160002060020181908060018154018082558091505060019003906000526020600020016000909190919091509080519060200190611ad5929190613157565b5050565b60078281548110611ae957600080fd5b906000526020600020018181548110611b0157600080fd5b906000526020600020016000915091509054906101000a900473ffffffffffffffffffffffffffffffffffffffff1681565b600560009054906101000a900460ff1681565b600060029054906101000a900473ffffffffffffffffffffffffffffffffffffffff1681565b600560019054906101000a900460ff1681565b600060029054906101000a900473ffffffffffffffffffffffffffffffffffffffff1673ffffffffffffffffffffffffffffffffffffffff163373ffffffffffffffffffffffffffffffffffffffff1614611c0f576040517f08c379a0000000000000000000000000000000000000000000000000000000008152600401611c0690614310565b60405180910390fd5b60006002811115611c2357611c226135a0565b5b600560039054906101000a900460ff166002811115611c4557611c446135a0565b5b14611c85576040517f08c379a0000000000000000000000000000000000000000000000000000000008152600401611c7c90613f44565b60405180910390fd5b600560029054906101000a900460ff1615611cd5576040517f08c379a0000000000000000000000000000000000000000000000000000000008152600401611ccc906146c6565b60405180910390fd5b60006007600081548110611cec57611ceb613e68565b5b906000526020600020018054905011611d3a576040517f08c379a0000000000000000000000000000000000000000000000000000000008152600401611d3190614732565b60405180910390fd5b60016007600081548110611d5157611d50613e68565b5b90600052602060002001805490501115611d85576001600560016101000a81548160ff021916908315150217905550611d8e565b611d8d612c1c565b5b565b600060029054906101000a900473ffffffffffffffffffffffffffffffffffffffff1673ffffffffffffffffffffffffffffffffffffffff163373ffffffffffffffffffffffffffffffffffffffff1614611e20576040517f08c379a0000000000000000000000000000000000000000000000000000000008152600401611e1790614310565b60405180910390fd5b60006002811115611e3457611e336135a0565b5b600560039054906101000a900460ff166002811115611e5657611e556135a0565b5b14611e96576040517f08c379a0000000000000000000000000000000000000000000000000000000008152600401611e8d90613f44565b60405180910390fd5b6001600560036101000a81548160ff02191690836002811115611ebc57611ebb6135a0565b5b0217905550565b600280811115611ed657611ed56135a0565b5b600560039054906101000a900460ff166002811115611ef857611ef76135a0565b5b14611f38576040517f08c379a0000000000000000000000000000000000000000000000000000000008152600401611f2f9061479e565b60405180910390fd5b600160009054906101000a900473ffffffffffffffffffffffffffffffffffffffff1673ffffffffffffffffffffffffffffffffffffffff163373ffffffffffffffffffffffffffffffffffffffff1614611fc8576040517f08c379a0000000000000000000000000000000000000000000000000000000008152600401611fbf9061480a565b60405180910390fd5b600160009054906101000a900473ffffffffffffffffffffffffffffffffffffffff1673ffffffffffffffffffffffffffffffffffffffff166108fc479081150290604051600060405180830381858888f19350505050158015612030573d6000803e3d6000fd5b50565b61203b6131dd565b6000806000600660008673ffffffffffffffffffffffffffffffffffffffff1673ffffffffffffffffffffffffffffffffffffffff168152602001908152602001600020600060029054906101000a900473ffffffffffffffffffffffffffffffffffffffff16600560009054906101000a900460ff1660001515600560019054906101000a900460ff16151514806121085750600060028111156120e3576120e26135a0565b5b600560039054906101000a900460ff166002811115612105576121046135a0565b5b14155b806121765750600560009054906101000a900460ff1660ff16600660003373ffffffffffffffffffffffffffffffffffffffff1673ffffffffffffffffffffffffffffffffffffffff16815260200190815260200160002060040160009054906101000a900460ff1660ff16105b836040518060a00160405290816000820154815260200160018201805461219c90613ec6565b80601f01602080910402602001604051908101604052809291908181526020018280546121c890613ec6565b80156122155780601f106121ea57610100808354040283529160200191612215565b820191906000526020600020905b8154815290600101906020018083116121f857829003601f168201915b5050505050815260200160028201805480602002602001604051908101604052809291908181526020016000905b828210156122ef57838290600052602060002001805461226290613ec6565b80601f016020809104026020016040519081016040528092919081815260200182805461228e90613ec6565b80156122db5780601f106122b0576101008083540402835291602001916122db565b820191906000526020600020905b8154815290600101906020018083116122be57829003601f168201915b505050505081526020019060010190612243565b5050505081526020016003820180548060200260200160405190810160405280929190818152602001828054801561234657602002820191906000526020600020905b815481526020019060010190808311612332575b505050505081526020016004820160009054906101000a900460ff1660ff1660ff1681525050935093509350935093509193509193565b600060029054906101000a900473ffffffffffffffffffffffffffffffffffffffff1673ffffffffffffffffffffffffffffffffffffffff163373ffffffffffffffffffffffffffffffffffffffff161461240d576040517f08c379a000000000000000000000000000000000000000000000000000000000815260040161240490614310565b60405180910390fd5b60006002811115612421576124206135a0565b5b600560039054906101000a900460ff166002811115612443576124426135a0565b5b14612483576040517f08c379a000000000000000000000000000000000000000000000000000000000815260040161247a90613f44565b60405180910390fd5b600560019054906101000a900460ff166124d2576040517f08c379a00000000000000000000000000000000000000000000000000000000081526004016124c9906143e8565b60405180910390fd5b600560029054906101000a900460ff1615612522576040517f08c379a0000000000000000000000000000000000000000000000000000000008152600401612519906146c6565b60405180910390fd5b6000600560016101000a81548160ff0219169083151502179055506002600760008154811061255457612553613e68565b5b90600052602060002001805490501180156125ae57506002600760008154811061258157612580613e68565b5b9060005260206000200180549050612599919061482a565b600560009054906101000a900460ff1660ff16105b15612ab25760008061263e6007600560009054906101000a900460ff1660ff16815481106125df576125de613e68565b5b906000526020600020018360ff16815481106125fe576125fd613e68565b5b9060005260206000200160009054906101000a900473ffffffffffffffffffffffffffffffffffffffff16600560009054906101000a900460ff16610588565b90506000600190505b6007600560009054906101000a900460ff1660ff168154811061266d5761266c613e68565b5b90600052602060002001805490508160ff1610156127b4578161270e6007600560009054906101000a900460ff1660ff16815481106126af576126ae613e68565b5b906000526020600020018360ff16815481106126ce576126cd613e68565b5b9060005260206000200160009054906101000a900473ffffffffffffffffffffffffffffffffffffffff16600560009054906101000a900460ff16610588565b116127a15761279b6007600560009054906101000a900460ff1660ff168154811061273c5761273b613e68565b5b906000526020600020018260ff168154811061275b5761275a613e68565b5b9060005260206000200160009054906101000a900473ffffffffffffffffffffffffffffffffffffffff16600560009054906101000a900460ff16610588565b91508092505b80806127ac9061485e565b915050612647565b5060005b6007600560009054906101000a900460ff1660ff16815481106127de576127dd613e68565b5b90600052602060002001805490508160ff161015612a72578260ff168160ff1614612a5f576001600560009054906101000a900460ff1661281f9190613e31565b60ff166007805490501161286d57606060078190806001815401808255809150506001900390600052602060002001600090919091909150908051906020019061286a9291906130cd565b50505b60076001600560009054906101000a900460ff1661288b9190613e31565b60ff168154811061289f5761289e613e68565b5b906000526020600020016007600560009054906101000a900460ff1660ff16815481106128cf576128ce613e68565b5b906000526020600020018260ff16815481106128ee576128ed613e68565b5b9060005260206000200160009054906101000a900473ffffffffffffffffffffffffffffffffffffffff169080600181540180825580915050600190039060005260206000200160009091909190916101000a81548173ffffffffffffffffffffffffffffffffffffffff021916908373ffffffffffffffffffffffffffffffffffffffff1602179055506001600560009054906101000a900460ff166129959190613e31565b600660006007600560009054906101000a900460ff1660ff16815481106129bf576129be613e68565b5b906000526020600020018460ff16815481106129de576129dd613e68565b5b9060005260206000200160009054906101000a900473ffffffffffffffffffffffffffffffffffffffff1673ffffffffffffffffffffffffffffffffffffffff1673ffffffffffffffffffffffffffffffffffffffff16815260200190815260200160002060040160006101000a81548160ff021916908360ff1602179055505b8080612a6a9061485e565b9150506127b8565b506005600081819054906101000a900460ff1680929190612a929061485e565b91906101000a81548160ff021916908360ff160217905550505050612abb565b612aba612c1c565b5b565b60045481565b600160009054906101000a900473ffffffffffffffffffffffffffffffffffffffff1681565b600060029054906101000a900473ffffffffffffffffffffffffffffffffffffffff1673ffffffffffffffffffffffffffffffffffffffff163373ffffffffffffffffffffffffffffffffffffffff1614612b79576040517f08c379a0000000000000000000000000000000000000000000000000000000008152600401612b7090614310565b60405180910390fd5b60016002811115612b8d57612b8c6135a0565b5b600560039054906101000a900460ff166002811115612baf57612bae6135a0565b5b14612bef576040517f08c379a0000000000000000000000000000000000000000000000000000000008152600401612be6906148d4565b60405180910390fd5b6000600560036101000a81548160ff02191690836002811115612c1557612c146135a0565b5b0217905550565b60006002811115612c3057612c2f6135a0565b5b600560039054906101000a900460ff166002811115612c5257612c516135a0565b5b14612c92576040517f08c379a0000000000000000000000000000000000000000000000000000000008152600401612c8990613f44565b60405180910390fd5b60006007600081548110612ca957612ca8613e68565b5b906000526020600020018054905011612cf7576040517f08c379a0000000000000000000000000000000000000000000000000000000008152600401612cee90614732565b60405180910390fd5b6000600560009054906101000a900460ff1660ff16148015612d3b575060016007600081548110612d2b57612d2a613e68565b5b9060005260206000200180549050145b15612de2576007600081548110612d5557612d54613e68565b5b90600052602060002001600081548110612d7257612d71613e68565b5b9060005260206000200160009054906101000a900473ffffffffffffffffffffffffffffffffffffffff16600160006101000a81548173ffffffffffffffffffffffffffffffffffffffff021916908373ffffffffffffffffffffffffffffffffffffffff1602179055506130a0565b60008060005b600560009054906101000a900460ff1660ff168160ff161015612f5457612e7c6007600560009054906101000a900460ff1660ff1681548110612e2e57612e2d613e68565b5b90600052602060002001600081548110612e4b57612e4a613e68565b5b9060005260206000200160009054906101000a900473ffffffffffffffffffffffffffffffffffffffff1682610588565b816002612e8991906148f4565b60ff16612e96919061492f565b83612ea1919061454c565b9250612f1a6007600560009054906101000a900460ff1660ff1681548110612ecc57612ecb613e68565b5b90600052602060002001600181548110612ee957612ee8613e68565b5b9060005260206000200160009054906101000a900473ffffffffffffffffffffffffffffffffffffffff1682610588565b816002612f2791906148f4565b60ff16612f34919061492f565b82612f3f919061454c565b91508080612f4c9061485e565b915050612de8565b5081811115612fff576007600281548110612f7257612f71613e68565b5b90600052602060002001600181548110612f8f57612f8e613e68565b5b9060005260206000200160009054906101000a900473ffffffffffffffffffffffffffffffffffffffff16600160006101000a81548173ffffffffffffffffffffffffffffffffffffffff021916908373ffffffffffffffffffffffffffffffffffffffff16021790555061309d565b600760028154811061301457613013613e68565b5b9060005260206000200160008154811061303157613030613e68565b5b9060005260206000200160009054906101000a900473ffffffffffffffffffffffffffffffffffffffff16600160006101000a81548173ffffffffffffffffffffffffffffffffffffffff021916908373ffffffffffffffffffffffffffffffffffffffff1602179055505b50505b6002600560036101000a81548160ff021916908360028111156130c6576130c56135a0565b5b0217905550565b828054828255906000526020600020908101928215613146579160200282015b828111156131455782518260006101000a81548173ffffffffffffffffffffffffffffffffffffffff021916908373ffffffffffffffffffffffffffffffffffffffff160217905550916020019190600101906130ed565b5b5090506131539190613212565b5090565b82805461316390613ec6565b90600052602060002090601f01602090048101928261318557600085556131cc565b82601f1061319e57805160ff19168380011785556131cc565b828001600101855582156131cc579182015b828111156131cb5782518255916020019190600101906131b0565b5b5090506131d99190613212565b5090565b6040518060a0016040528060008019168152602001606081526020016060815260200160608152602001600060ff1681525090565b5b8082111561322b576000816000905550600101613213565b5090565b6000819050919050565b6132428161322f565b82525050565b600060208201905061325d6000830184613239565b92915050565b6000604051905090565b600080fd5b600080fd5b600073ffffffffffffffffffffffffffffffffffffffff82169050919050565b60006132a282613277565b9050919050565b6132b281613297565b81146132bd57600080fd5b50565b6000813590506132cf816132a9565b92915050565b600060ff82169050919050565b6132eb816132d5565b81146132f657600080fd5b50565b600081359050613308816132e2565b92915050565b600080604083850312156133255761332461326d565b5b6000613333858286016132c0565b9250506020613344858286016132f9565b9150509250929050565b61335781613297565b82525050565b600081519050919050565b600082825260208201905092915050565b60005b8381101561339757808201518184015260208101905061337c565b838111156133a6576000848401525b50505050565b6000601f19601f8301169050919050565b60006133c88261335d565b6133d28185613368565b93506133e2818560208601613379565b6133eb816133ac565b840191505092915050565b6133ff816132d5565b82525050565b60008115159050919050565b61341a81613405565b82525050565b600081519050919050565b600082825260208201905092915050565b6000819050602082019050919050565b600081519050919050565b600082825260208201905092915050565b6000819050602082019050919050565b61348181613297565b82525050565b60006134938383613478565b60208301905092915050565b6000602082019050919050565b60006134b78261344c565b6134c18185613457565b93506134cc83613468565b8060005b838110156134fd5781516134e48882613487565b97506134ef8361349f565b9250506001810190506134d0565b5085935050505092915050565b600061351683836134ac565b905092915050565b6000602082019050919050565b600061353682613420565b613540818561342b565b9350836020820285016135528561343c565b8060005b8581101561358e578484038952815161356f858261350a565b945061357a8361351e565b925060208a01995050600181019050613556565b50829750879550505050505092915050565b7f4e487b7100000000000000000000000000000000000000000000000000000000600052602160045260246000fd5b600381106135e0576135df6135a0565b5b50565b60008190506135f1826135cf565b919050565b6000613601826135e3565b9050919050565b613611816135f6565b82525050565b60006101608201905061362d600083018e61334e565b818103602083015261363f818d6133bd565b90508181036040830152613653818c6133bd565b9050613662606083018b61334e565b61366f608083018a6133f6565b61367c60a0830189613239565b61368960c0830188613239565b61369660e0830187613411565b6136a4610100830186613411565b8181036101208301526136b7818561352b565b90506136c7610140830184613608565b9c9b505050505050505050505050565b60006020820190506136ec60008301846133f6565b92915050565b6000819050919050565b613705816136f2565b811461371057600080fd5b50565b600081359050613722816136fc565b92915050565b600080fd5b600080fd5b7f4e487b7100000000000000000000000000000000000000000000000000000000600052604160045260246000fd5b61376a826133ac565b810181811067ffffffffffffffff8211171561378957613788613732565b5b80604052505050565b600061379c613263565b90506137a88282613761565b919050565b600067ffffffffffffffff8211156137c8576137c7613732565b5b6137d1826133ac565b9050602081019050919050565b82818337600083830152505050565b60006138006137fb846137ad565b613792565b90508281526020810184848401111561381c5761381b61372d565b5b6138278482856137de565b509392505050565b600082601f83011261384457613843613728565b5b81356138548482602086016137ed565b91505092915050565b6000806000606084860312156138765761387561326d565b5b600061388486828701613713565b935050602084013567ffffffffffffffff8111156138a5576138a4613272565b5b6138b18682870161382f565b925050604084013567ffffffffffffffff8111156138d2576138d1613272565b5b6138de8682870161382f565b9150509250925092565b6000602082019050818103600083015261390281846133bd565b905092915050565b6139138161322f565b811461391e57600080fd5b50565b6000813590506139308161390a565b92915050565b600080600080608085870312156139505761394f61326d565b5b600061395e878288016132c0565b945050602085013567ffffffffffffffff81111561397f5761397e613272565b5b61398b8782880161382f565b935050604085013567ffffffffffffffff8111156139ac576139ab613272565b5b6139b88782880161382f565b92505060606139c987828801613921565b91505092959194509250565b6000602082840312156139eb576139ea61326d565b5b60006139f9848285016132c0565b91505092915050565b613a0b816136f2565b82525050565b6000606082019050613a266000830186613a02565b8181036020830152613a3881856133bd565b9050613a4760408301846133f6565b949350505050565b6000602082019050613a646000830184613411565b92915050565b600060208284031215613a8057613a7f61326d565b5b600082013567ffffffffffffffff811115613a9e57613a9d613272565b5b613aaa8482850161382f565b91505092915050565b60008060408385031215613aca57613ac961326d565b5b6000613ad885828601613921565b9250506020613ae985828601613921565b9150509250929050565b6000602082019050613b08600083018461334e565b92915050565b613b17816136f2565b82525050565b600082825260208201905092915050565b6000613b398261335d565b613b438185613b1d565b9350613b53818560208601613379565b613b5c816133ac565b840191505092915050565b600081519050919050565b600082825260208201905092915050565b6000819050602082019050919050565b6000613b9f8383613b2e565b905092915050565b6000602082019050919050565b6000613bbf82613b67565b613bc98185613b72565b935083602082028501613bdb85613b83565b8060005b85811015613c175784840389528151613bf88582613b93565b9450613c0383613ba7565b925060208a01995050600181019050613bdf565b50829750879550505050505092915050565b600081519050919050565b600082825260208201905092915050565b6000819050602082019050919050565b613c5e8161322f565b82525050565b6000613c708383613c55565b60208301905092915050565b6000602082019050919050565b6000613c9482613c29565b613c9e8185613c34565b9350613ca983613c45565b8060005b83811015613cda578151613cc18882613c64565b9750613ccc83613c7c565b925050600181019050613cad565b5085935050505092915050565b613cf0816132d5565b82525050565b600060a083016000830151613d0e6000860182613b0e565b5060208301518482036020860152613d268282613b2e565b91505060408301518482036040860152613d408282613bb4565b91505060608301518482036060860152613d5a8282613c89565b9150506080830151613d6f6080860182613ce7565b508091505092915050565b60006080820190508181036000830152613d948187613cf6565b9050613da3602083018661334e565b613db060408301856133f6565b613dbd6060830184613411565b95945050505050565b6000613dd182613277565b9050919050565b613de181613dc6565b82525050565b6000602082019050613dfc6000830184613dd8565b92915050565b7f4e487b7100000000000000000000000000000000000000000000000000000000600052601160045260246000fd5b6000613e3c826132d5565b9150613e47836132d5565b92508260ff03821115613e5d57613e5c613e02565b5b828201905092915050565b7f4e487b7100000000000000000000000000000000000000000000000000000000600052603260045260246000fd5b7f4e487b7100000000000000000000000000000000000000000000000000000000600052602260045260246000fd5b60006002820490506001821680613ede57607f821691505b60208210811415613ef257613ef1613e97565b5b50919050565b7f5f5f5f4e4f545f52554e4e494e475f5f5f000000000000000000000000000000600082015250565b6000613f2e601183613368565b9150613f3982613ef8565b602082019050919050565b60006020820190508181036000830152613f5d81613f21565b9050919050565b7f5f5f5f50415254494349504154494f4e5f434c4f5345445f5f5f000000000000600082015250565b6000613f9a601a83613368565b9150613fa582613f64565b602082019050919050565b60006020820190508181036000830152613fc981613f8d565b9050919050565b7f5f5f5f4645455f5f5f0000000000000000000000000000000000000000000000600082015250565b6000614006600983613368565b915061401182613fd0565b602082019050919050565b6000602082019050818103600083015261403581613ff9565b9050919050565b7f5f5f5f4e4f5f41444d494e5f5f5f000000000000000000000000000000000000600082015250565b6000614072600e83613368565b915061407d8261403c565b602082019050919050565b600060208201905081810360008301526140a181614065565b9050919050565b7f5f5f5f4558495354494e475f5f5f000000000000000000000000000000000000600082015250565b60006140de600e83613368565b91506140e9826140a8565b602082019050919050565b6000602082019050818103600083015261410d816140d1565b9050919050565b7f5f5f5f454d5054595f4e414d455f5f5f00000000000000000000000000000000600082015250565b600061414a601083613368565b915061415582614114565b602082019050919050565b600060208201905081810360008301526141798161413d565b9050919050565b7f5f5f5f454d4f54595f4c494e4b5f5f5f00000000000000000000000000000000600082015250565b60006141b6601083613368565b91506141c182614180565b602082019050919050565b600060208201905081810360008301526141e5816141a9565b9050919050565b7f5f5f5f454d5054595f42494f5f5f5f0000000000000000000000000000000000600082015250565b6000614222600f83613368565b915061422d826141ec565b602082019050919050565b6000602082019050818103600083015261425181614215565b9050919050565b7f5f5f5f4c4f4e475f42494f5f5f5f000000000000000000000000000000000000600082015250565b600061428e600e83613368565b915061429982614258565b602082019050919050565b600060208201905081810360008301526142bd81614281565b9050919050565b7f5f5f5f4f4e4c595f4f574e45525f5f5f00000000000000000000000000000000600082015250565b60006142fa601083613368565b9150614305826142c4565b602082019050919050565b60006020820190508181036000830152614329816142ed565b9050919050565b7f5f5f5f46494e49534845445f5f5f000000000000000000000000000000000000600082015250565b6000614366600e83613368565b915061437182614330565b602082019050919050565b6000602082019050818103600083015261439581614359565b9050919050565b7f5f5f5f564f54494e475f434c4f5345445f5f5f00000000000000000000000000600082015250565b60006143d2601383613368565b91506143dd8261439c565b602082019050919050565b60006020820190508181036000830152614401816143c5565b9050919050565b7f5f5f5f4e4f5f53454c465f5f5f00000000000000000000000000000000000000600082015250565b600061443e600d83613368565b915061444982614408565b602082019050919050565b6000602082019050818103600083015261446d81614431565b9050919050565b7f5f5f5f494e56414c49445f434f4e54455354414e545f5f5f0000000000000000600082015250565b60006144aa601883613368565b91506144b582614474565b602082019050919050565b600060208201905081810360008301526144d98161449d565b9050919050565b7f5f5f5f454c494d494e415445445f5f5f00000000000000000000000000000000600082015250565b6000614516601083613368565b9150614521826144e0565b602082019050919050565b6000602082019050818103600083015261454581614509565b9050919050565b60006145578261322f565b91506145628361322f565b9250827fffffffffffffffffffffffffffffffffffffffffffffffffffffffffffffffff0382111561459757614596613e02565b5b828201905092915050565b7f5f5f5f454d5054595f4c494e4b5f5f5f00000000000000000000000000000000600082015250565b60006145d8601083613368565b91506145e3826145a2565b602082019050919050565b60006020820190508181036000830152614607816145cb565b9050919050565b7f5f5f5f5355424d49545445445f5f5f0000000000000000000000000000000000600082015250565b6000614644600f83613368565b915061464f8261460e565b602082019050919050565b6000602082019050818103600083015261467381614637565b9050919050565b7f5f5f5f50415254494349504154494f4e5f4f50454e5f5f5f0000000000000000600082015250565b60006146b0601883613368565b91506146bb8261467a565b602082019050919050565b600060208201905081810360008301526146df816146a3565b9050919050565b7f5f5f5f4e4f5f434f4e54455354414e54535f5f5f000000000000000000000000600082015250565b600061471c601483613368565b9150614727826146e6565b602082019050919050565b6000602082019050818103600083015261474b8161470f565b9050919050565b7f5f5f5f4e4f545f46494e49534845445f5f5f0000000000000000000000000000600082015250565b6000614788601283613368565b915061479382614752565b602082019050919050565b600060208201905081810360008301526147b78161477b565b9050919050565b7f5f5f5f4e4f545f57494e4e45525f5f5f00000000000000000000000000000000600082015250565b60006147f4601083613368565b91506147ff826147be565b602082019050919050565b60006020820190508181036000830152614823816147e7565b9050919050565b60006148358261322f565b91506148408361322f565b92508282101561485357614852613e02565b5b828203905092915050565b6000614869826132d5565b915060ff82141561487d5761487c613e02565b5b600182019050919050565b7f5f5f5f4e4f545f5041555345445f5f5f00000000000000000000000000000000600082015250565b60006148be601083613368565b91506148c982614888565b602082019050919050565b600060208201905081810360008301526148ed816148b1565b9050919050565b60006148ff826132d5565b915061490a836132d5565b92508160ff048311821515161561492457614923613e02565b5b828202905092915050565b600061493a8261322f565b91506149458361322f565b9250817fffffffffffffffffffffffffffffffffffffffffffffffffffffffffffffffff048311821515161561497e5761497d613e02565b5b82820290509291505056fea264697066735822122064669a1d196a00f1c5c3cfba905c36b4e30ad8c67a856e878389c14a7734902f64736f6c634300080a0033",
  "immutableReferences": {},
  "source": "//SPDX-License-Identifier: MIT\npragma solidity 0.8.10;\nimport \"@openzeppelin/contracts/proxy/utils/Initializable.sol\";\n\ncontract Contest is Initializable {\n    address public owner;\n    address payable public winner;\n    string public title;\n    string public description;\n\n    uint8 public constant NUM_ALLOWED_PARTICIPANTS = 4;\n    uint256 public fee;\n    uint8 public currentRound;\n\n    bool public votingOpen;\n    bool public participationOpen;\n\n    enum ContestState {\n        RUNNING,\n        PAUSED,\n        FINISHED\n    }\n    ContestState state;\n\n    struct Contestant {\n        bytes32 name;\n        string bio;\n        string[] performanceLinks;\n        uint256[] votesReceived;\n        uint8 progressedToRound;\n    }\n    mapping(address => Contestant) public contestants;\n    //address[][NUM_ALLOWED_PARTICIPANTS] public qualifiers;\n    address[][] public qualifiers;\n\n    // Fired to signal that the contest is open for participation\n    event ContestOpenedForParticipation();\n\n    /*\n     * Fired once the number of participants = 4.\n     * Signals that the contest is closed for participation\n     */\n    event ContestClosedForParticipation(address indexed _addr);\n\n    // Voting opened for a round\n    event VotingOpened(uint8 round);\n\n    // Voting closed for a round\n    event VotingClosed(uint8 round);\n\n    function initialize(\n        address _owner,\n        string memory _title,\n        string memory _description,\n        uint256 _fee\n    ) external {\n        //__ERC721_init(_name, _symbol);\n        owner = _owner;\n        title = _title;\n        description = _description;\n        fee = _fee;\n        participationOpen = true;\n        state = ContestState.RUNNING;\n    }\n\n    modifier isOwner() {\n        require(msg.sender == owner, \"___ONLY_OWNER___\");\n        _;\n    }\n\n    modifier isRunning() {\n        require(state == ContestState.RUNNING, \"___NOT_RUNNING___\");\n        _;\n    }\n\n    modifier isPaused() {\n        require(state == ContestState.PAUSED, \"___NOT_PAUSED___\");\n        _;\n    }\n\n    function stopContest() public isOwner {\n        require(state != ContestState.FINISHED, \"___FINISHED___\");\n        state = ContestState.FINISHED;\n    }\n\n    function pauseContest() public isOwner isRunning {\n        state = ContestState.PAUSED;\n    }\n\n    function resumeContest() public isOwner isPaused {\n        state = ContestState.RUNNING;\n    }\n\n    /*function enableParticipation() public isOwner isRunning {\n        participationOpen = true;\n    }*/\n\n    function disableParticipation() public isOwner isRunning {\n        participationOpen = false;\n        votingOpen = true;\n    }\n\n    function openVoting() public isOwner isRunning {\n        require(!participationOpen, \"___PARTICIPATION_OPEN___\");\n        //require( qualifiers[0].length == NUM_ALLOWED_PARTICIPANTS, \"Not enough participants\" );\n        require(qualifiers[0].length > 0, \"___NO_CONTESTANTS___\");\n        if (qualifiers[0].length > 1) {\n            votingOpen = true;\n        } else {\n            pickWinner();\n        }\n    }\n\n    function closeVoting() public isOwner isRunning {\n        require(votingOpen, \"___VOTING_CLOSED___\");\n        require(!participationOpen, \"___PARTICIPATION_OPEN___\");\n        votingOpen = false;\n\n        /*\n         * Max. Rounds = NUM_ALLOWED_PARTICIPANTS - 1\n         * So, for 4 participants, max rounds = 3 => R0, R1, R2\n         * So, we count votes of the current round and eliminate\n         * the person with the lowest votes.\n         * Except for the Final Round.\n         * For final round, we have an algorthm that takes into\n         * consideration weighted votes from all the rounds.\n         */\n        //uint8 total_rounds = NUM_ALLOWED_PARTICIPANTS - 1;\n\n        //if (currentRound < total_rounds - 1) {\n        if (\n            (qualifiers[0].length > 2) &&\n            (currentRound < qualifiers[0].length - 2)\n        ) {\n            uint8 tmpCId = 0;\n            //uint256 tmpLowestVotes = contestants[ qualifiers[currentRound][tmpCId] ].votesReceived[currentRound];\n            uint256 tmpLowestVotes = getContestantVotes(qualifiers[currentRound][tmpCId], currentRound);\n\n            for (uint8 i = 1; i < qualifiers[currentRound].length; i++) {\n                //TODO: Right now, I haven't accounted for a scenario when 2 contestants\n                // have equal scores. So, using <= instead of < , for now\n                //if ( contestants[qualifiers[currentRound][i]].votesReceived[ currentRound ] <= tmpLowestVotes ) {\n                if ( getContestantVotes(qualifiers[currentRound][i], currentRound) <= tmpLowestVotes ) {\n                    //tmpLowestVotes = contestants[qualifiers[currentRound][i]] .votesReceived[currentRound];\n                    tmpLowestVotes = getContestantVotes(qualifiers[currentRound][i], currentRound);\n                    tmpCId = i;\n                }\n            }\n\n            for (uint8 i = 0; i < qualifiers[currentRound].length; i++) {\n                //Skip the one with the lowest votes\n                if (i != tmpCId) {\n                    //if (qualifiers[currentRound + 1].length == 0) {\n                    if (qualifiers.length <= currentRound + 1) {\n                        address[] memory a;\n                        qualifiers.push(a);\n                    }\n\n                    qualifiers[currentRound + 1].push( qualifiers[currentRound][i] );\n                    \n                    contestants[qualifiers[currentRound][i]].progressedToRound = currentRound + 1;\n                }\n            }\n            currentRound++;\n        } else {\n            pickWinner();\n        }\n    }\n\n    function pickWinner() private isRunning {\n        /*\n         * For final score, we use weighted scores of all the roundsWeighted\n         * final score = 60% x final (3rd) Round + 30% x 2nd round + 10% x 1st round\n         */\n        /*uint256[4] storage finalistOneAllVotes = contestants[qualifiers[2][0]].votesReceived;\n        uint256 finalistOneFinalScore = 60 * finalistOneAllVotes[2] + 30 * finalistOneAllVotes[1] + 10 * finalistOneAllVotes[0];\n\n        uint256[4] storage finalistTwoAllVotes = contestants[qualifiers[2][1]].votesReceived;\n        uint256 finalistTwoFinalScore = 60 * finalistTwoAllVotes[2] + 30 * finalistTwoAllVotes[1] + 10 * finalistTwoAllVotes[0];*/\n\n        require(qualifiers[0].length > 0, \"___NO_CONTESTANTS___\");\n\n        if (currentRound == 0 && qualifiers[0].length == 1) {\n            winner = payable(qualifiers[0][0]);\n        } else {\n            uint256 finalistOneFinalScore = 0;\n            uint256 finalistTwoFinalScore = 0;\n            for (uint8 i = 0; i < currentRound; i++) {\n                //finalistOneFinalScore += 2 * i * contestants[qualifiers[currentRound][0]].votesReceived[i];\n                finalistOneFinalScore += 2 * i * getContestantVotes(qualifiers[currentRound][0], i);\n                //finalistTwoFinalScore += 2 * i * contestants[qualifiers[currentRound][1]].votesReceived[i];\n                finalistTwoFinalScore += 2 * i * getContestantVotes(qualifiers[currentRound][1], i);\n            }\n\n            if (finalistTwoFinalScore > finalistOneFinalScore) {\n                winner = payable(qualifiers[2][1]);\n            } else {\n                winner = payable(qualifiers[2][0]);\n            }\n        }\n        state = ContestState.FINISHED;\n    }\n\n    function getContestantVotes(address _addr, uint8 roundNum) public view returns (uint256) {\n        if(contestants[_addr].votesReceived.length < roundNum + 1) {\n            return 0;\n        }\n        else {\n            return contestants[_addr].votesReceived[roundNum];\n        }\n    }\n\n    function uint2str(uint256 _i)\n        internal\n        pure\n        returns (string memory _uintAsString)\n    {\n        if (_i == 0) {\n            return \"0\";\n        }\n        uint256 j = _i;\n        uint256 len;\n        while (j != 0) {\n            len++;\n            j /= 10;\n        }\n        bytes memory bstr = new bytes(len);\n        uint256 k = len;\n        while (_i != 0) {\n            k = k - 1;\n            uint8 temp = (48 + uint8(_i - (_i / 10) * 10));\n            bytes1 b1 = bytes1(temp);\n            bstr[k] = b1;\n            _i /= 10;\n        }\n        return string(bstr);\n    }\n\n    function participate(\n        bytes32 _name,\n        string memory _performanceLink,\n        string memory _bio\n    ) public payable isRunning {\n        require(participationOpen, \"___PARTICIPATION_CLOSED___\");\n        require(msg.value == fee, \"___FEE___\");\n        require(msg.sender != owner, \"___NO_ADMIN___\");\n        require(\n            bytes(contestants[msg.sender].bio).length == 0,\n            \"___EXISTING___\"\n        );\n        //require( qualifiers[0].length < NUM_ALLOWED_PARTICIPANTS, \"Maximum participants reached\" );\n        require(_name.length != 0, \"___EMPTY_NAME___\");\n        require(bytes(_performanceLink).length != 0, \"___EMOTY_LINK___\");\n        require(bytes(_bio).length != 0, \"___EMPTY_BIO___\");\n        require(bytes(_bio).length <= 60, \"___LONG_BIO___\");\n\n        if (qualifiers.length == 0) {\n            address[] memory a;\n            qualifiers.push(a);\n        }\n        qualifiers[0].push(msg.sender);\n        contestants[msg.sender].name = _name;\n        //contestants[msg.sender].performanceLinks[currentRound] = _performanceLink;\n        contestants[msg.sender].performanceLinks.push(_performanceLink);\n        contestants[msg.sender].bio = _bio;\n\n        /*\n         * If we have reached NUM_ALLOWED_PARTICIPANTS contestants now,\n         * disable further participantion and notify the UI\n         */\n        /*if (qualifiers[0].length == NUM_ALLOWED_PARTICIPANTS) {\n            participationOpen = false;\n            emit ContestClosedForParticipation(msg.sender);\n        }*/\n    }\n\n    function submitPerformance(string memory _performanceLink)\n        public\n        payable\n        isRunning\n    {\n        //require(participationOpen, \"___PARTICIPATION_CLOSED___\");\n        //require( qualifiers[0].length < NUM_ALLOWED_PARTICIPANTS, \"Maximum participants reached\" );\n        require(\n            bytes(contestants[msg.sender].bio).length != 0,\n            \"___INVALID_CONTESTANT___\"\n        );\n        require(\n            contestants[msg.sender].progressedToRound == currentRound,\n            \"___ELIMINATED___\"\n        );\n        require(bytes(_performanceLink).length != 0, \"___EMPTY_LINK___\");\n        require(\n            contestants[msg.sender].performanceLinks.length == currentRound,\n            \"___SUBMITTED___\"\n        );\n\n        //contestants[msg.sender].performanceLinks[currentRound] = _performanceLink;\n        contestants[msg.sender].performanceLinks.push(_performanceLink);\n    }\n\n    function vote(address _addr) public payable isRunning {\n        require(votingOpen, \"___VOTING_CLOSED___\");\n        require(msg.sender != owner, \"___NO_ADMIN___\");\n        require(msg.sender != _addr, \"___NO_SELF___\");\n        require(\n            bytes(contestants[_addr].bio).length != 0,\n            \"___INVALID_CONTESTANT___\"\n        );\n        require(\n            contestants[_addr].progressedToRound == currentRound,\n            \"___ELIMINATED___\"\n        );\n        //also check whether the contestant has advanced to this round or not\n        //contestants[_addr].votesReceived[currentRound] += 1;\n        if (contestants[_addr].votesReceived.length != currentRound + 1) {\n            contestants[_addr].votesReceived.push(0);\n        }\n        contestants[_addr].votesReceived[currentRound] = getContestantVotes(_addr, currentRound) + 1;\n    }\n\n    function claimReward() public {\n        require(state == ContestState.FINISHED, \"___NOT_FINISHED___\");\n        require(msg.sender == winner, \"___NOT_WINNER___\");\n        winner.transfer(address(this).balance);\n    }\n\n    function getBalance() public view returns (uint256) {\n        return address(this).balance;\n    }\n\n    function getContestDetails()\n        public\n        view\n        returns (\n            address,\n            string memory,\n            string memory,\n            address,\n            uint8,\n            uint256,\n            uint256,\n            bool,\n            bool,\n            //address[][NUM_ALLOWED_PARTICIPANTS] memory,\n            address[][] memory,\n            ContestState\n        )\n    {\n        return (\n            owner,\n            title,\n            description,\n            winner,\n            NUM_ALLOWED_PARTICIPANTS,\n            fee,\n            currentRound,\n            participationOpen,\n            votingOpen,\n            qualifiers,\n            state\n        );\n    }\n\n    function getContestantDetails(address _addr)\n        public\n        view\n        returns (\n            Contestant memory,\n            address,\n            uint8,\n            bool\n        )\n    {\n        return (\n            contestants[_addr],\n            owner,\n            currentRound,\n            (\n                votingOpen == false || state != ContestState.RUNNING || \n                (contestants[msg.sender].progressedToRound < currentRound)\n            )\n        );\n    }\n}\n",
  "sourcePath": "/home/shariqkhanfreelancer/Workspace/BLOCKCHAIN/Solidity/BlockStar/contracts/Contest.sol",
  "compiler": {
    "name": "solc",
    "version": "0.8.10+commit.fc410830.Emscripten.clang"
  },
  "schemaVersion": "3.4.7",
  "updatedAt": "2022-08-14T14:32:21.056Z",
  "devdoc": {
    "kind": "dev",
    "methods": {},
    "version": 1
  },
  "userdoc": {
    "kind": "user",
    "methods": {},
    "version": 1
  }
}