{
  "contractName": "ContestCloneFactory",
  "abi": [
    {
      "inputs": [],
      "stateMutability": "nonpayable",
      "type": "constructor"
    },
    {
      "inputs": [
        {
          "internalType": "uint256",
          "name": "",
          "type": "uint256"
        }
      ],
      "name": "contests",
      "outputs": [
        {
          "internalType": "address",
          "name": "addr",
          "type": "address"
        },
        {
          "internalType": "string",
          "name": "title",
          "type": "string"
        }
      ],
      "stateMutability": "view",
      "type": "function",
      "constant": true
    },
    {
      "inputs": [
        {
          "internalType": "string",
          "name": "_title",
          "type": "string"
        },
        {
          "internalType": "uint256",
          "name": "_contestingFee",
          "type": "uint256"
        },
        {
          "internalType": "uint256",
          "name": "_votingFee",
          "type": "uint256"
        }
      ],
      "name": "createClone",
      "outputs": [
        {
          "internalType": "address",
          "name": "",
          "type": "address"
        }
      ],
      "stateMutability": "nonpayable",
      "type": "function"
    },
    {
      "inputs": [],
      "name": "getContests",
      "outputs": [
        {
          "components": [
            {
              "internalType": "address",
              "name": "addr",
              "type": "address"
            },
            {
              "internalType": "string",
              "name": "title",
              "type": "string"
            }
          ],
          "internalType": "struct ContestCloneFactory.ClonedContest[]",
          "name": "",
          "type": "tuple[]"
        }
      ],
      "stateMutability": "view",
      "type": "function",
      "constant": true
    },
    {
      "inputs": [],
      "name": "getDummy",
      "outputs": [
        {
          "internalType": "string",
          "name": "",
          "type": "string"
        }
      ],
      "stateMutability": "pure",
      "type": "function",
      "constant": true
    }
  ],
  "bytecode": "0x60a060405234801561001057600080fd5b5060405161001d90610072565b604051809103906000f080158015610039573d6000803e3d6000fd5b5073ffffffffffffffffffffffffffffffffffffffff1660808173ffffffffffffffffffffffffffffffffffffffff168152505061007f565b6124f780610cc383390190565b608051610c2a610099600039600060f60152610c2a6000f3fe608060405234801561001057600080fd5b506004361061004c5760003560e01c806332f41d29146100515780639d7ed73814610081578063bfaba76a146100b2578063cf40fc9c146100d0575b600080fd5b61006b60048036038101906100669190610780565b6100ee565b6040516100789190610830565b60405180910390f35b61009b6004803603810190610096919061084b565b610218565b6040516100a9929190610900565b60405180910390f35b6100ba6102f4565b6040516100c79190610a88565b60405180910390f35b6100d861043b565b6040516100e59190610aaa565b60405180910390f35b60008061011a7f0000000000000000000000000000000000000000000000000000000000000000610478565b90508073ffffffffffffffffffffffffffffffffffffffff1663e8668c52338787876040518563ffffffff1660e01b815260040161015b9493929190610adb565b600060405180830381600087803b15801561017557600080fd5b505af1158015610189573d6000803e3d6000fd5b505050506000806001816001815401808255809150500390600052602060002090600202019050858160010190805190602001906101c892919061054d565b50818160000160006101000a81548173ffffffffffffffffffffffffffffffffffffffff021916908373ffffffffffffffffffffffffffffffffffffffff16021790555081925050509392505050565b6000818154811061022857600080fd5b90600052602060002090600202016000915090508060000160009054906101000a900473ffffffffffffffffffffffffffffffffffffffff169080600101805461027190610b56565b80601f016020809104026020016040519081016040528092919081815260200182805461029d90610b56565b80156102ea5780601f106102bf576101008083540402835291602001916102ea565b820191906000526020600020905b8154815290600101906020018083116102cd57829003601f168201915b5050505050905082565b60606000805480602002602001604051908101604052809291908181526020016000905b8282101561043257838290600052602060002090600202016040518060400160405290816000820160009054906101000a900473ffffffffffffffffffffffffffffffffffffffff1673ffffffffffffffffffffffffffffffffffffffff1673ffffffffffffffffffffffffffffffffffffffff1681526020016001820180546103a190610b56565b80601f01602080910402602001604051908101604052809291908181526020018280546103cd90610b56565b801561041a5780601f106103ef5761010080835404028352916020019161041a565b820191906000526020600020905b8154815290600101906020018083116103fd57829003601f168201915b50505050508152505081526020019060010190610318565b50505050905090565b60606040518060400160405280600e81526020017f48656c6c6c6c6f6f6f6f6f6f2121000000000000000000000000000000000000815250905090565b60006040517f3d602d80600a3d3981f3363d3d373d3d3d363d7300000000000000000000000081528260601b60148201527f5af43d82803e903d91602b57fd5bf3000000000000000000000000000000000060288201526037816000f0915050600073ffffffffffffffffffffffffffffffffffffffff168173ffffffffffffffffffffffffffffffffffffffff161415610548576040517f08c379a000000000000000000000000000000000000000000000000000000000815260040161053f90610bd4565b60405180910390fd5b919050565b82805461055990610b56565b90600052602060002090601f01602090048101928261057b57600085556105c2565b82601f1061059457805160ff19168380011785556105c2565b828001600101855582156105c2579182015b828111156105c15782518255916020019190600101906105a6565b5b5090506105cf91906105d3565b5090565b5b808211156105ec5760008160009055506001016105d4565b5090565b6000604051905090565b600080fd5b600080fd5b600080fd5b600080fd5b6000601f19601f8301169050919050565b7f4e487b7100000000000000000000000000000000000000000000000000000000600052604160045260246000fd5b6106578261060e565b810181811067ffffffffffffffff821117156106765761067561061f565b5b80604052505050565b60006106896105f0565b9050610695828261064e565b919050565b600067ffffffffffffffff8211156106b5576106b461061f565b5b6106be8261060e565b9050602081019050919050565b82818337600083830152505050565b60006106ed6106e88461069a565b61067f565b90508281526020810184848401111561070957610708610609565b5b6107148482856106cb565b509392505050565b600082601f83011261073157610730610604565b5b81356107418482602086016106da565b91505092915050565b6000819050919050565b61075d8161074a565b811461076857600080fd5b50565b60008135905061077a81610754565b92915050565b600080600060608486031215610799576107986105fa565b5b600084013567ffffffffffffffff8111156107b7576107b66105ff565b5b6107c38682870161071c565b93505060206107d48682870161076b565b92505060406107e58682870161076b565b9150509250925092565b600073ffffffffffffffffffffffffffffffffffffffff82169050919050565b600061081a826107ef565b9050919050565b61082a8161080f565b82525050565b60006020820190506108456000830184610821565b92915050565b600060208284031215610861576108606105fa565b5b600061086f8482850161076b565b91505092915050565b600081519050919050565b600082825260208201905092915050565b60005b838110156108b2578082015181840152602081019050610897565b838111156108c1576000848401525b50505050565b60006108d282610878565b6108dc8185610883565b93506108ec818560208601610894565b6108f58161060e565b840191505092915050565b60006040820190506109156000830185610821565b818103602083015261092781846108c7565b90509392505050565b600081519050919050565b600082825260208201905092915050565b6000819050602082019050919050565b6109658161080f565b82525050565b600082825260208201905092915050565b600061098782610878565b610991818561096b565b93506109a1818560208601610894565b6109aa8161060e565b840191505092915050565b60006040830160008301516109cd600086018261095c565b50602083015184820360208601526109e5828261097c565b9150508091505092915050565b60006109fe83836109b5565b905092915050565b6000602082019050919050565b6000610a1e82610930565b610a28818561093b565b935083602082028501610a3a8561094c565b8060005b85811015610a765784840389528151610a5785826109f2565b9450610a6283610a06565b925060208a01995050600181019050610a3e565b50829750879550505050505092915050565b60006020820190508181036000830152610aa28184610a13565b905092915050565b60006020820190508181036000830152610ac481846108c7565b905092915050565b610ad58161074a565b82525050565b6000608082019050610af06000830187610821565b8181036020830152610b0281866108c7565b9050610b116040830185610acc565b610b1e6060830184610acc565b95945050505050565b7f4e487b7100000000000000000000000000000000000000000000000000000000600052602260045260246000fd5b60006002820490506001821680610b6e57607f821691505b60208210811415610b8257610b81610b27565b5b50919050565b7f455243313136373a20637265617465206661696c656400000000000000000000600082015250565b6000610bbe601683610883565b9150610bc982610b88565b602082019050919050565b60006020820190508181036000830152610bed81610bb1565b905091905056fea2646970667358221220e096eff6692c00f5becdf9cda4d81c77d95b3dd2bb487c40eeeca7ed3b4d93e764736f6c634300080a0033608060405234801561001057600080fd5b506124d7806100206000396000f3fe6080604052600436106101095760003560e01c80638fbc4fc411610095578063b88a802f11610064578063b88a802f14610308578063c631b2921461031f578063dab306b114610336578063dfbf53ae14610361578063e8668c521461038c57610109565b80638fbc4fc414610284578063996ab783146102af578063a95824b4146102c6578063affc0670146102f157610109565b80636470a639116100dc5780636470a639146101a957806367892ac3146101e75780636dd7d8ea146102125780638a19c8bc1461022e5780638da5cb5b1461025957610109565b806303e3cd6a1461010e57806312065fe01461014b5780631d27769f14610176578063563df4b314610192575b600080fd5b34801561011a57600080fd5b50610135600480360381019061013091906118f5565b6103b5565b6040516101429190611976565b60405180910390f35b34801561015757600080fd5b50610160610406565b60405161016d91906119a0565b60405180910390f35b610190600480360381019061018b9190611b01565b61040e565b005b34801561019e57600080fd5b506101a7610655565b005b3480156101b557600080fd5b506101d060048036038101906101cb9190611b76565b610702565b6040516101de929190611c47565b60405180910390f35b3480156101f357600080fd5b506101fc6107bb565b6040516102099190611c92565b60405180910390f35b61022c60048036038101906102279190611b76565b6107ce565b005b34801561023a57600080fd5b50610243610a1b565b6040516102509190611cad565b60405180910390f35b34801561026557600080fd5b5061026e610a2e565b60405161027b9190611976565b60405180910390f35b34801561029057600080fd5b50610299610a54565b6040516102a691906119a0565b60405180910390f35b3480156102bb57600080fd5b506102c4610a5a565b005b3480156102d257600080fd5b506102db610b07565b6040516102e89190611c92565b60405180910390f35b3480156102fd57600080fd5b50610306610b1a565b005b34801561031457600080fd5b5061031d610c76565b005b34801561032b57600080fd5b50610334610d3b565b005b34801561034257600080fd5b5061034b611406565b60405161035891906119a0565b60405180910390f35b34801561036d57600080fd5b5061037661140c565b6040516103839190611ce9565b60405180910390f35b34801561039857600080fd5b506103b360048036038101906103ae9190611d04565b611432565b005b600782600481106103c557600080fd5b0181815481106103d457600080fd5b906000526020600020016000915091509054906101000a900473ffffffffffffffffffffffffffffffffffffffff1681565b600047905090565b600560029054906101000a900460ff1661045d576040517f08c379a000000000000000000000000000000000000000000000000000000000815260040161045490611dd3565b60405180910390fd5b600460ff16600760006004811061047757610476611df3565b5b0180549050106104bc576040517f08c379a00000000000000000000000000000000000000000000000000000000081526004016104b390611e94565b60405180910390fd5b6003543414610500576040517f08c379a00000000000000000000000000000000000000000000000000000000081526004016104f790611f26565b60405180910390fd5b600760006004811061051557610514611df3565b5b01339080600181540180825580915050600190039060005260206000200160009091909190916101000a81548173ffffffffffffffffffffffffffffffffffffffff021916908373ffffffffffffffffffffffffffffffffffffffff16021790555080600660003373ffffffffffffffffffffffffffffffffffffffff1673ffffffffffffffffffffffffffffffffffffffff16815260200190815260200160002060050190805190602001906105cd929190611808565b50600460ff1660076000600481106105e8576105e7611df3565b5b01805490501415610652576000600560026101000a81548160ff0219169083151502179055503373ffffffffffffffffffffffffffffffffffffffff167f15970fb7c7f5e516d64772bccbafac38da4729b9a44ab2f6dc4fa77e36dfd43c60405160405180910390a25b50565b600060029054906101000a900473ffffffffffffffffffffffffffffffffffffffff1673ffffffffffffffffffffffffffffffffffffffff163373ffffffffffffffffffffffffffffffffffffffff16146106e5576040517f08c379a00000000000000000000000000000000000000000000000000000000081526004016106dc90611f92565b60405180910390fd5b6000600560026101000a81548160ff021916908315150217905550565b60066020528060005260406000206000915090508060040160009054906101000a900460ff169080600501805461073890611fe1565b80601f016020809104026020016040519081016040528092919081815260200182805461076490611fe1565b80156107b15780601f10610786576101008083540402835291602001916107b1565b820191906000526020600020905b81548152906001019060200180831161079457829003601f168201915b5050505050905082565b600560029054906101000a900460ff1681565b6004543414610812576040517f08c379a000000000000000000000000000000000000000000000000000000000815260040161080990612085565b60405180910390fd5b600560019054906101000a900460ff16610861576040517f08c379a0000000000000000000000000000000000000000000000000000000008152600401610858906120f1565b60405180910390fd5b6000600660008373ffffffffffffffffffffffffffffffffffffffff1673ffffffffffffffffffffffffffffffffffffffff16815260200190815260200160002060050180546108b090611fe1565b905014156108f3576040517f08c379a00000000000000000000000000000000000000000000000000000000081526004016108ea9061215d565b60405180910390fd5b600560009054906101000a900460ff1660ff16600660008373ffffffffffffffffffffffffffffffffffffffff1673ffffffffffffffffffffffffffffffffffffffff16815260200190815260200160002060040160009054906101000a900460ff1660ff1614610999576040517f08c379a0000000000000000000000000000000000000000000000000000000008152600401610990906121c9565b60405180910390fd5b6001600660008373ffffffffffffffffffffffffffffffffffffffff1673ffffffffffffffffffffffffffffffffffffffff168152602001908152602001600020600001600560009054906101000a900460ff1660ff1660048110610a0157610a00611df3565b5b016000828254610a119190612218565b9250508190555050565b600560009054906101000a900460ff1681565b600060029054906101000a900473ffffffffffffffffffffffffffffffffffffffff1681565b60035481565b600060029054906101000a900473ffffffffffffffffffffffffffffffffffffffff1673ffffffffffffffffffffffffffffffffffffffff163373ffffffffffffffffffffffffffffffffffffffff1614610aea576040517f08c379a0000000000000000000000000000000000000000000000000000000008152600401610ae190611f92565b60405180910390fd5b6001600560026101000a81548160ff021916908315150217905550565b600560019054906101000a900460ff1681565b600060029054906101000a900473ffffffffffffffffffffffffffffffffffffffff1673ffffffffffffffffffffffffffffffffffffffff163373ffffffffffffffffffffffffffffffffffffffff1614610baa576040517f08c379a0000000000000000000000000000000000000000000000000000000008152600401610ba190611f92565b60405180910390fd5b600560029054906101000a900460ff1615610bfa576040517f08c379a0000000000000000000000000000000000000000000000000000000008152600401610bf1906122ba565b60405180910390fd5b600460ff166007600060048110610c1457610c13611df3565b5b018054905014610c59576040517f08c379a0000000000000000000000000000000000000000000000000000000008152600401610c5090612326565b60405180910390fd5b6001600560016101000a81548160ff021916908315150217905550565b600160009054906101000a900473ffffffffffffffffffffffffffffffffffffffff1673ffffffffffffffffffffffffffffffffffffffff163373ffffffffffffffffffffffffffffffffffffffff1614610cd057600080fd5b600160009054906101000a900473ffffffffffffffffffffffffffffffffffffffff1673ffffffffffffffffffffffffffffffffffffffff166108fc479081150290604051600060405180830381858888f19350505050158015610d38573d6000803e3d6000fd5b50565b600060029054906101000a900473ffffffffffffffffffffffffffffffffffffffff1673ffffffffffffffffffffffffffffffffffffffff163373ffffffffffffffffffffffffffffffffffffffff1614610dcb576040517f08c379a0000000000000000000000000000000000000000000000000000000008152600401610dc290611f92565b60405180910390fd5b600560019054906101000a900460ff16610e1a576040517f08c379a0000000000000000000000000000000000000000000000000000000008152600401610e1190612392565b60405180910390fd5b600560029054906101000a900460ff1615610e6a576040517f08c379a0000000000000000000000000000000000000000000000000000000008152600401610e61906122ba565b60405180910390fd5b6000600560016101000a81548160ff021916908315150217905550600060016004610e9591906123b2565b9050600181610ea491906123b2565b60ff16600560009054906101000a900460ff1660ff1610156113fa57600080600660006007600560009054906101000a900460ff1660ff1660048110610eed57610eec611df3565b5b018460ff1681548110610f0357610f02611df3565b5b9060005260206000200160009054906101000a900473ffffffffffffffffffffffffffffffffffffffff1673ffffffffffffffffffffffffffffffffffffffff1673ffffffffffffffffffffffffffffffffffffffff168152602001908152602001600020600001600560009054906101000a900460ff1660ff1660048110610f8f57610f8e611df3565b5b015490506000600190505b6007600560009054906101000a900460ff1660ff1660048110610fc057610fbf611df3565b5b01805490508160ff16101561118a5781600660006007600560009054906101000a900460ff1660ff1660048110610ffa57610ff9611df3565b5b018460ff16815481106110105761100f611df3565b5b9060005260206000200160009054906101000a900473ffffffffffffffffffffffffffffffffffffffff1673ffffffffffffffffffffffffffffffffffffffff1673ffffffffffffffffffffffffffffffffffffffff168152602001908152602001600020600001600560009054906101000a900460ff1660ff166004811061109c5761109b611df3565b5b01541161117757600660006007600560009054906101000a900460ff1660ff16600481106110cd576110cc611df3565b5b018360ff16815481106110e3576110e2611df3565b5b9060005260206000200160009054906101000a900473ffffffffffffffffffffffffffffffffffffffff1673ffffffffffffffffffffffffffffffffffffffff1673ffffffffffffffffffffffffffffffffffffffff168152602001908152602001600020600001600560009054906101000a900460ff1660ff166004811061116f5761116e611df3565b5b015491508092505b8080611182906123e6565b915050610f9a565b5060005b6007600560009054906101000a900460ff1660ff16600481106111b4576111b3611df3565b5b01805490508160ff1610156113ba578260ff168160ff16146113a75760076001600560009054906101000a900460ff166111ee9190612410565b60ff166004811061120257611201611df3565b5b016007600560009054906101000a900460ff1660ff166004811061122957611228611df3565b5b018260ff168154811061123f5761123e611df3565b5b9060005260206000200160009054906101000a900473ffffffffffffffffffffffffffffffffffffffff169080600181540180825580915050600190039060005260206000200160009091909190916101000a81548173ffffffffffffffffffffffffffffffffffffffff021916908373ffffffffffffffffffffffffffffffffffffffff1602179055506001600560009054906101000a900460ff166112e69190612410565b600660006007600560009054906101000a900460ff1660ff16600481106113105761130f611df3565b5b018460ff168154811061132657611325611df3565b5b9060005260206000200160009054906101000a900473ffffffffffffffffffffffffffffffffffffffff1673ffffffffffffffffffffffffffffffffffffffff1673ffffffffffffffffffffffffffffffffffffffff16815260200190815260200160002060040160006101000a81548160ff021916908360ff1602179055505b80806113b2906123e6565b91505061118e565b506005600081819054906101000a900460ff16809291906113da906123e6565b91906101000a81548160ff021916908360ff160217905550505050611403565b61140261149e565b5b50565b60045481565b600160009054906101000a900473ffffffffffffffffffffffffffffffffffffffff1681565b83600060026101000a81548173ffffffffffffffffffffffffffffffffffffffff021916908373ffffffffffffffffffffffffffffffffffffffff1602179055508260029080519060200190611489929190611808565b50816003819055508060048190555050505050565b60006006600060076002600481106114b9576114b8611df3565b5b016000815481106114cd576114cc611df3565b5b9060005260206000200160009054906101000a900473ffffffffffffffffffffffffffffffffffffffff1673ffffffffffffffffffffffffffffffffffffffff1673ffffffffffffffffffffffffffffffffffffffff168152602001908152602001600020600001905060008160006004811061154d5761154c611df3565b5b0154600a61155b9190612447565b8260016004811061156f5761156e611df3565b5b0154601e61157d9190612447565b8360026004811061159157611590611df3565b5b0154603c61159f9190612447565b6115a99190612218565b6115b39190612218565b905060006006600060076002600481106115d0576115cf611df3565b5b016001815481106115e4576115e3611df3565b5b9060005260206000200160009054906101000a900473ffffffffffffffffffffffffffffffffffffffff1673ffffffffffffffffffffffffffffffffffffffff1673ffffffffffffffffffffffffffffffffffffffff168152602001908152602001600020600001905060008160006004811061166457611663611df3565b5b0154600a6116729190612447565b8260016004811061168657611685611df3565b5b0154601e6116949190612447565b836002600481106116a8576116a7611df3565b5b0154603c6116b69190612447565b6116c09190612218565b6116ca9190612218565b90508281111561176d5760076002600481106116e9576116e8611df3565b5b016001815481106116fd576116fc611df3565b5b9060005260206000200160009054906101000a900473ffffffffffffffffffffffffffffffffffffffff16600160006101000a81548173ffffffffffffffffffffffffffffffffffffffff021916908373ffffffffffffffffffffffffffffffffffffffff160217905550611802565b600760026004811061178257611781611df3565b5b0160008154811061179657611795611df3565b5b9060005260206000200160009054906101000a900473ffffffffffffffffffffffffffffffffffffffff16600160006101000a81548173ffffffffffffffffffffffffffffffffffffffff021916908373ffffffffffffffffffffffffffffffffffffffff1602179055505b50505050565b82805461181490611fe1565b90600052602060002090601f016020900481019282611836576000855561187d565b82601f1061184f57805160ff191683800117855561187d565b8280016001018555821561187d579182015b8281111561187c578251825591602001919060010190611861565b5b50905061188a919061188e565b5090565b5b808211156118a757600081600090555060010161188f565b5090565b6000604051905090565b600080fd5b600080fd5b6000819050919050565b6118d2816118bf565b81146118dd57600080fd5b50565b6000813590506118ef816118c9565b92915050565b6000806040838503121561190c5761190b6118b5565b5b600061191a858286016118e0565b925050602061192b858286016118e0565b9150509250929050565b600073ffffffffffffffffffffffffffffffffffffffff82169050919050565b600061196082611935565b9050919050565b61197081611955565b82525050565b600060208201905061198b6000830184611967565b92915050565b61199a816118bf565b82525050565b60006020820190506119b56000830184611991565b92915050565b600080fd5b600080fd5b6000601f19601f8301169050919050565b7f4e487b7100000000000000000000000000000000000000000000000000000000600052604160045260246000fd5b611a0e826119c5565b810181811067ffffffffffffffff82111715611a2d57611a2c6119d6565b5b80604052505050565b6000611a406118ab565b9050611a4c8282611a05565b919050565b600067ffffffffffffffff821115611a6c57611a6b6119d6565b5b611a75826119c5565b9050602081019050919050565b82818337600083830152505050565b6000611aa4611a9f84611a51565b611a36565b905082815260208101848484011115611ac057611abf6119c0565b5b611acb848285611a82565b509392505050565b600082601f830112611ae857611ae76119bb565b5b8135611af8848260208601611a91565b91505092915050565b600060208284031215611b1757611b166118b5565b5b600082013567ffffffffffffffff811115611b3557611b346118ba565b5b611b4184828501611ad3565b91505092915050565b611b5381611955565b8114611b5e57600080fd5b50565b600081359050611b7081611b4a565b92915050565b600060208284031215611b8c57611b8b6118b5565b5b6000611b9a84828501611b61565b91505092915050565b600060ff82169050919050565b611bb981611ba3565b82525050565b600081519050919050565b600082825260208201905092915050565b60005b83811015611bf9578082015181840152602081019050611bde565b83811115611c08576000848401525b50505050565b6000611c1982611bbf565b611c238185611bca565b9350611c33818560208601611bdb565b611c3c816119c5565b840191505092915050565b6000604082019050611c5c6000830185611bb0565b8181036020830152611c6e8184611c0e565b90509392505050565b60008115159050919050565b611c8c81611c77565b82525050565b6000602082019050611ca76000830184611c83565b92915050565b6000602082019050611cc26000830184611bb0565b92915050565b6000611cd382611935565b9050919050565b611ce381611cc8565b82525050565b6000602082019050611cfe6000830184611cda565b92915050565b60008060008060808587031215611d1e57611d1d6118b5565b5b6000611d2c87828801611b61565b945050602085013567ffffffffffffffff811115611d4d57611d4c6118ba565b5b611d5987828801611ad3565b9350506040611d6a878288016118e0565b9250506060611d7b878288016118e0565b91505092959194509250565b7f50617274696369706174696f6e20697320636c6f73656420666f72206e6f7700600082015250565b6000611dbd601f83611bca565b9150611dc882611d87565b602082019050919050565b60006020820190508181036000830152611dec81611db0565b9050919050565b7f4e487b7100000000000000000000000000000000000000000000000000000000600052603260045260246000fd5b7f4d6178696d756d206e756d626572206f66207061727469636970616e7473207260008201527f6561636865640000000000000000000000000000000000000000000000000000602082015250565b6000611e7e602683611bca565b9150611e8982611e22565b604082019050919050565b60006020820190508181036000830152611ead81611e71565b9050919050565b7f506c6561736520706179207468652072657175697265642066656520746f207060008201527f6172746970617465000000000000000000000000000000000000000000000000602082015250565b6000611f10602883611bca565b9150611f1b82611eb4565b604082019050919050565b60006020820190508181036000830152611f3f81611f03565b9050919050565b7f4f6e6c79206f776e65727320616c6c6f77656400000000000000000000000000600082015250565b6000611f7c601383611bca565b9150611f8782611f46565b602082019050919050565b60006020820190508181036000830152611fab81611f6f565b9050919050565b7f4e487b7100000000000000000000000000000000000000000000000000000000600052602260045260246000fd5b60006002820490506001821680611ff957607f821691505b6020821081141561200d5761200c611fb2565b5b50919050565b7f506c6561736520706179207468652072657175697265642066656520746f207660008201527f6f74650000000000000000000000000000000000000000000000000000000000602082015250565b600061206f602383611bca565b915061207a82612013565b604082019050919050565b6000602082019050818103600083015261209e81612062565b9050919050565b7f566f74696e6720697320636c6f73656420666f72206e6f770000000000000000600082015250565b60006120db601883611bca565b91506120e6826120a5565b602082019050919050565b6000602082019050818103600083015261210a816120ce565b9050919050565b7f496e76616c696420636f6e74657374616e740000000000000000000000000000600082015250565b6000612147601283611bca565b915061215282612111565b602082019050919050565b600060208201905081810360008301526121768161213a565b9050919050565b7f436f6e74657374616e7420616c726561647920656c696d696e61746564000000600082015250565b60006121b3601d83611bca565b91506121be8261217d565b602082019050919050565b600060208201905081810360008301526121e2816121a6565b9050919050565b7f4e487b7100000000000000000000000000000000000000000000000000000000600052601160045260246000fd5b6000612223826118bf565b915061222e836118bf565b9250827fffffffffffffffffffffffffffffffffffffffffffffffffffffffffffffffff03821115612263576122626121e9565b5b828201905092915050565b7f50617274696369706174696f6e206f70656e0000000000000000000000000000600082015250565b60006122a4601283611bca565b91506122af8261226e565b602082019050919050565b600060208201905081810360008301526122d381612297565b9050919050565b7f4e6f207061727469636970616e74730000000000000000000000000000000000600082015250565b6000612310600f83611bca565b915061231b826122da565b602082019050919050565b6000602082019050818103600083015261233f81612303565b9050919050565b7f566f74696e67206e6f74206f70656e0000000000000000000000000000000000600082015250565b600061237c600f83611bca565b915061238782612346565b602082019050919050565b600060208201905081810360008301526123ab8161236f565b9050919050565b60006123bd82611ba3565b91506123c883611ba3565b9250828210156123db576123da6121e9565b5b828203905092915050565b60006123f182611ba3565b915060ff821415612405576124046121e9565b5b600182019050919050565b600061241b82611ba3565b915061242683611ba3565b92508260ff0382111561243c5761243b6121e9565b5b828201905092915050565b6000612452826118bf565b915061245d836118bf565b9250817fffffffffffffffffffffffffffffffffffffffffffffffffffffffffffffffff0483118215151615612496576124956121e9565b5b82820290509291505056fea2646970667358221220fad1813545591205fd39a59063e0af70dc9136fab6c180531f6f1791bac3dad764736f6c634300080a0033",
  "immutableReferences": {
    "1066": [
      {
        "length": 32,
        "start": 246
      }
    ]
  },
  "source": "//SPDX-License-Identifier: MIT\npragma solidity 0.8.10;\nimport { Clones } from \"@openzeppelin/contracts/proxy/Clones.sol\";\nimport './Contest.sol';\n\ncontract ContestCloneFactory {\n    \n    address immutable implementation;\n    struct ClonedContest {\n        address addr;\n        string title;\n    }\n    ClonedContest[] public contests;\n    \n    constructor() {\n        implementation = address(new Contest());\n    }\n\n    function createClone(string memory _title, uint _contestingFee, uint _votingFee) external returns (address) {\n        address clone = Clones.clone(implementation);\n        Contest(clone).initialize(msg.sender, _title, _contestingFee, _votingFee);\n        //contests.push(Contest(clone));\n        ClonedContest storage _contest = contests.push();\n        _contest.title = _title;\n        _contest.addr = clone;\n        return clone;\n    }\n\n    function getContests() public view returns ( ClonedContest[] memory){\n        return contests;\n    }\n\n    function getDummy() public pure returns (string memory) {\n        return \"Helllloooooo!!\";\n    }\n}",
  "sourcePath": "/home/shariqkhanfreelancer/Workspace/BLOCKCHAIN/Solidity/BlockStar/contracts/ContestCloneFactory.sol",
  "compiler": {
    "name": "solc",
    "version": "0.8.10+commit.fc410830.Emscripten.clang"
  },
  "schemaVersion": "3.4.7",
  "updatedAt": "2022-06-30T16:28:05.077Z",
  "networkType": "ethereum",
  "devdoc": {
    "kind": "dev",
    "methods": {},
    "version": 1
  },
  "userdoc": {
    "kind": "user",
    "methods": {},
    "version": 1
  }
}