{
  "contractName": "Contest",
  "abi": [
    {
      "anonymous": false,
      "inputs": [
        {
          "indexed": true,
          "internalType": "address",
          "name": "_addr",
          "type": "address"
        }
      ],
      "name": "ContestClosedForParticipation",
      "type": "event"
    },
    {
      "anonymous": false,
      "inputs": [],
      "name": "ContestOpenedForParticipation",
      "type": "event"
    },
    {
      "anonymous": false,
      "inputs": [
        {
          "indexed": false,
          "internalType": "uint8",
          "name": "version",
          "type": "uint8"
        }
      ],
      "name": "Initialized",
      "type": "event"
    },
    {
      "anonymous": false,
      "inputs": [
        {
          "indexed": false,
          "internalType": "uint8",
          "name": "round",
          "type": "uint8"
        }
      ],
      "name": "VotingClosed",
      "type": "event"
    },
    {
      "anonymous": false,
      "inputs": [
        {
          "indexed": false,
          "internalType": "uint8",
          "name": "round",
          "type": "uint8"
        }
      ],
      "name": "VotingOpened",
      "type": "event"
    },
    {
      "inputs": [
        {
          "internalType": "address",
          "name": "",
          "type": "address"
        }
      ],
      "name": "contestants",
      "outputs": [
        {
          "internalType": "uint8",
          "name": "progressedToRound",
          "type": "uint8"
        },
        {
          "internalType": "string",
          "name": "ipfsHash",
          "type": "string"
        }
      ],
      "stateMutability": "view",
      "type": "function"
    },
    {
      "inputs": [],
      "name": "contestingFee",
      "outputs": [
        {
          "internalType": "uint256",
          "name": "",
          "type": "uint256"
        }
      ],
      "stateMutability": "view",
      "type": "function"
    },
    {
      "inputs": [],
      "name": "currentRound",
      "outputs": [
        {
          "internalType": "uint8",
          "name": "",
          "type": "uint8"
        }
      ],
      "stateMutability": "view",
      "type": "function"
    },
    {
      "inputs": [],
      "name": "owner",
      "outputs": [
        {
          "internalType": "address",
          "name": "",
          "type": "address"
        }
      ],
      "stateMutability": "view",
      "type": "function"
    },
    {
      "inputs": [],
      "name": "participationOpen",
      "outputs": [
        {
          "internalType": "bool",
          "name": "",
          "type": "bool"
        }
      ],
      "stateMutability": "view",
      "type": "function"
    },
    {
      "inputs": [
        {
          "internalType": "uint256",
          "name": "",
          "type": "uint256"
        },
        {
          "internalType": "uint256",
          "name": "",
          "type": "uint256"
        }
      ],
      "name": "roundWinners",
      "outputs": [
        {
          "internalType": "address",
          "name": "",
          "type": "address"
        }
      ],
      "stateMutability": "view",
      "type": "function"
    },
    {
      "inputs": [],
      "name": "votingFee",
      "outputs": [
        {
          "internalType": "uint256",
          "name": "",
          "type": "uint256"
        }
      ],
      "stateMutability": "view",
      "type": "function"
    },
    {
      "inputs": [],
      "name": "votingOpen",
      "outputs": [
        {
          "internalType": "bool",
          "name": "",
          "type": "bool"
        }
      ],
      "stateMutability": "view",
      "type": "function"
    },
    {
      "inputs": [],
      "name": "winner",
      "outputs": [
        {
          "internalType": "address payable",
          "name": "",
          "type": "address"
        }
      ],
      "stateMutability": "view",
      "type": "function"
    },
    {
      "inputs": [
        {
          "internalType": "address",
          "name": "_owner",
          "type": "address"
        },
        {
          "internalType": "uint256",
          "name": "_contestingFee",
          "type": "uint256"
        },
        {
          "internalType": "uint256",
          "name": "_votingFee",
          "type": "uint256"
        }
      ],
      "name": "initialize",
      "outputs": [],
      "stateMutability": "nonpayable",
      "type": "function"
    },
    {
      "inputs": [],
      "name": "enableParticipation",
      "outputs": [],
      "stateMutability": "nonpayable",
      "type": "function"
    },
    {
      "inputs": [],
      "name": "disableParticipation",
      "outputs": [],
      "stateMutability": "nonpayable",
      "type": "function"
    },
    {
      "inputs": [],
      "name": "openVoting",
      "outputs": [],
      "stateMutability": "nonpayable",
      "type": "function"
    },
    {
      "inputs": [],
      "name": "closeVoting",
      "outputs": [],
      "stateMutability": "nonpayable",
      "type": "function"
    },
    {
      "inputs": [
        {
          "internalType": "string",
          "name": "_ipfsHash",
          "type": "string"
        }
      ],
      "name": "participate",
      "outputs": [],
      "stateMutability": "payable",
      "type": "function"
    },
    {
      "inputs": [
        {
          "internalType": "address",
          "name": "_addr",
          "type": "address"
        }
      ],
      "name": "vote",
      "outputs": [],
      "stateMutability": "payable",
      "type": "function"
    },
    {
      "inputs": [],
      "name": "claimReward",
      "outputs": [],
      "stateMutability": "nonpayable",
      "type": "function"
    },
    {
      "inputs": [],
      "name": "getBalance",
      "outputs": [
        {
          "internalType": "uint256",
          "name": "",
          "type": "uint256"
        }
      ],
      "stateMutability": "view",
      "type": "function"
    }
  ],
  "bytecode": "0x608060405234801561001057600080fd5b5061248f806100206000396000f3fe6080604052600436106101095760003560e01c80638da5cb5b11610095578063affc067011610064578063affc06701461031a578063b88a802f14610331578063c631b29214610348578063dab306b11461035f578063dfbf53ae1461038a57610109565b80638da5cb5b146102825780638fbc4fc4146102ad578063996ab783146102d8578063a95824b4146102ef57610109565b80636470a639116100dc5780636470a639146101a957806367892ac3146101e75780636dd7d8ea146102125780637a1ac61e1461022e5780638a19c8bc1461025757610109565b806303e3cd6a1461010e57806312065fe01461014b5780631d27769f14610176578063563df4b314610192575b600080fd5b34801561011a57600080fd5b50610135600480360381019061013091906118dd565b6103b5565b604051610142919061195e565b60405180910390f35b34801561015757600080fd5b50610160610406565b60405161016d9190611988565b60405180910390f35b610190600480360381019061018b9190611ae9565b61040e565b005b34801561019e57600080fd5b506101a7610655565b005b3480156101b557600080fd5b506101d060048036038101906101cb9190611b5e565b610702565b6040516101de929190611c2f565b60405180910390f35b3480156101f357600080fd5b506101fc6107bb565b6040516102099190611c7a565b60405180910390f35b61022c60048036038101906102279190611b5e565b6107ce565b005b34801561023a57600080fd5b5061025560048036038101906102509190611c95565b610a1b565b005b34801561026357600080fd5b5061026c610a6f565b6040516102799190611ce8565b60405180910390f35b34801561028e57600080fd5b50610297610a82565b6040516102a4919061195e565b60405180910390f35b3480156102b957600080fd5b506102c2610aa8565b6040516102cf9190611988565b60405180910390f35b3480156102e457600080fd5b506102ed610aae565b005b3480156102fb57600080fd5b50610304610b5b565b6040516103119190611c7a565b60405180910390f35b34801561032657600080fd5b5061032f610b6e565b005b34801561033d57600080fd5b50610346610cca565b005b34801561035457600080fd5b5061035d610d8f565b005b34801561036b57600080fd5b5061037461145a565b6040516103819190611988565b60405180910390f35b34801561039657600080fd5b5061039f611460565b6040516103ac9190611d24565b60405180910390f35b600682600481106103c557600080fd5b0181815481106103d457600080fd5b906000526020600020016000915091509054906101000a900473ffffffffffffffffffffffffffffffffffffffff1681565b600047905090565b600460029054906101000a900460ff1661045d576040517f08c379a000000000000000000000000000000000000000000000000000000000815260040161045490611d8b565b60405180910390fd5b600460ff16600660006004811061047757610476611dab565b5b0180549050106104bc576040517f08c379a00000000000000000000000000000000000000000000000000000000081526004016104b390611e4c565b60405180910390fd5b6002543414610500576040517f08c379a00000000000000000000000000000000000000000000000000000000081526004016104f790611ede565b60405180910390fd5b600660006004811061051557610514611dab565b5b01339080600181540180825580915050600190039060005260206000200160009091909190916101000a81548173ffffffffffffffffffffffffffffffffffffffff021916908373ffffffffffffffffffffffffffffffffffffffff16021790555080600560003373ffffffffffffffffffffffffffffffffffffffff1673ffffffffffffffffffffffffffffffffffffffff16815260200190815260200160002060050190805190602001906105cd9291906117f0565b50600460ff1660066000600481106105e8576105e7611dab565b5b01805490501415610652576000600460026101000a81548160ff0219169083151502179055503373ffffffffffffffffffffffffffffffffffffffff167f15970fb7c7f5e516d64772bccbafac38da4729b9a44ab2f6dc4fa77e36dfd43c60405160405180910390a25b50565b600060029054906101000a900473ffffffffffffffffffffffffffffffffffffffff1673ffffffffffffffffffffffffffffffffffffffff163373ffffffffffffffffffffffffffffffffffffffff16146106e5576040517f08c379a00000000000000000000000000000000000000000000000000000000081526004016106dc90611f4a565b60405180910390fd5b6000600460026101000a81548160ff021916908315150217905550565b60056020528060005260406000206000915090508060040160009054906101000a900460ff169080600501805461073890611f99565b80601f016020809104026020016040519081016040528092919081815260200182805461076490611f99565b80156107b15780601f10610786576101008083540402835291602001916107b1565b820191906000526020600020905b81548152906001019060200180831161079457829003601f168201915b5050505050905082565b600460029054906101000a900460ff1681565b6003543414610812576040517f08c379a00000000000000000000000000000000000000000000000000000000081526004016108099061203d565b60405180910390fd5b600460019054906101000a900460ff16610861576040517f08c379a0000000000000000000000000000000000000000000000000000000008152600401610858906120a9565b60405180910390fd5b6000600560008373ffffffffffffffffffffffffffffffffffffffff1673ffffffffffffffffffffffffffffffffffffffff16815260200190815260200160002060050180546108b090611f99565b905014156108f3576040517f08c379a00000000000000000000000000000000000000000000000000000000081526004016108ea90612115565b60405180910390fd5b600460009054906101000a900460ff1660ff16600560008373ffffffffffffffffffffffffffffffffffffffff1673ffffffffffffffffffffffffffffffffffffffff16815260200190815260200160002060040160009054906101000a900460ff1660ff1614610999576040517f08c379a000000000000000000000000000000000000000000000000000000000815260040161099090612181565b60405180910390fd5b6001600560008373ffffffffffffffffffffffffffffffffffffffff1673ffffffffffffffffffffffffffffffffffffffff168152602001908152602001600020600001600460009054906101000a900460ff1660ff1660048110610a0157610a00611dab565b5b016000828254610a1191906121d0565b9250508190555050565b82600060026101000a81548173ffffffffffffffffffffffffffffffffffffffff021916908373ffffffffffffffffffffffffffffffffffffffff1602179055508160028190555080600381905550505050565b600460009054906101000a900460ff1681565b600060029054906101000a900473ffffffffffffffffffffffffffffffffffffffff1681565b60025481565b600060029054906101000a900473ffffffffffffffffffffffffffffffffffffffff1673ffffffffffffffffffffffffffffffffffffffff163373ffffffffffffffffffffffffffffffffffffffff1614610b3e576040517f08c379a0000000000000000000000000000000000000000000000000000000008152600401610b3590611f4a565b60405180910390fd5b6001600460026101000a81548160ff021916908315150217905550565b600460019054906101000a900460ff1681565b600060029054906101000a900473ffffffffffffffffffffffffffffffffffffffff1673ffffffffffffffffffffffffffffffffffffffff163373ffffffffffffffffffffffffffffffffffffffff1614610bfe576040517f08c379a0000000000000000000000000000000000000000000000000000000008152600401610bf590611f4a565b60405180910390fd5b600460029054906101000a900460ff1615610c4e576040517f08c379a0000000000000000000000000000000000000000000000000000000008152600401610c4590612272565b60405180910390fd5b600460ff166006600060048110610c6857610c67611dab565b5b018054905014610cad576040517f08c379a0000000000000000000000000000000000000000000000000000000008152600401610ca4906122de565b60405180910390fd5b6001600460016101000a81548160ff021916908315150217905550565b600160009054906101000a900473ffffffffffffffffffffffffffffffffffffffff1673ffffffffffffffffffffffffffffffffffffffff163373ffffffffffffffffffffffffffffffffffffffff1614610d2457600080fd5b600160009054906101000a900473ffffffffffffffffffffffffffffffffffffffff1673ffffffffffffffffffffffffffffffffffffffff166108fc479081150290604051600060405180830381858888f19350505050158015610d8c573d6000803e3d6000fd5b50565b600060029054906101000a900473ffffffffffffffffffffffffffffffffffffffff1673ffffffffffffffffffffffffffffffffffffffff163373ffffffffffffffffffffffffffffffffffffffff1614610e1f576040517f08c379a0000000000000000000000000000000000000000000000000000000008152600401610e1690611f4a565b60405180910390fd5b600460019054906101000a900460ff16610e6e576040517f08c379a0000000000000000000000000000000000000000000000000000000008152600401610e659061234a565b60405180910390fd5b600460029054906101000a900460ff1615610ebe576040517f08c379a0000000000000000000000000000000000000000000000000000000008152600401610eb590612272565b60405180910390fd5b6000600460016101000a81548160ff021916908315150217905550600060016004610ee9919061236a565b9050600181610ef8919061236a565b60ff16600460009054906101000a900460ff1660ff16101561144e57600080600560006006600460009054906101000a900460ff1660ff1660048110610f4157610f40611dab565b5b018460ff1681548110610f5757610f56611dab565b5b9060005260206000200160009054906101000a900473ffffffffffffffffffffffffffffffffffffffff1673ffffffffffffffffffffffffffffffffffffffff1673ffffffffffffffffffffffffffffffffffffffff168152602001908152602001600020600001600460009054906101000a900460ff1660ff1660048110610fe357610fe2611dab565b5b015490506000600190505b6006600460009054906101000a900460ff1660ff166004811061101457611013611dab565b5b01805490508160ff1610156111de5781600560006006600460009054906101000a900460ff1660ff166004811061104e5761104d611dab565b5b018460ff168154811061106457611063611dab565b5b9060005260206000200160009054906101000a900473ffffffffffffffffffffffffffffffffffffffff1673ffffffffffffffffffffffffffffffffffffffff1673ffffffffffffffffffffffffffffffffffffffff168152602001908152602001600020600001600460009054906101000a900460ff1660ff16600481106110f0576110ef611dab565b5b0154116111cb57600560006006600460009054906101000a900460ff1660ff166004811061112157611120611dab565b5b018360ff168154811061113757611136611dab565b5b9060005260206000200160009054906101000a900473ffffffffffffffffffffffffffffffffffffffff1673ffffffffffffffffffffffffffffffffffffffff1673ffffffffffffffffffffffffffffffffffffffff168152602001908152602001600020600001600460009054906101000a900460ff1660ff16600481106111c3576111c2611dab565b5b015491508092505b80806111d69061239e565b915050610fee565b5060005b6006600460009054906101000a900460ff1660ff166004811061120857611207611dab565b5b01805490508160ff16101561140e578260ff168160ff16146113fb5760066001600460009054906101000a900460ff1661124291906123c8565b60ff166004811061125657611255611dab565b5b016006600460009054906101000a900460ff1660ff166004811061127d5761127c611dab565b5b018260ff168154811061129357611292611dab565b5b9060005260206000200160009054906101000a900473ffffffffffffffffffffffffffffffffffffffff169080600181540180825580915050600190039060005260206000200160009091909190916101000a81548173ffffffffffffffffffffffffffffffffffffffff021916908373ffffffffffffffffffffffffffffffffffffffff1602179055506001600460009054906101000a900460ff1661133a91906123c8565b600560006006600460009054906101000a900460ff1660ff166004811061136457611363611dab565b5b018460ff168154811061137a57611379611dab565b5b9060005260206000200160009054906101000a900473ffffffffffffffffffffffffffffffffffffffff1673ffffffffffffffffffffffffffffffffffffffff1673ffffffffffffffffffffffffffffffffffffffff16815260200190815260200160002060040160006101000a81548160ff021916908360ff1602179055505b80806114069061239e565b9150506111e2565b506004600081819054906101000a900460ff168092919061142e9061239e565b91906101000a81548160ff021916908360ff160217905550505050611457565b611456611486565b5b50565b60035481565b600160009054906101000a900473ffffffffffffffffffffffffffffffffffffffff1681565b60006005600060066002600481106114a1576114a0611dab565b5b016000815481106114b5576114b4611dab565b5b9060005260206000200160009054906101000a900473ffffffffffffffffffffffffffffffffffffffff1673ffffffffffffffffffffffffffffffffffffffff1673ffffffffffffffffffffffffffffffffffffffff168152602001908152602001600020600001905060008160006004811061153557611534611dab565b5b0154600a61154391906123ff565b8260016004811061155757611556611dab565b5b0154601e61156591906123ff565b8360026004811061157957611578611dab565b5b0154603c61158791906123ff565b61159191906121d0565b61159b91906121d0565b905060006005600060066002600481106115b8576115b7611dab565b5b016001815481106115cc576115cb611dab565b5b9060005260206000200160009054906101000a900473ffffffffffffffffffffffffffffffffffffffff1673ffffffffffffffffffffffffffffffffffffffff1673ffffffffffffffffffffffffffffffffffffffff168152602001908152602001600020600001905060008160006004811061164c5761164b611dab565b5b0154600a61165a91906123ff565b8260016004811061166e5761166d611dab565b5b0154601e61167c91906123ff565b836002600481106116905761168f611dab565b5b0154603c61169e91906123ff565b6116a891906121d0565b6116b291906121d0565b9050828111156117555760066002600481106116d1576116d0611dab565b5b016001815481106116e5576116e4611dab565b5b9060005260206000200160009054906101000a900473ffffffffffffffffffffffffffffffffffffffff16600160006101000a81548173ffffffffffffffffffffffffffffffffffffffff021916908373ffffffffffffffffffffffffffffffffffffffff1602179055506117ea565b600660026004811061176a57611769611dab565b5b0160008154811061177e5761177d611dab565b5b9060005260206000200160009054906101000a900473ffffffffffffffffffffffffffffffffffffffff16600160006101000a81548173ffffffffffffffffffffffffffffffffffffffff021916908373ffffffffffffffffffffffffffffffffffffffff1602179055505b50505050565b8280546117fc90611f99565b90600052602060002090601f01602090048101928261181e5760008555611865565b82601f1061183757805160ff1916838001178555611865565b82800160010185558215611865579182015b82811115611864578251825591602001919060010190611849565b5b5090506118729190611876565b5090565b5b8082111561188f576000816000905550600101611877565b5090565b6000604051905090565b600080fd5b600080fd5b6000819050919050565b6118ba816118a7565b81146118c557600080fd5b50565b6000813590506118d7816118b1565b92915050565b600080604083850312156118f4576118f361189d565b5b6000611902858286016118c8565b9250506020611913858286016118c8565b9150509250929050565b600073ffffffffffffffffffffffffffffffffffffffff82169050919050565b60006119488261191d565b9050919050565b6119588161193d565b82525050565b6000602082019050611973600083018461194f565b92915050565b611982816118a7565b82525050565b600060208201905061199d6000830184611979565b92915050565b600080fd5b600080fd5b6000601f19601f8301169050919050565b7f4e487b7100000000000000000000000000000000000000000000000000000000600052604160045260246000fd5b6119f6826119ad565b810181811067ffffffffffffffff82111715611a1557611a146119be565b5b80604052505050565b6000611a28611893565b9050611a3482826119ed565b919050565b600067ffffffffffffffff821115611a5457611a536119be565b5b611a5d826119ad565b9050602081019050919050565b82818337600083830152505050565b6000611a8c611a8784611a39565b611a1e565b905082815260208101848484011115611aa857611aa76119a8565b5b611ab3848285611a6a565b509392505050565b600082601f830112611ad057611acf6119a3565b5b8135611ae0848260208601611a79565b91505092915050565b600060208284031215611aff57611afe61189d565b5b600082013567ffffffffffffffff811115611b1d57611b1c6118a2565b5b611b2984828501611abb565b91505092915050565b611b3b8161193d565b8114611b4657600080fd5b50565b600081359050611b5881611b32565b92915050565b600060208284031215611b7457611b7361189d565b5b6000611b8284828501611b49565b91505092915050565b600060ff82169050919050565b611ba181611b8b565b82525050565b600081519050919050565b600082825260208201905092915050565b60005b83811015611be1578082015181840152602081019050611bc6565b83811115611bf0576000848401525b50505050565b6000611c0182611ba7565b611c0b8185611bb2565b9350611c1b818560208601611bc3565b611c24816119ad565b840191505092915050565b6000604082019050611c446000830185611b98565b8181036020830152611c568184611bf6565b90509392505050565b60008115159050919050565b611c7481611c5f565b82525050565b6000602082019050611c8f6000830184611c6b565b92915050565b600080600060608486031215611cae57611cad61189d565b5b6000611cbc86828701611b49565b9350506020611ccd868287016118c8565b9250506040611cde868287016118c8565b9150509250925092565b6000602082019050611cfd6000830184611b98565b92915050565b6000611d0e8261191d565b9050919050565b611d1e81611d03565b82525050565b6000602082019050611d396000830184611d15565b92915050565b7f50617274696369706174696f6e20697320636c6f73656420666f72206e6f7700600082015250565b6000611d75601f83611bb2565b9150611d8082611d3f565b602082019050919050565b60006020820190508181036000830152611da481611d68565b9050919050565b7f4e487b7100000000000000000000000000000000000000000000000000000000600052603260045260246000fd5b7f4d6178696d756d206e756d626572206f66207061727469636970616e7473207260008201527f6561636865640000000000000000000000000000000000000000000000000000602082015250565b6000611e36602683611bb2565b9150611e4182611dda565b604082019050919050565b60006020820190508181036000830152611e6581611e29565b9050919050565b7f506c6561736520706179207468652072657175697265642066656520746f207060008201527f6172746970617465000000000000000000000000000000000000000000000000602082015250565b6000611ec8602883611bb2565b9150611ed382611e6c565b604082019050919050565b60006020820190508181036000830152611ef781611ebb565b9050919050565b7f4f6e6c79206f776e65727320616c6c6f77656400000000000000000000000000600082015250565b6000611f34601383611bb2565b9150611f3f82611efe565b602082019050919050565b60006020820190508181036000830152611f6381611f27565b9050919050565b7f4e487b7100000000000000000000000000000000000000000000000000000000600052602260045260246000fd5b60006002820490506001821680611fb157607f821691505b60208210811415611fc557611fc4611f6a565b5b50919050565b7f506c6561736520706179207468652072657175697265642066656520746f207660008201527f6f74650000000000000000000000000000000000000000000000000000000000602082015250565b6000612027602383611bb2565b915061203282611fcb565b604082019050919050565b600060208201905081810360008301526120568161201a565b9050919050565b7f566f74696e6720697320636c6f73656420666f72206e6f770000000000000000600082015250565b6000612093601883611bb2565b915061209e8261205d565b602082019050919050565b600060208201905081810360008301526120c281612086565b9050919050565b7f496e76616c696420636f6e74657374616e740000000000000000000000000000600082015250565b60006120ff601283611bb2565b915061210a826120c9565b602082019050919050565b6000602082019050818103600083015261212e816120f2565b9050919050565b7f436f6e74657374616e7420616c726561647920656c696d696e61746564000000600082015250565b600061216b601d83611bb2565b915061217682612135565b602082019050919050565b6000602082019050818103600083015261219a8161215e565b9050919050565b7f4e487b7100000000000000000000000000000000000000000000000000000000600052601160045260246000fd5b60006121db826118a7565b91506121e6836118a7565b9250827fffffffffffffffffffffffffffffffffffffffffffffffffffffffffffffffff0382111561221b5761221a6121a1565b5b828201905092915050565b7f50617274696369706174696f6e206f70656e0000000000000000000000000000600082015250565b600061225c601283611bb2565b915061226782612226565b602082019050919050565b6000602082019050818103600083015261228b8161224f565b9050919050565b7f4e6f207061727469636970616e74730000000000000000000000000000000000600082015250565b60006122c8600f83611bb2565b91506122d382612292565b602082019050919050565b600060208201905081810360008301526122f7816122bb565b9050919050565b7f566f74696e67206e6f74206f70656e0000000000000000000000000000000000600082015250565b6000612334600f83611bb2565b915061233f826122fe565b602082019050919050565b6000602082019050818103600083015261236381612327565b9050919050565b600061237582611b8b565b915061238083611b8b565b925082821015612393576123926121a1565b5b828203905092915050565b60006123a982611b8b565b915060ff8214156123bd576123bc6121a1565b5b600182019050919050565b60006123d382611b8b565b91506123de83611b8b565b92508260ff038211156123f4576123f36121a1565b5b828201905092915050565b600061240a826118a7565b9150612415836118a7565b9250817fffffffffffffffffffffffffffffffffffffffffffffffffffffffffffffffff048311821515161561244e5761244d6121a1565b5b82820290509291505056fea26469706673582212208fc9d3fb0858122f46f4d50acf5b34e92d86520be74716830257635d95f26ffa64736f6c634300080a0033",
  "immutableReferences": {},
  "source": "//SPDX-License-Identifier: MIT\npragma solidity 0.8.10;\nimport \"@openzeppelin/contracts/proxy/utils/Initializable.sol\";\n\ncontract Contest is Initializable{\n    address public owner;\n    address payable public winner;\n\n    uint8 constant MAX_PARTICIPANTS = 4;\n    uint public contestingFee;\n    uint public votingFee;\n    uint8 public currentRound;\n\n    bool public votingOpen;\n    bool public participationOpen;\n\n    struct Contestant {\n        uint[4] votesReceived;\n        uint8 progressedToRound;\n        string ipfsHash;\n    }\n    mapping(address => Contestant) public contestants;\n    address[][MAX_PARTICIPANTS] public roundWinners;\n\n    // Fired to signal that the contest is open for participation\n    event ContestOpenedForParticipation();\n\n    /*\n     * Fired once the number of participants = 4. \n     * Signals that the contest is closed for participation\n     */\n    event ContestClosedForParticipation( address indexed _addr);\n\n    // Voting opened for a round\n    event VotingOpened(uint8 round);\n\n    // Voting closed for a round\n    event VotingClosed(uint8 round);\n\n    function initialize(address _owner, uint _contestingFee, uint _votingFee) external {\n        //__ERC721_init(_name, _symbol);\n        owner = _owner;\n        contestingFee = _contestingFee;\n        votingFee = _votingFee;\n    }\n\n    modifier isOwner() {\n        require(msg.sender == owner, \"Only owners allowed\");\n        _;\n    }\n\n    function enableParticipation() public isOwner {\n        participationOpen = true;\n    }\n\n    function disableParticipation() public isOwner {\n        participationOpen = false;\n    }\n    \n    function openVoting() public isOwner {\n        require(!participationOpen, \"Participation open\");\n        require(roundWinners[0].length == MAX_PARTICIPANTS, \"No participants\");\n        votingOpen = true;\n    }\n\n    function closeVoting() public isOwner {\n        require(votingOpen, \"Voting not open\");\n        require(!participationOpen, \"Participation open\");\n        votingOpen = false;\n\n        /*\n         * Max. Rounds = MAX_PARTICIPANTS - 1\n         * So, for 4 participants, max rounds = 3 => R0, R1, R2\n         * So, we count votes of the current round and eliminate \n         * the person with the lowest votes.\n         * Except for the Fina Round.\n         * For final round, we have an algorthm that takes into \n         * consideration weighted votes from all the rounds.\n         */\n        uint8 total_rounds = MAX_PARTICIPANTS - 1;\n\n        if( currentRound <  total_rounds - 1) {\n            uint8 tmpCId = 0;\n            uint tmpLowestVotes = contestants[roundWinners[currentRound][tmpCId]].votesReceived[currentRound];\n            \n            for(uint8 i = 1; i < roundWinners[currentRound].length; i++) {     \n                //TODO: Right now, I haven't accounted for a scenario when 2 contestants \n                // have equal scores. So, using <= instead of < , for now           \n                if( contestants[roundWinners[currentRound][i]].votesReceived[currentRound] <= tmpLowestVotes) {\n                    tmpLowestVotes = contestants[roundWinners[currentRound][i]].votesReceived[currentRound];\n                    tmpCId = i;\n                }               \n            }\n\n            for(uint8 i = 0; i < roundWinners[currentRound].length; i++) {\n                //Skip the one with the lowest votes\n                if(i != tmpCId) {\n                    roundWinners[currentRound + 1].push(roundWinners[currentRound][i] );\n                    contestants[roundWinners[currentRound][i]].progressedToRound = currentRound + 1;\n                }\n            }\n            currentRound++;\n        }\n        else {\n            pickWinner();\n        }        \n    }\n\n    function pickWinner() private {\n        /*\n         * For final score, we use weighted scores of all the roundsWeighted \n         * final score = 60% x final (3rd) Round + 30% x 2nd round + 10% x 1st round\n         */\n        uint[4] storage finalistOneAllVotes = contestants[roundWinners[2][0]].votesReceived;\n        uint finalistOneFinalScore = 60 * finalistOneAllVotes[2] + 30 * finalistOneAllVotes[1] + 10 * finalistOneAllVotes[0];\n        \n        uint[4] storage finalistTwoAllVotes = contestants[roundWinners[2][1]].votesReceived;\n        uint finalistTwoFinalScore = 60 * finalistTwoAllVotes[2] + 30 * finalistTwoAllVotes[1] + 10 * finalistTwoAllVotes[0];\n\n        if( finalistTwoFinalScore > finalistOneFinalScore) {\n            winner = payable(roundWinners[2][1]);\n        }\n        else {\n            winner = payable(roundWinners[2][0]);\n        }\n    }\n\n\n    function participate(string memory _ipfsHash) public payable{\n        require(participationOpen, \"Participation is closed for now\");\n        require(roundWinners[0].length < MAX_PARTICIPANTS, \"Maximum number of participants reached\");\n        require(msg.value == contestingFee, \"Please pay the required fee to partipate\");\n        \n        roundWinners[0].push(msg.sender);\n        contestants[msg.sender].ipfsHash = _ipfsHash;\n\n        /* \n         * If we have reached MAX_PARTICIPANTS contestants now, \n         * disable further participantion and notify the UI\n         */\n        if( roundWinners[0].length == MAX_PARTICIPANTS ) {\n            participationOpen = false;\n            emit ContestClosedForParticipation(msg.sender);\n        }\n    }\n\n    function vote(address _addr) public payable {\n        require(msg.value == votingFee, \"Please pay the required fee to vote\");\n        require(votingOpen, \"Voting is closed for now\");\n        //require( keccak256(contestants[_addr].ipfsHash) != keccak256(\"\") , \"Invalid contestant\");\n        require(bytes(contestants[_addr].ipfsHash).length != 0 , \"Invalid contestant\");\n        require(contestants[_addr].progressedToRound == currentRound, \"Contestant already eliminated\");\n        //also check whether the contestant has advanced to this round or not\n        contestants[_addr].votesReceived[currentRound] += 1;\n    }\n\n    function claimReward() public {\n        require(msg.sender == winner);\n        winner.transfer(address(this).balance);\n    }\n\n    function getBalance() public view returns (uint){\n        return address(this).balance;\n    }\n}",
  "sourcePath": "/home/shariqkhanfreelancer/Workspace/BLOCKCHAIN/Solidity/BlockStar/contracts/Contest.sol",
  "compiler": {
    "name": "solc",
    "version": "0.8.10+commit.fc410830.Emscripten.clang"
  },
  "schemaVersion": "3.4.7",
  "updatedAt": "2022-06-19T16:38:57.005Z",
  "devdoc": {
    "kind": "dev",
    "methods": {},
    "version": 1
  },
  "userdoc": {
    "kind": "user",
    "methods": {},
    "version": 1
  }
}