{
  "contractName": "Contest",
  "abi": [
    {
      "anonymous": false,
      "inputs": [
        {
          "indexed": true,
          "internalType": "address",
          "name": "_addr",
          "type": "address"
        }
      ],
      "name": "ContestClosedForParticipation",
      "type": "event"
    },
    {
      "anonymous": false,
      "inputs": [],
      "name": "ContestOpenedForParticipation",
      "type": "event"
    },
    {
      "anonymous": false,
      "inputs": [
        {
          "indexed": false,
          "internalType": "uint8",
          "name": "version",
          "type": "uint8"
        }
      ],
      "name": "Initialized",
      "type": "event"
    },
    {
      "anonymous": false,
      "inputs": [
        {
          "indexed": false,
          "internalType": "uint8",
          "name": "round",
          "type": "uint8"
        }
      ],
      "name": "VotingClosed",
      "type": "event"
    },
    {
      "anonymous": false,
      "inputs": [
        {
          "indexed": false,
          "internalType": "uint8",
          "name": "round",
          "type": "uint8"
        }
      ],
      "name": "VotingOpened",
      "type": "event"
    },
    {
      "inputs": [
        {
          "internalType": "address",
          "name": "",
          "type": "address"
        }
      ],
      "name": "contestants",
      "outputs": [
        {
          "internalType": "uint8",
          "name": "progressedToRound",
          "type": "uint8"
        },
        {
          "internalType": "string",
          "name": "ipfsHash",
          "type": "string"
        }
      ],
      "stateMutability": "view",
      "type": "function"
    },
    {
      "inputs": [],
      "name": "contestingFee",
      "outputs": [
        {
          "internalType": "uint256",
          "name": "",
          "type": "uint256"
        }
      ],
      "stateMutability": "view",
      "type": "function"
    },
    {
      "inputs": [],
      "name": "currentRound",
      "outputs": [
        {
          "internalType": "uint8",
          "name": "",
          "type": "uint8"
        }
      ],
      "stateMutability": "view",
      "type": "function"
    },
    {
      "inputs": [],
      "name": "owner",
      "outputs": [
        {
          "internalType": "address",
          "name": "",
          "type": "address"
        }
      ],
      "stateMutability": "view",
      "type": "function"
    },
    {
      "inputs": [],
      "name": "participationOpen",
      "outputs": [
        {
          "internalType": "bool",
          "name": "",
          "type": "bool"
        }
      ],
      "stateMutability": "view",
      "type": "function"
    },
    {
      "inputs": [
        {
          "internalType": "uint256",
          "name": "",
          "type": "uint256"
        },
        {
          "internalType": "uint256",
          "name": "",
          "type": "uint256"
        }
      ],
      "name": "roundWinners",
      "outputs": [
        {
          "internalType": "address",
          "name": "",
          "type": "address"
        }
      ],
      "stateMutability": "view",
      "type": "function"
    },
    {
      "inputs": [],
      "name": "votingFee",
      "outputs": [
        {
          "internalType": "uint256",
          "name": "",
          "type": "uint256"
        }
      ],
      "stateMutability": "view",
      "type": "function"
    },
    {
      "inputs": [],
      "name": "votingOpen",
      "outputs": [
        {
          "internalType": "bool",
          "name": "",
          "type": "bool"
        }
      ],
      "stateMutability": "view",
      "type": "function"
    },
    {
      "inputs": [],
      "name": "winner",
      "outputs": [
        {
          "internalType": "address payable",
          "name": "",
          "type": "address"
        }
      ],
      "stateMutability": "view",
      "type": "function"
    },
    {
      "inputs": [
        {
          "internalType": "address",
          "name": "_owner",
          "type": "address"
        },
        {
          "internalType": "string",
          "name": "_title",
          "type": "string"
        },
        {
          "internalType": "uint256",
          "name": "_contestingFee",
          "type": "uint256"
        },
        {
          "internalType": "uint256",
          "name": "_votingFee",
          "type": "uint256"
        }
      ],
      "name": "initialize",
      "outputs": [],
      "stateMutability": "nonpayable",
      "type": "function"
    },
    {
      "inputs": [],
      "name": "enableParticipation",
      "outputs": [],
      "stateMutability": "nonpayable",
      "type": "function"
    },
    {
      "inputs": [],
      "name": "disableParticipation",
      "outputs": [],
      "stateMutability": "nonpayable",
      "type": "function"
    },
    {
      "inputs": [],
      "name": "openVoting",
      "outputs": [],
      "stateMutability": "nonpayable",
      "type": "function"
    },
    {
      "inputs": [],
      "name": "closeVoting",
      "outputs": [],
      "stateMutability": "nonpayable",
      "type": "function"
    },
    {
      "inputs": [
        {
          "internalType": "string",
          "name": "_ipfsHash",
          "type": "string"
        }
      ],
      "name": "participate",
      "outputs": [],
      "stateMutability": "payable",
      "type": "function"
    },
    {
      "inputs": [
        {
          "internalType": "address",
          "name": "_addr",
          "type": "address"
        }
      ],
      "name": "vote",
      "outputs": [],
      "stateMutability": "payable",
      "type": "function"
    },
    {
      "inputs": [],
      "name": "claimReward",
      "outputs": [],
      "stateMutability": "nonpayable",
      "type": "function"
    },
    {
      "inputs": [],
      "name": "getBalance",
      "outputs": [
        {
          "internalType": "uint256",
          "name": "",
          "type": "uint256"
        }
      ],
      "stateMutability": "view",
      "type": "function"
    }
  ],
  "bytecode": "0x608060405234801561001057600080fd5b506124d7806100206000396000f3fe6080604052600436106101095760003560e01c80638fbc4fc411610095578063b88a802f11610064578063b88a802f14610308578063c631b2921461031f578063dab306b114610336578063dfbf53ae14610361578063e8668c521461038c57610109565b80638fbc4fc414610284578063996ab783146102af578063a95824b4146102c6578063affc0670146102f157610109565b80636470a639116100dc5780636470a639146101a957806367892ac3146101e75780636dd7d8ea146102125780638a19c8bc1461022e5780638da5cb5b1461025957610109565b806303e3cd6a1461010e57806312065fe01461014b5780631d27769f14610176578063563df4b314610192575b600080fd5b34801561011a57600080fd5b50610135600480360381019061013091906118f5565b6103b5565b6040516101429190611976565b60405180910390f35b34801561015757600080fd5b50610160610406565b60405161016d91906119a0565b60405180910390f35b610190600480360381019061018b9190611b01565b61040e565b005b34801561019e57600080fd5b506101a7610655565b005b3480156101b557600080fd5b506101d060048036038101906101cb9190611b76565b610702565b6040516101de929190611c47565b60405180910390f35b3480156101f357600080fd5b506101fc6107bb565b6040516102099190611c92565b60405180910390f35b61022c60048036038101906102279190611b76565b6107ce565b005b34801561023a57600080fd5b50610243610a1b565b6040516102509190611cad565b60405180910390f35b34801561026557600080fd5b5061026e610a2e565b60405161027b9190611976565b60405180910390f35b34801561029057600080fd5b50610299610a54565b6040516102a691906119a0565b60405180910390f35b3480156102bb57600080fd5b506102c4610a5a565b005b3480156102d257600080fd5b506102db610b07565b6040516102e89190611c92565b60405180910390f35b3480156102fd57600080fd5b50610306610b1a565b005b34801561031457600080fd5b5061031d610c76565b005b34801561032b57600080fd5b50610334610d3b565b005b34801561034257600080fd5b5061034b611406565b60405161035891906119a0565b60405180910390f35b34801561036d57600080fd5b5061037661140c565b6040516103839190611ce9565b60405180910390f35b34801561039857600080fd5b506103b360048036038101906103ae9190611d04565b611432565b005b600782600481106103c557600080fd5b0181815481106103d457600080fd5b906000526020600020016000915091509054906101000a900473ffffffffffffffffffffffffffffffffffffffff1681565b600047905090565b600560029054906101000a900460ff1661045d576040517f08c379a000000000000000000000000000000000000000000000000000000000815260040161045490611dd3565b60405180910390fd5b600460ff16600760006004811061047757610476611df3565b5b0180549050106104bc576040517f08c379a00000000000000000000000000000000000000000000000000000000081526004016104b390611e94565b60405180910390fd5b6003543414610500576040517f08c379a00000000000000000000000000000000000000000000000000000000081526004016104f790611f26565b60405180910390fd5b600760006004811061051557610514611df3565b5b01339080600181540180825580915050600190039060005260206000200160009091909190916101000a81548173ffffffffffffffffffffffffffffffffffffffff021916908373ffffffffffffffffffffffffffffffffffffffff16021790555080600660003373ffffffffffffffffffffffffffffffffffffffff1673ffffffffffffffffffffffffffffffffffffffff16815260200190815260200160002060050190805190602001906105cd929190611808565b50600460ff1660076000600481106105e8576105e7611df3565b5b01805490501415610652576000600560026101000a81548160ff0219169083151502179055503373ffffffffffffffffffffffffffffffffffffffff167f15970fb7c7f5e516d64772bccbafac38da4729b9a44ab2f6dc4fa77e36dfd43c60405160405180910390a25b50565b600060029054906101000a900473ffffffffffffffffffffffffffffffffffffffff1673ffffffffffffffffffffffffffffffffffffffff163373ffffffffffffffffffffffffffffffffffffffff16146106e5576040517f08c379a00000000000000000000000000000000000000000000000000000000081526004016106dc90611f92565b60405180910390fd5b6000600560026101000a81548160ff021916908315150217905550565b60066020528060005260406000206000915090508060040160009054906101000a900460ff169080600501805461073890611fe1565b80601f016020809104026020016040519081016040528092919081815260200182805461076490611fe1565b80156107b15780601f10610786576101008083540402835291602001916107b1565b820191906000526020600020905b81548152906001019060200180831161079457829003601f168201915b5050505050905082565b600560029054906101000a900460ff1681565b6004543414610812576040517f08c379a000000000000000000000000000000000000000000000000000000000815260040161080990612085565b60405180910390fd5b600560019054906101000a900460ff16610861576040517f08c379a0000000000000000000000000000000000000000000000000000000008152600401610858906120f1565b60405180910390fd5b6000600660008373ffffffffffffffffffffffffffffffffffffffff1673ffffffffffffffffffffffffffffffffffffffff16815260200190815260200160002060050180546108b090611fe1565b905014156108f3576040517f08c379a00000000000000000000000000000000000000000000000000000000081526004016108ea9061215d565b60405180910390fd5b600560009054906101000a900460ff1660ff16600660008373ffffffffffffffffffffffffffffffffffffffff1673ffffffffffffffffffffffffffffffffffffffff16815260200190815260200160002060040160009054906101000a900460ff1660ff1614610999576040517f08c379a0000000000000000000000000000000000000000000000000000000008152600401610990906121c9565b60405180910390fd5b6001600660008373ffffffffffffffffffffffffffffffffffffffff1673ffffffffffffffffffffffffffffffffffffffff168152602001908152602001600020600001600560009054906101000a900460ff1660ff1660048110610a0157610a00611df3565b5b016000828254610a119190612218565b9250508190555050565b600560009054906101000a900460ff1681565b600060029054906101000a900473ffffffffffffffffffffffffffffffffffffffff1681565b60035481565b600060029054906101000a900473ffffffffffffffffffffffffffffffffffffffff1673ffffffffffffffffffffffffffffffffffffffff163373ffffffffffffffffffffffffffffffffffffffff1614610aea576040517f08c379a0000000000000000000000000000000000000000000000000000000008152600401610ae190611f92565b60405180910390fd5b6001600560026101000a81548160ff021916908315150217905550565b600560019054906101000a900460ff1681565b600060029054906101000a900473ffffffffffffffffffffffffffffffffffffffff1673ffffffffffffffffffffffffffffffffffffffff163373ffffffffffffffffffffffffffffffffffffffff1614610baa576040517f08c379a0000000000000000000000000000000000000000000000000000000008152600401610ba190611f92565b60405180910390fd5b600560029054906101000a900460ff1615610bfa576040517f08c379a0000000000000000000000000000000000000000000000000000000008152600401610bf1906122ba565b60405180910390fd5b600460ff166007600060048110610c1457610c13611df3565b5b018054905014610c59576040517f08c379a0000000000000000000000000000000000000000000000000000000008152600401610c5090612326565b60405180910390fd5b6001600560016101000a81548160ff021916908315150217905550565b600160009054906101000a900473ffffffffffffffffffffffffffffffffffffffff1673ffffffffffffffffffffffffffffffffffffffff163373ffffffffffffffffffffffffffffffffffffffff1614610cd057600080fd5b600160009054906101000a900473ffffffffffffffffffffffffffffffffffffffff1673ffffffffffffffffffffffffffffffffffffffff166108fc479081150290604051600060405180830381858888f19350505050158015610d38573d6000803e3d6000fd5b50565b600060029054906101000a900473ffffffffffffffffffffffffffffffffffffffff1673ffffffffffffffffffffffffffffffffffffffff163373ffffffffffffffffffffffffffffffffffffffff1614610dcb576040517f08c379a0000000000000000000000000000000000000000000000000000000008152600401610dc290611f92565b60405180910390fd5b600560019054906101000a900460ff16610e1a576040517f08c379a0000000000000000000000000000000000000000000000000000000008152600401610e1190612392565b60405180910390fd5b600560029054906101000a900460ff1615610e6a576040517f08c379a0000000000000000000000000000000000000000000000000000000008152600401610e61906122ba565b60405180910390fd5b6000600560016101000a81548160ff021916908315150217905550600060016004610e9591906123b2565b9050600181610ea491906123b2565b60ff16600560009054906101000a900460ff1660ff1610156113fa57600080600660006007600560009054906101000a900460ff1660ff1660048110610eed57610eec611df3565b5b018460ff1681548110610f0357610f02611df3565b5b9060005260206000200160009054906101000a900473ffffffffffffffffffffffffffffffffffffffff1673ffffffffffffffffffffffffffffffffffffffff1673ffffffffffffffffffffffffffffffffffffffff168152602001908152602001600020600001600560009054906101000a900460ff1660ff1660048110610f8f57610f8e611df3565b5b015490506000600190505b6007600560009054906101000a900460ff1660ff1660048110610fc057610fbf611df3565b5b01805490508160ff16101561118a5781600660006007600560009054906101000a900460ff1660ff1660048110610ffa57610ff9611df3565b5b018460ff16815481106110105761100f611df3565b5b9060005260206000200160009054906101000a900473ffffffffffffffffffffffffffffffffffffffff1673ffffffffffffffffffffffffffffffffffffffff1673ffffffffffffffffffffffffffffffffffffffff168152602001908152602001600020600001600560009054906101000a900460ff1660ff166004811061109c5761109b611df3565b5b01541161117757600660006007600560009054906101000a900460ff1660ff16600481106110cd576110cc611df3565b5b018360ff16815481106110e3576110e2611df3565b5b9060005260206000200160009054906101000a900473ffffffffffffffffffffffffffffffffffffffff1673ffffffffffffffffffffffffffffffffffffffff1673ffffffffffffffffffffffffffffffffffffffff168152602001908152602001600020600001600560009054906101000a900460ff1660ff166004811061116f5761116e611df3565b5b015491508092505b8080611182906123e6565b915050610f9a565b5060005b6007600560009054906101000a900460ff1660ff16600481106111b4576111b3611df3565b5b01805490508160ff1610156113ba578260ff168160ff16146113a75760076001600560009054906101000a900460ff166111ee9190612410565b60ff166004811061120257611201611df3565b5b016007600560009054906101000a900460ff1660ff166004811061122957611228611df3565b5b018260ff168154811061123f5761123e611df3565b5b9060005260206000200160009054906101000a900473ffffffffffffffffffffffffffffffffffffffff169080600181540180825580915050600190039060005260206000200160009091909190916101000a81548173ffffffffffffffffffffffffffffffffffffffff021916908373ffffffffffffffffffffffffffffffffffffffff1602179055506001600560009054906101000a900460ff166112e69190612410565b600660006007600560009054906101000a900460ff1660ff16600481106113105761130f611df3565b5b018460ff168154811061132657611325611df3565b5b9060005260206000200160009054906101000a900473ffffffffffffffffffffffffffffffffffffffff1673ffffffffffffffffffffffffffffffffffffffff1673ffffffffffffffffffffffffffffffffffffffff16815260200190815260200160002060040160006101000a81548160ff021916908360ff1602179055505b80806113b2906123e6565b91505061118e565b506005600081819054906101000a900460ff16809291906113da906123e6565b91906101000a81548160ff021916908360ff160217905550505050611403565b61140261149e565b5b50565b60045481565b600160009054906101000a900473ffffffffffffffffffffffffffffffffffffffff1681565b83600060026101000a81548173ffffffffffffffffffffffffffffffffffffffff021916908373ffffffffffffffffffffffffffffffffffffffff1602179055508260029080519060200190611489929190611808565b50816003819055508060048190555050505050565b60006006600060076002600481106114b9576114b8611df3565b5b016000815481106114cd576114cc611df3565b5b9060005260206000200160009054906101000a900473ffffffffffffffffffffffffffffffffffffffff1673ffffffffffffffffffffffffffffffffffffffff1673ffffffffffffffffffffffffffffffffffffffff168152602001908152602001600020600001905060008160006004811061154d5761154c611df3565b5b0154600a61155b9190612447565b8260016004811061156f5761156e611df3565b5b0154601e61157d9190612447565b8360026004811061159157611590611df3565b5b0154603c61159f9190612447565b6115a99190612218565b6115b39190612218565b905060006006600060076002600481106115d0576115cf611df3565b5b016001815481106115e4576115e3611df3565b5b9060005260206000200160009054906101000a900473ffffffffffffffffffffffffffffffffffffffff1673ffffffffffffffffffffffffffffffffffffffff1673ffffffffffffffffffffffffffffffffffffffff168152602001908152602001600020600001905060008160006004811061166457611663611df3565b5b0154600a6116729190612447565b8260016004811061168657611685611df3565b5b0154601e6116949190612447565b836002600481106116a8576116a7611df3565b5b0154603c6116b69190612447565b6116c09190612218565b6116ca9190612218565b90508281111561176d5760076002600481106116e9576116e8611df3565b5b016001815481106116fd576116fc611df3565b5b9060005260206000200160009054906101000a900473ffffffffffffffffffffffffffffffffffffffff16600160006101000a81548173ffffffffffffffffffffffffffffffffffffffff021916908373ffffffffffffffffffffffffffffffffffffffff160217905550611802565b600760026004811061178257611781611df3565b5b0160008154811061179657611795611df3565b5b9060005260206000200160009054906101000a900473ffffffffffffffffffffffffffffffffffffffff16600160006101000a81548173ffffffffffffffffffffffffffffffffffffffff021916908373ffffffffffffffffffffffffffffffffffffffff1602179055505b50505050565b82805461181490611fe1565b90600052602060002090601f016020900481019282611836576000855561187d565b82601f1061184f57805160ff191683800117855561187d565b8280016001018555821561187d579182015b8281111561187c578251825591602001919060010190611861565b5b50905061188a919061188e565b5090565b5b808211156118a757600081600090555060010161188f565b5090565b6000604051905090565b600080fd5b600080fd5b6000819050919050565b6118d2816118bf565b81146118dd57600080fd5b50565b6000813590506118ef816118c9565b92915050565b6000806040838503121561190c5761190b6118b5565b5b600061191a858286016118e0565b925050602061192b858286016118e0565b9150509250929050565b600073ffffffffffffffffffffffffffffffffffffffff82169050919050565b600061196082611935565b9050919050565b61197081611955565b82525050565b600060208201905061198b6000830184611967565b92915050565b61199a816118bf565b82525050565b60006020820190506119b56000830184611991565b92915050565b600080fd5b600080fd5b6000601f19601f8301169050919050565b7f4e487b7100000000000000000000000000000000000000000000000000000000600052604160045260246000fd5b611a0e826119c5565b810181811067ffffffffffffffff82111715611a2d57611a2c6119d6565b5b80604052505050565b6000611a406118ab565b9050611a4c8282611a05565b919050565b600067ffffffffffffffff821115611a6c57611a6b6119d6565b5b611a75826119c5565b9050602081019050919050565b82818337600083830152505050565b6000611aa4611a9f84611a51565b611a36565b905082815260208101848484011115611ac057611abf6119c0565b5b611acb848285611a82565b509392505050565b600082601f830112611ae857611ae76119bb565b5b8135611af8848260208601611a91565b91505092915050565b600060208284031215611b1757611b166118b5565b5b600082013567ffffffffffffffff811115611b3557611b346118ba565b5b611b4184828501611ad3565b91505092915050565b611b5381611955565b8114611b5e57600080fd5b50565b600081359050611b7081611b4a565b92915050565b600060208284031215611b8c57611b8b6118b5565b5b6000611b9a84828501611b61565b91505092915050565b600060ff82169050919050565b611bb981611ba3565b82525050565b600081519050919050565b600082825260208201905092915050565b60005b83811015611bf9578082015181840152602081019050611bde565b83811115611c08576000848401525b50505050565b6000611c1982611bbf565b611c238185611bca565b9350611c33818560208601611bdb565b611c3c816119c5565b840191505092915050565b6000604082019050611c5c6000830185611bb0565b8181036020830152611c6e8184611c0e565b90509392505050565b60008115159050919050565b611c8c81611c77565b82525050565b6000602082019050611ca76000830184611c83565b92915050565b6000602082019050611cc26000830184611bb0565b92915050565b6000611cd382611935565b9050919050565b611ce381611cc8565b82525050565b6000602082019050611cfe6000830184611cda565b92915050565b60008060008060808587031215611d1e57611d1d6118b5565b5b6000611d2c87828801611b61565b945050602085013567ffffffffffffffff811115611d4d57611d4c6118ba565b5b611d5987828801611ad3565b9350506040611d6a878288016118e0565b9250506060611d7b878288016118e0565b91505092959194509250565b7f50617274696369706174696f6e20697320636c6f73656420666f72206e6f7700600082015250565b6000611dbd601f83611bca565b9150611dc882611d87565b602082019050919050565b60006020820190508181036000830152611dec81611db0565b9050919050565b7f4e487b7100000000000000000000000000000000000000000000000000000000600052603260045260246000fd5b7f4d6178696d756d206e756d626572206f66207061727469636970616e7473207260008201527f6561636865640000000000000000000000000000000000000000000000000000602082015250565b6000611e7e602683611bca565b9150611e8982611e22565b604082019050919050565b60006020820190508181036000830152611ead81611e71565b9050919050565b7f506c6561736520706179207468652072657175697265642066656520746f207060008201527f6172746970617465000000000000000000000000000000000000000000000000602082015250565b6000611f10602883611bca565b9150611f1b82611eb4565b604082019050919050565b60006020820190508181036000830152611f3f81611f03565b9050919050565b7f4f6e6c79206f776e65727320616c6c6f77656400000000000000000000000000600082015250565b6000611f7c601383611bca565b9150611f8782611f46565b602082019050919050565b60006020820190508181036000830152611fab81611f6f565b9050919050565b7f4e487b7100000000000000000000000000000000000000000000000000000000600052602260045260246000fd5b60006002820490506001821680611ff957607f821691505b6020821081141561200d5761200c611fb2565b5b50919050565b7f506c6561736520706179207468652072657175697265642066656520746f207660008201527f6f74650000000000000000000000000000000000000000000000000000000000602082015250565b600061206f602383611bca565b915061207a82612013565b604082019050919050565b6000602082019050818103600083015261209e81612062565b9050919050565b7f566f74696e6720697320636c6f73656420666f72206e6f770000000000000000600082015250565b60006120db601883611bca565b91506120e6826120a5565b602082019050919050565b6000602082019050818103600083015261210a816120ce565b9050919050565b7f496e76616c696420636f6e74657374616e740000000000000000000000000000600082015250565b6000612147601283611bca565b915061215282612111565b602082019050919050565b600060208201905081810360008301526121768161213a565b9050919050565b7f436f6e74657374616e7420616c726561647920656c696d696e61746564000000600082015250565b60006121b3601d83611bca565b91506121be8261217d565b602082019050919050565b600060208201905081810360008301526121e2816121a6565b9050919050565b7f4e487b7100000000000000000000000000000000000000000000000000000000600052601160045260246000fd5b6000612223826118bf565b915061222e836118bf565b9250827fffffffffffffffffffffffffffffffffffffffffffffffffffffffffffffffff03821115612263576122626121e9565b5b828201905092915050565b7f50617274696369706174696f6e206f70656e0000000000000000000000000000600082015250565b60006122a4601283611bca565b91506122af8261226e565b602082019050919050565b600060208201905081810360008301526122d381612297565b9050919050565b7f4e6f207061727469636970616e74730000000000000000000000000000000000600082015250565b6000612310600f83611bca565b915061231b826122da565b602082019050919050565b6000602082019050818103600083015261233f81612303565b9050919050565b7f566f74696e67206e6f74206f70656e0000000000000000000000000000000000600082015250565b600061237c600f83611bca565b915061238782612346565b602082019050919050565b600060208201905081810360008301526123ab8161236f565b9050919050565b60006123bd82611ba3565b91506123c883611ba3565b9250828210156123db576123da6121e9565b5b828203905092915050565b60006123f182611ba3565b915060ff821415612405576124046121e9565b5b600182019050919050565b600061241b82611ba3565b915061242683611ba3565b92508260ff0382111561243c5761243b6121e9565b5b828201905092915050565b6000612452826118bf565b915061245d836118bf565b9250817fffffffffffffffffffffffffffffffffffffffffffffffffffffffffffffffff0483118215151615612496576124956121e9565b5b82820290509291505056fea2646970667358221220fad1813545591205fd39a59063e0af70dc9136fab6c180531f6f1791bac3dad764736f6c634300080a0033",
  "immutableReferences": {},
  "source": "//SPDX-License-Identifier: MIT\npragma solidity 0.8.10;\nimport \"@openzeppelin/contracts/proxy/utils/Initializable.sol\";\n\ncontract Contest is Initializable{\n    address public owner;\n    address payable public winner;\n    string title;\n\n    uint8 constant MAX_PARTICIPANTS = 4;\n    uint public contestingFee;\n    uint public votingFee;\n    uint8 public currentRound;\n\n    bool public votingOpen;\n    bool public participationOpen;\n\n    struct Contestant {\n        uint[4] votesReceived;\n        uint8 progressedToRound;\n        string ipfsHash;\n    }\n    mapping(address => Contestant) public contestants;\n    address[][MAX_PARTICIPANTS] public roundWinners;\n\n    // Fired to signal that the contest is open for participation\n    event ContestOpenedForParticipation();\n\n    /*\n     * Fired once the number of participants = 4. \n     * Signals that the contest is closed for participation\n     */\n    event ContestClosedForParticipation( address indexed _addr);\n\n    // Voting opened for a round\n    event VotingOpened(uint8 round);\n\n    // Voting closed for a round\n    event VotingClosed(uint8 round);\n\n    function initialize(address _owner, string memory _title, uint _contestingFee, uint _votingFee) external {\n        //__ERC721_init(_name, _symbol);\n        owner = _owner;\n        title = _title;\n        contestingFee = _contestingFee;\n        votingFee = _votingFee;\n    }\n\n    modifier isOwner() {\n        require(msg.sender == owner, \"Only owners allowed\");\n        _;\n    }\n\n    function enableParticipation() public isOwner {\n        participationOpen = true;\n    }\n\n    function disableParticipation() public isOwner {\n        participationOpen = false;\n    }\n    \n    function openVoting() public isOwner {\n        require(!participationOpen, \"Participation open\");\n        require(roundWinners[0].length == MAX_PARTICIPANTS, \"No participants\");\n        votingOpen = true;\n    }\n\n    function closeVoting() public isOwner {\n        require(votingOpen, \"Voting not open\");\n        require(!participationOpen, \"Participation open\");\n        votingOpen = false;\n\n        /*\n         * Max. Rounds = MAX_PARTICIPANTS - 1\n         * So, for 4 participants, max rounds = 3 => R0, R1, R2\n         * So, we count votes of the current round and eliminate \n         * the person with the lowest votes.\n         * Except for the Fina Round.\n         * For final round, we have an algorthm that takes into \n         * consideration weighted votes from all the rounds.\n         */\n        uint8 total_rounds = MAX_PARTICIPANTS - 1;\n\n        if( currentRound <  total_rounds - 1) {\n            uint8 tmpCId = 0;\n            uint tmpLowestVotes = contestants[roundWinners[currentRound][tmpCId]].votesReceived[currentRound];\n            \n            for(uint8 i = 1; i < roundWinners[currentRound].length; i++) {     \n                //TODO: Right now, I haven't accounted for a scenario when 2 contestants \n                // have equal scores. So, using <= instead of < , for now           \n                if( contestants[roundWinners[currentRound][i]].votesReceived[currentRound] <= tmpLowestVotes) {\n                    tmpLowestVotes = contestants[roundWinners[currentRound][i]].votesReceived[currentRound];\n                    tmpCId = i;\n                }               \n            }\n\n            for(uint8 i = 0; i < roundWinners[currentRound].length; i++) {\n                //Skip the one with the lowest votes\n                if(i != tmpCId) {\n                    roundWinners[currentRound + 1].push(roundWinners[currentRound][i] );\n                    contestants[roundWinners[currentRound][i]].progressedToRound = currentRound + 1;\n                }\n            }\n            currentRound++;\n        }\n        else {\n            pickWinner();\n        }        \n    }\n\n    function pickWinner() private {\n        /*\n         * For final score, we use weighted scores of all the roundsWeighted \n         * final score = 60% x final (3rd) Round + 30% x 2nd round + 10% x 1st round\n         */\n        uint[4] storage finalistOneAllVotes = contestants[roundWinners[2][0]].votesReceived;\n        uint finalistOneFinalScore = 60 * finalistOneAllVotes[2] + 30 * finalistOneAllVotes[1] + 10 * finalistOneAllVotes[0];\n        \n        uint[4] storage finalistTwoAllVotes = contestants[roundWinners[2][1]].votesReceived;\n        uint finalistTwoFinalScore = 60 * finalistTwoAllVotes[2] + 30 * finalistTwoAllVotes[1] + 10 * finalistTwoAllVotes[0];\n\n        if( finalistTwoFinalScore > finalistOneFinalScore) {\n            winner = payable(roundWinners[2][1]);\n        }\n        else {\n            winner = payable(roundWinners[2][0]);\n        }\n    }\n\n\n    function participate(string memory _ipfsHash) public payable{\n        require(participationOpen, \"Participation is closed for now\");\n        require(roundWinners[0].length < MAX_PARTICIPANTS, \"Maximum number of participants reached\");\n        require(msg.value == contestingFee, \"Please pay the required fee to partipate\");\n        \n        roundWinners[0].push(msg.sender);\n        contestants[msg.sender].ipfsHash = _ipfsHash;\n\n        /* \n         * If we have reached MAX_PARTICIPANTS contestants now, \n         * disable further participantion and notify the UI\n         */\n        if( roundWinners[0].length == MAX_PARTICIPANTS ) {\n            participationOpen = false;\n            emit ContestClosedForParticipation(msg.sender);\n        }\n    }\n\n    function vote(address _addr) public payable {\n        require(msg.value == votingFee, \"Please pay the required fee to vote\");\n        require(votingOpen, \"Voting is closed for now\");\n        //require( keccak256(contestants[_addr].ipfsHash) != keccak256(\"\") , \"Invalid contestant\");\n        require(bytes(contestants[_addr].ipfsHash).length != 0 , \"Invalid contestant\");\n        require(contestants[_addr].progressedToRound == currentRound, \"Contestant already eliminated\");\n        //also check whether the contestant has advanced to this round or not\n        contestants[_addr].votesReceived[currentRound] += 1;\n    }\n\n    function claimReward() public {\n        require(msg.sender == winner);\n        winner.transfer(address(this).balance);\n    }\n\n    function getBalance() public view returns (uint){\n        return address(this).balance;\n    }\n}",
  "sourcePath": "/home/shariqkhanfreelancer/Workspace/BLOCKCHAIN/Solidity/BlockStar/contracts/Contest.sol",
  "compiler": {
    "name": "solc",
    "version": "0.8.10+commit.fc410830.Emscripten.clang"
  },
  "schemaVersion": "3.4.7",
  "updatedAt": "2022-06-25T12:31:28.756Z",
  "devdoc": {
    "kind": "dev",
    "methods": {},
    "version": 1
  },
  "userdoc": {
    "kind": "user",
    "methods": {},
    "version": 1
  }
}