{
  "contractName": "Contest",
  "abi": [
    {
      "anonymous": false,
      "inputs": [
        {
          "indexed": true,
          "internalType": "address",
          "name": "_addr",
          "type": "address"
        }
      ],
      "name": "ContestClosedForParticipation",
      "type": "event"
    },
    {
      "anonymous": false,
      "inputs": [],
      "name": "ContestOpenedForParticipation",
      "type": "event"
    },
    {
      "anonymous": false,
      "inputs": [
        {
          "indexed": false,
          "internalType": "uint8",
          "name": "version",
          "type": "uint8"
        }
      ],
      "name": "Initialized",
      "type": "event"
    },
    {
      "anonymous": false,
      "inputs": [
        {
          "indexed": false,
          "internalType": "uint8",
          "name": "round",
          "type": "uint8"
        }
      ],
      "name": "VotingClosed",
      "type": "event"
    },
    {
      "anonymous": false,
      "inputs": [
        {
          "indexed": false,
          "internalType": "uint8",
          "name": "round",
          "type": "uint8"
        }
      ],
      "name": "VotingOpened",
      "type": "event"
    },
    {
      "inputs": [],
      "name": "NUM_ALLOWED_PARTICIPANTS",
      "outputs": [
        {
          "internalType": "uint8",
          "name": "",
          "type": "uint8"
        }
      ],
      "stateMutability": "view",
      "type": "function"
    },
    {
      "inputs": [
        {
          "internalType": "address",
          "name": "",
          "type": "address"
        }
      ],
      "name": "contestants",
      "outputs": [
        {
          "internalType": "bytes32",
          "name": "name",
          "type": "bytes32"
        },
        {
          "internalType": "string",
          "name": "bio",
          "type": "string"
        },
        {
          "internalType": "uint8",
          "name": "progressedToRound",
          "type": "uint8"
        }
      ],
      "stateMutability": "view",
      "type": "function"
    },
    {
      "inputs": [],
      "name": "currentRound",
      "outputs": [
        {
          "internalType": "uint8",
          "name": "",
          "type": "uint8"
        }
      ],
      "stateMutability": "view",
      "type": "function"
    },
    {
      "inputs": [],
      "name": "description",
      "outputs": [
        {
          "internalType": "string",
          "name": "",
          "type": "string"
        }
      ],
      "stateMutability": "view",
      "type": "function"
    },
    {
      "inputs": [],
      "name": "fee",
      "outputs": [
        {
          "internalType": "uint256",
          "name": "",
          "type": "uint256"
        }
      ],
      "stateMutability": "view",
      "type": "function"
    },
    {
      "inputs": [],
      "name": "owner",
      "outputs": [
        {
          "internalType": "address",
          "name": "",
          "type": "address"
        }
      ],
      "stateMutability": "view",
      "type": "function"
    },
    {
      "inputs": [],
      "name": "participationOpen",
      "outputs": [
        {
          "internalType": "bool",
          "name": "",
          "type": "bool"
        }
      ],
      "stateMutability": "view",
      "type": "function"
    },
    {
      "inputs": [
        {
          "internalType": "uint256",
          "name": "",
          "type": "uint256"
        },
        {
          "internalType": "uint256",
          "name": "",
          "type": "uint256"
        }
      ],
      "name": "qualifiers",
      "outputs": [
        {
          "internalType": "address",
          "name": "",
          "type": "address"
        }
      ],
      "stateMutability": "view",
      "type": "function"
    },
    {
      "inputs": [],
      "name": "title",
      "outputs": [
        {
          "internalType": "string",
          "name": "",
          "type": "string"
        }
      ],
      "stateMutability": "view",
      "type": "function"
    },
    {
      "inputs": [],
      "name": "votingOpen",
      "outputs": [
        {
          "internalType": "bool",
          "name": "",
          "type": "bool"
        }
      ],
      "stateMutability": "view",
      "type": "function"
    },
    {
      "inputs": [],
      "name": "winner",
      "outputs": [
        {
          "internalType": "address payable",
          "name": "",
          "type": "address"
        }
      ],
      "stateMutability": "view",
      "type": "function"
    },
    {
      "inputs": [
        {
          "internalType": "address",
          "name": "_owner",
          "type": "address"
        },
        {
          "internalType": "string",
          "name": "_title",
          "type": "string"
        },
        {
          "internalType": "string",
          "name": "_description",
          "type": "string"
        },
        {
          "internalType": "uint256",
          "name": "_fee",
          "type": "uint256"
        }
      ],
      "name": "initialize",
      "outputs": [],
      "stateMutability": "nonpayable",
      "type": "function"
    },
    {
      "inputs": [],
      "name": "stopContest",
      "outputs": [],
      "stateMutability": "nonpayable",
      "type": "function"
    },
    {
      "inputs": [],
      "name": "pauseContest",
      "outputs": [],
      "stateMutability": "nonpayable",
      "type": "function"
    },
    {
      "inputs": [],
      "name": "resumeContest",
      "outputs": [],
      "stateMutability": "nonpayable",
      "type": "function"
    },
    {
      "inputs": [],
      "name": "enableParticipation",
      "outputs": [],
      "stateMutability": "nonpayable",
      "type": "function"
    },
    {
      "inputs": [],
      "name": "disableParticipation",
      "outputs": [],
      "stateMutability": "nonpayable",
      "type": "function"
    },
    {
      "inputs": [],
      "name": "openVoting",
      "outputs": [],
      "stateMutability": "nonpayable",
      "type": "function"
    },
    {
      "inputs": [],
      "name": "closeVoting",
      "outputs": [],
      "stateMutability": "nonpayable",
      "type": "function"
    },
    {
      "inputs": [
        {
          "internalType": "bytes32",
          "name": "_name",
          "type": "bytes32"
        },
        {
          "internalType": "string",
          "name": "_performanceLink",
          "type": "string"
        },
        {
          "internalType": "string",
          "name": "_bio",
          "type": "string"
        }
      ],
      "name": "participate",
      "outputs": [],
      "stateMutability": "payable",
      "type": "function"
    },
    {
      "inputs": [
        {
          "internalType": "string",
          "name": "_performanceLink",
          "type": "string"
        }
      ],
      "name": "submitPerformamce",
      "outputs": [],
      "stateMutability": "payable",
      "type": "function"
    },
    {
      "inputs": [
        {
          "internalType": "address",
          "name": "_addr",
          "type": "address"
        }
      ],
      "name": "vote",
      "outputs": [],
      "stateMutability": "payable",
      "type": "function"
    },
    {
      "inputs": [],
      "name": "claimReward",
      "outputs": [],
      "stateMutability": "nonpayable",
      "type": "function"
    },
    {
      "inputs": [],
      "name": "getBalance",
      "outputs": [
        {
          "internalType": "uint256",
          "name": "",
          "type": "uint256"
        }
      ],
      "stateMutability": "view",
      "type": "function"
    },
    {
      "inputs": [],
      "name": "getContestDetails",
      "outputs": [
        {
          "internalType": "address",
          "name": "",
          "type": "address"
        },
        {
          "internalType": "string",
          "name": "",
          "type": "string"
        },
        {
          "internalType": "string",
          "name": "",
          "type": "string"
        },
        {
          "internalType": "address",
          "name": "",
          "type": "address"
        },
        {
          "internalType": "uint8",
          "name": "",
          "type": "uint8"
        },
        {
          "internalType": "uint256",
          "name": "",
          "type": "uint256"
        },
        {
          "internalType": "uint256",
          "name": "",
          "type": "uint256"
        },
        {
          "internalType": "bool",
          "name": "",
          "type": "bool"
        },
        {
          "internalType": "bool",
          "name": "",
          "type": "bool"
        },
        {
          "internalType": "address[][]",
          "name": "",
          "type": "address[][]"
        },
        {
          "internalType": "enum Contest.ContestState",
          "name": "",
          "type": "uint8"
        }
      ],
      "stateMutability": "view",
      "type": "function"
    },
    {
      "inputs": [
        {
          "internalType": "address",
          "name": "_addr",
          "type": "address"
        }
      ],
      "name": "getContestantDetails",
      "outputs": [
        {
          "components": [
            {
              "internalType": "bytes32",
              "name": "name",
              "type": "bytes32"
            },
            {
              "internalType": "string",
              "name": "bio",
              "type": "string"
            },
            {
              "internalType": "string[]",
              "name": "performanceLinks",
              "type": "string[]"
            },
            {
              "internalType": "uint256[]",
              "name": "votesReceived",
              "type": "uint256[]"
            },
            {
              "internalType": "uint8",
              "name": "progressedToRound",
              "type": "uint8"
            }
          ],
          "internalType": "struct Contest.Contestant",
          "name": "",
          "type": "tuple"
        },
        {
          "internalType": "address",
          "name": "",
          "type": "address"
        },
        {
          "internalType": "uint8",
          "name": "",
          "type": "uint8"
        },
        {
          "internalType": "bool",
          "name": "",
          "type": "bool"
        }
      ],
      "stateMutability": "view",
      "type": "function"
    }
  ],
  "bytecode": "0x608060405234801561001057600080fd5b50614a81806100206000396000f3fe6080604052600436106101815760003560e01c8063752d0316116100d1578063b5d4b2ab1161008a578063c631b29211610064578063c631b292146104d6578063ddca3f43146104ed578063dfbf53ae14610518578063e84affa21461054357610181565b8063b5d4b2ab14610468578063b88a802f1461047f578063bb60cd7a1461049657610181565b8063752d03161461037c5780638a19c8bc146103b95780638da5cb5b146103e4578063996ab7831461040f578063a95824b414610426578063affc06701461045157610181565b80634d12d4b61161013e5780636513c321116101185780636513c321146102f357806367892ac31461030a5780636dd7d8ea146103355780637284e4161461035157610181565b80634d12d4b614610274578063563df4b31461029d5780636470a639146102b457610181565b80630cdf85bc1461018657806312065fe0146101a25780631d19a7cb146101cd5780632ac59b351461020257806347dae7651461022d5780634a79d50c14610249575b600080fd5b6101a0600480360381019061019b91906134b7565b61055a565b005b3480156101ae57600080fd5b506101b76108b4565b6040516101c49190613519565b60405180910390f35b3480156101d957600080fd5b506101e26108bc565b6040516101f99b9a9998979695949392919061382b565b60405180910390f35b34801561020e57600080fd5b50610217610b6d565b60405161022491906138eb565b60405180910390f35b6102476004803603810190610242919061393c565b610b72565b005b34801561025557600080fd5b5061025e6110a1565b60405161026b91906139c7565b60405180910390f35b34801561028057600080fd5b5061029b60048036038101906102969190613a41565b61112f565b005b3480156102a957600080fd5b506102b26111f1565b005b3480156102c057600080fd5b506102db60048036038101906102d69190613ae0565b611314565b6040516102ea93929190613b1c565b60405180910390f35b3480156102ff57600080fd5b506103086113d3565b005b34801561031657600080fd5b5061031f611506565b60405161032c9190613b5a565b60405180910390f35b61034f600480360381019061034a9190613ae0565b611519565b005b34801561035d57600080fd5b50610366611976565b60405161037391906139c7565b60405180910390f35b34801561038857600080fd5b506103a3600480360381019061039e9190613b75565b611a04565b6040516103b09190613bb5565b60405180910390f35b3480156103c557600080fd5b506103ce611a5e565b6040516103db91906138eb565b60405180910390f35b3480156103f057600080fd5b506103f9611a71565b6040516104069190613bb5565b60405180910390f35b34801561041b57600080fd5b50610424611a97565b005b34801561043257600080fd5b5061043b611bba565b6040516104489190613b5a565b60405180910390f35b34801561045d57600080fd5b50610466611bcd565b005b34801561047457600080fd5b5061047d611dde565b005b34801561048b57600080fd5b50610494611f11565b005b3480156104a257600080fd5b506104bd60048036038101906104b89190613ae0565b612081565b6040516104cd9493929190613e3c565b60405180910390f35b3480156104e257600080fd5b506104eb61235d565b005b3480156104f957600080fd5b50610502612b3b565b60405161050f9190613519565b60405180910390f35b34801561052457600080fd5b5061052d612b41565b60405161053a9190613ea9565b60405180910390f35b34801561054f57600080fd5b50610558612b67565b005b6000600281111561056e5761056d6137b4565b5b600560039054906101000a900460ff1660028111156105905761058f6137b4565b5b146105d0576040517f08c379a00000000000000000000000000000000000000000000000000000000081526004016105c790613f10565b60405180910390fd5b600560029054906101000a900460ff1661061f576040517f08c379a000000000000000000000000000000000000000000000000000000000815260040161061690613f7c565b60405180910390fd5b6000600660003373ffffffffffffffffffffffffffffffffffffffff1673ffffffffffffffffffffffffffffffffffffffff168152602001908152602001600020600101805461066e90613fcb565b905014156106b1576040517f08c379a00000000000000000000000000000000000000000000000000000000081526004016106a890614049565b60405180910390fd5b600560009054906101000a900460ff1660ff16600660003373ffffffffffffffffffffffffffffffffffffffff1673ffffffffffffffffffffffffffffffffffffffff16815260200190815260200160002060040160009054906101000a900460ff1660ff1614610757576040517f08c379a000000000000000000000000000000000000000000000000000000000815260040161074e906140b5565b60405180910390fd5b60008151141561079c576040517f08c379a000000000000000000000000000000000000000000000000000000000815260040161079390614121565b60405180910390fd5b600560009054906101000a900460ff1660ff16600660003373ffffffffffffffffffffffffffffffffffffffff1673ffffffffffffffffffffffffffffffffffffffff1681526020019081526020016000206002018054905014610835576040517f08c379a000000000000000000000000000000000000000000000000000000000815260040161082c9061418d565b60405180910390fd5b600660003373ffffffffffffffffffffffffffffffffffffffff1673ffffffffffffffffffffffffffffffffffffffff168152602001908152602001600020600201819080600181540180825580915050600190039060005260206000200160009091909190915090805190602001906108b09291906131fb565b5050565b600047905090565b6000606080600080600080600080606060008060029054906101000a900473ffffffffffffffffffffffffffffffffffffffff1660026003600160009054906101000a900473ffffffffffffffffffffffffffffffffffffffff1660048054600560009054906101000a900460ff16600560029054906101000a900460ff16600560019054906101000a900460ff166007600560039054906101000a900460ff1689805461096990613fcb565b80601f016020809104026020016040519081016040528092919081815260200182805461099590613fcb565b80156109e25780601f106109b7576101008083540402835291602001916109e2565b820191906000526020600020905b8154815290600101906020018083116109c557829003601f168201915b505050505099508880546109f590613fcb565b80601f0160208091040260200160405190810160405280929190818152602001828054610a2190613fcb565b8015610a6e5780601f10610a4357610100808354040283529160200191610a6e565b820191906000526020600020905b815481529060010190602001808311610a5157829003601f168201915b505050505098508460ff16945081805480602002602001604051908101604052809291908181526020016000905b82821015610b4457838290600052602060002001805480602002602001604051908101604052809291908181526020018280548015610b3057602002820191906000526020600020905b8160009054906101000a900473ffffffffffffffffffffffffffffffffffffffff1673ffffffffffffffffffffffffffffffffffffffff1681526020019060010190808311610ae6575b505050505081526020019060010190610a9c565b5050505091509a509a509a509a509a509a509a509a509a509a509a50909192939495969798999a565b600481565b60006002811115610b8657610b856137b4565b5b600560039054906101000a900460ff166002811115610ba857610ba76137b4565b5b14610be8576040517f08c379a0000000000000000000000000000000000000000000000000000000008152600401610bdf90613f10565b60405180910390fd5b600560029054906101000a900460ff16610c37576040517f08c379a0000000000000000000000000000000000000000000000000000000008152600401610c2e90613f7c565b60405180910390fd5b6004543414610c7b576040517f08c379a0000000000000000000000000000000000000000000000000000000008152600401610c72906141f9565b60405180910390fd5b600060029054906101000a900473ffffffffffffffffffffffffffffffffffffffff1673ffffffffffffffffffffffffffffffffffffffff163373ffffffffffffffffffffffffffffffffffffffff161415610d0c576040517f08c379a0000000000000000000000000000000000000000000000000000000008152600401610d0390614265565b60405180910390fd5b6000600660003373ffffffffffffffffffffffffffffffffffffffff1673ffffffffffffffffffffffffffffffffffffffff1681526020019081526020016000206001018054610d5b90613fcb565b905014610d9d576040517f08c379a0000000000000000000000000000000000000000000000000000000008152600401610d94906142d1565b60405180910390fd5b6000602060ff161415610de5576040517f08c379a0000000000000000000000000000000000000000000000000000000008152600401610ddc9061433d565b60405180910390fd5b600082511415610e2a576040517f08c379a0000000000000000000000000000000000000000000000000000000008152600401610e21906143a9565b60405180910390fd5b600081511415610e6f576040517f08c379a0000000000000000000000000000000000000000000000000000000008152600401610e6690614415565b60405180910390fd5b603c81511115610eb4576040517f08c379a0000000000000000000000000000000000000000000000000000000008152600401610eab90614481565b60405180910390fd5b60006007805490501415610f02576060600781908060018154018082558091505060019003906000526020600020016000909190919091509080519060200190610eff929190613281565b50505b6007600081548110610f1757610f166144a1565b5b90600052602060002001339080600181540180825580915050600190039060005260206000200160009091909190916101000a81548173ffffffffffffffffffffffffffffffffffffffff021916908373ffffffffffffffffffffffffffffffffffffffff16021790555082600660003373ffffffffffffffffffffffffffffffffffffffff1673ffffffffffffffffffffffffffffffffffffffff16815260200190815260200160002060000181905550600660003373ffffffffffffffffffffffffffffffffffffffff1673ffffffffffffffffffffffffffffffffffffffff168152602001908152602001600020600201829080600181540180825580915050600190039060005260206000200160009091909190915090805190602001906110449291906131fb565b5080600660003373ffffffffffffffffffffffffffffffffffffffff1673ffffffffffffffffffffffffffffffffffffffff168152602001908152602001600020600101908051906020019061109b9291906131fb565b50505050565b600280546110ae90613fcb565b80601f01602080910402602001604051908101604052809291908181526020018280546110da90613fcb565b80156111275780601f106110fc57610100808354040283529160200191611127565b820191906000526020600020905b81548152906001019060200180831161110a57829003601f168201915b505050505081565b83600060026101000a81548173ffffffffffffffffffffffffffffffffffffffff021916908373ffffffffffffffffffffffffffffffffffffffff16021790555082600290805190602001906111869291906131fb565b50816003908051906020019061119d9291906131fb565b50806004819055506001600560026101000a81548160ff0219169083151502179055506000600560036101000a81548160ff021916908360028111156111e6576111e56137b4565b5b021790555050505050565b600060029054906101000a900473ffffffffffffffffffffffffffffffffffffffff1673ffffffffffffffffffffffffffffffffffffffff163373ffffffffffffffffffffffffffffffffffffffff1614611281576040517f08c379a00000000000000000000000000000000000000000000000000000000081526004016112789061451c565b60405180910390fd5b60006002811115611295576112946137b4565b5b600560039054906101000a900460ff1660028111156112b7576112b66137b4565b5b146112f7576040517f08c379a00000000000000000000000000000000000000000000000000000000081526004016112ee90613f10565b60405180910390fd5b6000600560026101000a81548160ff021916908315150217905550565b600660205280600052604060002060009150905080600001549080600101805461133d90613fcb565b80601f016020809104026020016040519081016040528092919081815260200182805461136990613fcb565b80156113b65780601f1061138b576101008083540402835291602001916113b6565b820191906000526020600020905b81548152906001019060200180831161139957829003601f168201915b5050505050908060040160009054906101000a900460ff16905083565b600060029054906101000a900473ffffffffffffffffffffffffffffffffffffffff1673ffffffffffffffffffffffffffffffffffffffff163373ffffffffffffffffffffffffffffffffffffffff1614611463576040517f08c379a000000000000000000000000000000000000000000000000000000000815260040161145a9061451c565b60405180910390fd5b600280811115611476576114756137b4565b5b600560039054906101000a900460ff166002811115611498576114976137b4565b5b14156114d9576040517f08c379a00000000000000000000000000000000000000000000000000000000081526004016114d090614588565b60405180910390fd5b6002600560036101000a81548160ff021916908360028111156114ff576114fe6137b4565b5b0217905550565b600560029054906101000a900460ff1681565b6000600281111561152d5761152c6137b4565b5b600560039054906101000a900460ff16600281111561154f5761154e6137b4565b5b1461158f576040517f08c379a000000000000000000000000000000000000000000000000000000000815260040161158690613f10565b60405180910390fd5b600560019054906101000a900460ff166115de576040517f08c379a00000000000000000000000000000000000000000000000000000000081526004016115d5906145f4565b60405180910390fd5b600060029054906101000a900473ffffffffffffffffffffffffffffffffffffffff1673ffffffffffffffffffffffffffffffffffffffff163373ffffffffffffffffffffffffffffffffffffffff16141561166f576040517f08c379a000000000000000000000000000000000000000000000000000000000815260040161166690614265565b60405180910390fd5b8073ffffffffffffffffffffffffffffffffffffffff163373ffffffffffffffffffffffffffffffffffffffff1614156116de576040517f08c379a00000000000000000000000000000000000000000000000000000000081526004016116d590614660565b60405180910390fd5b6000600660008373ffffffffffffffffffffffffffffffffffffffff1673ffffffffffffffffffffffffffffffffffffffff168152602001908152602001600020600101805461172d90613fcb565b90501415611770576040517f08c379a000000000000000000000000000000000000000000000000000000000815260040161176790614049565b60405180910390fd5b600560009054906101000a900460ff1660ff16600660008373ffffffffffffffffffffffffffffffffffffffff1673ffffffffffffffffffffffffffffffffffffffff16815260200190815260200160002060040160009054906101000a900460ff1660ff1614611816576040517f08c379a000000000000000000000000000000000000000000000000000000000815260040161180d906140b5565b60405180910390fd5b6001600560009054906101000a900460ff1661183291906146af565b60ff16600660008373ffffffffffffffffffffffffffffffffffffffff1673ffffffffffffffffffffffffffffffffffffffff16815260200190815260200160002060030180549050146118eb57600660008273ffffffffffffffffffffffffffffffffffffffff1673ffffffffffffffffffffffffffffffffffffffff168152602001908152602001600020600301600090806001815401808255809150506001900390600052602060002001600090919091909150555b6001600660008373ffffffffffffffffffffffffffffffffffffffff1673ffffffffffffffffffffffffffffffffffffffff168152602001908152602001600020600301600560009054906101000a900460ff1660ff1681548110611953576119526144a1565b5b90600052602060002001600082825461196c91906146e6565b9250508190555050565b6003805461198390613fcb565b80601f01602080910402602001604051908101604052809291908181526020018280546119af90613fcb565b80156119fc5780601f106119d1576101008083540402835291602001916119fc565b820191906000526020600020905b8154815290600101906020018083116119df57829003601f168201915b505050505081565b60078281548110611a1457600080fd5b906000526020600020018181548110611a2c57600080fd5b906000526020600020016000915091509054906101000a900473ffffffffffffffffffffffffffffffffffffffff1681565b600560009054906101000a900460ff1681565b600060029054906101000a900473ffffffffffffffffffffffffffffffffffffffff1681565b600060029054906101000a900473ffffffffffffffffffffffffffffffffffffffff1673ffffffffffffffffffffffffffffffffffffffff163373ffffffffffffffffffffffffffffffffffffffff1614611b27576040517f08c379a0000000000000000000000000000000000000000000000000000000008152600401611b1e9061451c565b60405180910390fd5b60006002811115611b3b57611b3a6137b4565b5b600560039054906101000a900460ff166002811115611b5d57611b5c6137b4565b5b14611b9d576040517f08c379a0000000000000000000000000000000000000000000000000000000008152600401611b9490613f10565b60405180910390fd5b6001600560026101000a81548160ff021916908315150217905550565b600560019054906101000a900460ff1681565b600060029054906101000a900473ffffffffffffffffffffffffffffffffffffffff1673ffffffffffffffffffffffffffffffffffffffff163373ffffffffffffffffffffffffffffffffffffffff1614611c5d576040517f08c379a0000000000000000000000000000000000000000000000000000000008152600401611c549061451c565b60405180910390fd5b60006002811115611c7157611c706137b4565b5b600560039054906101000a900460ff166002811115611c9357611c926137b4565b5b14611cd3576040517f08c379a0000000000000000000000000000000000000000000000000000000008152600401611cca90613f10565b60405180910390fd5b600560029054906101000a900460ff1615611d23576040517f08c379a0000000000000000000000000000000000000000000000000000000008152600401611d1a90614788565b60405180910390fd5b60006007600081548110611d3a57611d396144a1565b5b906000526020600020018054905011611d88576040517f08c379a0000000000000000000000000000000000000000000000000000000008152600401611d7f906147f4565b60405180910390fd5b60016007600081548110611d9f57611d9e6144a1565b5b90600052602060002001805490501115611dd3576001600560016101000a81548160ff021916908315150217905550611ddc565b611ddb612c9a565b5b565b600060029054906101000a900473ffffffffffffffffffffffffffffffffffffffff1673ffffffffffffffffffffffffffffffffffffffff163373ffffffffffffffffffffffffffffffffffffffff1614611e6e576040517f08c379a0000000000000000000000000000000000000000000000000000000008152600401611e659061451c565b60405180910390fd5b60006002811115611e8257611e816137b4565b5b600560039054906101000a900460ff166002811115611ea457611ea36137b4565b5b14611ee4576040517f08c379a0000000000000000000000000000000000000000000000000000000008152600401611edb90613f10565b60405180910390fd5b6001600560036101000a81548160ff02191690836002811115611f0a57611f096137b4565b5b0217905550565b600280811115611f2457611f236137b4565b5b600560039054906101000a900460ff166002811115611f4657611f456137b4565b5b14611f86576040517f08c379a0000000000000000000000000000000000000000000000000000000008152600401611f7d90614860565b60405180910390fd5b600160009054906101000a900473ffffffffffffffffffffffffffffffffffffffff1673ffffffffffffffffffffffffffffffffffffffff163373ffffffffffffffffffffffffffffffffffffffff1614612016576040517f08c379a000000000000000000000000000000000000000000000000000000000815260040161200d906148cc565b60405180910390fd5b600160009054906101000a900473ffffffffffffffffffffffffffffffffffffffff1673ffffffffffffffffffffffffffffffffffffffff166108fc479081150290604051600060405180830381858888f1935050505015801561207e573d6000803e3d6000fd5b50565b61208961330b565b6000806000600660008673ffffffffffffffffffffffffffffffffffffffff1673ffffffffffffffffffffffffffffffffffffffff168152602001908152602001600020600060029054906101000a900473ffffffffffffffffffffffffffffffffffffffff16600560009054906101000a900460ff1660001515600560019054906101000a900460ff1615151480612156575060006002811115612131576121306137b4565b5b600560039054906101000a900460ff166002811115612153576121526137b4565b5b14155b836040518060a00160405290816000820154815260200160018201805461217c90613fcb565b80601f01602080910402602001604051908101604052809291908181526020018280546121a890613fcb565b80156121f55780601f106121ca576101008083540402835291602001916121f5565b820191906000526020600020905b8154815290600101906020018083116121d857829003601f168201915b5050505050815260200160028201805480602002602001604051908101604052809291908181526020016000905b828210156122cf57838290600052602060002001805461224290613fcb565b80601f016020809104026020016040519081016040528092919081815260200182805461226e90613fcb565b80156122bb5780601f10612290576101008083540402835291602001916122bb565b820191906000526020600020905b81548152906001019060200180831161229e57829003601f168201915b505050505081526020019060010190612223565b5050505081526020016003820180548060200260200160405190810160405280929190818152602001828054801561232657602002820191906000526020600020905b815481526020019060010190808311612312575b505050505081526020016004820160009054906101000a900460ff1660ff1660ff1681525050935093509350935093509193509193565b600060029054906101000a900473ffffffffffffffffffffffffffffffffffffffff1673ffffffffffffffffffffffffffffffffffffffff163373ffffffffffffffffffffffffffffffffffffffff16146123ed576040517f08c379a00000000000000000000000000000000000000000000000000000000081526004016123e49061451c565b60405180910390fd5b60006002811115612401576124006137b4565b5b600560039054906101000a900460ff166002811115612423576124226137b4565b5b14612463576040517f08c379a000000000000000000000000000000000000000000000000000000000815260040161245a90613f10565b60405180910390fd5b600560019054906101000a900460ff166124b2576040517f08c379a00000000000000000000000000000000000000000000000000000000081526004016124a9906145f4565b60405180910390fd5b600560029054906101000a900460ff1615612502576040517f08c379a00000000000000000000000000000000000000000000000000000000081526004016124f990614788565b60405180910390fd5b6000600560016101000a81548160ff02191690831515021790555060026007600081548110612534576125336144a1565b5b906000526020600020018054905011158061258e575060016007600081548110612561576125606144a1565b5b906000526020600020018054905061257991906148ec565b600560009054906101000a900460ff1660ff16105b15612b3057600080600660006007600560009054906101000a900460ff1660ff16815481106125c0576125bf6144a1565b5b906000526020600020018460ff16815481106125df576125de6144a1565b5b9060005260206000200160009054906101000a900473ffffffffffffffffffffffffffffffffffffffff1673ffffffffffffffffffffffffffffffffffffffff1673ffffffffffffffffffffffffffffffffffffffff168152602001908152602001600020600301600560009054906101000a900460ff1660ff168154811061266b5761266a6144a1565b5b906000526020600020015490506000600190505b6007600560009054906101000a900460ff1660ff16815481106126a5576126a46144a1565b5b90600052602060002001805490508160ff16101561289c5781600660006007600560009054906101000a900460ff1660ff16815481106126e8576126e76144a1565b5b906000526020600020018460ff1681548110612707576127066144a1565b5b9060005260206000200160009054906101000a900473ffffffffffffffffffffffffffffffffffffffff1673ffffffffffffffffffffffffffffffffffffffff1673ffffffffffffffffffffffffffffffffffffffff168152602001908152602001600020600301600560009054906101000a900460ff1660ff1681548110612793576127926144a1565b5b90600052602060002001541161288957600660006007600560009054906101000a900460ff1660ff16815481106127cd576127cc6144a1565b5b906000526020600020018360ff16815481106127ec576127eb6144a1565b5b9060005260206000200160009054906101000a900473ffffffffffffffffffffffffffffffffffffffff1673ffffffffffffffffffffffffffffffffffffffff1673ffffffffffffffffffffffffffffffffffffffff168152602001908152602001600020600301600560009054906101000a900460ff1660ff1681548110612878576128776144a1565b5b906000526020600020015491508092505b808061289490614920565b91505061267f565b5060005b6007600560009054906101000a900460ff1660ff16815481106128c6576128c56144a1565b5b90600052602060002001805490508160ff161015612af0578260ff168160ff1614612add5760076001600560009054906101000a900460ff1661290991906146af565b60ff168154811061291d5761291c6144a1565b5b906000526020600020016007600560009054906101000a900460ff1660ff168154811061294d5761294c6144a1565b5b906000526020600020018260ff168154811061296c5761296b6144a1565b5b9060005260206000200160009054906101000a900473ffffffffffffffffffffffffffffffffffffffff169080600181540180825580915050600190039060005260206000200160009091909190916101000a81548173ffffffffffffffffffffffffffffffffffffffff021916908373ffffffffffffffffffffffffffffffffffffffff1602179055506001600560009054906101000a900460ff16612a1391906146af565b600660006007600560009054906101000a900460ff1660ff1681548110612a3d57612a3c6144a1565b5b906000526020600020018460ff1681548110612a5c57612a5b6144a1565b5b9060005260206000200160009054906101000a900473ffffffffffffffffffffffffffffffffffffffff1673ffffffffffffffffffffffffffffffffffffffff1673ffffffffffffffffffffffffffffffffffffffff16815260200190815260200160002060040160006101000a81548160ff021916908360ff1602179055505b8080612ae890614920565b9150506128a0565b506005600081819054906101000a900460ff1680929190612b1090614920565b91906101000a81548160ff021916908360ff160217905550505050612b39565b612b38612c9a565b5b565b60045481565b600160009054906101000a900473ffffffffffffffffffffffffffffffffffffffff1681565b600060029054906101000a900473ffffffffffffffffffffffffffffffffffffffff1673ffffffffffffffffffffffffffffffffffffffff163373ffffffffffffffffffffffffffffffffffffffff1614612bf7576040517f08c379a0000000000000000000000000000000000000000000000000000000008152600401612bee9061451c565b60405180910390fd5b60016002811115612c0b57612c0a6137b4565b5b600560039054906101000a900460ff166002811115612c2d57612c2c6137b4565b5b14612c6d576040517f08c379a0000000000000000000000000000000000000000000000000000000008152600401612c6490614996565b60405180910390fd5b6000600560036101000a81548160ff02191690836002811115612c9357612c926137b4565b5b0217905550565b60006002811115612cae57612cad6137b4565b5b600560039054906101000a900460ff166002811115612cd057612ccf6137b4565b5b14612d10576040517f08c379a0000000000000000000000000000000000000000000000000000000008152600401612d0790613f10565b60405180910390fd5b60006007600081548110612d2757612d266144a1565b5b906000526020600020018054905011612d75576040517f08c379a0000000000000000000000000000000000000000000000000000000008152600401612d6c906147f4565b60405180910390fd5b6000600560009054906101000a900460ff1660ff16148015612db9575060016007600081548110612da957612da86144a1565b5b9060005260206000200180549050145b15612e60576007600081548110612dd357612dd26144a1565b5b90600052602060002001600081548110612df057612def6144a1565b5b9060005260206000200160009054906101000a900473ffffffffffffffffffffffffffffffffffffffff16600160006101000a81548173ffffffffffffffffffffffffffffffffffffffff021916908373ffffffffffffffffffffffffffffffffffffffff1602179055506131ce565b60008060005b600560009054906101000a900460ff1660ff168160ff16101561308257600660006007600560009054906101000a900460ff1660ff1681548110612ead57612eac6144a1565b5b90600052602060002001600081548110612eca57612ec96144a1565b5b9060005260206000200160009054906101000a900473ffffffffffffffffffffffffffffffffffffffff1673ffffffffffffffffffffffffffffffffffffffff1673ffffffffffffffffffffffffffffffffffffffff1681526020019081526020016000206003018160ff1681548110612f4757612f466144a1565b5b9060005260206000200154816002612f5f91906149b6565b60ff16612f6c91906149f1565b83612f7791906146e6565b9250600660006007600560009054906101000a900460ff1660ff1681548110612fa357612fa26144a1565b5b90600052602060002001600181548110612fc057612fbf6144a1565b5b9060005260206000200160009054906101000a900473ffffffffffffffffffffffffffffffffffffffff1673ffffffffffffffffffffffffffffffffffffffff1673ffffffffffffffffffffffffffffffffffffffff1681526020019081526020016000206003018160ff168154811061303d5761303c6144a1565b5b906000526020600020015481600261305591906149b6565b60ff1661306291906149f1565b8261306d91906146e6565b9150808061307a90614920565b915050612e66565b508181111561312d5760076002815481106130a05761309f6144a1565b5b906000526020600020016001815481106130bd576130bc6144a1565b5b9060005260206000200160009054906101000a900473ffffffffffffffffffffffffffffffffffffffff16600160006101000a81548173ffffffffffffffffffffffffffffffffffffffff021916908373ffffffffffffffffffffffffffffffffffffffff1602179055506131cb565b6007600281548110613142576131416144a1565b5b9060005260206000200160008154811061315f5761315e6144a1565b5b9060005260206000200160009054906101000a900473ffffffffffffffffffffffffffffffffffffffff16600160006101000a81548173ffffffffffffffffffffffffffffffffffffffff021916908373ffffffffffffffffffffffffffffffffffffffff1602179055505b50505b6002600560036101000a81548160ff021916908360028111156131f4576131f36137b4565b5b0217905550565b82805461320790613fcb565b90600052602060002090601f0160209004810192826132295760008555613270565b82601f1061324257805160ff1916838001178555613270565b82800160010185558215613270579182015b8281111561326f578251825591602001919060010190613254565b5b50905061327d9190613340565b5090565b8280548282559060005260206000209081019282156132fa579160200282015b828111156132f95782518260006101000a81548173ffffffffffffffffffffffffffffffffffffffff021916908373ffffffffffffffffffffffffffffffffffffffff160217905550916020019190600101906132a1565b5b5090506133079190613340565b5090565b6040518060a0016040528060008019168152602001606081526020016060815260200160608152602001600060ff1681525090565b5b80821115613359576000816000905550600101613341565b5090565b6000604051905090565b600080fd5b600080fd5b600080fd5b600080fd5b6000601f19601f8301169050919050565b7f4e487b7100000000000000000000000000000000000000000000000000000000600052604160045260246000fd5b6133c48261337b565b810181811067ffffffffffffffff821117156133e3576133e261338c565b5b80604052505050565b60006133f661335d565b905061340282826133bb565b919050565b600067ffffffffffffffff8211156134225761342161338c565b5b61342b8261337b565b9050602081019050919050565b82818337600083830152505050565b600061345a61345584613407565b6133ec565b90508281526020810184848401111561347657613475613376565b5b613481848285613438565b509392505050565b600082601f83011261349e5761349d613371565b5b81356134ae848260208601613447565b91505092915050565b6000602082840312156134cd576134cc613367565b5b600082013567ffffffffffffffff8111156134eb576134ea61336c565b5b6134f784828501613489565b91505092915050565b6000819050919050565b61351381613500565b82525050565b600060208201905061352e600083018461350a565b92915050565b600073ffffffffffffffffffffffffffffffffffffffff82169050919050565b600061355f82613534565b9050919050565b61356f81613554565b82525050565b600081519050919050565b600082825260208201905092915050565b60005b838110156135af578082015181840152602081019050613594565b838111156135be576000848401525b50505050565b60006135cf82613575565b6135d98185613580565b93506135e9818560208601613591565b6135f28161337b565b840191505092915050565b600060ff82169050919050565b613613816135fd565b82525050565b60008115159050919050565b61362e81613619565b82525050565b600081519050919050565b600082825260208201905092915050565b6000819050602082019050919050565b600081519050919050565b600082825260208201905092915050565b6000819050602082019050919050565b61369581613554565b82525050565b60006136a7838361368c565b60208301905092915050565b6000602082019050919050565b60006136cb82613660565b6136d5818561366b565b93506136e08361367c565b8060005b838110156137115781516136f8888261369b565b9750613703836136b3565b9250506001810190506136e4565b5085935050505092915050565b600061372a83836136c0565b905092915050565b6000602082019050919050565b600061374a82613634565b613754818561363f565b93508360208202850161376685613650565b8060005b858110156137a25784840389528151613783858261371e565b945061378e83613732565b925060208a0199505060018101905061376a565b50829750879550505050505092915050565b7f4e487b7100000000000000000000000000000000000000000000000000000000600052602160045260246000fd5b600381106137f4576137f36137b4565b5b50565b6000819050613805826137e3565b919050565b6000613815826137f7565b9050919050565b6138258161380a565b82525050565b600061016082019050613841600083018e613566565b8181036020830152613853818d6135c4565b90508181036040830152613867818c6135c4565b9050613876606083018b613566565b613883608083018a61360a565b61389060a083018961350a565b61389d60c083018861350a565b6138aa60e0830187613625565b6138b8610100830186613625565b8181036101208301526138cb818561373f565b90506138db61014083018461381c565b9c9b505050505050505050505050565b6000602082019050613900600083018461360a565b92915050565b6000819050919050565b61391981613906565b811461392457600080fd5b50565b60008135905061393681613910565b92915050565b60008060006060848603121561395557613954613367565b5b600061396386828701613927565b935050602084013567ffffffffffffffff8111156139845761398361336c565b5b61399086828701613489565b925050604084013567ffffffffffffffff8111156139b1576139b061336c565b5b6139bd86828701613489565b9150509250925092565b600060208201905081810360008301526139e181846135c4565b905092915050565b6139f281613554565b81146139fd57600080fd5b50565b600081359050613a0f816139e9565b92915050565b613a1e81613500565b8114613a2957600080fd5b50565b600081359050613a3b81613a15565b92915050565b60008060008060808587031215613a5b57613a5a613367565b5b6000613a6987828801613a00565b945050602085013567ffffffffffffffff811115613a8a57613a8961336c565b5b613a9687828801613489565b935050604085013567ffffffffffffffff811115613ab757613ab661336c565b5b613ac387828801613489565b9250506060613ad487828801613a2c565b91505092959194509250565b600060208284031215613af657613af5613367565b5b6000613b0484828501613a00565b91505092915050565b613b1681613906565b82525050565b6000606082019050613b316000830186613b0d565b8181036020830152613b4381856135c4565b9050613b52604083018461360a565b949350505050565b6000602082019050613b6f6000830184613625565b92915050565b60008060408385031215613b8c57613b8b613367565b5b6000613b9a85828601613a2c565b9250506020613bab85828601613a2c565b9150509250929050565b6000602082019050613bca6000830184613566565b92915050565b613bd981613906565b82525050565b600082825260208201905092915050565b6000613bfb82613575565b613c058185613bdf565b9350613c15818560208601613591565b613c1e8161337b565b840191505092915050565b600081519050919050565b600082825260208201905092915050565b6000819050602082019050919050565b6000613c618383613bf0565b905092915050565b6000602082019050919050565b6000613c8182613c29565b613c8b8185613c34565b935083602082028501613c9d85613c45565b8060005b85811015613cd95784840389528151613cba8582613c55565b9450613cc583613c69565b925060208a01995050600181019050613ca1565b50829750879550505050505092915050565b600081519050919050565b600082825260208201905092915050565b6000819050602082019050919050565b613d2081613500565b82525050565b6000613d328383613d17565b60208301905092915050565b6000602082019050919050565b6000613d5682613ceb565b613d608185613cf6565b9350613d6b83613d07565b8060005b83811015613d9c578151613d838882613d26565b9750613d8e83613d3e565b925050600181019050613d6f565b5085935050505092915050565b613db2816135fd565b82525050565b600060a083016000830151613dd06000860182613bd0565b5060208301518482036020860152613de88282613bf0565b91505060408301518482036040860152613e028282613c76565b91505060608301518482036060860152613e1c8282613d4b565b9150506080830151613e316080860182613da9565b508091505092915050565b60006080820190508181036000830152613e568187613db8565b9050613e656020830186613566565b613e72604083018561360a565b613e7f6060830184613625565b95945050505050565b6000613e9382613534565b9050919050565b613ea381613e88565b82525050565b6000602082019050613ebe6000830184613e9a565b92915050565b7f5f5f5f4e4f545f52554e4e494e475f5f5f000000000000000000000000000000600082015250565b6000613efa601183613580565b9150613f0582613ec4565b602082019050919050565b60006020820190508181036000830152613f2981613eed565b9050919050565b7f5f5f5f50415254494349504154494f4e5f434c4f5345445f5f5f000000000000600082015250565b6000613f66601a83613580565b9150613f7182613f30565b602082019050919050565b60006020820190508181036000830152613f9581613f59565b9050919050565b7f4e487b7100000000000000000000000000000000000000000000000000000000600052602260045260246000fd5b60006002820490506001821680613fe357607f821691505b60208210811415613ff757613ff6613f9c565b5b50919050565b7f5f5f5f494e56414c49445f434f4e54455354414e545f5f5f0000000000000000600082015250565b6000614033601883613580565b915061403e82613ffd565b602082019050919050565b6000602082019050818103600083015261406281614026565b9050919050565b7f5f5f5f454c494d494e415445445f5f5f00000000000000000000000000000000600082015250565b600061409f601083613580565b91506140aa82614069565b602082019050919050565b600060208201905081810360008301526140ce81614092565b9050919050565b7f5f5f5f454d5054595f4c494e4b5f5f5f00000000000000000000000000000000600082015250565b600061410b601083613580565b9150614116826140d5565b602082019050919050565b6000602082019050818103600083015261413a816140fe565b9050919050565b7f5f5f5f5355424d49545445445f5f5f0000000000000000000000000000000000600082015250565b6000614177600f83613580565b915061418282614141565b602082019050919050565b600060208201905081810360008301526141a68161416a565b9050919050565b7f5f5f5f4645455f5f5f0000000000000000000000000000000000000000000000600082015250565b60006141e3600983613580565b91506141ee826141ad565b602082019050919050565b60006020820190508181036000830152614212816141d6565b9050919050565b7f5f5f5f4e4f5f41444d494e5f5f5f000000000000000000000000000000000000600082015250565b600061424f600e83613580565b915061425a82614219565b602082019050919050565b6000602082019050818103600083015261427e81614242565b9050919050565b7f5f5f5f4558495354494e475f5f5f000000000000000000000000000000000000600082015250565b60006142bb600e83613580565b91506142c682614285565b602082019050919050565b600060208201905081810360008301526142ea816142ae565b9050919050565b7f5f5f5f454d5054595f4e414d455f5f5f00000000000000000000000000000000600082015250565b6000614327601083613580565b9150614332826142f1565b602082019050919050565b600060208201905081810360008301526143568161431a565b9050919050565b7f5f5f5f454d4f54595f4c494e4b5f5f5f00000000000000000000000000000000600082015250565b6000614393601083613580565b915061439e8261435d565b602082019050919050565b600060208201905081810360008301526143c281614386565b9050919050565b7f5f5f5f454d5054595f42494f5f5f5f0000000000000000000000000000000000600082015250565b60006143ff600f83613580565b915061440a826143c9565b602082019050919050565b6000602082019050818103600083015261442e816143f2565b9050919050565b7f5f5f5f4c4f4e475f42494f5f5f5f000000000000000000000000000000000000600082015250565b600061446b600e83613580565b915061447682614435565b602082019050919050565b6000602082019050818103600083015261449a8161445e565b9050919050565b7f4e487b7100000000000000000000000000000000000000000000000000000000600052603260045260246000fd5b7f5f5f5f4f4e4c595f4f574e45525f5f5f00000000000000000000000000000000600082015250565b6000614506601083613580565b9150614511826144d0565b602082019050919050565b60006020820190508181036000830152614535816144f9565b9050919050565b7f5f5f5f46494e49534845445f5f5f000000000000000000000000000000000000600082015250565b6000614572600e83613580565b915061457d8261453c565b602082019050919050565b600060208201905081810360008301526145a181614565565b9050919050565b7f5f5f5f564f54494e475f434c4f5345445f5f5f00000000000000000000000000600082015250565b60006145de601383613580565b91506145e9826145a8565b602082019050919050565b6000602082019050818103600083015261460d816145d1565b9050919050565b7f5f5f5f4e4f5f53454c465f5f5f00000000000000000000000000000000000000600082015250565b600061464a600d83613580565b915061465582614614565b602082019050919050565b600060208201905081810360008301526146798161463d565b9050919050565b7f4e487b7100000000000000000000000000000000000000000000000000000000600052601160045260246000fd5b60006146ba826135fd565b91506146c5836135fd565b92508260ff038211156146db576146da614680565b5b828201905092915050565b60006146f182613500565b91506146fc83613500565b9250827fffffffffffffffffffffffffffffffffffffffffffffffffffffffffffffffff0382111561473157614730614680565b5b828201905092915050565b7f5f5f5f50415254494349504154494f4e5f4f50454e5f5f5f0000000000000000600082015250565b6000614772601883613580565b915061477d8261473c565b602082019050919050565b600060208201905081810360008301526147a181614765565b9050919050565b7f5f5f5f4e4f5f434f4e54455354414e54535f5f5f000000000000000000000000600082015250565b60006147de601483613580565b91506147e9826147a8565b602082019050919050565b6000602082019050818103600083015261480d816147d1565b9050919050565b7f5f5f5f4e4f545f46494e49534845445f5f5f0000000000000000000000000000600082015250565b600061484a601283613580565b915061485582614814565b602082019050919050565b600060208201905081810360008301526148798161483d565b9050919050565b7f5f5f5f4e4f545f57494e4e45525f5f5f00000000000000000000000000000000600082015250565b60006148b6601083613580565b91506148c182614880565b602082019050919050565b600060208201905081810360008301526148e5816148a9565b9050919050565b60006148f782613500565b915061490283613500565b92508282101561491557614914614680565b5b828203905092915050565b600061492b826135fd565b915060ff82141561493f5761493e614680565b5b600182019050919050565b7f5f5f5f4e4f545f5041555345445f5f5f00000000000000000000000000000000600082015250565b6000614980601083613580565b915061498b8261494a565b602082019050919050565b600060208201905081810360008301526149af81614973565b9050919050565b60006149c1826135fd565b91506149cc836135fd565b92508160ff04831182151516156149e6576149e5614680565b5b828202905092915050565b60006149fc82613500565b9150614a0783613500565b9250817fffffffffffffffffffffffffffffffffffffffffffffffffffffffffffffffff0483118215151615614a4057614a3f614680565b5b82820290509291505056fea26469706673582212200ba4075451af54fe103b9a2a56ed448a387c7c1cfa4329dd6c63ee160c6986ee64736f6c634300080a0033",
  "immutableReferences": {},
  "source": "//SPDX-License-Identifier: MIT\npragma solidity 0.8.10;\nimport \"@openzeppelin/contracts/proxy/utils/Initializable.sol\";\n\ncontract Contest is Initializable {\n    address public owner;\n    address payable public winner;\n    string public title;\n    string public description;\n\n    uint8 public constant NUM_ALLOWED_PARTICIPANTS = 4;\n    uint256 public fee;\n    uint8 public currentRound;\n\n    bool public votingOpen;\n    bool public participationOpen;\n\n    enum ContestState { RUNNING, PAUSED, FINISHED}\n    ContestState state;\n\n    struct Contestant {\n        bytes32 name;\n        string bio;\n        string[] performanceLinks;\n        uint256[] votesReceived;\n        uint8 progressedToRound;\n    }\n    mapping(address => Contestant) public contestants;\n    //address[][NUM_ALLOWED_PARTICIPANTS] public qualifiers;\n    address[][] public qualifiers;\n\n    // Fired to signal that the contest is open for participation\n    event ContestOpenedForParticipation();\n\n    /*\n     * Fired once the number of participants = 4.\n     * Signals that the contest is closed for participation\n     */\n    event ContestClosedForParticipation(address indexed _addr);\n\n    // Voting opened for a round\n    event VotingOpened(uint8 round);\n\n    // Voting closed for a round\n    event VotingClosed(uint8 round);\n\n    function initialize(\n        address _owner,\n        string memory _title,\n        string memory _description,\n        uint256 _fee\n    ) external {\n        //__ERC721_init(_name, _symbol);\n        owner = _owner;\n        title = _title;\n        description = _description;\n        fee = _fee;\n        participationOpen = true;\n        state = ContestState.RUNNING;\n    }\n\n    modifier isOwner() {\n        require(msg.sender == owner, \"___ONLY_OWNER___\");\n        _;\n    }\n\n    modifier isRunning() {\n        require(state == ContestState.RUNNING, \"___NOT_RUNNING___\");\n        _;\n    }\n\n    modifier isPaused() {\n        require(state == ContestState.PAUSED, \"___NOT_PAUSED___\");\n        _;\n    }\n\n    function stopContest() public isOwner{\n        require(state != ContestState.FINISHED, \"___FINISHED___\");\n        state = ContestState.FINISHED;\n    }\n\n    function pauseContest() public isOwner isRunning{\n        state = ContestState.PAUSED;\n    }\n\n    function resumeContest() public isOwner isPaused{\n        state = ContestState.RUNNING;\n    }\n\n    function enableParticipation() public isOwner isRunning {\n        participationOpen = true;\n    }\n\n    function disableParticipation() public isOwner isRunning{\n        participationOpen = false;\n    }\n\n    function openVoting() public isOwner isRunning{\n        require(!participationOpen, \"___PARTICIPATION_OPEN___\");\n        //require( qualifiers[0].length == NUM_ALLOWED_PARTICIPANTS, \"Not enough participants\" );\n        require( qualifiers[0].length > 0, \"___NO_CONTESTANTS___\" );\n        if( qualifiers[0].length > 1) {\n            votingOpen = true;\n        }\n        else {\n            pickWinner();\n        }\n    }\n\n    function closeVoting() public isOwner isRunning{\n        require(votingOpen, \"___VOTING_CLOSED___\");\n        require(!participationOpen, \"___PARTICIPATION_OPEN___\");\n        votingOpen = false;\n\n        /*\n         * Max. Rounds = NUM_ALLOWED_PARTICIPANTS - 1\n         * So, for 4 participants, max rounds = 3 => R0, R1, R2\n         * So, we count votes of the current round and eliminate\n         * the person with the lowest votes.\n         * Except for the Final Round.\n         * For final round, we have an algorthm that takes into\n         * consideration weighted votes from all the rounds.\n         */\n        //uint8 total_rounds = NUM_ALLOWED_PARTICIPANTS - 1;\n\n        //if (currentRound < total_rounds - 1) {\n        if ( (qualifiers[0].length <= 2) || (currentRound < qualifiers[0].length - 1) ) {\n            uint8 tmpCId = 0;\n            uint256 tmpLowestVotes = contestants[\n                qualifiers[currentRound][tmpCId]\n            ].votesReceived[currentRound];\n\n            for (uint8 i = 1; i < qualifiers[currentRound].length; i++) {\n                //TODO: Right now, I haven't accounted for a scenario when 2 contestants\n                // have equal scores. So, using <= instead of < , for now\n                if (\n                    contestants[qualifiers[currentRound][i]].votesReceived[\n                        currentRound\n                    ] <= tmpLowestVotes\n                ) {\n                    tmpLowestVotes = contestants[qualifiers[currentRound][i]]\n                        .votesReceived[currentRound];\n                    tmpCId = i;\n                }\n            }\n\n            for (uint8 i = 0; i < qualifiers[currentRound].length; i++) {\n                //Skip the one with the lowest votes\n                if (i != tmpCId) {\n                    qualifiers[currentRound + 1].push(\n                        qualifiers[currentRound][i]\n                    );\n                    contestants[qualifiers[currentRound][i]]\n                        .progressedToRound = currentRound + 1;\n                }\n            }\n            currentRound++;\n        } else {\n            pickWinner();\n        }\n    }\n\n    function pickWinner() private isRunning{\n        /*\n         * For final score, we use weighted scores of all the roundsWeighted\n         * final score = 60% x final (3rd) Round + 30% x 2nd round + 10% x 1st round\n         */\n        /*uint256[4] storage finalistOneAllVotes = contestants[qualifiers[2][0]].votesReceived;\n        uint256 finalistOneFinalScore = 60 * finalistOneAllVotes[2] + 30 * finalistOneAllVotes[1] + 10 * finalistOneAllVotes[0];\n\n        uint256[4] storage finalistTwoAllVotes = contestants[qualifiers[2][1]].votesReceived;\n        uint256 finalistTwoFinalScore = 60 * finalistTwoAllVotes[2] + 30 * finalistTwoAllVotes[1] + 10 * finalistTwoAllVotes[0];*/\n\n        require(qualifiers[0].length > 0, \"___NO_CONTESTANTS___\");\n        \n        if( currentRound == 0 && qualifiers[0].length == 1 ) {\n            winner = payable(qualifiers[0][0]);\n        }\n        else {\n            uint256 finalistOneFinalScore = 0;\n            uint256 finalistTwoFinalScore = 0;\n            for(uint8 i = 0; i < currentRound; i++ ) {\n                finalistOneFinalScore += 2 * i * contestants[qualifiers[currentRound][0]].votesReceived[i];\n                finalistTwoFinalScore += 2 * i * contestants[qualifiers[currentRound][1]].votesReceived[i];\n            }\n\n            if (finalistTwoFinalScore > finalistOneFinalScore) {\n                winner = payable(qualifiers[2][1]);\n            } else {\n                winner = payable(qualifiers[2][0]);\n            }\n        }\n        state = ContestState.FINISHED;\n    }\n\n    function uint2str(uint256 _i)\n        internal\n        pure\n        returns (string memory _uintAsString)\n    {\n        if (_i == 0) {\n            return \"0\";\n        }\n        uint256 j = _i;\n        uint256 len;\n        while (j != 0) {\n            len++;\n            j /= 10;\n        }\n        bytes memory bstr = new bytes(len);\n        uint256 k = len;\n        while (_i != 0) {\n            k = k - 1;\n            uint8 temp = (48 + uint8(_i - (_i / 10) * 10));\n            bytes1 b1 = bytes1(temp);\n            bstr[k] = b1;\n            _i /= 10;\n        }\n        return string(bstr);\n    }\n\n    function participate( bytes32 _name, string memory _performanceLink, string memory _bio ) public payable isRunning{\n        require(participationOpen, \"___PARTICIPATION_CLOSED___\");\n        require( msg.value == fee, \"___FEE___\" );\n        require(msg.sender != owner, \"___NO_ADMIN___\");\n        require( bytes(contestants[msg.sender].bio).length == 0, \"___EXISTING___\" );\n        //require( qualifiers[0].length < NUM_ALLOWED_PARTICIPANTS, \"Maximum participants reached\" );\n        require(_name.length != 0, \"___EMPTY_NAME___\");\n        require(bytes(_performanceLink).length != 0, \"___EMOTY_LINK___\");\n        require(bytes(_bio).length != 0, \"___EMPTY_BIO___\");\n        require(bytes(_bio).length <= 60, \"___LONG_BIO___\");\n\n        if(qualifiers.length == 0) {\n            address[] memory a;\n            qualifiers.push(a);\n        }\n        qualifiers[0].push(msg.sender);\n        contestants[msg.sender].name = _name;\n        //contestants[msg.sender].performanceLinks[currentRound] = _performanceLink;\n        contestants[msg.sender].performanceLinks.push(_performanceLink);\n        contestants[msg.sender].bio = _bio;\n\n        /*\n         * If we have reached NUM_ALLOWED_PARTICIPANTS contestants now,\n         * disable further participantion and notify the UI\n         */\n        /*if (qualifiers[0].length == NUM_ALLOWED_PARTICIPANTS) {\n            participationOpen = false;\n            emit ContestClosedForParticipation(msg.sender);\n        }*/\n    }\n\n    function submitPerformamce(string memory _performanceLink) public payable isRunning{\n        require(participationOpen, \"___PARTICIPATION_CLOSED___\");\n        //require( qualifiers[0].length < NUM_ALLOWED_PARTICIPANTS, \"Maximum participants reached\" );\n        require( bytes(contestants[msg.sender].bio).length != 0, \"___INVALID_CONTESTANT___\" );\n        require( contestants[msg.sender].progressedToRound == currentRound, \"___ELIMINATED___\" );\n        require(bytes(_performanceLink).length != 0, \"___EMPTY_LINK___\");\n        require(contestants[msg.sender].performanceLinks.length == currentRound, \"___SUBMITTED___\");\n\n        //contestants[msg.sender].performanceLinks[currentRound] = _performanceLink;\n        contestants[msg.sender].performanceLinks.push(_performanceLink);\n    }\n\n    function vote(address _addr) public payable isRunning{\n        require(votingOpen, \"___VOTING_CLOSED___\");\n        require(msg.sender != owner, \"___NO_ADMIN___\");\n        require(msg.sender != _addr, \"___NO_SELF___\");\n        require( bytes(contestants[_addr].bio).length != 0, \"___INVALID_CONTESTANT___\" );\n        require( contestants[_addr].progressedToRound == currentRound, \"___ELIMINATED___\" );\n        //also check whether the contestant has advanced to this round or not\n        //contestants[_addr].votesReceived[currentRound] += 1;\n        if(contestants[_addr].votesReceived.length != currentRound + 1) {\n            contestants[_addr].votesReceived.push(0);\n        }\n        contestants[_addr].votesReceived[currentRound] += 1;\n    }\n\n    function claimReward() public {\n        require(state == ContestState.FINISHED, \"___NOT_FINISHED___\");\n        require(msg.sender == winner, \"___NOT_WINNER___\");\n        winner.transfer(address(this).balance);\n    }\n\n    function getBalance() public view returns (uint256) {\n        return address(this).balance;\n    }\n\n    function getContestDetails()\n        public\n        view\n        returns (\n            address,\n            string memory,\n            string memory,\n            address,\n            uint8,\n            uint256,\n            uint256,\n            bool,\n            bool,\n            //address[][NUM_ALLOWED_PARTICIPANTS] memory,\n            address[][] memory,\n            ContestState\n        )\n    {\n        return (\n            owner,\n            title,\n            description,\n            winner,\n            NUM_ALLOWED_PARTICIPANTS,\n            fee,\n            currentRound,\n            participationOpen,\n            votingOpen,\n            qualifiers,\n            state\n        );\n    }\n\n    function getContestantDetails(address _addr) public view returns (Contestant memory, address, uint8, bool){\n        return (contestants[_addr], owner, currentRound, (votingOpen == false || state != ContestState.RUNNING) );\n    }\n}\n",
  "sourcePath": "/home/shariqkhanfreelancer/Workspace/BLOCKCHAIN/Solidity/BlockStar/contracts/Contest.sol",
  "compiler": {
    "name": "solc",
    "version": "0.8.10+commit.fc410830.Emscripten.clang"
  },
  "schemaVersion": "3.4.7",
  "updatedAt": "2022-08-06T04:54:22.354Z",
  "devdoc": {
    "kind": "dev",
    "methods": {},
    "version": 1
  },
  "userdoc": {
    "kind": "user",
    "methods": {},
    "version": 1
  }
}