{
  "contractName": "Contest",
  "abi": [
    {
      "anonymous": false,
      "inputs": [
        {
          "indexed": true,
          "internalType": "address",
          "name": "_addr",
          "type": "address"
        }
      ],
      "name": "ContestClosedForParticipation",
      "type": "event"
    },
    {
      "anonymous": false,
      "inputs": [],
      "name": "ContestOpenedForParticipation",
      "type": "event"
    },
    {
      "anonymous": false,
      "inputs": [
        {
          "indexed": false,
          "internalType": "uint8",
          "name": "version",
          "type": "uint8"
        }
      ],
      "name": "Initialized",
      "type": "event"
    },
    {
      "anonymous": false,
      "inputs": [
        {
          "indexed": false,
          "internalType": "uint8",
          "name": "round",
          "type": "uint8"
        }
      ],
      "name": "VotingClosed",
      "type": "event"
    },
    {
      "anonymous": false,
      "inputs": [
        {
          "indexed": false,
          "internalType": "uint8",
          "name": "round",
          "type": "uint8"
        }
      ],
      "name": "VotingOpened",
      "type": "event"
    },
    {
      "inputs": [],
      "name": "NUM_ALLOWED_PARTICIPANTS",
      "outputs": [
        {
          "internalType": "uint8",
          "name": "",
          "type": "uint8"
        }
      ],
      "stateMutability": "view",
      "type": "function"
    },
    {
      "inputs": [
        {
          "internalType": "address",
          "name": "",
          "type": "address"
        }
      ],
      "name": "contestants",
      "outputs": [
        {
          "internalType": "bytes32",
          "name": "name",
          "type": "bytes32"
        },
        {
          "internalType": "string",
          "name": "bio",
          "type": "string"
        },
        {
          "internalType": "uint8",
          "name": "progressedToRound",
          "type": "uint8"
        }
      ],
      "stateMutability": "view",
      "type": "function"
    },
    {
      "inputs": [],
      "name": "currentRound",
      "outputs": [
        {
          "internalType": "uint8",
          "name": "",
          "type": "uint8"
        }
      ],
      "stateMutability": "view",
      "type": "function"
    },
    {
      "inputs": [],
      "name": "fee",
      "outputs": [
        {
          "internalType": "uint256",
          "name": "",
          "type": "uint256"
        }
      ],
      "stateMutability": "view",
      "type": "function"
    },
    {
      "inputs": [],
      "name": "owner",
      "outputs": [
        {
          "internalType": "address",
          "name": "",
          "type": "address"
        }
      ],
      "stateMutability": "view",
      "type": "function"
    },
    {
      "inputs": [],
      "name": "participationOpen",
      "outputs": [
        {
          "internalType": "bool",
          "name": "",
          "type": "bool"
        }
      ],
      "stateMutability": "view",
      "type": "function"
    },
    {
      "inputs": [
        {
          "internalType": "uint256",
          "name": "",
          "type": "uint256"
        },
        {
          "internalType": "uint256",
          "name": "",
          "type": "uint256"
        }
      ],
      "name": "roundWinners",
      "outputs": [
        {
          "internalType": "address",
          "name": "",
          "type": "address"
        }
      ],
      "stateMutability": "view",
      "type": "function"
    },
    {
      "inputs": [],
      "name": "title",
      "outputs": [
        {
          "internalType": "string",
          "name": "",
          "type": "string"
        }
      ],
      "stateMutability": "view",
      "type": "function"
    },
    {
      "inputs": [],
      "name": "votingOpen",
      "outputs": [
        {
          "internalType": "bool",
          "name": "",
          "type": "bool"
        }
      ],
      "stateMutability": "view",
      "type": "function"
    },
    {
      "inputs": [],
      "name": "winner",
      "outputs": [
        {
          "internalType": "address payable",
          "name": "",
          "type": "address"
        }
      ],
      "stateMutability": "view",
      "type": "function"
    },
    {
      "inputs": [
        {
          "internalType": "address",
          "name": "_owner",
          "type": "address"
        },
        {
          "internalType": "string",
          "name": "_title",
          "type": "string"
        },
        {
          "internalType": "uint256",
          "name": "_fee",
          "type": "uint256"
        }
      ],
      "name": "initialize",
      "outputs": [],
      "stateMutability": "nonpayable",
      "type": "function"
    },
    {
      "inputs": [],
      "name": "stopContest",
      "outputs": [],
      "stateMutability": "nonpayable",
      "type": "function"
    },
    {
      "inputs": [],
      "name": "pauseContest",
      "outputs": [],
      "stateMutability": "nonpayable",
      "type": "function"
    },
    {
      "inputs": [],
      "name": "resumeContest",
      "outputs": [],
      "stateMutability": "nonpayable",
      "type": "function"
    },
    {
      "inputs": [],
      "name": "enableParticipation",
      "outputs": [],
      "stateMutability": "nonpayable",
      "type": "function"
    },
    {
      "inputs": [],
      "name": "disableParticipation",
      "outputs": [],
      "stateMutability": "nonpayable",
      "type": "function"
    },
    {
      "inputs": [],
      "name": "openVoting",
      "outputs": [],
      "stateMutability": "nonpayable",
      "type": "function"
    },
    {
      "inputs": [],
      "name": "closeVoting",
      "outputs": [],
      "stateMutability": "nonpayable",
      "type": "function"
    },
    {
      "inputs": [
        {
          "internalType": "bytes32",
          "name": "_name",
          "type": "bytes32"
        },
        {
          "internalType": "string",
          "name": "_performanceLink",
          "type": "string"
        },
        {
          "internalType": "string",
          "name": "_bio",
          "type": "string"
        }
      ],
      "name": "participate",
      "outputs": [],
      "stateMutability": "payable",
      "type": "function"
    },
    {
      "inputs": [
        {
          "internalType": "string",
          "name": "_performanceLink",
          "type": "string"
        }
      ],
      "name": "submitPerformamce",
      "outputs": [],
      "stateMutability": "payable",
      "type": "function"
    },
    {
      "inputs": [
        {
          "internalType": "address",
          "name": "_addr",
          "type": "address"
        }
      ],
      "name": "vote",
      "outputs": [],
      "stateMutability": "payable",
      "type": "function"
    },
    {
      "inputs": [],
      "name": "claimReward",
      "outputs": [],
      "stateMutability": "nonpayable",
      "type": "function"
    },
    {
      "inputs": [],
      "name": "getBalance",
      "outputs": [
        {
          "internalType": "uint256",
          "name": "",
          "type": "uint256"
        }
      ],
      "stateMutability": "view",
      "type": "function"
    },
    {
      "inputs": [],
      "name": "getContestDetails",
      "outputs": [
        {
          "internalType": "address",
          "name": "",
          "type": "address"
        },
        {
          "internalType": "string",
          "name": "",
          "type": "string"
        },
        {
          "internalType": "address",
          "name": "",
          "type": "address"
        },
        {
          "internalType": "uint8",
          "name": "",
          "type": "uint8"
        },
        {
          "internalType": "uint256",
          "name": "",
          "type": "uint256"
        },
        {
          "internalType": "uint256",
          "name": "",
          "type": "uint256"
        },
        {
          "internalType": "bool",
          "name": "",
          "type": "bool"
        },
        {
          "internalType": "bool",
          "name": "",
          "type": "bool"
        },
        {
          "internalType": "address[][4]",
          "name": "",
          "type": "address[][4]"
        },
        {
          "internalType": "enum Contest.ContestState",
          "name": "",
          "type": "uint8"
        }
      ],
      "stateMutability": "view",
      "type": "function"
    }
  ],
  "bytecode": "0x608060405234801561001057600080fd5b50613d59806100206000396000f3fe60806040526004361061014b5760003560e01c80638a19c8bc116100b6578063b5d4b2ab1161006f578063b5d4b2ab14610406578063b88a802f1461041d578063c631b29214610434578063ddca3f431461044b578063dfbf53ae14610476578063e84affa2146104a15761014b565b80638a19c8bc1461032e5780638da5cb5b146103595780638dac9bbc14610384578063996ab783146103ad578063a95824b4146103c4578063affc0670146103ef5761014b565b80634a79d50c116101085780634a79d50c1461024f578063563df4b31461027a5780636470a639146102915780636513c321146102d057806367892ac3146102e75780636dd7d8ea146103125761014b565b806303e3cd6a146101505780630cdf85bc1461018d57806312065fe0146101a95780631d19a7cb146101d45780632ac59b351461020857806347dae76514610233575b600080fd5b34801561015c57600080fd5b5061017760048036038101906101729190612ae2565b6104b8565b6040516101849190612b63565b60405180910390f35b6101a760048036038101906101a29190612cc4565b610509565b005b3480156101b557600080fd5b506101be610829565b6040516101cb9190612d1c565b60405180910390f35b3480156101e057600080fd5b506101e9610831565b6040516101ff9a99989796959493929190612fe1565b60405180910390f35b34801561021457600080fd5b5061021d610a45565b60405161022a919061308b565b60405180910390f35b61024d600480360381019061024891906130dc565b610a4a565b005b34801561025b57600080fd5b50610264611005565b6040516102719190613167565b60405180910390f35b34801561028657600080fd5b5061028f611093565b005b34801561029d57600080fd5b506102b860048036038101906102b391906131b5565b6111b6565b6040516102c7939291906131f1565b60405180910390f35b3480156102dc57600080fd5b506102e5611275565b005b3480156102f357600080fd5b506102fc6113a8565b604051610309919061322f565b60405180910390f35b61032c600480360381019061032791906131b5565b6113bb565b005b34801561033a57600080fd5b506103436116cb565b604051610350919061308b565b60405180910390f35b34801561036557600080fd5b5061036e6116de565b60405161037b9190612b63565b60405180910390f35b34801561039057600080fd5b506103ab60048036038101906103a6919061324a565b611704565b005b3480156103b957600080fd5b506103c26117ae565b005b3480156103d057600080fd5b506103d96118d1565b6040516103e6919061322f565b60405180910390f35b3480156103fb57600080fd5b506104046118e4565b005b34801561041257600080fd5b5061041b611ab6565b005b34801561042957600080fd5b50610432611be9565b005b34801561044057600080fd5b50610449611d23565b005b34801561045757600080fd5b50610460612464565b60405161046d9190612d1c565b60405180910390f35b34801561048257600080fd5b5061048b61246a565b60405161049891906132da565b60405180910390f35b3480156104ad57600080fd5b506104b6612490565b005b600682600481106104c857600080fd5b0181815481106104d757600080fd5b906000526020600020016000915091509054906101000a900473ffffffffffffffffffffffffffffffffffffffff1681565b6000600281111561051d5761051c612f6a565b5b600460039054906101000a900460ff16600281111561053f5761053e612f6a565b5b1461057f576040517f08c379a000000000000000000000000000000000000000000000000000000000815260040161057690613341565b60405180910390fd5b600460029054906101000a900460ff166105ce576040517f08c379a00000000000000000000000000000000000000000000000000000000081526004016105c5906133ad565b60405180910390fd5b600460ff1660066000600481106105e8576105e76133cd565b5b01805490501061062d576040517f08c379a000000000000000000000000000000000000000000000000000000000815260040161062490613448565b60405180910390fd5b6000600560003373ffffffffffffffffffffffffffffffffffffffff1673ffffffffffffffffffffffffffffffffffffffff168152602001908152602001600020600101805461067c90613497565b905014156106bf576040517f08c379a00000000000000000000000000000000000000000000000000000000081526004016106b690613515565b60405180910390fd5b600460009054906101000a900460ff1660ff16600560003373ffffffffffffffffffffffffffffffffffffffff1673ffffffffffffffffffffffffffffffffffffffff168152602001908152602001600020600a0160009054906101000a900460ff1660ff1614610765576040517f08c379a000000000000000000000000000000000000000000000000000000000815260040161075c90613581565b60405180910390fd5b6000815114156107aa576040517f08c379a00000000000000000000000000000000000000000000000000000000081526004016107a1906135ed565b60405180910390fd5b80600560003373ffffffffffffffffffffffffffffffffffffffff1673ffffffffffffffffffffffffffffffffffffffff168152602001908152602001600020600201600460009054906101000a900460ff1660ff1660048110610811576108106133cd565b5b0190805190602001906108259291906129ce565b5050565b600047905090565b60006060600080600080600080610846612a54565b60008060029054906101000a900473ffffffffffffffffffffffffffffffffffffffff166002600160009054906101000a900473ffffffffffffffffffffffffffffffffffffffff166004600354600460009054906101000a900460ff16600460029054906101000a900460ff16600460019054906101000a900460ff166006600460039054906101000a900460ff168880546108e290613497565b80601f016020809104026020016040519081016040528092919081815260200182805461090e90613497565b801561095b5780601f106109305761010080835404028352916020019161095b565b820191906000526020600020905b81548152906001019060200180831161093e57829003601f168201915b505050505098508460ff16945081600480602002604051908101604052809291906000905b82821015610a1f57838201805480602002602001604051908101604052809291908181526020018280548015610a0b57602002820191906000526020600020905b8160009054906101000a900473ffffffffffffffffffffffffffffffffffffffff1673ffffffffffffffffffffffffffffffffffffffff16815260200190600101908083116109c1575b505050505081526020019060010190610980565b505050509150995099509950995099509950995099509950995090919293949596979899565b600481565b60006002811115610a5e57610a5d612f6a565b5b600460039054906101000a900460ff166002811115610a8057610a7f612f6a565b5b14610ac0576040517f08c379a0000000000000000000000000000000000000000000000000000000008152600401610ab790613341565b60405180910390fd5b600460029054906101000a900460ff16610b0f576040517f08c379a0000000000000000000000000000000000000000000000000000000008152600401610b06906133ad565b60405180910390fd5b6003543414610b53576040517f08c379a0000000000000000000000000000000000000000000000000000000008152600401610b4a9061367f565b60405180910390fd5b600060029054906101000a900473ffffffffffffffffffffffffffffffffffffffff1673ffffffffffffffffffffffffffffffffffffffff163373ffffffffffffffffffffffffffffffffffffffff161415610be4576040517f08c379a0000000000000000000000000000000000000000000000000000000008152600401610bdb906136eb565b60405180910390fd5b6000600560003373ffffffffffffffffffffffffffffffffffffffff1673ffffffffffffffffffffffffffffffffffffffff1681526020019081526020016000206001018054610c3390613497565b905014610c75576040517f08c379a0000000000000000000000000000000000000000000000000000000008152600401610c6c90613757565b60405180910390fd5b600460ff166006600060048110610c8f57610c8e6133cd565b5b018054905010610cd4576040517f08c379a0000000000000000000000000000000000000000000000000000000008152600401610ccb90613448565b60405180910390fd5b6000602060ff161415610d1c576040517f08c379a0000000000000000000000000000000000000000000000000000000008152600401610d13906137c3565b60405180910390fd5b600082511415610d61576040517f08c379a0000000000000000000000000000000000000000000000000000000008152600401610d58906135ed565b60405180910390fd5b600081511415610da6576040517f08c379a0000000000000000000000000000000000000000000000000000000008152600401610d9d9061382f565b60405180910390fd5b603c81511115610deb576040517f08c379a0000000000000000000000000000000000000000000000000000000008152600401610de29061389b565b60405180910390fd5b6006600060048110610e0057610dff6133cd565b5b01339080600181540180825580915050600190039060005260206000200160009091909190916101000a81548173ffffffffffffffffffffffffffffffffffffffff021916908373ffffffffffffffffffffffffffffffffffffffff16021790555082600560003373ffffffffffffffffffffffffffffffffffffffff1673ffffffffffffffffffffffffffffffffffffffff1681526020019081526020016000206000018190555081600560003373ffffffffffffffffffffffffffffffffffffffff1673ffffffffffffffffffffffffffffffffffffffff168152602001908152602001600020600201600460009054906101000a900460ff1660ff1660048110610f1057610f0f6133cd565b5b019080519060200190610f249291906129ce565b5080600560003373ffffffffffffffffffffffffffffffffffffffff1673ffffffffffffffffffffffffffffffffffffffff1681526020019081526020016000206001019080519060200190610f7b9291906129ce565b50600460ff166006600060048110610f9657610f956133cd565b5b01805490501415611000576000600460026101000a81548160ff0219169083151502179055503373ffffffffffffffffffffffffffffffffffffffff167f15970fb7c7f5e516d64772bccbafac38da4729b9a44ab2f6dc4fa77e36dfd43c60405160405180910390a25b505050565b6002805461101290613497565b80601f016020809104026020016040519081016040528092919081815260200182805461103e90613497565b801561108b5780601f106110605761010080835404028352916020019161108b565b820191906000526020600020905b81548152906001019060200180831161106e57829003601f168201915b505050505081565b600060029054906101000a900473ffffffffffffffffffffffffffffffffffffffff1673ffffffffffffffffffffffffffffffffffffffff163373ffffffffffffffffffffffffffffffffffffffff1614611123576040517f08c379a000000000000000000000000000000000000000000000000000000000815260040161111a90613907565b60405180910390fd5b6000600281111561113757611136612f6a565b5b600460039054906101000a900460ff16600281111561115957611158612f6a565b5b14611199576040517f08c379a000000000000000000000000000000000000000000000000000000000815260040161119090613341565b60405180910390fd5b6000600460026101000a81548160ff021916908315150217905550565b60056020528060005260406000206000915090508060000154908060010180546111df90613497565b80601f016020809104026020016040519081016040528092919081815260200182805461120b90613497565b80156112585780601f1061122d57610100808354040283529160200191611258565b820191906000526020600020905b81548152906001019060200180831161123b57829003601f168201915b50505050509080600a0160009054906101000a900460ff16905083565b600060029054906101000a900473ffffffffffffffffffffffffffffffffffffffff1673ffffffffffffffffffffffffffffffffffffffff163373ffffffffffffffffffffffffffffffffffffffff1614611305576040517f08c379a00000000000000000000000000000000000000000000000000000000081526004016112fc90613907565b60405180910390fd5b60028081111561131857611317612f6a565b5b600460039054906101000a900460ff16600281111561133a57611339612f6a565b5b141561137b576040517f08c379a000000000000000000000000000000000000000000000000000000000815260040161137290613973565b60405180910390fd5b6002600460036101000a81548160ff021916908360028111156113a1576113a0612f6a565b5b0217905550565b600460029054906101000a900460ff1681565b600060028111156113cf576113ce612f6a565b5b600460039054906101000a900460ff1660028111156113f1576113f0612f6a565b5b14611431576040517f08c379a000000000000000000000000000000000000000000000000000000000815260040161142890613341565b60405180910390fd5b600460019054906101000a900460ff16611480576040517f08c379a0000000000000000000000000000000000000000000000000000000008152600401611477906139df565b60405180910390fd5b600060029054906101000a900473ffffffffffffffffffffffffffffffffffffffff1673ffffffffffffffffffffffffffffffffffffffff163373ffffffffffffffffffffffffffffffffffffffff161415611511576040517f08c379a0000000000000000000000000000000000000000000000000000000008152600401611508906136eb565b60405180910390fd5b6000600560008373ffffffffffffffffffffffffffffffffffffffff1673ffffffffffffffffffffffffffffffffffffffff168152602001908152602001600020600101805461156090613497565b905014156115a3576040517f08c379a000000000000000000000000000000000000000000000000000000000815260040161159a90613515565b60405180910390fd5b600460009054906101000a900460ff1660ff16600560008373ffffffffffffffffffffffffffffffffffffffff1673ffffffffffffffffffffffffffffffffffffffff168152602001908152602001600020600a0160009054906101000a900460ff1660ff1614611649576040517f08c379a000000000000000000000000000000000000000000000000000000000815260040161164090613581565b60405180910390fd5b6001600560008373ffffffffffffffffffffffffffffffffffffffff1673ffffffffffffffffffffffffffffffffffffffff168152602001908152602001600020600601600460009054906101000a900460ff1660ff16600481106116b1576116b06133cd565b5b0160008282546116c19190613a2e565b9250508190555050565b600460009054906101000a900460ff1681565b600060029054906101000a900473ffffffffffffffffffffffffffffffffffffffff1681565b82600060026101000a81548173ffffffffffffffffffffffffffffffffffffffff021916908373ffffffffffffffffffffffffffffffffffffffff160217905550816002908051906020019061175b9291906129ce565b50806003819055506001600460026101000a81548160ff0219169083151502179055506000600460036101000a81548160ff021916908360028111156117a4576117a3612f6a565b5b0217905550505050565b600060029054906101000a900473ffffffffffffffffffffffffffffffffffffffff1673ffffffffffffffffffffffffffffffffffffffff163373ffffffffffffffffffffffffffffffffffffffff161461183e576040517f08c379a000000000000000000000000000000000000000000000000000000000815260040161183590613907565b60405180910390fd5b6000600281111561185257611851612f6a565b5b600460039054906101000a900460ff16600281111561187457611873612f6a565b5b146118b4576040517f08c379a00000000000000000000000000000000000000000000000000000000081526004016118ab90613341565b60405180910390fd5b6001600460026101000a81548160ff021916908315150217905550565b600460019054906101000a900460ff1681565b600060029054906101000a900473ffffffffffffffffffffffffffffffffffffffff1673ffffffffffffffffffffffffffffffffffffffff163373ffffffffffffffffffffffffffffffffffffffff1614611974576040517f08c379a000000000000000000000000000000000000000000000000000000000815260040161196b90613907565b60405180910390fd5b6000600281111561198857611987612f6a565b5b600460039054906101000a900460ff1660028111156119aa576119a9612f6a565b5b146119ea576040517f08c379a00000000000000000000000000000000000000000000000000000000081526004016119e190613341565b60405180910390fd5b600460029054906101000a900460ff1615611a3a576040517f08c379a0000000000000000000000000000000000000000000000000000000008152600401611a3190613ad0565b60405180910390fd5b600460ff166006600060048110611a5457611a536133cd565b5b018054905014611a99576040517f08c379a0000000000000000000000000000000000000000000000000000000008152600401611a9090613b3c565b60405180910390fd5b6001600460016101000a81548160ff021916908315150217905550565b600060029054906101000a900473ffffffffffffffffffffffffffffffffffffffff1673ffffffffffffffffffffffffffffffffffffffff163373ffffffffffffffffffffffffffffffffffffffff1614611b46576040517f08c379a0000000000000000000000000000000000000000000000000000000008152600401611b3d90613907565b60405180910390fd5b60006002811115611b5a57611b59612f6a565b5b600460039054906101000a900460ff166002811115611b7c57611b7b612f6a565b5b14611bbc576040517f08c379a0000000000000000000000000000000000000000000000000000000008152600401611bb390613341565b60405180910390fd5b6001600460036101000a81548160ff02191690836002811115611be257611be1612f6a565b5b0217905550565b600280811115611bfc57611bfb612f6a565b5b600460039054906101000a900460ff166002811115611c1e57611c1d612f6a565b5b14611c5e576040517f08c379a0000000000000000000000000000000000000000000000000000000008152600401611c5590613ba8565b60405180910390fd5b600160009054906101000a900473ffffffffffffffffffffffffffffffffffffffff1673ffffffffffffffffffffffffffffffffffffffff163373ffffffffffffffffffffffffffffffffffffffff1614611cb857600080fd5b600160009054906101000a900473ffffffffffffffffffffffffffffffffffffffff1673ffffffffffffffffffffffffffffffffffffffff166108fc479081150290604051600060405180830381858888f19350505050158015611d20573d6000803e3d6000fd5b50565b600060029054906101000a900473ffffffffffffffffffffffffffffffffffffffff1673ffffffffffffffffffffffffffffffffffffffff163373ffffffffffffffffffffffffffffffffffffffff1614611db3576040517f08c379a0000000000000000000000000000000000000000000000000000000008152600401611daa90613907565b60405180910390fd5b60006002811115611dc757611dc6612f6a565b5b600460039054906101000a900460ff166002811115611de957611de8612f6a565b5b14611e29576040517f08c379a0000000000000000000000000000000000000000000000000000000008152600401611e2090613341565b60405180910390fd5b600460019054906101000a900460ff16611e78576040517f08c379a0000000000000000000000000000000000000000000000000000000008152600401611e6f90613c14565b60405180910390fd5b600460029054906101000a900460ff1615611ec8576040517f08c379a0000000000000000000000000000000000000000000000000000000008152600401611ebf90613ad0565b60405180910390fd5b6000600460016101000a81548160ff021916908315150217905550600060016004611ef39190613c34565b9050600181611f029190613c34565b60ff16600460009054906101000a900460ff1660ff16101561245857600080600560006006600460009054906101000a900460ff1660ff1660048110611f4b57611f4a6133cd565b5b018460ff1681548110611f6157611f606133cd565b5b9060005260206000200160009054906101000a900473ffffffffffffffffffffffffffffffffffffffff1673ffffffffffffffffffffffffffffffffffffffff1673ffffffffffffffffffffffffffffffffffffffff168152602001908152602001600020600601600460009054906101000a900460ff1660ff1660048110611fed57611fec6133cd565b5b015490506000600190505b6006600460009054906101000a900460ff1660ff166004811061201e5761201d6133cd565b5b01805490508160ff1610156121e85781600560006006600460009054906101000a900460ff1660ff1660048110612058576120576133cd565b5b018460ff168154811061206e5761206d6133cd565b5b9060005260206000200160009054906101000a900473ffffffffffffffffffffffffffffffffffffffff1673ffffffffffffffffffffffffffffffffffffffff1673ffffffffffffffffffffffffffffffffffffffff168152602001908152602001600020600601600460009054906101000a900460ff1660ff16600481106120fa576120f96133cd565b5b0154116121d557600560006006600460009054906101000a900460ff1660ff166004811061212b5761212a6133cd565b5b018360ff1681548110612141576121406133cd565b5b9060005260206000200160009054906101000a900473ffffffffffffffffffffffffffffffffffffffff1673ffffffffffffffffffffffffffffffffffffffff1673ffffffffffffffffffffffffffffffffffffffff168152602001908152602001600020600601600460009054906101000a900460ff1660ff16600481106121cd576121cc6133cd565b5b015491508092505b80806121e090613c68565b915050611ff8565b5060005b6006600460009054906101000a900460ff1660ff1660048110612212576122116133cd565b5b01805490508160ff161015612418578260ff168160ff16146124055760066001600460009054906101000a900460ff1661224c9190613c92565b60ff16600481106122605761225f6133cd565b5b016006600460009054906101000a900460ff1660ff1660048110612287576122866133cd565b5b018260ff168154811061229d5761229c6133cd565b5b9060005260206000200160009054906101000a900473ffffffffffffffffffffffffffffffffffffffff169080600181540180825580915050600190039060005260206000200160009091909190916101000a81548173ffffffffffffffffffffffffffffffffffffffff021916908373ffffffffffffffffffffffffffffffffffffffff1602179055506001600460009054906101000a900460ff166123449190613c92565b600560006006600460009054906101000a900460ff1660ff166004811061236e5761236d6133cd565b5b018460ff1681548110612384576123836133cd565b5b9060005260206000200160009054906101000a900473ffffffffffffffffffffffffffffffffffffffff1673ffffffffffffffffffffffffffffffffffffffff1673ffffffffffffffffffffffffffffffffffffffff168152602001908152602001600020600a0160006101000a81548160ff021916908360ff1602179055505b808061241090613c68565b9150506121ec565b506004600081819054906101000a900460ff168092919061243890613c68565b91906101000a81548160ff021916908360ff160217905550505050612461565b6124606125c3565b5b50565b60035481565b600160009054906101000a900473ffffffffffffffffffffffffffffffffffffffff1681565b600060029054906101000a900473ffffffffffffffffffffffffffffffffffffffff1673ffffffffffffffffffffffffffffffffffffffff163373ffffffffffffffffffffffffffffffffffffffff1614612520576040517f08c379a000000000000000000000000000000000000000000000000000000000815260040161251790613907565b60405180910390fd5b6001600281111561253457612533612f6a565b5b600460039054906101000a900460ff16600281111561255657612555612f6a565b5b14612596576040517f08c379a000000000000000000000000000000000000000000000000000000000815260040161258d90613973565b60405180910390fd5b6000600460036101000a81548160ff021916908360028111156125bc576125bb612f6a565b5b0217905550565b600060028111156125d7576125d6612f6a565b5b600460039054906101000a900460ff1660028111156125f9576125f8612f6a565b5b14612639576040517f08c379a000000000000000000000000000000000000000000000000000000000815260040161263090613341565b60405180910390fd5b6000600560006006600260048110612654576126536133cd565b5b01600081548110612668576126676133cd565b5b9060005260206000200160009054906101000a900473ffffffffffffffffffffffffffffffffffffffff1673ffffffffffffffffffffffffffffffffffffffff1673ffffffffffffffffffffffffffffffffffffffff16815260200190815260200160002060060190506000816000600481106126e8576126e76133cd565b5b0154600a6126f69190613cc9565b8260016004811061270a576127096133cd565b5b0154601e6127189190613cc9565b8360026004811061272c5761272b6133cd565b5b0154603c61273a9190613cc9565b6127449190613a2e565b61274e9190613a2e565b9050600060056000600660026004811061276b5761276a6133cd565b5b0160018154811061277f5761277e6133cd565b5b9060005260206000200160009054906101000a900473ffffffffffffffffffffffffffffffffffffffff1673ffffffffffffffffffffffffffffffffffffffff1673ffffffffffffffffffffffffffffffffffffffff16815260200190815260200160002060060190506000816000600481106127ff576127fe6133cd565b5b0154600a61280d9190613cc9565b82600160048110612821576128206133cd565b5b0154601e61282f9190613cc9565b83600260048110612843576128426133cd565b5b0154603c6128519190613cc9565b61285b9190613a2e565b6128659190613a2e565b905082811115612908576006600260048110612884576128836133cd565b5b01600181548110612898576128976133cd565b5b9060005260206000200160009054906101000a900473ffffffffffffffffffffffffffffffffffffffff16600160006101000a81548173ffffffffffffffffffffffffffffffffffffffff021916908373ffffffffffffffffffffffffffffffffffffffff16021790555061299d565b600660026004811061291d5761291c6133cd565b5b01600081548110612931576129306133cd565b5b9060005260206000200160009054906101000a900473ffffffffffffffffffffffffffffffffffffffff16600160006101000a81548173ffffffffffffffffffffffffffffffffffffffff021916908373ffffffffffffffffffffffffffffffffffffffff1602179055505b6002600460036101000a81548160ff021916908360028111156129c3576129c2612f6a565b5b021790555050505050565b8280546129da90613497565b90600052602060002090601f0160209004810192826129fc5760008555612a43565b82601f10612a1557805160ff1916838001178555612a43565b82800160010185558215612a43579182015b82811115612a42578251825591602001919060010190612a27565b5b509050612a509190612a7b565b5090565b60405180608001604052806004905b6060815260200190600190039081612a635790505090565b5b80821115612a94576000816000905550600101612a7c565b5090565b6000604051905090565b600080fd5b600080fd5b6000819050919050565b612abf81612aac565b8114612aca57600080fd5b50565b600081359050612adc81612ab6565b92915050565b60008060408385031215612af957612af8612aa2565b5b6000612b0785828601612acd565b9250506020612b1885828601612acd565b9150509250929050565b600073ffffffffffffffffffffffffffffffffffffffff82169050919050565b6000612b4d82612b22565b9050919050565b612b5d81612b42565b82525050565b6000602082019050612b786000830184612b54565b92915050565b600080fd5b600080fd5b6000601f19601f8301169050919050565b7f4e487b7100000000000000000000000000000000000000000000000000000000600052604160045260246000fd5b612bd182612b88565b810181811067ffffffffffffffff82111715612bf057612bef612b99565b5b80604052505050565b6000612c03612a98565b9050612c0f8282612bc8565b919050565b600067ffffffffffffffff821115612c2f57612c2e612b99565b5b612c3882612b88565b9050602081019050919050565b82818337600083830152505050565b6000612c67612c6284612c14565b612bf9565b905082815260208101848484011115612c8357612c82612b83565b5b612c8e848285612c45565b509392505050565b600082601f830112612cab57612caa612b7e565b5b8135612cbb848260208601612c54565b91505092915050565b600060208284031215612cda57612cd9612aa2565b5b600082013567ffffffffffffffff811115612cf857612cf7612aa7565b5b612d0484828501612c96565b91505092915050565b612d1681612aac565b82525050565b6000602082019050612d316000830184612d0d565b92915050565b600081519050919050565b600082825260208201905092915050565b60005b83811015612d71578082015181840152602081019050612d56565b83811115612d80576000848401525b50505050565b6000612d9182612d37565b612d9b8185612d42565b9350612dab818560208601612d53565b612db481612b88565b840191505092915050565b600060ff82169050919050565b612dd581612dbf565b82525050565b60008115159050919050565b612df081612ddb565b82525050565b600060049050919050565b600081905092915050565b6000819050919050565b600081519050919050565b600082825260208201905092915050565b6000819050602082019050919050565b612e4b81612b42565b82525050565b6000612e5d8383612e42565b60208301905092915050565b6000602082019050919050565b6000612e8182612e16565b612e8b8185612e21565b9350612e9683612e32565b8060005b83811015612ec7578151612eae8882612e51565b9750612eb983612e69565b925050600181019050612e9a565b5085935050505092915050565b6000612ee08383612e76565b905092915050565b6000602082019050919050565b6000612f0082612df6565b612f0a8185612e01565b935083602082028501612f1c85612e0c565b8060005b85811015612f585784840389528151612f398582612ed4565b9450612f4483612ee8565b925060208a01995050600181019050612f20565b50829750879550505050505092915050565b7f4e487b7100000000000000000000000000000000000000000000000000000000600052602160045260246000fd5b60038110612faa57612fa9612f6a565b5b50565b6000819050612fbb82612f99565b919050565b6000612fcb82612fad565b9050919050565b612fdb81612fc0565b82525050565b600061014082019050612ff7600083018d612b54565b8181036020830152613009818c612d86565b9050613018604083018b612b54565b613025606083018a612dcc565b6130326080830189612d0d565b61303f60a0830188612d0d565b61304c60c0830187612de7565b61305960e0830186612de7565b81810361010083015261306c8185612ef5565b905061307c610120830184612fd2565b9b9a5050505050505050505050565b60006020820190506130a06000830184612dcc565b92915050565b6000819050919050565b6130b9816130a6565b81146130c457600080fd5b50565b6000813590506130d6816130b0565b92915050565b6000806000606084860312156130f5576130f4612aa2565b5b6000613103868287016130c7565b935050602084013567ffffffffffffffff81111561312457613123612aa7565b5b61313086828701612c96565b925050604084013567ffffffffffffffff81111561315157613150612aa7565b5b61315d86828701612c96565b9150509250925092565b600060208201905081810360008301526131818184612d86565b905092915050565b61319281612b42565b811461319d57600080fd5b50565b6000813590506131af81613189565b92915050565b6000602082840312156131cb576131ca612aa2565b5b60006131d9848285016131a0565b91505092915050565b6131eb816130a6565b82525050565b600060608201905061320660008301866131e2565b81810360208301526132188185612d86565b90506132276040830184612dcc565b949350505050565b60006020820190506132446000830184612de7565b92915050565b60008060006060848603121561326357613262612aa2565b5b6000613271868287016131a0565b935050602084013567ffffffffffffffff81111561329257613291612aa7565b5b61329e86828701612c96565b92505060406132af86828701612acd565b9150509250925092565b60006132c482612b22565b9050919050565b6132d4816132b9565b82525050565b60006020820190506132ef60008301846132cb565b92915050565b7f436f6e74657374206e6f742072756e6e696e6700000000000000000000000000600082015250565b600061332b601383612d42565b9150613336826132f5565b602082019050919050565b6000602082019050818103600083015261335a8161331e565b9050919050565b7f50617274696369706174696f6e20697320636c6f73656420666f72206e6f7700600082015250565b6000613397601f83612d42565b91506133a282613361565b602082019050919050565b600060208201905081810360008301526133c68161338a565b9050919050565b7f4e487b7100000000000000000000000000000000000000000000000000000000600052603260045260246000fd5b7f4d6178696d756d207061727469636970616e7473207265616368656400000000600082015250565b6000613432601c83612d42565b915061343d826133fc565b602082019050919050565b6000602082019050818103600083015261346181613425565b9050919050565b7f4e487b7100000000000000000000000000000000000000000000000000000000600052602260045260246000fd5b600060028204905060018216806134af57607f821691505b602082108114156134c3576134c2613468565b5b50919050565b7f496e76616c696420636f6e74657374616e740000000000000000000000000000600082015250565b60006134ff601283612d42565b915061350a826134c9565b602082019050919050565b6000602082019050818103600083015261352e816134f2565b9050919050565b7f436f6e74657374616e7420616c726561647920656c696d696e61746564000000600082015250565b600061356b601d83612d42565b915061357682613535565b602082019050919050565b6000602082019050818103600083015261359a8161355e565b9050919050565b7f456d707479206c696e6b00000000000000000000000000000000000000000000600082015250565b60006135d7600a83612d42565b91506135e2826135a1565b602082019050919050565b60006020820190508181036000830152613606816135ca565b9050919050565b7f506c6561736520706179207468652072657175697265642066656520746f207060008201527f6172746970617465000000000000000000000000000000000000000000000000602082015250565b6000613669602883612d42565b91506136748261360d565b604082019050919050565b600060208201905081810360008301526136988161365c565b9050919050565b7f41646d696e206e6f7420616c6c6f776564000000000000000000000000000000600082015250565b60006136d5601183612d42565b91506136e08261369f565b602082019050919050565b60006020820190508181036000830152613704816136c8565b9050919050565b7f4578697374696e6720636f6e74657374616e7400000000000000000000000000600082015250565b6000613741601383612d42565b915061374c8261370b565b602082019050919050565b6000602082019050818103600083015261377081613734565b9050919050565b7f456d707479206e616d6500000000000000000000000000000000000000000000600082015250565b60006137ad600a83612d42565b91506137b882613777565b602082019050919050565b600060208201905081810360008301526137dc816137a0565b9050919050565b7f456d7074792042696f0000000000000000000000000000000000000000000000600082015250565b6000613819600983612d42565b9150613824826137e3565b602082019050919050565b600060208201905081810360008301526138488161380c565b9050919050565b7f4c6f6e672042696f000000000000000000000000000000000000000000000000600082015250565b6000613885600883612d42565b91506138908261384f565b602082019050919050565b600060208201905081810360008301526138b481613878565b9050919050565b7f4f6e6c79206f776e65727320616c6c6f77656400000000000000000000000000600082015250565b60006138f1601383612d42565b91506138fc826138bb565b602082019050919050565b60006020820190508181036000830152613920816138e4565b9050919050565b7f436f6e74657374206e6f74207061757365640000000000000000000000000000600082015250565b600061395d601283612d42565b915061396882613927565b602082019050919050565b6000602082019050818103600083015261398c81613950565b9050919050565b7f566f74696e6720697320636c6f73656420666f72206e6f770000000000000000600082015250565b60006139c9601883612d42565b91506139d482613993565b602082019050919050565b600060208201905081810360008301526139f8816139bc565b9050919050565b7f4e487b7100000000000000000000000000000000000000000000000000000000600052601160045260246000fd5b6000613a3982612aac565b9150613a4483612aac565b9250827fffffffffffffffffffffffffffffffffffffffffffffffffffffffffffffffff03821115613a7957613a786139ff565b5b828201905092915050565b7f50617274696369706174696f6e206f70656e0000000000000000000000000000600082015250565b6000613aba601283612d42565b9150613ac582613a84565b602082019050919050565b60006020820190508181036000830152613ae981613aad565b9050919050565b7f4e6f7420656e6f756768207061727469636970616e7473000000000000000000600082015250565b6000613b26601783612d42565b9150613b3182613af0565b602082019050919050565b60006020820190508181036000830152613b5581613b19565b9050919050565b7f436f6e74657374206e6f742066696e6973686564000000000000000000000000600082015250565b6000613b92601483612d42565b9150613b9d82613b5c565b602082019050919050565b60006020820190508181036000830152613bc181613b85565b9050919050565b7f566f74696e67206e6f74206f70656e0000000000000000000000000000000000600082015250565b6000613bfe600f83612d42565b9150613c0982613bc8565b602082019050919050565b60006020820190508181036000830152613c2d81613bf1565b9050919050565b6000613c3f82612dbf565b9150613c4a83612dbf565b925082821015613c5d57613c5c6139ff565b5b828203905092915050565b6000613c7382612dbf565b915060ff821415613c8757613c866139ff565b5b600182019050919050565b6000613c9d82612dbf565b9150613ca883612dbf565b92508260ff03821115613cbe57613cbd6139ff565b5b828201905092915050565b6000613cd482612aac565b9150613cdf83612aac565b9250817fffffffffffffffffffffffffffffffffffffffffffffffffffffffffffffffff0483118215151615613d1857613d176139ff565b5b82820290509291505056fea2646970667358221220d63fd31f3098f67df9e59e551f117f7352976da8edb7b809829481dc862cceec64736f6c634300080a0033",
  "immutableReferences": {},
  "source": "//SPDX-License-Identifier: MIT\npragma solidity 0.8.10;\nimport \"@openzeppelin/contracts/proxy/utils/Initializable.sol\";\n\ncontract Contest is Initializable {\n    address public owner;\n    address payable public winner;\n    string public title;\n\n    uint8 public constant NUM_ALLOWED_PARTICIPANTS = 4;\n    uint256 public fee;\n    uint8 public currentRound;\n\n    bool public votingOpen;\n    bool public participationOpen;\n\n    enum ContestState { RUNNING, PAUSED, FINISHED}\n    ContestState state;\n\n    struct Contestant {\n        bytes32 name;\n        string bio;\n        string[4] performanceLinks;\n        uint256[4] votesReceived;\n        uint8 progressedToRound;\n    }\n    mapping(address => Contestant) public contestants;\n    address[][NUM_ALLOWED_PARTICIPANTS] public roundWinners;\n\n    // Fired to signal that the contest is open for participation\n    event ContestOpenedForParticipation();\n\n    /*\n     * Fired once the number of participants = 4.\n     * Signals that the contest is closed for participation\n     */\n    event ContestClosedForParticipation(address indexed _addr);\n\n    // Voting opened for a round\n    event VotingOpened(uint8 round);\n\n    // Voting closed for a round\n    event VotingClosed(uint8 round);\n\n    function initialize(\n        address _owner,\n        string memory _title,\n        uint256 _fee\n    ) external {\n        //__ERC721_init(_name, _symbol);\n        owner = _owner;\n        title = _title;\n        fee = _fee;\n        participationOpen = true;\n        state = ContestState.RUNNING;\n    }\n\n    modifier isOwner() {\n        require(msg.sender == owner, \"Only owners allowed\");\n        _;\n    }\n\n    modifier isRunning() {\n        require(state == ContestState.RUNNING, \"Contest not running\");\n        _;\n    }\n\n    modifier isPaused() {\n        require(state == ContestState.PAUSED, \"Contest not paused\");\n        _;\n    }\n\n    function stopContest() public isOwner{\n        require(state != ContestState.FINISHED, \"Contest not paused\");\n        state = ContestState.FINISHED;\n    }\n\n    function pauseContest() public isOwner isRunning{\n        state = ContestState.PAUSED;\n    }\n\n    function resumeContest() public isOwner isPaused{\n        state = ContestState.RUNNING;\n    }\n\n    function enableParticipation() public isOwner isRunning {\n        participationOpen = true;\n    }\n\n    function disableParticipation() public isOwner isRunning{\n        participationOpen = false;\n    }\n\n    function openVoting() public isOwner isRunning{\n        require(!participationOpen, \"Participation open\");\n        require( roundWinners[0].length == NUM_ALLOWED_PARTICIPANTS, \"Not enough participants\" );\n        votingOpen = true;\n    }\n\n    function closeVoting() public isOwner isRunning{\n        require(votingOpen, \"Voting not open\");\n        require(!participationOpen, \"Participation open\");\n        votingOpen = false;\n\n        /*\n         * Max. Rounds = NUM_ALLOWED_PARTICIPANTS - 1\n         * So, for 4 participants, max rounds = 3 => R0, R1, R2\n         * So, we count votes of the current round and eliminate\n         * the person with the lowest votes.\n         * Except for the Fina Round.\n         * For final round, we have an algorthm that takes into\n         * consideration weighted votes from all the rounds.\n         */\n        uint8 total_rounds = NUM_ALLOWED_PARTICIPANTS - 1;\n\n        if (currentRound < total_rounds - 1) {\n            uint8 tmpCId = 0;\n            uint256 tmpLowestVotes = contestants[\n                roundWinners[currentRound][tmpCId]\n            ].votesReceived[currentRound];\n\n            for (uint8 i = 1; i < roundWinners[currentRound].length; i++) {\n                //TODO: Right now, I haven't accounted for a scenario when 2 contestants\n                // have equal scores. So, using <= instead of < , for now\n                if (\n                    contestants[roundWinners[currentRound][i]].votesReceived[\n                        currentRound\n                    ] <= tmpLowestVotes\n                ) {\n                    tmpLowestVotes = contestants[roundWinners[currentRound][i]]\n                        .votesReceived[currentRound];\n                    tmpCId = i;\n                }\n            }\n\n            for (uint8 i = 0; i < roundWinners[currentRound].length; i++) {\n                //Skip the one with the lowest votes\n                if (i != tmpCId) {\n                    roundWinners[currentRound + 1].push(\n                        roundWinners[currentRound][i]\n                    );\n                    contestants[roundWinners[currentRound][i]]\n                        .progressedToRound = currentRound + 1;\n                }\n            }\n            currentRound++;\n        } else {\n            pickWinner();\n        }\n    }\n\n    function pickWinner() private isRunning{\n        /*\n         * For final score, we use weighted scores of all the roundsWeighted\n         * final score = 60% x final (3rd) Round + 30% x 2nd round + 10% x 1st round\n         */\n        uint256[4] storage finalistOneAllVotes = contestants[roundWinners[2][0]]\n            .votesReceived;\n        uint256 finalistOneFinalScore = 60 *\n            finalistOneAllVotes[2] +\n            30 *\n            finalistOneAllVotes[1] +\n            10 *\n            finalistOneAllVotes[0];\n\n        uint256[4] storage finalistTwoAllVotes = contestants[roundWinners[2][1]]\n            .votesReceived;\n        uint256 finalistTwoFinalScore = 60 *\n            finalistTwoAllVotes[2] +\n            30 *\n            finalistTwoAllVotes[1] +\n            10 *\n            finalistTwoAllVotes[0];\n\n        if (finalistTwoFinalScore > finalistOneFinalScore) {\n            winner = payable(roundWinners[2][1]);\n        } else {\n            winner = payable(roundWinners[2][0]);\n        }\n        state = ContestState.FINISHED;\n    }\n\n    function uint2str(uint256 _i)\n        internal\n        pure\n        returns (string memory _uintAsString)\n    {\n        if (_i == 0) {\n            return \"0\";\n        }\n        uint256 j = _i;\n        uint256 len;\n        while (j != 0) {\n            len++;\n            j /= 10;\n        }\n        bytes memory bstr = new bytes(len);\n        uint256 k = len;\n        while (_i != 0) {\n            k = k - 1;\n            uint8 temp = (48 + uint8(_i - (_i / 10) * 10));\n            bytes1 b1 = bytes1(temp);\n            bstr[k] = b1;\n            _i /= 10;\n        }\n        return string(bstr);\n    }\n\n    function participate( bytes32 _name, string memory _performanceLink, string memory _bio ) public payable isRunning{\n        require(participationOpen, \"Participation is closed for now\");\n        require( msg.value == fee, \"Please pay the required fee to partipate\" );\n        require(msg.sender != owner, \"Admin not allowed\");\n        require( bytes(contestants[msg.sender].bio).length == 0, \"Existing contestant\" );\n        require( roundWinners[0].length < NUM_ALLOWED_PARTICIPANTS, \"Maximum participants reached\" );\n        require(_name.length != 0, \"Empty name\");\n        require(bytes(_performanceLink).length != 0, \"Empty link\");\n        require(bytes(_bio).length != 0, \"Empty Bio\");\n        require(bytes(_bio).length <= 60, \"Long Bio\");\n\n        roundWinners[0].push(msg.sender);\n        contestants[msg.sender].name = _name;\n        contestants[msg.sender].performanceLinks[currentRound] = _performanceLink;\n        contestants[msg.sender].bio = _bio;\n\n        /*\n         * If we have reached NUM_ALLOWED_PARTICIPANTS contestants now,\n         * disable further participantion and notify the UI\n         */\n        if (roundWinners[0].length == NUM_ALLOWED_PARTICIPANTS) {\n            participationOpen = false;\n            emit ContestClosedForParticipation(msg.sender);\n        }\n    }\n\n    function submitPerformamce(string memory _performanceLink) public payable isRunning{\n        require(participationOpen, \"Participation is closed for now\");\n        require( roundWinners[0].length < NUM_ALLOWED_PARTICIPANTS, \"Maximum participants reached\" );\n        require( bytes(contestants[msg.sender].bio).length != 0, \"Invalid contestant\" );\n        require( contestants[msg.sender].progressedToRound == currentRound, \"Contestant already eliminated\" );\n        require(bytes(_performanceLink).length != 0, \"Empty link\");\n\n        //roundWinners[0].push(msg.sender);\n        contestants[msg.sender].performanceLinks[currentRound] = _performanceLink;\n    }\n\n    function vote(address _addr) public payable isRunning{\n        require(votingOpen, \"Voting is closed for now\");\n        require(msg.sender != owner, \"Admin not allowed\");\n        require( bytes(contestants[_addr].bio).length != 0, \"Invalid contestant\" );\n        require( contestants[_addr].progressedToRound == currentRound, \"Contestant already eliminated\" );\n        //also check whether the contestant has advanced to this round or not\n        contestants[_addr].votesReceived[currentRound] += 1;\n    }\n\n    function claimReward() public {\n        require(state == ContestState.FINISHED, \"Contest not finished\");\n        require(msg.sender == winner);\n        winner.transfer(address(this).balance);\n    }\n\n    function getBalance() public view returns (uint256) {\n        return address(this).balance;\n    }\n\n    function getContestDetails()\n        public\n        view\n        returns (\n            address,\n            string memory,\n            address,\n            uint8,\n            uint256,\n            uint256,\n            bool,\n            bool,\n            address[][NUM_ALLOWED_PARTICIPANTS] memory,\n            ContestState\n        )\n    {\n        return (\n            owner,\n            title,\n            winner,\n            NUM_ALLOWED_PARTICIPANTS,\n            fee,\n            currentRound,\n            participationOpen,\n            votingOpen,\n            roundWinners,\n            state\n        );\n    }\n}\n",
  "sourcePath": "/home/shariqkhanfreelancer/Workspace/BLOCKCHAIN/Solidity/BlockStar/contracts/Contest.sol",
  "compiler": {
    "name": "solc",
    "version": "0.8.10+commit.fc410830.Emscripten.clang"
  },
  "schemaVersion": "3.4.7",
  "updatedAt": "2022-07-28T17:02:38.091Z",
  "devdoc": {
    "kind": "dev",
    "methods": {},
    "version": 1
  },
  "userdoc": {
    "kind": "user",
    "methods": {},
    "version": 1
  }
}