{
  "contractName": "Contest",
  "abi": [
    {
      "anonymous": false,
      "inputs": [
        {
          "indexed": false,
          "internalType": "uint8",
          "name": "version",
          "type": "uint8"
        }
      ],
      "name": "Initialized",
      "type": "event"
    },
    {
      "anonymous": false,
      "inputs": [
        {
          "indexed": false,
          "internalType": "uint8",
          "name": "round",
          "type": "uint8"
        }
      ],
      "name": "VotingClosed",
      "type": "event"
    },
    {
      "anonymous": false,
      "inputs": [
        {
          "indexed": false,
          "internalType": "uint8",
          "name": "round",
          "type": "uint8"
        }
      ],
      "name": "VotingOpened",
      "type": "event"
    },
    {
      "anonymous": false,
      "inputs": [
        {
          "indexed": false,
          "internalType": "address",
          "name": "_addr1",
          "type": "address"
        },
        {
          "indexed": false,
          "internalType": "uint256",
          "name": "_votes1",
          "type": "uint256"
        },
        {
          "indexed": false,
          "internalType": "address",
          "name": "_addr2",
          "type": "address"
        },
        {
          "indexed": false,
          "internalType": "uint256",
          "name": "_votes2",
          "type": "uint256"
        },
        {
          "indexed": false,
          "internalType": "address",
          "name": "_winner",
          "type": "address"
        }
      ],
      "name": "WinnerPicked",
      "type": "event"
    },
    {
      "inputs": [
        {
          "internalType": "address",
          "name": "",
          "type": "address"
        }
      ],
      "name": "contestants",
      "outputs": [
        {
          "internalType": "bytes32",
          "name": "name",
          "type": "bytes32"
        },
        {
          "internalType": "string",
          "name": "bio",
          "type": "string"
        },
        {
          "internalType": "uint8",
          "name": "progressedToRound",
          "type": "uint8"
        }
      ],
      "stateMutability": "view",
      "type": "function"
    },
    {
      "inputs": [],
      "name": "currentRound",
      "outputs": [
        {
          "internalType": "uint8",
          "name": "",
          "type": "uint8"
        }
      ],
      "stateMutability": "view",
      "type": "function"
    },
    {
      "inputs": [],
      "name": "description",
      "outputs": [
        {
          "internalType": "string",
          "name": "",
          "type": "string"
        }
      ],
      "stateMutability": "view",
      "type": "function"
    },
    {
      "inputs": [],
      "name": "fee",
      "outputs": [
        {
          "internalType": "uint256",
          "name": "",
          "type": "uint256"
        }
      ],
      "stateMutability": "view",
      "type": "function"
    },
    {
      "inputs": [],
      "name": "owner",
      "outputs": [
        {
          "internalType": "address",
          "name": "",
          "type": "address"
        }
      ],
      "stateMutability": "view",
      "type": "function"
    },
    {
      "inputs": [],
      "name": "participationOpen",
      "outputs": [
        {
          "internalType": "bool",
          "name": "",
          "type": "bool"
        }
      ],
      "stateMutability": "view",
      "type": "function"
    },
    {
      "inputs": [
        {
          "internalType": "uint256",
          "name": "",
          "type": "uint256"
        },
        {
          "internalType": "uint256",
          "name": "",
          "type": "uint256"
        }
      ],
      "name": "qualifiers",
      "outputs": [
        {
          "internalType": "address",
          "name": "",
          "type": "address"
        }
      ],
      "stateMutability": "view",
      "type": "function"
    },
    {
      "inputs": [],
      "name": "rewardClaimed",
      "outputs": [
        {
          "internalType": "bool",
          "name": "",
          "type": "bool"
        }
      ],
      "stateMutability": "view",
      "type": "function"
    },
    {
      "inputs": [],
      "name": "title",
      "outputs": [
        {
          "internalType": "string",
          "name": "",
          "type": "string"
        }
      ],
      "stateMutability": "view",
      "type": "function"
    },
    {
      "inputs": [],
      "name": "votingOpen",
      "outputs": [
        {
          "internalType": "bool",
          "name": "",
          "type": "bool"
        }
      ],
      "stateMutability": "view",
      "type": "function"
    },
    {
      "inputs": [],
      "name": "winner",
      "outputs": [
        {
          "internalType": "address payable",
          "name": "",
          "type": "address"
        }
      ],
      "stateMutability": "view",
      "type": "function"
    },
    {
      "inputs": [
        {
          "internalType": "address",
          "name": "_owner",
          "type": "address"
        },
        {
          "internalType": "string",
          "name": "_title",
          "type": "string"
        },
        {
          "internalType": "string",
          "name": "_description",
          "type": "string"
        },
        {
          "internalType": "uint256",
          "name": "_fee",
          "type": "uint256"
        }
      ],
      "name": "initialize",
      "outputs": [],
      "stateMutability": "nonpayable",
      "type": "function"
    },
    {
      "inputs": [],
      "name": "stopContest",
      "outputs": [],
      "stateMutability": "nonpayable",
      "type": "function"
    },
    {
      "inputs": [],
      "name": "pauseContest",
      "outputs": [],
      "stateMutability": "nonpayable",
      "type": "function"
    },
    {
      "inputs": [],
      "name": "resumeContest",
      "outputs": [],
      "stateMutability": "nonpayable",
      "type": "function"
    },
    {
      "inputs": [],
      "name": "disableParticipation",
      "outputs": [],
      "stateMutability": "nonpayable",
      "type": "function"
    },
    {
      "inputs": [],
      "name": "openVoting",
      "outputs": [],
      "stateMutability": "nonpayable",
      "type": "function"
    },
    {
      "inputs": [],
      "name": "closeVoting",
      "outputs": [],
      "stateMutability": "nonpayable",
      "type": "function"
    },
    {
      "inputs": [
        {
          "internalType": "address",
          "name": "_addr",
          "type": "address"
        },
        {
          "internalType": "uint8",
          "name": "roundNum",
          "type": "uint8"
        }
      ],
      "name": "getContestantVotes",
      "outputs": [
        {
          "internalType": "uint256",
          "name": "",
          "type": "uint256"
        }
      ],
      "stateMutability": "view",
      "type": "function"
    },
    {
      "inputs": [
        {
          "internalType": "bytes32",
          "name": "_name",
          "type": "bytes32"
        },
        {
          "internalType": "string",
          "name": "_performanceLink",
          "type": "string"
        },
        {
          "internalType": "string",
          "name": "_bio",
          "type": "string"
        }
      ],
      "name": "participate",
      "outputs": [],
      "stateMutability": "payable",
      "type": "function"
    },
    {
      "inputs": [
        {
          "internalType": "string",
          "name": "_performanceLink",
          "type": "string"
        }
      ],
      "name": "submitPerformance",
      "outputs": [],
      "stateMutability": "payable",
      "type": "function"
    },
    {
      "inputs": [
        {
          "internalType": "address",
          "name": "_addr",
          "type": "address"
        }
      ],
      "name": "vote",
      "outputs": [],
      "stateMutability": "payable",
      "type": "function"
    },
    {
      "inputs": [],
      "name": "claimReward",
      "outputs": [],
      "stateMutability": "nonpayable",
      "type": "function"
    },
    {
      "inputs": [],
      "name": "getBalance",
      "outputs": [
        {
          "internalType": "uint256",
          "name": "",
          "type": "uint256"
        }
      ],
      "stateMutability": "view",
      "type": "function"
    },
    {
      "inputs": [],
      "name": "getContestDetails",
      "outputs": [
        {
          "internalType": "address",
          "name": "",
          "type": "address"
        },
        {
          "internalType": "string",
          "name": "",
          "type": "string"
        },
        {
          "internalType": "string",
          "name": "",
          "type": "string"
        },
        {
          "internalType": "address",
          "name": "",
          "type": "address"
        },
        {
          "internalType": "uint256",
          "name": "",
          "type": "uint256"
        },
        {
          "internalType": "uint256",
          "name": "",
          "type": "uint256"
        },
        {
          "internalType": "bool",
          "name": "",
          "type": "bool"
        },
        {
          "internalType": "bool",
          "name": "",
          "type": "bool"
        },
        {
          "internalType": "address[][]",
          "name": "",
          "type": "address[][]"
        },
        {
          "internalType": "enum Contest.ContestState",
          "name": "",
          "type": "uint8"
        },
        {
          "internalType": "uint256",
          "name": "",
          "type": "uint256"
        },
        {
          "internalType": "bool",
          "name": "",
          "type": "bool"
        }
      ],
      "stateMutability": "view",
      "type": "function"
    },
    {
      "inputs": [
        {
          "internalType": "address",
          "name": "_addr",
          "type": "address"
        }
      ],
      "name": "getContestantDetails",
      "outputs": [
        {
          "components": [
            {
              "internalType": "bytes32",
              "name": "name",
              "type": "bytes32"
            },
            {
              "internalType": "string",
              "name": "bio",
              "type": "string"
            },
            {
              "internalType": "string[]",
              "name": "performanceLinks",
              "type": "string[]"
            },
            {
              "internalType": "uint256[]",
              "name": "votesReceived",
              "type": "uint256[]"
            },
            {
              "internalType": "uint8",
              "name": "progressedToRound",
              "type": "uint8"
            }
          ],
          "internalType": "struct Contest.Contestant",
          "name": "",
          "type": "tuple"
        },
        {
          "internalType": "address",
          "name": "",
          "type": "address"
        },
        {
          "internalType": "uint8",
          "name": "",
          "type": "uint8"
        },
        {
          "internalType": "bool",
          "name": "",
          "type": "bool"
        },
        {
          "internalType": "address",
          "name": "",
          "type": "address"
        },
        {
          "internalType": "uint256",
          "name": "",
          "type": "uint256"
        },
        {
          "internalType": "bool",
          "name": "",
          "type": "bool"
        }
      ],
      "stateMutability": "view",
      "type": "function"
    }
  ],
  "bytecode": "0x608060405234801561001057600080fd5b50614d17806100206000396000f3fe6080604052600436106101815760003560e01c80637401a93f116100d1578063b5d4b2ab1161008a578063c631b29211610064578063c631b29214610500578063ddca3f4314610517578063dfbf53ae14610542578063e84affa21461056d57610181565b8063b5d4b2ab1461048f578063b88a802f146104a6578063bb60cd7a146104bd57610181565b80637401a93f1461039e578063752d0316146103ba5780638a19c8bc146103f75780638da5cb5b14610422578063a95824b41461044d578063affc06701461047857610181565b80634d12d4b61161013e5780636513c321116101185780636513c3211461031557806367892ac31461032c5780636dd7d8ea146103575780637284e4161461037357610181565b80634d12d4b614610296578063563df4b3146102bf5780636470a639146102d657610181565b806301b62b781461018657806312065fe0146101b157806315da2abb146101dc5780631d19a7cb1461021957806347dae7651461024f5780634a79d50c1461026b575b600080fd5b34801561019257600080fd5b5061019b610584565b6040516101a891906134b7565b60405180910390f35b3480156101bd57600080fd5b506101c6610597565b6040516101d391906134eb565b60405180910390f35b3480156101e857600080fd5b5061020360048036038101906101fe91906135b1565b61059f565b60405161021091906134eb565b60405180910390f35b34801561022557600080fd5b5061022e610671565b6040516102469c9b9a99989796959493929190613890565b60405180910390f35b61026960048036038101906102649190613aca565b61097b565b005b34801561027757600080fd5b50610280610eaa565b60405161028d9190613b55565b60405180910390f35b3480156102a257600080fd5b506102bd60048036038101906102b89190613ba3565b610f38565b005b3480156102cb57600080fd5b506102d4610ffa565b005b3480156102e257600080fd5b506102fd60048036038101906102f89190613c42565b611125565b60405161030c93929190613c8d565b60405180910390f35b34801561032157600080fd5b5061032a6111e4565b005b34801561033857600080fd5b50610341611317565b60405161034e91906134b7565b60405180910390f35b610371600480360381019061036c9190613c42565b61132a565b005b34801561037f57600080fd5b50610388611798565b6040516103959190613b55565b60405180910390f35b6103b860048036038101906103b39190613ccb565b611826565b005b3480156103c657600080fd5b506103e160048036038101906103dc9190613d14565b611b31565b6040516103ee9190613d54565b60405180910390f35b34801561040357600080fd5b5061040c611b8b565b6040516104199190613d6f565b60405180910390f35b34801561042e57600080fd5b50610437611b9e565b6040516104449190613d54565b60405180910390f35b34801561045957600080fd5b50610462611bc4565b60405161046f91906134b7565b60405180910390f35b34801561048457600080fd5b5061048d611bd7565b005b34801561049b57600080fd5b506104a4611de8565b005b3480156104b257600080fd5b506104bb611f1b565b005b3480156104c957600080fd5b506104e460048036038101906104df9190613c42565b6120a6565b6040516104f79796959493929190613ff6565b60405180910390f35b34801561050c57600080fd5b50610515612476565b005b34801561052357600080fd5b5061052c612bb6565b60405161053991906134eb565b60405180910390f35b34801561054e57600080fd5b50610557612bbc565b604051610564919061408d565b60405180910390f35b34801561057957600080fd5b50610582612be2565b005b600560039054906101000a900460ff1681565b600047905090565b60006001826105ae91906140d7565b60ff16600660008573ffffffffffffffffffffffffffffffffffffffff1673ffffffffffffffffffffffffffffffffffffffff168152602001908152602001600020600301805490501015610606576000905061066b565b600660008473ffffffffffffffffffffffffffffffffffffffff1673ffffffffffffffffffffffffffffffffffffffff1681526020019081526020016000206003018260ff168154811061065d5761065c61410e565b5b906000526020600020015490505b92915050565b60006060806000806000806000606060008060008060029054906101000a900473ffffffffffffffffffffffffffffffffffffffff1660026003600160009054906101000a900473ffffffffffffffffffffffffffffffffffffffff16600454600560009054906101000a900460ff16600560029054906101000a900460ff16600560019054906101000a900460ff166007600560049054906101000a900460ff166000600780549050146107555760076000815481106107355761073461410e565b5b9060005260206000200180549050600454610750919061413d565b610758565b60005b600560039054906101000a900460ff168a8054610774906141c6565b80601f01602080910402602001604051908101604052809291908181526020018280546107a0906141c6565b80156107ed5780601f106107c2576101008083540402835291602001916107ed565b820191906000526020600020905b8154815290600101906020018083116107d057829003601f168201915b50505050509a50898054610800906141c6565b80601f016020809104026020016040519081016040528092919081815260200182805461082c906141c6565b80156108795780601f1061084e57610100808354040283529160200191610879565b820191906000526020600020905b81548152906001019060200180831161085c57829003601f168201915b505050505099508660ff16965083805480602002602001604051908101604052809291908181526020016000905b8282101561094f5783829060005260206000200180548060200260200160405190810160405280929190818152602001828054801561093b57602002820191906000526020600020905b8160009054906101000a900473ffffffffffffffffffffffffffffffffffffffff1673ffffffffffffffffffffffffffffffffffffffff16815260200190600101908083116108f1575b5050505050815260200190600101906108a7565b5050505093509b509b509b509b509b509b509b509b509b509b509b509b50909192939495969798999a9b565b6000600281111561098f5761098e613819565b5b600560049054906101000a900460ff1660028111156109b1576109b0613819565b5b146109f1576040517f08c379a00000000000000000000000000000000000000000000000000000000081526004016109e890614244565b60405180910390fd5b600560029054906101000a900460ff16610a40576040517f08c379a0000000000000000000000000000000000000000000000000000000008152600401610a37906142b0565b60405180910390fd5b6004543414610a84576040517f08c379a0000000000000000000000000000000000000000000000000000000008152600401610a7b9061431c565b60405180910390fd5b600060029054906101000a900473ffffffffffffffffffffffffffffffffffffffff1673ffffffffffffffffffffffffffffffffffffffff163373ffffffffffffffffffffffffffffffffffffffff161415610b15576040517f08c379a0000000000000000000000000000000000000000000000000000000008152600401610b0c90614388565b60405180910390fd5b6000600660003373ffffffffffffffffffffffffffffffffffffffff1673ffffffffffffffffffffffffffffffffffffffff1681526020019081526020016000206001018054610b64906141c6565b905014610ba6576040517f08c379a0000000000000000000000000000000000000000000000000000000008152600401610b9d906143f4565b60405180910390fd5b6000602060ff161415610bee576040517f08c379a0000000000000000000000000000000000000000000000000000000008152600401610be590614460565b60405180910390fd5b600082511415610c33576040517f08c379a0000000000000000000000000000000000000000000000000000000008152600401610c2a906144cc565b60405180910390fd5b600081511415610c78576040517f08c379a0000000000000000000000000000000000000000000000000000000008152600401610c6f90614538565b60405180910390fd5b603c81511115610cbd576040517f08c379a0000000000000000000000000000000000000000000000000000000008152600401610cb4906145a4565b60405180910390fd5b60006007805490501415610d0b576060600781908060018154018082558091505060019003906000526020600020016000909190919091509080519060200190610d0892919061333a565b50505b6007600081548110610d2057610d1f61410e565b5b90600052602060002001339080600181540180825580915050600190039060005260206000200160009091909190916101000a81548173ffffffffffffffffffffffffffffffffffffffff021916908373ffffffffffffffffffffffffffffffffffffffff16021790555082600660003373ffffffffffffffffffffffffffffffffffffffff1673ffffffffffffffffffffffffffffffffffffffff16815260200190815260200160002060000181905550600660003373ffffffffffffffffffffffffffffffffffffffff1673ffffffffffffffffffffffffffffffffffffffff16815260200190815260200160002060020182908060018154018082558091505060019003906000526020600020016000909190919091509080519060200190610e4d9291906133c4565b5080600660003373ffffffffffffffffffffffffffffffffffffffff1673ffffffffffffffffffffffffffffffffffffffff1681526020019081526020016000206001019080519060200190610ea49291906133c4565b50505050565b60028054610eb7906141c6565b80601f0160208091040260200160405190810160405280929190818152602001828054610ee3906141c6565b8015610f305780601f10610f0557610100808354040283529160200191610f30565b820191906000526020600020905b815481529060010190602001808311610f1357829003601f168201915b505050505081565b83600060026101000a81548173ffffffffffffffffffffffffffffffffffffffff021916908373ffffffffffffffffffffffffffffffffffffffff1602179055508260029080519060200190610f8f9291906133c4565b508160039080519060200190610fa69291906133c4565b50806004819055506001600560026101000a81548160ff0219169083151502179055506000600560046101000a81548160ff02191690836002811115610fef57610fee613819565b5b021790555050505050565b600060029054906101000a900473ffffffffffffffffffffffffffffffffffffffff1673ffffffffffffffffffffffffffffffffffffffff163373ffffffffffffffffffffffffffffffffffffffff161461108a576040517f08c379a000000000000000000000000000000000000000000000000000000000815260040161108190614610565b60405180910390fd5b6000600281111561109e5761109d613819565b5b600560049054906101000a900460ff1660028111156110c0576110bf613819565b5b14611100576040517f08c379a00000000000000000000000000000000000000000000000000000000081526004016110f790614244565b60405180910390fd5b6000600560026101000a81548160ff021916908315150217905550611123611bd7565b565b600660205280600052604060002060009150905080600001549080600101805461114e906141c6565b80601f016020809104026020016040519081016040528092919081815260200182805461117a906141c6565b80156111c75780601f1061119c576101008083540402835291602001916111c7565b820191906000526020600020905b8154815290600101906020018083116111aa57829003601f168201915b5050505050908060040160009054906101000a900460ff16905083565b600060029054906101000a900473ffffffffffffffffffffffffffffffffffffffff1673ffffffffffffffffffffffffffffffffffffffff163373ffffffffffffffffffffffffffffffffffffffff1614611274576040517f08c379a000000000000000000000000000000000000000000000000000000000815260040161126b90614610565b60405180910390fd5b60028081111561128757611286613819565b5b600560049054906101000a900460ff1660028111156112a9576112a8613819565b5b14156112ea576040517f08c379a00000000000000000000000000000000000000000000000000000000081526004016112e19061467c565b60405180910390fd5b6002600560046101000a81548160ff021916908360028111156113105761130f613819565b5b0217905550565b600560029054906101000a900460ff1681565b6000600281111561133e5761133d613819565b5b600560049054906101000a900460ff1660028111156113605761135f613819565b5b146113a0576040517f08c379a000000000000000000000000000000000000000000000000000000000815260040161139790614244565b60405180910390fd5b600560019054906101000a900460ff166113ef576040517f08c379a00000000000000000000000000000000000000000000000000000000081526004016113e6906146e8565b60405180910390fd5b600060029054906101000a900473ffffffffffffffffffffffffffffffffffffffff1673ffffffffffffffffffffffffffffffffffffffff163373ffffffffffffffffffffffffffffffffffffffff161415611480576040517f08c379a000000000000000000000000000000000000000000000000000000000815260040161147790614388565b60405180910390fd5b8073ffffffffffffffffffffffffffffffffffffffff163373ffffffffffffffffffffffffffffffffffffffff1614156114ef576040517f08c379a00000000000000000000000000000000000000000000000000000000081526004016114e690614754565b60405180910390fd5b6000600660008373ffffffffffffffffffffffffffffffffffffffff1673ffffffffffffffffffffffffffffffffffffffff168152602001908152602001600020600101805461153e906141c6565b90501415611581576040517f08c379a0000000000000000000000000000000000000000000000000000000008152600401611578906147c0565b60405180910390fd5b600560009054906101000a900460ff1660ff16600660008373ffffffffffffffffffffffffffffffffffffffff1673ffffffffffffffffffffffffffffffffffffffff16815260200190815260200160002060040160009054906101000a900460ff1660ff1614611627576040517f08c379a000000000000000000000000000000000000000000000000000000000815260040161161e9061482c565b60405180910390fd5b6001600560009054906101000a900460ff1661164391906140d7565b60ff16600660008373ffffffffffffffffffffffffffffffffffffffff1673ffffffffffffffffffffffffffffffffffffffff16815260200190815260200160002060030180549050146116fc57600660008273ffffffffffffffffffffffffffffffffffffffff1673ffffffffffffffffffffffffffffffffffffffff168152602001908152602001600020600301600090806001815401808255809150506001900390600052602060002001600090919091909150555b600161171782600560009054906101000a900460ff1661059f565b611721919061484c565b600660008373ffffffffffffffffffffffffffffffffffffffff1673ffffffffffffffffffffffffffffffffffffffff168152602001908152602001600020600301600560009054906101000a900460ff1660ff16815481106117875761178661410e565b5b906000526020600020018190555050565b600380546117a5906141c6565b80601f01602080910402602001604051908101604052809291908181526020018280546117d1906141c6565b801561181e5780601f106117f35761010080835404028352916020019161181e565b820191906000526020600020905b81548152906001019060200180831161180157829003601f168201915b505050505081565b6000600281111561183a57611839613819565b5b600560049054906101000a900460ff16600281111561185c5761185b613819565b5b1461189c576040517f08c379a000000000000000000000000000000000000000000000000000000000815260040161189390614244565b60405180910390fd5b6000600660003373ffffffffffffffffffffffffffffffffffffffff1673ffffffffffffffffffffffffffffffffffffffff16815260200190815260200160002060010180546118eb906141c6565b9050141561192e576040517f08c379a0000000000000000000000000000000000000000000000000000000008152600401611925906147c0565b60405180910390fd5b600560009054906101000a900460ff1660ff16600660003373ffffffffffffffffffffffffffffffffffffffff1673ffffffffffffffffffffffffffffffffffffffff16815260200190815260200160002060040160009054906101000a900460ff1660ff16146119d4576040517f08c379a00000000000000000000000000000000000000000000000000000000081526004016119cb9061482c565b60405180910390fd5b600081511415611a19576040517f08c379a0000000000000000000000000000000000000000000000000000000008152600401611a10906148ee565b60405180910390fd5b600560009054906101000a900460ff1660ff16600660003373ffffffffffffffffffffffffffffffffffffffff1673ffffffffffffffffffffffffffffffffffffffff1681526020019081526020016000206002018054905014611ab2576040517f08c379a0000000000000000000000000000000000000000000000000000000008152600401611aa99061495a565b60405180910390fd5b600660003373ffffffffffffffffffffffffffffffffffffffff1673ffffffffffffffffffffffffffffffffffffffff16815260200190815260200160002060020181908060018154018082558091505060019003906000526020600020016000909190919091509080519060200190611b2d9291906133c4565b5050565b60078281548110611b4157600080fd5b906000526020600020018181548110611b5957600080fd5b906000526020600020016000915091509054906101000a900473ffffffffffffffffffffffffffffffffffffffff1681565b600560009054906101000a900460ff1681565b600060029054906101000a900473ffffffffffffffffffffffffffffffffffffffff1681565b600560019054906101000a900460ff1681565b600060029054906101000a900473ffffffffffffffffffffffffffffffffffffffff1673ffffffffffffffffffffffffffffffffffffffff163373ffffffffffffffffffffffffffffffffffffffff1614611c67576040517f08c379a0000000000000000000000000000000000000000000000000000000008152600401611c5e90614610565b60405180910390fd5b60006002811115611c7b57611c7a613819565b5b600560049054906101000a900460ff166002811115611c9d57611c9c613819565b5b14611cdd576040517f08c379a0000000000000000000000000000000000000000000000000000000008152600401611cd490614244565b60405180910390fd5b600560029054906101000a900460ff1615611d2d576040517f08c379a0000000000000000000000000000000000000000000000000000000008152600401611d24906149c6565b60405180910390fd5b60006007600081548110611d4457611d4361410e565b5b906000526020600020018054905011611d92576040517f08c379a0000000000000000000000000000000000000000000000000000000008152600401611d8990614a32565b60405180910390fd5b60016007600081548110611da957611da861410e565b5b90600052602060002001805490501115611ddd576001600560016101000a81548160ff021916908315150217905550611de6565b611de5612d15565b5b565b600060029054906101000a900473ffffffffffffffffffffffffffffffffffffffff1673ffffffffffffffffffffffffffffffffffffffff163373ffffffffffffffffffffffffffffffffffffffff1614611e78576040517f08c379a0000000000000000000000000000000000000000000000000000000008152600401611e6f90614610565b60405180910390fd5b60006002811115611e8c57611e8b613819565b5b600560049054906101000a900460ff166002811115611eae57611ead613819565b5b14611eee576040517f08c379a0000000000000000000000000000000000000000000000000000000008152600401611ee590614244565b60405180910390fd5b6001600560046101000a81548160ff02191690836002811115611f1457611f13613819565b5b0217905550565b600280811115611f2e57611f2d613819565b5b600560049054906101000a900460ff166002811115611f5057611f4f613819565b5b14611f90576040517f08c379a0000000000000000000000000000000000000000000000000000000008152600401611f8790614a9e565b60405180910390fd5b600160009054906101000a900473ffffffffffffffffffffffffffffffffffffffff1673ffffffffffffffffffffffffffffffffffffffff163373ffffffffffffffffffffffffffffffffffffffff1614612020576040517f08c379a000000000000000000000000000000000000000000000000000000000815260040161201790614b0a565b60405180910390fd5b6001600560036101000a81548160ff021916908315150217905550600160009054906101000a900473ffffffffffffffffffffffffffffffffffffffff1673ffffffffffffffffffffffffffffffffffffffff166108fc479081150290604051600060405180830381858888f193505050501580156120a3573d6000803e3d6000fd5b50565b6120ae61344a565b600080600080600080600660008973ffffffffffffffffffffffffffffffffffffffff1673ffffffffffffffffffffffffffffffffffffffff168152602001908152602001600020600060029054906101000a900473ffffffffffffffffffffffffffffffffffffffff16600560009054906101000a900460ff1660001515600560019054906101000a900460ff161515148061217f57506000600281111561215a57612159613819565b5b600560049054906101000a900460ff16600281111561217c5761217b613819565b5b14155b806121ed5750600560009054906101000a900460ff1660ff16600660008d73ffffffffffffffffffffffffffffffffffffffff1673ffffffffffffffffffffffffffffffffffffffff16815260200190815260200160002060040160009054906101000a900460ff1660ff16105b600160009054906101000a900473ffffffffffffffffffffffffffffffffffffffff166000600780549050146122525760076000815481106122325761223161410e565b5b906000526020600020018054905060045461224d919061413d565b612255565b60005b600560039054906101000a900460ff16866040518060a00160405290816000820154815260200160018201805461228b906141c6565b80601f01602080910402602001604051908101604052809291908181526020018280546122b7906141c6565b80156123045780601f106122d957610100808354040283529160200191612304565b820191906000526020600020905b8154815290600101906020018083116122e757829003601f168201915b5050505050815260200160028201805480602002602001604051908101604052809291908181526020016000905b828210156123de578382906000526020600020018054612351906141c6565b80601f016020809104026020016040519081016040528092919081815260200182805461237d906141c6565b80156123ca5780601f1061239f576101008083540402835291602001916123ca565b820191906000526020600020905b8154815290600101906020018083116123ad57829003601f168201915b505050505081526020019060010190612332565b5050505081526020016003820180548060200260200160405190810160405280929190818152602001828054801561243557602002820191906000526020600020905b815481526020019060010190808311612421575b505050505081526020016004820160009054906101000a900460ff1660ff1660ff168152505096509650965096509650965096509650919395979092949650565b600060029054906101000a900473ffffffffffffffffffffffffffffffffffffffff1673ffffffffffffffffffffffffffffffffffffffff163373ffffffffffffffffffffffffffffffffffffffff1614612506576040517f08c379a00000000000000000000000000000000000000000000000000000000081526004016124fd90614610565b60405180910390fd5b6000600281111561251a57612519613819565b5b600560049054906101000a900460ff16600281111561253c5761253b613819565b5b1461257c576040517f08c379a000000000000000000000000000000000000000000000000000000000815260040161257390614244565b60405180910390fd5b600560019054906101000a900460ff166125cb576040517f08c379a00000000000000000000000000000000000000000000000000000000081526004016125c2906146e8565b60405180910390fd5b600560029054906101000a900460ff161561261b576040517f08c379a0000000000000000000000000000000000000000000000000000000008152600401612612906149c6565b60405180910390fd5b6000600560016101000a81548160ff0219169083151502179055506002600760008154811061264d5761264c61410e565b5b90600052602060002001805490501180156126a757506002600760008154811061267a5761267961410e565b5b90600052602060002001805490506126929190614b2a565b600560009054906101000a900460ff1660ff16105b15612bab576000806127376007600560009054906101000a900460ff1660ff16815481106126d8576126d761410e565b5b906000526020600020018360ff16815481106126f7576126f661410e565b5b9060005260206000200160009054906101000a900473ffffffffffffffffffffffffffffffffffffffff16600560009054906101000a900460ff1661059f565b90506000600190505b6007600560009054906101000a900460ff1660ff16815481106127665761276561410e565b5b90600052602060002001805490508160ff1610156128ad57816128076007600560009054906101000a900460ff1660ff16815481106127a8576127a761410e565b5b906000526020600020018360ff16815481106127c7576127c661410e565b5b9060005260206000200160009054906101000a900473ffffffffffffffffffffffffffffffffffffffff16600560009054906101000a900460ff1661059f565b1161289a576128946007600560009054906101000a900460ff1660ff16815481106128355761283461410e565b5b906000526020600020018260ff16815481106128545761285361410e565b5b9060005260206000200160009054906101000a900473ffffffffffffffffffffffffffffffffffffffff16600560009054906101000a900460ff1661059f565b91508092505b80806128a590614b5e565b915050612740565b5060005b6007600560009054906101000a900460ff1660ff16815481106128d7576128d661410e565b5b90600052602060002001805490508160ff161015612b6b578260ff168160ff1614612b58576001600560009054906101000a900460ff1661291891906140d7565b60ff166007805490501161296657606060078190806001815401808255809150506001900390600052602060002001600090919091909150908051906020019061296392919061333a565b50505b60076001600560009054906101000a900460ff1661298491906140d7565b60ff16815481106129985761299761410e565b5b906000526020600020016007600560009054906101000a900460ff1660ff16815481106129c8576129c761410e565b5b906000526020600020018260ff16815481106129e7576129e661410e565b5b9060005260206000200160009054906101000a900473ffffffffffffffffffffffffffffffffffffffff169080600181540180825580915050600190039060005260206000200160009091909190916101000a81548173ffffffffffffffffffffffffffffffffffffffff021916908373ffffffffffffffffffffffffffffffffffffffff1602179055506001600560009054906101000a900460ff16612a8e91906140d7565b600660006007600560009054906101000a900460ff1660ff1681548110612ab857612ab761410e565b5b906000526020600020018460ff1681548110612ad757612ad661410e565b5b9060005260206000200160009054906101000a900473ffffffffffffffffffffffffffffffffffffffff1673ffffffffffffffffffffffffffffffffffffffff1673ffffffffffffffffffffffffffffffffffffffff16815260200190815260200160002060040160006101000a81548160ff021916908360ff1602179055505b8080612b6390614b5e565b9150506128b1565b506005600081819054906101000a900460ff1680929190612b8b90614b5e565b91906101000a81548160ff021916908360ff160217905550505050612bb4565b612bb3612d15565b5b565b60045481565b600160009054906101000a900473ffffffffffffffffffffffffffffffffffffffff1681565b600060029054906101000a900473ffffffffffffffffffffffffffffffffffffffff1673ffffffffffffffffffffffffffffffffffffffff163373ffffffffffffffffffffffffffffffffffffffff1614612c72576040517f08c379a0000000000000000000000000000000000000000000000000000000008152600401612c6990614610565b60405180910390fd5b60016002811115612c8657612c85613819565b5b600560049054906101000a900460ff166002811115612ca857612ca7613819565b5b14612ce8576040517f08c379a0000000000000000000000000000000000000000000000000000000008152600401612cdf90614bd4565b60405180910390fd5b6000600560046101000a81548160ff02191690836002811115612d0e57612d0d613819565b5b0217905550565b60006002811115612d2957612d28613819565b5b600560049054906101000a900460ff166002811115612d4b57612d4a613819565b5b14612d8b576040517f08c379a0000000000000000000000000000000000000000000000000000000008152600401612d8290614244565b60405180910390fd5b60006007600081548110612da257612da161410e565b5b906000526020600020018054905011612df0576040517f08c379a0000000000000000000000000000000000000000000000000000000008152600401612de790614a32565b60405180910390fd5b6000600560009054906101000a900460ff1660ff16148015612e34575060016007600081548110612e2457612e2361410e565b5b9060005260206000200180549050145b15612edb576007600081548110612e4e57612e4d61410e565b5b90600052602060002001600081548110612e6b57612e6a61410e565b5b9060005260206000200160009054906101000a900473ffffffffffffffffffffffffffffffffffffffff16600160006101000a81548173ffffffffffffffffffffffffffffffffffffffff021916908373ffffffffffffffffffffffffffffffffffffffff16021790555061330d565b60008060005b600560009054906101000a900460ff1660ff168160ff161161306457612f746007600560009054906101000a900460ff1660ff1681548110612f2657612f2561410e565b5b90600052602060002001600081548110612f4357612f4261410e565b5b9060005260206000200160009054906101000a900473ffffffffffffffffffffffffffffffffffffffff168261059f565b600182612f8191906140d7565b6002612f8d9190614bf4565b60ff16612f9a919061413d565b83612fa5919061484c565b925061301e6007600560009054906101000a900460ff1660ff1681548110612fd057612fcf61410e565b5b90600052602060002001600181548110612fed57612fec61410e565b5b9060005260206000200160009054906101000a900473ffffffffffffffffffffffffffffffffffffffff168261059f565b60018261302b91906140d7565b60026130379190614bf4565b60ff16613044919061413d565b8261304f919061484c565b9150808061305c90614b5e565b915050612ee1565b5081811115613120576007600560009054906101000a900460ff1660ff16815481106130935761309261410e565b5b906000526020600020016001815481106130b0576130af61410e565b5b9060005260206000200160009054906101000a900473ffffffffffffffffffffffffffffffffffffffff16600160006101000a81548173ffffffffffffffffffffffffffffffffffffffff021916908373ffffffffffffffffffffffffffffffffffffffff1602179055506131cf565b6007600560009054906101000a900460ff1660ff16815481106131465761314561410e565b5b906000526020600020016000815481106131635761316261410e565b5b9060005260206000200160009054906101000a900473ffffffffffffffffffffffffffffffffffffffff16600160006101000a81548173ffffffffffffffffffffffffffffffffffffffff021916908373ffffffffffffffffffffffffffffffffffffffff1602179055505b7fd9c870fb6a3c7dfe2f959c208b16e0871ea3a696f22aa94222800cae6e9718466007600560009054906101000a900460ff1660ff16815481106132165761321561410e565b5b906000526020600020016000815481106132335761323261410e565b5b9060005260206000200160009054906101000a900473ffffffffffffffffffffffffffffffffffffffff16836007600560009054906101000a900460ff1660ff16815481106132855761328461410e565b5b906000526020600020016001815481106132a2576132a161410e565b5b9060005260206000200160009054906101000a900473ffffffffffffffffffffffffffffffffffffffff1684600160009054906101000a900473ffffffffffffffffffffffffffffffffffffffff16604051613302959493929190614c8e565b60405180910390a150505b6002600560046101000a81548160ff0219169083600281111561333357613332613819565b5b0217905550565b8280548282559060005260206000209081019282156133b3579160200282015b828111156133b25782518260006101000a81548173ffffffffffffffffffffffffffffffffffffffff021916908373ffffffffffffffffffffffffffffffffffffffff1602179055509160200191906001019061335a565b5b5090506133c0919061347f565b5090565b8280546133d0906141c6565b90600052602060002090601f0160209004810192826133f25760008555613439565b82601f1061340b57805160ff1916838001178555613439565b82800160010185558215613439579182015b8281111561343857825182559160200191906001019061341d565b5b509050613446919061347f565b5090565b6040518060a0016040528060008019168152602001606081526020016060815260200160608152602001600060ff1681525090565b5b80821115613498576000816000905550600101613480565b5090565b60008115159050919050565b6134b18161349c565b82525050565b60006020820190506134cc60008301846134a8565b92915050565b6000819050919050565b6134e5816134d2565b82525050565b600060208201905061350060008301846134dc565b92915050565b6000604051905090565b600080fd5b600080fd5b600073ffffffffffffffffffffffffffffffffffffffff82169050919050565b60006135458261351a565b9050919050565b6135558161353a565b811461356057600080fd5b50565b6000813590506135728161354c565b92915050565b600060ff82169050919050565b61358e81613578565b811461359957600080fd5b50565b6000813590506135ab81613585565b92915050565b600080604083850312156135c8576135c7613510565b5b60006135d685828601613563565b92505060206135e78582860161359c565b9150509250929050565b6135fa8161353a565b82525050565b600081519050919050565b600082825260208201905092915050565b60005b8381101561363a57808201518184015260208101905061361f565b83811115613649576000848401525b50505050565b6000601f19601f8301169050919050565b600061366b82613600565b613675818561360b565b935061368581856020860161361c565b61368e8161364f565b840191505092915050565b600081519050919050565b600082825260208201905092915050565b6000819050602082019050919050565b600081519050919050565b600082825260208201905092915050565b6000819050602082019050919050565b6136fa8161353a565b82525050565b600061370c83836136f1565b60208301905092915050565b6000602082019050919050565b6000613730826136c5565b61373a81856136d0565b9350613745836136e1565b8060005b8381101561377657815161375d8882613700565b975061376883613718565b925050600181019050613749565b5085935050505092915050565b600061378f8383613725565b905092915050565b6000602082019050919050565b60006137af82613699565b6137b981856136a4565b9350836020820285016137cb856136b5565b8060005b8581101561380757848403895281516137e88582613783565b94506137f383613797565b925060208a019950506001810190506137cf565b50829750879550505050505092915050565b7f4e487b7100000000000000000000000000000000000000000000000000000000600052602160045260246000fd5b6003811061385957613858613819565b5b50565b600081905061386a82613848565b919050565b600061387a8261385c565b9050919050565b61388a8161386f565b82525050565b6000610180820190506138a6600083018f6135f1565b81810360208301526138b8818e613660565b905081810360408301526138cc818d613660565b90506138db606083018c6135f1565b6138e8608083018b6134dc565b6138f560a083018a6134dc565b61390260c08301896134a8565b61390f60e08301886134a8565b81810361010083015261392281876137a4565b9050613932610120830186613881565b6139406101408301856134dc565b61394e6101608301846134a8565b9d9c50505050505050505050505050565b6000819050919050565b6139728161395f565b811461397d57600080fd5b50565b60008135905061398f81613969565b92915050565b600080fd5b600080fd5b7f4e487b7100000000000000000000000000000000000000000000000000000000600052604160045260246000fd5b6139d78261364f565b810181811067ffffffffffffffff821117156139f6576139f561399f565b5b80604052505050565b6000613a09613506565b9050613a1582826139ce565b919050565b600067ffffffffffffffff821115613a3557613a3461399f565b5b613a3e8261364f565b9050602081019050919050565b82818337600083830152505050565b6000613a6d613a6884613a1a565b6139ff565b905082815260208101848484011115613a8957613a8861399a565b5b613a94848285613a4b565b509392505050565b600082601f830112613ab157613ab0613995565b5b8135613ac1848260208601613a5a565b91505092915050565b600080600060608486031215613ae357613ae2613510565b5b6000613af186828701613980565b935050602084013567ffffffffffffffff811115613b1257613b11613515565b5b613b1e86828701613a9c565b925050604084013567ffffffffffffffff811115613b3f57613b3e613515565b5b613b4b86828701613a9c565b9150509250925092565b60006020820190508181036000830152613b6f8184613660565b905092915050565b613b80816134d2565b8114613b8b57600080fd5b50565b600081359050613b9d81613b77565b92915050565b60008060008060808587031215613bbd57613bbc613510565b5b6000613bcb87828801613563565b945050602085013567ffffffffffffffff811115613bec57613beb613515565b5b613bf887828801613a9c565b935050604085013567ffffffffffffffff811115613c1957613c18613515565b5b613c2587828801613a9c565b9250506060613c3687828801613b8e565b91505092959194509250565b600060208284031215613c5857613c57613510565b5b6000613c6684828501613563565b91505092915050565b613c788161395f565b82525050565b613c8781613578565b82525050565b6000606082019050613ca26000830186613c6f565b8181036020830152613cb48185613660565b9050613cc36040830184613c7e565b949350505050565b600060208284031215613ce157613ce0613510565b5b600082013567ffffffffffffffff811115613cff57613cfe613515565b5b613d0b84828501613a9c565b91505092915050565b60008060408385031215613d2b57613d2a613510565b5b6000613d3985828601613b8e565b9250506020613d4a85828601613b8e565b9150509250929050565b6000602082019050613d6960008301846135f1565b92915050565b6000602082019050613d846000830184613c7e565b92915050565b613d938161395f565b82525050565b600082825260208201905092915050565b6000613db582613600565b613dbf8185613d99565b9350613dcf81856020860161361c565b613dd88161364f565b840191505092915050565b600081519050919050565b600082825260208201905092915050565b6000819050602082019050919050565b6000613e1b8383613daa565b905092915050565b6000602082019050919050565b6000613e3b82613de3565b613e458185613dee565b935083602082028501613e5785613dff565b8060005b85811015613e935784840389528151613e748582613e0f565b9450613e7f83613e23565b925060208a01995050600181019050613e5b565b50829750879550505050505092915050565b600081519050919050565b600082825260208201905092915050565b6000819050602082019050919050565b613eda816134d2565b82525050565b6000613eec8383613ed1565b60208301905092915050565b6000602082019050919050565b6000613f1082613ea5565b613f1a8185613eb0565b9350613f2583613ec1565b8060005b83811015613f56578151613f3d8882613ee0565b9750613f4883613ef8565b925050600181019050613f29565b5085935050505092915050565b613f6c81613578565b82525050565b600060a083016000830151613f8a6000860182613d8a565b5060208301518482036020860152613fa28282613daa565b91505060408301518482036040860152613fbc8282613e30565b91505060608301518482036060860152613fd68282613f05565b9150506080830151613feb6080860182613f63565b508091505092915050565b600060e0820190508181036000830152614010818a613f72565b905061401f60208301896135f1565b61402c6040830188613c7e565b61403960608301876134a8565b61404660808301866135f1565b61405360a08301856134dc565b61406060c08301846134a8565b98975050505050505050565b60006140778261351a565b9050919050565b6140878161406c565b82525050565b60006020820190506140a2600083018461407e565b92915050565b7f4e487b7100000000000000000000000000000000000000000000000000000000600052601160045260246000fd5b60006140e282613578565b91506140ed83613578565b92508260ff03821115614103576141026140a8565b5b828201905092915050565b7f4e487b7100000000000000000000000000000000000000000000000000000000600052603260045260246000fd5b6000614148826134d2565b9150614153836134d2565b9250817fffffffffffffffffffffffffffffffffffffffffffffffffffffffffffffffff048311821515161561418c5761418b6140a8565b5b828202905092915050565b7f4e487b7100000000000000000000000000000000000000000000000000000000600052602260045260246000fd5b600060028204905060018216806141de57607f821691505b602082108114156141f2576141f1614197565b5b50919050565b7f5f5f5f4e4f545f52554e4e494e475f5f5f000000000000000000000000000000600082015250565b600061422e60118361360b565b9150614239826141f8565b602082019050919050565b6000602082019050818103600083015261425d81614221565b9050919050565b7f5f5f5f50415254494349504154494f4e5f434c4f5345445f5f5f000000000000600082015250565b600061429a601a8361360b565b91506142a582614264565b602082019050919050565b600060208201905081810360008301526142c98161428d565b9050919050565b7f5f5f5f4645455f5f5f0000000000000000000000000000000000000000000000600082015250565b600061430660098361360b565b9150614311826142d0565b602082019050919050565b60006020820190508181036000830152614335816142f9565b9050919050565b7f5f5f5f4e4f5f41444d494e5f5f5f000000000000000000000000000000000000600082015250565b6000614372600e8361360b565b915061437d8261433c565b602082019050919050565b600060208201905081810360008301526143a181614365565b9050919050565b7f5f5f5f4558495354494e475f5f5f000000000000000000000000000000000000600082015250565b60006143de600e8361360b565b91506143e9826143a8565b602082019050919050565b6000602082019050818103600083015261440d816143d1565b9050919050565b7f5f5f5f454d5054595f4e414d455f5f5f00000000000000000000000000000000600082015250565b600061444a60108361360b565b915061445582614414565b602082019050919050565b600060208201905081810360008301526144798161443d565b9050919050565b7f5f5f5f454d4f54595f4c494e4b5f5f5f00000000000000000000000000000000600082015250565b60006144b660108361360b565b91506144c182614480565b602082019050919050565b600060208201905081810360008301526144e5816144a9565b9050919050565b7f5f5f5f454d5054595f42494f5f5f5f0000000000000000000000000000000000600082015250565b6000614522600f8361360b565b915061452d826144ec565b602082019050919050565b6000602082019050818103600083015261455181614515565b9050919050565b7f5f5f5f4c4f4e475f42494f5f5f5f000000000000000000000000000000000000600082015250565b600061458e600e8361360b565b915061459982614558565b602082019050919050565b600060208201905081810360008301526145bd81614581565b9050919050565b7f5f5f5f4f4e4c595f4f574e45525f5f5f00000000000000000000000000000000600082015250565b60006145fa60108361360b565b9150614605826145c4565b602082019050919050565b60006020820190508181036000830152614629816145ed565b9050919050565b7f5f5f5f46494e49534845445f5f5f000000000000000000000000000000000000600082015250565b6000614666600e8361360b565b915061467182614630565b602082019050919050565b6000602082019050818103600083015261469581614659565b9050919050565b7f5f5f5f564f54494e475f434c4f5345445f5f5f00000000000000000000000000600082015250565b60006146d260138361360b565b91506146dd8261469c565b602082019050919050565b60006020820190508181036000830152614701816146c5565b9050919050565b7f5f5f5f4e4f5f53454c465f5f5f00000000000000000000000000000000000000600082015250565b600061473e600d8361360b565b915061474982614708565b602082019050919050565b6000602082019050818103600083015261476d81614731565b9050919050565b7f5f5f5f494e56414c49445f434f4e54455354414e545f5f5f0000000000000000600082015250565b60006147aa60188361360b565b91506147b582614774565b602082019050919050565b600060208201905081810360008301526147d98161479d565b9050919050565b7f5f5f5f454c494d494e415445445f5f5f00000000000000000000000000000000600082015250565b600061481660108361360b565b9150614821826147e0565b602082019050919050565b6000602082019050818103600083015261484581614809565b9050919050565b6000614857826134d2565b9150614862836134d2565b9250827fffffffffffffffffffffffffffffffffffffffffffffffffffffffffffffffff03821115614897576148966140a8565b5b828201905092915050565b7f5f5f5f454d5054595f4c494e4b5f5f5f00000000000000000000000000000000600082015250565b60006148d860108361360b565b91506148e3826148a2565b602082019050919050565b60006020820190508181036000830152614907816148cb565b9050919050565b7f5f5f5f5355424d49545445445f5f5f0000000000000000000000000000000000600082015250565b6000614944600f8361360b565b915061494f8261490e565b602082019050919050565b6000602082019050818103600083015261497381614937565b9050919050565b7f5f5f5f50415254494349504154494f4e5f4f50454e5f5f5f0000000000000000600082015250565b60006149b060188361360b565b91506149bb8261497a565b602082019050919050565b600060208201905081810360008301526149df816149a3565b9050919050565b7f5f5f5f4e4f5f434f4e54455354414e54535f5f5f000000000000000000000000600082015250565b6000614a1c60148361360b565b9150614a27826149e6565b602082019050919050565b60006020820190508181036000830152614a4b81614a0f565b9050919050565b7f5f5f5f4e4f545f46494e49534845445f5f5f0000000000000000000000000000600082015250565b6000614a8860128361360b565b9150614a9382614a52565b602082019050919050565b60006020820190508181036000830152614ab781614a7b565b9050919050565b7f5f5f5f4e4f545f57494e4e45525f5f5f00000000000000000000000000000000600082015250565b6000614af460108361360b565b9150614aff82614abe565b602082019050919050565b60006020820190508181036000830152614b2381614ae7565b9050919050565b6000614b35826134d2565b9150614b40836134d2565b925082821015614b5357614b526140a8565b5b828203905092915050565b6000614b6982613578565b915060ff821415614b7d57614b7c6140a8565b5b600182019050919050565b7f5f5f5f4e4f545f5041555345445f5f5f00000000000000000000000000000000600082015250565b6000614bbe60108361360b565b9150614bc982614b88565b602082019050919050565b60006020820190508181036000830152614bed81614bb1565b9050919050565b6000614bff82613578565b9150614c0a83613578565b92508160ff0483118215151615614c2457614c236140a8565b5b828202905092915050565b6000819050919050565b6000614c54614c4f614c4a8461351a565b614c2f565b61351a565b9050919050565b6000614c6682614c39565b9050919050565b6000614c7882614c5b565b9050919050565b614c8881614c6d565b82525050565b600060a082019050614ca360008301886135f1565b614cb060208301876134dc565b614cbd60408301866135f1565b614cca60608301856134dc565b614cd76080830184614c7f565b969550505050505056fea2646970667358221220914dc2342ebf00f2f9037e6ebaa946738278bca327855fd410c2ef835b7ec57a64736f6c634300080a0033",
  "immutableReferences": {},
  "source": "//SPDX-License-Identifier: MIT\npragma solidity 0.8.10;\nimport \"@openzeppelin/contracts/proxy/utils/Initializable.sol\";\n\ncontract Contest is Initializable {\n    address public owner;\n    address payable public winner;\n    string public title;\n    string public description;\n\n    //uint8 public constant NUM_ALLOWED_PARTICIPANTS = 4;\n    uint256 public fee;\n    uint8 public currentRound;\n\n    bool public votingOpen;\n    bool public participationOpen;\n    bool public rewardClaimed;\n\n    enum ContestState {\n        RUNNING,\n        PAUSED,\n        FINISHED\n    }\n    ContestState state;\n\n    struct Contestant {\n        bytes32 name;\n        string bio;\n        string[] performanceLinks;\n        uint256[] votesReceived;\n        uint8 progressedToRound;\n    }\n    mapping(address => Contestant) public contestants;\n    //address[][NUM_ALLOWED_PARTICIPANTS] public qualifiers;\n    address[][] public qualifiers;\n\n\n    // Voting opened for a round\n    event VotingOpened(uint8 round);\n\n    // Voting closed for a round\n    event VotingClosed(uint8 round);\n\n    // Winner picked\n    event WinnerPicked(address _addr1, uint256 _votes1, address _addr2, uint256 _votes2, address _winner);\n\n    function initialize(\n        address _owner,\n        string memory _title,\n        string memory _description,\n        uint256 _fee\n    ) external {\n        //__ERC721_init(_name, _symbol);\n        owner = _owner;\n        title = _title;\n        description = _description;\n        fee = _fee;\n        participationOpen = true;\n        state = ContestState.RUNNING;\n    }\n\n    modifier isOwner() {\n        require(msg.sender == owner, \"___ONLY_OWNER___\");\n        _;\n    }\n\n    modifier isRunning() {\n        require(state == ContestState.RUNNING, \"___NOT_RUNNING___\");\n        _;\n    }\n\n    modifier isPaused() {\n        require(state == ContestState.PAUSED, \"___NOT_PAUSED___\");\n        _;\n    }\n\n    function stopContest() public isOwner {\n        require(state != ContestState.FINISHED, \"___FINISHED___\");\n        state = ContestState.FINISHED;\n    }\n\n    function pauseContest() public isOwner isRunning {\n        state = ContestState.PAUSED;\n    }\n\n    function resumeContest() public isOwner isPaused {\n        state = ContestState.RUNNING;\n    }\n\n    /*function enableParticipation() public isOwner isRunning {\n        participationOpen = true;\n    }*/\n\n    function disableParticipation() public isOwner isRunning {\n        participationOpen = false;\n        //votingOpen = true;\n        openVoting();\n    }\n\n    function openVoting() public isOwner isRunning {\n        require(!participationOpen, \"___PARTICIPATION_OPEN___\");\n        //require( qualifiers[0].length == NUM_ALLOWED_PARTICIPANTS, \"Not enough participants\" );\n        require(qualifiers[0].length > 0, \"___NO_CONTESTANTS___\");\n        if (qualifiers[0].length > 1) {\n            votingOpen = true;\n        } else {\n            pickWinner();\n        }\n    }\n\n    function closeVoting() public isOwner isRunning {\n        require(votingOpen, \"___VOTING_CLOSED___\");\n        require(!participationOpen, \"___PARTICIPATION_OPEN___\");\n        votingOpen = false;\n\n        /*\n         * Max. Rounds = NUM_PARTICIPANTS - 1\n         * So, for 4 participants, max rounds = 3 => R0, R1, R2\n         * So, we count votes of the current round and eliminate\n         * the person with the lowest votes.\n         * Except for the Final Round.\n         * For final round, we have an algorthm that takes into\n         * consideration weighted votes from all the rounds.\n         */\n        //uint8 total_rounds = NUM_ALLOWED_PARTICIPANTS - 1;\n\n        //if (currentRound < total_rounds - 1) {\n        if ( (qualifiers[0].length > 2) && (currentRound < qualifiers[0].length - 2) ) {\n            uint8 index = 0;\n            //uint256 tmpLowestVotes = contestants[ qualifiers[currentRound][index] ].votesReceived[currentRound];\n            uint256 tmpLowestVotes = getContestantVotes(qualifiers[currentRound][index], currentRound);\n\n            for (uint8 i = 1; i < qualifiers[currentRound].length; i++) {\n                //TODO: Right now, I haven't accounted for a scenario when 2 contestants\n                // have equal scores. So, using <= instead of < , for now\n                //if ( contestants[qualifiers[currentRound][i]].votesReceived[ currentRound ] <= tmpLowestVotes ) {\n                if ( getContestantVotes(qualifiers[currentRound][i], currentRound) <= tmpLowestVotes ) {\n                    //tmpLowestVotes = contestants[qualifiers[currentRound][i]] .votesReceived[currentRound];\n                    tmpLowestVotes = getContestantVotes(qualifiers[currentRound][i], currentRound);\n                    index = i;\n                }\n            }\n\n            for (uint8 i = 0; i < qualifiers[currentRound].length; i++) {\n                //Skip the one with the lowest votes\n                if (i != index) {\n                    //if (qualifiers[currentRound + 1].length == 0) {\n                    if (qualifiers.length <= currentRound + 1) {\n                        address[] memory a;\n                        qualifiers.push(a);\n                    }\n\n                    qualifiers[currentRound + 1].push( qualifiers[currentRound][i] );\n                    \n                    contestants[qualifiers[currentRound][i]].progressedToRound = currentRound + 1;\n                }\n            }\n            currentRound++;\n        } else {\n            pickWinner();\n        }\n    }\n\n    function pickWinner() private isRunning {\n        /*\n         * For final score, we use weighted scores of all the roundsWeighted\n         * final score = 60% x final (3rd) Round + 30% x 2nd round + 10% x 1st round\n         */\n        /*uint256[4] storage finalistOneAllVotes = contestants[qualifiers[2][0]].votesReceived;\n        uint256 finalistOneFinalScore = 60 * finalistOneAllVotes[2] + 30 * finalistOneAllVotes[1] + 10 * finalistOneAllVotes[0];\n\n        uint256[4] storage finalistTwoAllVotes = contestants[qualifiers[2][1]].votesReceived;\n        uint256 finalistTwoFinalScore = 60 * finalistTwoAllVotes[2] + 30 * finalistTwoAllVotes[1] + 10 * finalistTwoAllVotes[0];*/\n\n        require(qualifiers[0].length > 0, \"___NO_CONTESTANTS___\");\n\n        if (currentRound == 0 && qualifiers[0].length == 1) {\n            winner = payable(qualifiers[0][0]);\n        } else {\n            uint256 finalistOneFinalScore = 0;\n            uint256 finalistTwoFinalScore = 0;\n            for (uint8 i = 0; i <= currentRound; i++) {\n                //finalistOneFinalScore += 2 * i * contestants[qualifiers[currentRound][0]].votesReceived[i];\n                finalistOneFinalScore += 2 * (i + 1) * getContestantVotes(qualifiers[currentRound][0], i);\n                //finalistTwoFinalScore += 2 * i * contestants[qualifiers[currentRound][1]].votesReceived[i];\n                finalistTwoFinalScore += 2 * (i + 1)* getContestantVotes(qualifiers[currentRound][1], i);\n            }\n\n            if (finalistTwoFinalScore > finalistOneFinalScore) {\n                winner = payable(qualifiers[currentRound][1]);\n            } else {\n                winner = payable(qualifiers[currentRound][0]);\n            }\n            emit WinnerPicked(qualifiers[currentRound][0], finalistOneFinalScore, qualifiers[currentRound][1], finalistTwoFinalScore, winner);\n        }\n        state = ContestState.FINISHED;\n    }\n\n    function getContestantVotes(address _addr, uint8 roundNum) public view returns (uint256) {\n        if(contestants[_addr].votesReceived.length < roundNum + 1) {\n            return 0;\n            //return 11;\n        }\n        else {\n            return contestants[_addr].votesReceived[roundNum];\n            //return 7;\n        }\n    }\n\n    function uint2str(uint256 _i)\n        internal\n        pure\n        returns (string memory _uintAsString)\n    {\n        if (_i == 0) {\n            return \"0\";\n        }\n        uint256 j = _i;\n        uint256 len;\n        while (j != 0) {\n            len++;\n            j /= 10;\n        }\n        bytes memory bstr = new bytes(len);\n        uint256 k = len;\n        while (_i != 0) {\n            k = k - 1;\n            uint8 temp = (48 + uint8(_i - (_i / 10) * 10));\n            bytes1 b1 = bytes1(temp);\n            bstr[k] = b1;\n            _i /= 10;\n        }\n        return string(bstr);\n    }\n\n    function participate(\n        bytes32 _name,\n        string memory _performanceLink,\n        string memory _bio\n    ) public payable isRunning {\n        require(participationOpen, \"___PARTICIPATION_CLOSED___\");\n        require(msg.value == fee, \"___FEE___\");\n        require(msg.sender != owner, \"___NO_ADMIN___\");\n        require(\n            bytes(contestants[msg.sender].bio).length == 0,\n            \"___EXISTING___\"\n        );\n        //require( qualifiers[0].length < NUM_ALLOWED_PARTICIPANTS, \"Maximum participants reached\" );\n        require(_name.length != 0, \"___EMPTY_NAME___\");\n        require(bytes(_performanceLink).length != 0, \"___EMOTY_LINK___\");\n        require(bytes(_bio).length != 0, \"___EMPTY_BIO___\");\n        require(bytes(_bio).length <= 60, \"___LONG_BIO___\");\n\n        if (qualifiers.length == 0) {\n            address[] memory a;\n            qualifiers.push(a);\n        }\n        qualifiers[0].push(msg.sender);\n        contestants[msg.sender].name = _name;\n        //contestants[msg.sender].performanceLinks[currentRound] = _performanceLink;\n        contestants[msg.sender].performanceLinks.push(_performanceLink);\n        contestants[msg.sender].bio = _bio;\n\n        /*\n         * If we have reached NUM_ALLOWED_PARTICIPANTS contestants now,\n         * disable further participantion and notify the UI\n         */\n        /*if (qualifiers[0].length == NUM_ALLOWED_PARTICIPANTS) {\n            participationOpen = false;\n            emit ContestClosedForParticipation(msg.sender);\n        }*/\n    }\n\n    function submitPerformance(string memory _performanceLink)\n        public\n        payable\n        isRunning\n    {\n        //require(participationOpen, \"___PARTICIPATION_CLOSED___\");\n        //require( qualifiers[0].length < NUM_ALLOWED_PARTICIPANTS, \"Maximum participants reached\" );\n        require(\n            bytes(contestants[msg.sender].bio).length != 0,\n            \"___INVALID_CONTESTANT___\"\n        );\n        require(\n            contestants[msg.sender].progressedToRound == currentRound,\n            \"___ELIMINATED___\"\n        );\n        require(bytes(_performanceLink).length != 0, \"___EMPTY_LINK___\");\n        require(\n            contestants[msg.sender].performanceLinks.length == currentRound,\n            \"___SUBMITTED___\"\n        );\n\n        //contestants[msg.sender].performanceLinks[currentRound] = _performanceLink;\n        contestants[msg.sender].performanceLinks.push(_performanceLink);\n    }\n\n    function vote(address _addr) public payable isRunning {\n        require(votingOpen, \"___VOTING_CLOSED___\");\n        require(msg.sender != owner, \"___NO_ADMIN___\");\n        require(msg.sender != _addr, \"___NO_SELF___\");\n        require(\n            bytes(contestants[_addr].bio).length != 0,\n            \"___INVALID_CONTESTANT___\"\n        );\n        require(\n            contestants[_addr].progressedToRound == currentRound,\n            \"___ELIMINATED___\"\n        );\n        //also check whether the contestant has advanced to this round or not\n        //contestants[_addr].votesReceived[currentRound] += 1;\n        if (contestants[_addr].votesReceived.length != currentRound + 1) {\n            contestants[_addr].votesReceived.push(0);\n        }\n        contestants[_addr].votesReceived[currentRound] = getContestantVotes(_addr, currentRound) + 1;\n    }\n\n    function claimReward() public {\n        require(state == ContestState.FINISHED, \"___NOT_FINISHED___\");\n        require(msg.sender == winner, \"___NOT_WINNER___\");\n        rewardClaimed = true;\n        winner.transfer(address(this).balance);\n    }\n\n    function getBalance() public view returns (uint256) {\n        return address(this).balance;\n    }\n\n    function getContestDetails()\n        public\n        view\n        returns (\n            address,\n            string memory,\n            string memory,\n            address,\n            //uint8,\n            uint256,\n            uint256,\n            bool,\n            bool,\n            //address[][NUM_ALLOWED_PARTICIPANTS] memory,\n            address[][] memory,\n            ContestState,\n            uint256,\n            bool\n        )\n    {\n        return (\n            owner,\n            title,\n            description,\n            winner,\n            //NUM_ALLOWED_PARTICIPANTS,\n            fee,\n            currentRound,\n            participationOpen,\n            votingOpen,\n            qualifiers,\n            state,\n            //address(this).balance,\n            ((qualifiers.length == 0) ? 0 : fee * uint256(qualifiers[0].length)),\n            rewardClaimed\n        );\n    }\n\n    function getContestantDetails(address _addr)\n        public\n        view\n        returns (\n            Contestant memory,\n            address,\n            uint8,\n            bool,\n            address,\n            uint256,\n            bool\n        )\n    {\n        return (\n            contestants[_addr],\n            owner,\n            currentRound,\n            (\n                votingOpen == false || state != ContestState.RUNNING || \n                (contestants[_addr].progressedToRound < currentRound)\n            ),\n            winner,\n            ((qualifiers.length == 0) ? 0 : fee * uint256(qualifiers[0].length)),\n            rewardClaimed\n        );\n    }\n}\n",
  "sourcePath": "/home/shariqkhanfreelancer/Workspace/BLOCKCHAIN/Solidity/BlockStar/contracts/Contest.sol",
  "compiler": {
    "name": "solc",
    "version": "0.8.10+commit.fc410830.Emscripten.clang"
  },
  "schemaVersion": "3.4.7",
  "updatedAt": "2022-08-23T15:31:07.740Z",
  "devdoc": {
    "kind": "dev",
    "methods": {},
    "version": 1
  },
  "userdoc": {
    "kind": "user",
    "methods": {},
    "version": 1
  }
}